:020000040800F2
:10000000100700200101000813200008551D0008FA
:100010001120000851030008F92600080000000024
:10002000000000000000000000000000C5210008E2
:100030001F0400080000000035200008C721000848
:100040001B0100081B0100081B0100081B01000820
:100050001B0100081B0100081B0100081B01000810
:100060001B0100081B0100081B0100081B01000800
:10007000C5030008D1030008DD0300081B010008C8
:10008000E90300081B0100081B0100081B01000810
:100090009D2600081B0100081B0100081B01000829
:1000A0001B0100081B0100081B0100081B010008C0
:1000B0001B0100081B0100081B0100081B010008B0
:1000C0001B0100081B0100081B0100081B010008A0
:1000D0001B010008D9250008E52500081B010008C0
:1000E0001B0100081B0100081B010008DFF80CD0F1
:1000F00000F01CF9004800471927000810070020ED
:100100000648804706480047FEE7FEE7FEE7FEE7B1
:10011000FEE7FEE7FEE7FEE7FEE7FEE72122000836
:10012000ED000008D2B201E000F8012B491EFBD21D
:1001300070470022F6E710B513460A4604461946F2
:10014000FFF7F0FF204610BDF0B480EA0102D40FA3
:100150004200B2EB410F02D20246084611464A0065
:1001600042D0C30DDDB2C1F3C752AD1A202D35DA2E
:10017000C1F3160141F4000204B15242C5F1200658
:1001800002FA06F12A411044B3EBD05F23D0C4B188
:10019000012DA0EBC35009DCF0BC4FF0004202EA95
:1001A000C352DBB200F5000000F092B8400000F14D
:1001B000807000EBC350A0F1807040EAD17049001C
:1001C00009E0490841EAC071A0EBC35000F5000006
:1001D000400800EBC350F0BC00F071B8614201224E
:1001E00002EB4101001BF6E7F0BC704781F00041D3
:1001F000AAE780F00040A7E730B480EA010202F0ED
:10020000004530F0004221F0004013D090B1C30D02
:10021000D40DC2F31601C0F31600E41A41F4000134
:1002200040F400027D34914201D3641C00E0490097
:10023000002C02DA30BC002070474FF4000000238D
:10024000914201D3891A034340084FEA4101F7D193
:1002500051B1914202D14FF0004105E002D24FF07E
:10026000010101E06FF0010103EBC450284430BCF0
:1002700000F025B8420005D0C0F3C7525242914267
:1002800001DC0020704700EBC1507047962300222C
:10029000114600F01DB820F00040C10DC0F316005B
:1002A00040F400007F2901DA00207047962903DC22
:1002B000C1F19601C84070479639884070470029BF
:1002C000A8BF7047401C490008BF20F001007047DC
:1002D00010B4B0FA80FC00FA0CF050EA010404BF3C
:1002E00010BC704749B1CCF1200421FA04F411FA92
:1002F0000CF118BF012121430843A3EB0C01CB1DD6
:100300004FEA00614FEA102042BF002010BC704746
:1003100000EBC35010440029A4BF10BC7047401C20
:10032000490008BF20F0010010BC7047064C074D83
:1003300006E0E06840F0010394E8070098471034B5
:10034000AC42F6D3FFF7D6FE8C290008AC29000892
:10035000FEE70000FCB505464FF6FF7600200C4690
:10036000ADF8006048F205078DF8040020E000BFFA
:1003700015F8010B8DF8040001A9084601F001FDF4
:10038000BDF800009DF8041080EA0120ADF80000DF
:100390005FF00000BDF800100A0402D587EA4101B1
:1003A00001E006EA4101401CADF800100828F1DB2D
:1003B000641EDDD26946084601F0CDFCBDF80000A0
:1003C000FCBD0000014800F099BB00003C0100208A
:1003D000014800F093BB0000C8020020014800F073
:1003E0008DBB000040020020014800F087BB0000E8
:1003F0008402002030B590F840500124AC40C56B19
:100400006C60046863604368102B036803D09960D4
:100410000068C26030BD9A600068C16030BD70473E
:10042000704790F82020012A07D0022A05D0416A9F
:1004300041F48021416201207047006842690A430B
:10044000426100207047000010B590F8203002682B
:10045000012B07D0022B05D0416A41F48021416273
:10046000012010BDD2F8000240F00100C2F80002E5
:10047000087D00F01F0301209840D2F81C3283430E
:10048000C2F81C32CB69B3B9D2F80C328343C2F83C
:100490000C328C894B6864F31F434C6902EBC40433
:1004A000C4F840320C890B6864F31F434C6902EBBB
:1004B000C404C4F84432CB69012B16D1D2F80C32F3
:1004C0000343C2F80C320C884B6864F31F434C6939
:1004D00002EBC404C4F840320C89CB6864F31F43B8
:1004E0004C6902EBC404C4F844328B69002BD2F887
:1004F00004320FD053EA0003C2F804320B69002B18
:10050000D2F8143208D00343C2F81432096A012920
:1005100004D008E08343EFE78343F5E7D2F81C12E9
:100520000143C2F81C12D2F8000220F00100C2F808
:100530000002002010BD704730B590F82040012C1B
:1005400005D0022C03D0416A41F480215DE00468AB
:10055000002955D02469A40754D04FF4D8740568F5
:1005600004EB01142D5915F00405956005682D590B
:100570004ED0ED08556005682C59C4F34004D46092
:100580004FF4DA74056804EB01142D5905F00F05DA
:10059000156105682D59C5F30725956105682C5926
:1005A000240C54614FF4DC72046802EB0112A4586D
:1005B0001C700468A458240A5C700468A458240CB5
:1005C0009C700468A258120EDA704FF4DE72046850
:1005D00002EB0112A4581C710468A458240A5C712F
:1005E0000468A458240C9C710468A258120EDA7195
:1005F000006881B1016941F020010161002030BD36
:10060000E468A8E7416A41F400114162012030BD6D
:100610006D0D1560AFE7C16841F02001C160EDE7E5
:100620002DE9F05F0546006800244669D0F8049083
:100630008768D0F80CB0D0F810A0D0F81880F10777
:1006400048D0F90714D001218160B80703D52846A6
:1006500000F001FA0CE0780702D54FF4006407E0DF
:10066000380702D54FF4805402E0284600F0F2F932
:10067000F80516D529684FF480708860B80503D551
:10068000284600F0EAF90CE0780502D544F400545D
:1006900007E0380502D544F4804402E0284600F023
:1006A000DBF9F80316D529684FF480308860B80369
:1006B00003D5284600F0D3F90CE0780302D544F4C2
:1006C000004407E0380302D544F4803402E02846B1
:1006D00000F0C4F9300707D55FEACB6004D529687C
:1006E000102044F40074C86070074FF0080707D565
:1006F0005FEA0B7004D52868C760284600F05AF9F5
:10070000B00706D52868C068800702D0284600F0E8
:1007100053F9700607D55FEACA6004D5296810202E
:1007200044F480640861B00607D55FEA0A7004D516
:1007300028680761284600F05DF9F00606D52868AC
:100740000069800702D0284600F055F9B00308D5AB
:100750005FEAC96005D5296810204860284600F086
:100760004BF9F00307D55FEA097004D528684760A4
:10077000284600F075F9300446D55FEA497040D547
:10078000F00504D55FEAC87001D044F00104B0055B
:1007900004D55FEA887001D544F00204700504D5E1
:1007A0005FEA487001D544F00404300529D518F0FB
:1007B000700F26D008F07000402815D006DC1028F5
:1007C00009D020280AD0302816D10AE050280ED0AF
:1007D000602811D10EE044F008040DE044F010044C
:1007E0000AE044F0200407E044F0400404E044F050
:1007F000800401E044F480742868816921F070016C
:100800008161296804204860002C05D0686A204373
:1008100068622846FFF78FFEBDE8F09F70B50400C0
:1008200003D094F8200010B104E0012070BD2046F0
:1008300000F082F82068016821F00201016000F0F8
:100840004BFB0546052604E000F046FB401B0A284A
:1008500011D8206840688007F6D42068016841F00C
:100860000101016000F038FB05460BE000F034FBAD
:10087000401B0A2806D9606A40F40030606284F8A0
:100880002060D2E720684068C007EFD0207E0128B2
:10089000206801683DD021F080010160607E012860
:1008A0002068016838D021F040010160A07E012855
:1008B0002068016833D021F020010160E07E01282A
:1008C000206801682ED041F010010160207F0128CE
:1008D0002068016829D021F008010160607F0128AB
:1008E0002068016824D021F004010160D4E90201EC
:1008F0000843D4E90412114308436168491E0843C0
:100900002168C86100206062012084F82000002076
:1009100070BD41F08001C0E741F04001C5E741F002
:100920002001CAE721F01001CFE741F00801D4E728
:1009300041F00401D9E7000010B586B00021009114
:100940000191029103910068174988422AD1174802
:10095000C16941F00071C161C16901F00071049188
:10096000816941F0040181618069114C00F004004B
:1009700004904FF4006000906946204600F0CEF9E4
:10098000A0140090022001900320039069462046A5
:1009900000F0C4F900221146142000F037FB1420A7
:1009A00000F028FB06B010BD0064004000100240BB
:1009B000000801407047000010B50B4B0B4A0021A6
:1009C000FFF7BAFD08B1FFF72BFD08480068A0F556
:1009D000A061133906D104480179407901EB002068
:1009E0000349888110BD0000080000209400002009
:1009F00066000020704770477047000070B50446DD
:100A000090F82000012804D0606A40F40020606261
:100A100018E0022084F820002068016821F001011C
:100A2000016000F059FA05460EE000BF00F054FAEC
:100A3000401B0A2808D9606A40F400306062052033
:100A400084F82000012070BD20684068C007EDD107
:100A5000606270BD7047704770477047704770475D
:100A60007047000010B590F821100024022903D02F
:100A70000421816301243DE001680A6822F00E022E
:100A80000A6001680A6822F001020A601A4A0168D5
:100A9000914201D1012121E0174A1432914201D142
:100AA00010211BE0144A2832914201D1891515E02A
:100AB000114A3C32914201D189140FE00E4A503262
:100AC000914202D14FF4803108E00B4A64329142E6
:100AD00002D14FF4801101E04FF08071064A083ACC
:100AE0005160012180F82110002180F82010416B15
:100AF00001B18847204610BD080002402DE9F05F93
:100B0000C16B0C6801680B68D0F840C0042202FA7F
:100B10000CF2494DDFF824A1494E4A4FDFF828B1C5
:100B2000DFF828E122422CD05A072AD50A6892061B
:100B300003D40A6822F004020A600168A94201D1C4
:100B4000042219E0514501D1402215E0B14202D101
:100B50004FF4806210E0B94202D14FF480420BE0C2
:100B6000594502D14FF4802206E0714502D14FF47D
:100B7000800201E04FF080622F4908394A60C16A63
:100B80003BE04FF0020808FA0CF818EA040F4FF0A7
:100B900000094FF0010235D05FEA837832D50B6847
:100BA0009B0605D40B6823F00A030B6080F8212014
:100BB0000168A94201D1022219E0514501D1202248
:100BC00015E0B14202D14FF4007210E0B94202D1F7
:100BD0004FF400520BE0594502D14FF4003206E0C9
:100BE000714502D14FF4001201E04FF0007212493A
:100BF00008394A6080F82090816A00291AD0BDE83F
:100C0000F05F0847082505FA0CF5254212D01B07AE
:100C100010D50B6823F00E030B6090F84010C36BE7
:100C200002FA01F15960826380F8212080F8209057
:100C3000016BE2E7BDE8F09F080002401C000240A3
:100C40003000024044000240580002406C00024064
:100C500030B528B308C8134914221944B1FBF2F186
:100C60008900C16310498163022141771A6843F604
:100C7000F0718A43D0E900142143D0E902452C43A6
:100C80002143046921434469214384692143114379
:100C9000196000214163012242770177084630BD87
:100CA000012030BDF8FFFDBF0000024070B50446D2
:100CB00090F82000002501280CD0012084F82000A5
:100CC00094F821600020012E06D084F8200002252F
:100CD000284670BD022070BD022684F82160A06302
:100CE0002068066826F0010606602046FFF782FBB2
:100CF000E06A00282068016802D041F00E0106E099
:100D000021F0040101602068016841F00A010160DE
:100D10002068016841F001010160D9E72DE9F84F31
:100D2000DFF890A100220AF1040B144601274FF0CE
:100D30000F090BF1040E00BF0B6807FA04F52B40F6
:100D4000AB4274D1DFF870C14E68A6EB0C08664563
:100D50002BD00DDC032E34D005DC36B3012E19D098
:100D6000022E2FD11BE0112E16D0122E2AD119E0FF
:100D7000B8F5881F19D006DCB8F5803F15D0B8F556
:100D8000801F1FD111E0B8F5001F0ED0B8F5041F69
:100D900018D10AE0CA6815E0CA68121D12E0CA68D4
:100DA00008320FE0CA680C320CE08A682AB1012AC6
:100DB0004FF0080203D0456104E0042202E005611F
:100DC00000E00022FF2B01D8064601E000F10406F6
:100DD0004FEA840501D9A5F12005D6F800C009FA2B
:100DE00005F82CEA080C02FA05F54CEA050CC6F8E1
:100DF00000C04D68ED0057D5304DAE6946F0010694
:100E0000AE61AD6924F0030605F0010500952C4D97
:100E100006EB050CDCF80850A6074FEA167809FA2D
:100E200008F6B543274EB04202D1002610E03BE061
:100E3000254EB04201D101260AE0244EB04201D134
:100E4000022605E0224EB04201D1032600E004262E
:100E500006FA08F62E43CCF808604D68DAF8006010
:100E6000ED03554601D51E4300E09E432E604D68BC
:100E7000DBF80060AD035D4601D51E4300E09E43F4
:100E80002E604D68DEF80060ED02754601D51E4308
:100E900000E09E432E604D68AD020E4D2E6801D5D8
:100EA0001E4300E09E432E60641C102CFFF444AFF0
:100EB000BDE8F88F0004014000001110001002404E
:100EC0000000014000080140000C014000100140FA
:100ED000001401400C040140014880687047000084
:100EE0001400002070B5040011D021684CF6CC40ED
:100EF0000860216845F255500860D4E9000141605E
:100F00002168A0688860FFF7E7FF054609E0012037
:100F100070BD00BFFFF7E0FF401B302801D9032060
:100F200070BD2068C0680028F4D121684AF6AA2064
:100F30000860002070BD00684AF6AA210160002008
:100F40007047000002488168027811448160704750
:100F500014000020074810B5016841F0100101603D
:100F6000032000F073F8002000F006F800F024F8E9
:100F7000002010BD0020024070B50D4D04464FF416
:100F80007A712878B1FBF0F00A490968B1FBF0F0FA
:100F900000F098FC48B9102C07D200222146501EC0
:100FA00000F034F800206C6070BD012070BD0000BE
:100FB00014000020100000200C4808B5816941F0A1
:100FC00001018161816901F001010091C16941F074
:100FD0008051C161C06900F08050009004484168B0
:100FE00021F0E06141F00071416008BD0010024055
:100FF0000000014000F01F020121914040098000E3
:1010000000F1E020C0F8001170470000F0B40E4B72
:101010001B680C46C3F30223C3F10705042D00D956
:101020000425191D072901D2002300E0DB1E01263B
:1010300006FA05F1491E214099409E40761E164051
:101040003143F0BC00F0E6BF0CED00E0064900F0D3
:10105000070208684FF6FF03184040EA0220034ADF
:1010600010430860704700000CED00E00000FA0536
:101070002DE9F047DFF8548105460E46D8F8000008
:1010800000F00700B0420CD2D8F8001021F00701A0
:101090003143C8F80010D8F8000000F00700B04253
:1010A0006FD128684A4C810712D5400703D5606884
:1010B00040F4E06060602878000703D5606840F481
:1010C000605060606068A96820F0F00008436060CC
:1010D0002878C00744D06868012816D02168022803
:1010E00016D0890700294CDA616821F00301014319
:1010F0006160FFF7F1FE6968074641F28830012917
:101100000ED00229814618D026E021688903E9E73C
:101110008901E7E7FFF7E0FEC11B494501D918E067
:1011200081466068C0F381000128F3D118E000BF58
:10113000FFF7D2FEC11B49450BD86068C0F38100A0
:101140000228F5D10CE000BFFFF7C6FEC11B4945E0
:1011500002D90320BDE8F087606810F00C0FF3D1CE
:10116000D8F80010404601F00701B1420BD90168E0
:1011700021F0070131430160006800F00700B04230
:1011800001D00120E6E72878400705D56068E968C6
:1011900020F4E060084360602878000706D56068A6
:1011A000296920F4605040EAC100606000F036F820
:1011B0006168084AC1F30311515CC84006490860E0
:1011C0000020FFF7D9FE0020C4E700000020024005
:1011D000001002407429000810000020044805494E
:1011E00000684968044AC1F30221515CC840704755
:1011F000100000200010024084290008044805491E
:1012000000684968044AC1F3C221515CC840704774
:1012100010000020001002408429000812A185B0AF
:101220000FC98DE80F0014A0144A0068049051689B
:10123000134801F00C03042B10D0082B0ED1C1F37E
:101240008343C9031DF803000AD5516804AAC1F3FA
:101250004041515C0A4A5043B0FBF1F005B0704781
:1012600008494843FAE70000020304050607080995
:101270000A0B0C0D0E0F10100102000000100240AE
:1012800000127A0000093D002DE9F84F044600786D
:10129000B94DC00748D06868C0F38100012807D065
:1012A0006868C0F38100022809D16868C00306D5C8
:1012B0002868800338D5606800286FD034E0606803
:1012C000B0F5803F0BD010B1B0F5A02F11D0286839
:1012D00020F480302860286820F4802002E028680C
:1012E00040F480302860606888B1FFF7F5FD06465D
:1012F00009E0286840F480202860F0E7FFF7ECFD63
:10130000801B642875D828688003F7D50CE0FFF7A8
:10131000E3FD064605E000BFFFF7DEFD801B642805
:10132000F0D828688003F7D42078944E80074FF0D7
:1013300001094FF000083BD5686810F00C0F07D08A
:101340006868C0F38100022809D16868C00306D428
:101350002868800714D5206901281FD110E0206972
:10136000B0B1C6F80090FFF7B7FD074605E000BF33
:10137000FFF7B2FDC01B0228C4D828688007F7D544
:101380002868616920F0F80040EAC10028600FE099
:10139000C6F80080FFF7A0FD074606E0E9E000BFC1
:1013A000FFF79AFDC01B022823D828688007F7D4CE
:1013B000207800072CD57248A169D9B1C0F80090F7
:1013C000FFF78AFD074604E0FFF786FDC01B0228F1
:1013D0000FD8686A8007F7D56A484FF4FA51006859
:1013E000B0FBF1F0009000BF0098411E0091FAD2CE
:1013F0000EE080E0C0F80080FFF76EFD074604E0D5
:10140000FFF76AFDC01B022875D8686A8007F7D409
:101410002078400760D5E8690027C00008D4E86953
:1014200040F08050E861E869012700F080500090AA
:1014300055480168C90513D40168834641F4807199
:101440000160FFF749FD824606E000BFFFF744FD5B
:10145000A0EB0A0064284ED8DBF80000C005F5D5E3
:10146000E06801280AD008B1052813D0286A20F0C6
:1014700001002862286A20F0040002E0286A40F097
:1014800001002862E06841F2883B98B1FFF724FD33
:1014900082460BE0286A40F004002862EEE700BFB5
:1014A000FFF71AFDA0EB0A0159455AD8286A8007B0
:1014B000F6D50CE0FFF710FD824605E0FFF70CFDC6
:1014C000A0EB0A0159454CD8286A8007F6D41FB111
:1014D000E86920F08050E861E06988B36968C1F389
:1014E0008101022945D00228C6F8608004D0FFF7A8
:1014F000F3FC044638E034E0FFF7EEFC074604E076
:10150000FFF7EAFCC01B02282BD828688001F7D41B
:10151000206AB0F5803F05D16868A16820F40030EA
:1015200008436860D4E908010843696821F474112C
:1015300008436860C6F86090FFF7CEFC044606E0FA
:1015400015E000BFFFF7C8FC001B022809D8286877
:101550008001F7D50BE000BFFFF7BEFC001B02289F
:1015600002D90320BDE8F88F28688001F4D4002058
:10157000F8E70120F6E700000010024000004242B8
:10158000800442421000002000700040704770B597
:10159000040005D00025A56294F8510010B104E0C4
:1015A000012070BD204600F033F8022084F851007D
:1015B0002068016821F040010160D4E9010108437D
:1015C000D4E903121143084361690843218B01F4F4
:1015D00000710843E1690843216A0843A16A08438E
:1015E00021680860A069042101EA1040616A08438B
:1015F000216848602168E06A08612068C16921F4B7
:101600000061C1616565012084F85100002070BD52
:1016100070B586B0002506460095019502950395A4
:1016200000681D49884234D11C49886940F48050C3
:101630008861886900F480500490886940F0040053
:1016400088618869164C00F004000490B020009076
:1016500069462046FFF762FB40200090022001907F
:101660000320039069462046FFF758FB0E4C0D48B7
:10167000C4E900058020C4E9025025616561A561C7
:101680002046E561FFF7E4FA08B1FEF7C9FEF4640D
:10169000666206B070BD00000030014000100240DC
:1016A000000801401C0002403C0100202DE9F041EF
:1016B000044600268068042318B96568B5F5827F62
:1016C0000DD094F85050012D12D0012584F85050BF
:1016D00094F851700025012F0DD0022646E084F8C1
:1016E00051302046BDE8F04113460A4600F064B888
:1016F0000220BDE8F08171B16AB184F851306565AE
:10170000A163A287E28725646564A586E586B0F5B6
:10171000004F02D006E0012628E02068016821F48D
:1017200080410160E16C1348C862E16C1248886234
:10173000E16C12480863E06C4563E38F2168A26B9B
:101740000C31E06CFFF7B2FA20680168490603D457
:10175000016841F0400101602068416841F02001CA
:1017600041602068416841F00101416084F85050B7
:101770003046BEE7792000088D2000085720000879
:10178000094988420DD109484178012903D003292C
:1017900007D1042104E006490978FF2902D000217D
:1017A000417070470221FBE7E400002000000020A8
:1017B0002A000020704700002DE9F041044690F80F
:1017C0005000002601280CD0012084F8500094F825
:1017D00051000025676801280CD0B7F5827F07D13A
:1017E00002E00220BDE8F081A7680FB9042801D00B
:1017F000022651E031B12AB123B194F851000128F9
:1018000002D004E0012647E0052084F85100656518
:101810002163A386E386A263A387E38725646564C7
:1018200094F8510004283BD0E16C2048C86220485D
:10183000E16C8862E16C1F480863E06C4563E38FEC
:101840002168A26B0C31E06CFFF730FA2068416828
:1018500041F001014160A06CC562A06C8562A06C82
:101860000563A06C4563E38E2268216B0C32A06C8B
:10187000FFF71CFA20680168490603D4016841F0AB
:10188000400101602068416841F02001416020680A
:10189000416841F00201416084F850503046A1E7B0
:1018A000E16C0548C8620548C2E7000083200008D3
:1018B000DF20000857200008792000088D2000084C
:1018C0007047704710B5401EB0F1807F01D30120F2
:1018D00010BD4FF0E02460610F21601700F09AFB0B
:1018E0000020A06107202061002010BD704700008B
:1018F00070B5026804461068D168536910F00F0F84
:1019000050D003F0010501F4907635435DD0C20755
:1019100005D0CA0503D5E26B42F00102E26342073B
:1019200005D5DA0703D0E26B42F00202E2638207D8
:1019300005D5DA0703D0E26B42F00402E263020746
:1019400005D5DA0703D0E26B42F00802E263E26BEE
:10195000002A33D0800604D5880602D5204600F040
:1019600006FD20684069E16BC0F38010090700D4D0
:1019700028B3204600F0E4FC2068416949061AD5E6
:10198000416921F040014161606BA0B11B49416395
:10199000606BFFF767F8002810D0606B416BBDE803
:1019A00070400847830610D58B060ED52046BDE84B
:1019B000704000F0DCBC2046FFF798FF70BD204669
:1019C000FFF794FF0020E06370BD030606D50B0609
:1019D00004D52046BDE8704000F0CCBD4006F3D5EC
:1019E0004806F1D5D168204621F04001D160202180
:1019F00084F8391000F0ACF970BD000069220008CD
:101A000070B5040004D094F83900002510B106E048
:101A1000012070BD84F83850204600F023F82420BF
:101A200084F839002068C16821F40051C160204663
:101A300000F0E8FC2068016921F490410161206810
:101A4000416921F02A0141612068C16841F40051D7
:101A5000C160E563202084F8390084F83A00002052
:101A600070BD00002DE9F04186B00024009401947F
:101A7000029403940546DFF868C1036859480221BF
:101A80000322594F80264FF4806863453BD1836918
:101A900043F480438361836903F48043049383693F
:101AA00043F0040383618069039200F00400049012
:101AB0000802CDE9000169463846FFF72FF9CDE964
:101AC0000084694638460294FFF728F9484F474892
:101AD00001C7102051C7464847F810497C61BC61D6
:101AE000FC61FFF7B5F808B1FEF79AFC2F630022FE
:101AF000114625207D62FFF789FA2520FFF77AFA43
:101B000006B0BDE8F081DFF8ECC0634530D1C369B1
:101B100043F40033C361C36903F40033049383695E
:101B200043F0040383618069039200F00400049091
:101B30000420CDE9000169463846FFF7EFF8082098
:101B4000CDE90004694638460294FFF7E7F82748D4
:101B5000274F28304437C7E90004C7E902463C61F3
:101B60007C61BC613846FC6132E06F637D62C7E72F
:101B7000214FBB42C4D1C36943F48023C361C3690D
:101B800003F480230493836943F00803836180692D
:101B9000CDE9008100F00800CDE90320174F694628
:101BA0003846FFF7BBF8F814CDE90004694638461B
:101BB0000294FFF7B3F80E4F0C4888371438C7E982
:101BC0000004C7E902463C617C61BC613846FC61A7
:101BD000FFF73EF80028C8D0FEF722FCC5E700005A
:101BE000003801400010024000080140440002405B
:101BF000400200200044004000480040000C01402A
:101C0000F8B5044690F83A0020283CD1C1B3BAB3E5
:101C100094F83800012836D0012084F83800A162F9
:101C2000A2850025E563222084F83A00636B1748FB
:101C30009862636B1648D862636B16481863606BD2
:101C4000134645630846666B216802463046091D07
:101C5000FFF72CF8206801684168009184F838503B
:101C6000C16841F48071C1602068416941F001019F
:101C700041612068416941F0400141610020F8BDA7
:101C8000FFE70120FBE70220F9E70000C32200087C
:101C9000FF22000879220008094988420DD109482D
:101CA0000178012903D0032907D1042104E0064962
:101CB0000978FF2902D00021017070470221FBE75B
:101CC00000020020000000202000002070470000DB
:101CD00070B5044690F83900202830D169B362B35A
:101CE00094F8380001282AD0012084F838002162B5
:101CF000A284E2840025E563212084F83900236B67
:101D000010489862236B1048D862236B0F48186301
:101D1000206B134645632668206B321DFEF7C6FF15
:101D200021686FF04000086084F8385020684169ED
:101D300041F080014161002070BD012070BD022092
:101D400070BD00000923000837230008792200082D
:101D500070477047FEE770B500230C8863F30F02ED
:101D6000012505FA03F6344206D0C3F10F0605FA41
:101D700006F1114361F30F025B1C102BF1DB0280B3
:101D800070BD70B500230C7863F30702012505FAD6
:101D900003F6344206D0C3F1070605FA06F11143F3
:101DA00061F307025B1C082BF1DB027070BD0000C1
:101DB0000F4810B50D4901600321416000214FF427
:101DC00080228160C0E903124FF4A00242610176D3
:101DD00041768176C17601774177FEF71FFD0028B5
:101DE00003D0BDE81040FEF71BBB10BD00640040EF
:101DF000B0000020154808B5416941F0010141617A
:101E00004069002200F00100009011460C20FFF70D
:101E1000FDF80C20FFF7EEF8002211460D20FFF729
:101E2000F5F80D20FFF7E6F8002211460E20FFF727
:101E3000EDF80E20FFF7DEF8002211461020FFF724
:101E4000E5F8BDE808401020FFF7D4B800100240C4
:101E50000D4808B5816941F020018161816901F077
:101E600020010091816941F004018161816901F0E3
:101E700004010091816941F008018161806900F0ED
:101E80000800009008BD000000100240094810B58D
:101E9000074901600321416040F6FF718160FFF74F
:101EA00021F8002803D0BDE81040FEF7B9BA10BDF4
:101EB00000300040D80000200E4810B50C490160E9
:101EC000002141608160C160016138224161C0E947
:101ED00006120162416281620A21C162FFF757FB6B
:101EE000002803D0BDE81040FEF79ABA10BD0000EC
:101EF00000300140E40000200C4810B50A490160A0
:101F00004FF4E1314160002181600C22C160C0E9E1
:101F100004128161C161FFF773FD002803D0BDE8A1
:101F20001040FEF77DBA10BD00380140800100204E
:101F30000C4810B50A4901604FF4E13141600021BD
:101F400081600C22C160C0E904128161C161FFF7A8
:101F500057FD002803D0BDE81040FEF761BA10BD60
:101F600000440040C00100200C4810B50A4901603F
:101F70004FF4E1314160002181600C22C160C0E971
:101F800004128161C161FFF73BFD002803D0BDE869
:101F90001040FEF745BA10BD004800400002002086
:101FA000F0B5054614460F461E46184600F01EF8CA
:101FB000C6F1040085400F20F040384028436109F5
:101FC000890001F1E021D1F8002104F01F0501236F
:101FD000AB401A43C1F8002104F1E02494F8001446
:101FE00041EA001084F80004F0BD0000072181439D
:101FF0000A02054908684FF6FF031840034B1843CF
:1020000010430860704700000CED00E00000FA0586
:10201000FEE770470907090E002806DA00F00F00F6
:1020200000F1E02080F8141D704700F1E02080F8F6
:1020300000147047704738B50B46009204460022E2
:10204000802100F074F8002804D0606D40F020007A
:102050006065032038BD10B5406A01684A6822F007
:1020600003024A60416D41F010014165012180F891
:102070005110FFF78BFA10BD10B5406AFFF79AFBBD
:1020800010BD10B5406AFFF71CFC10BD10B501462D
:10209000406A0968096889061ED401684A6822F006
:1020A00003024A604168B1F5827F0BD18168B1F5C6
:1020B000004F02D0B1F5806F04D101680A6822F0A8
:1020C00040020A600021C187012180F85110416D52
:1020D00011B1FFF75BFA10BDFFF752FB10BD70B5F1
:1020E0000546446AFEF7F8FE024628680068800646
:1020F00019D464212046FFF79EFF18B1606D40F0AF
:10210000200060652068416821F0030141600020E3
:10211000E086E087012084F85100606D18B1204608
:10212000FFF734FA70BD2046FFF7CAFB70BD2DE9FA
:10213000F0411D4617460E460446DDF8188035E08E
:10214000681C33D02DB1FEF7C7FEA0EB0800A842F3
:102150002CD32068416821F0E00141606068B0F54F
:10216000827F0BD1A068B0F5004F02D0B0F5806F30
:1021700004D12068016821F040010160A06AB0F537
:10218000005F0AD1206801684DF6FF7211400160BE
:102190002068016841F400510160012084F8510079
:1021A000002084F850000320BDE8F081206880689A
:1021B00036EA000004D00020B842C1D10020F3E785
:1021C0000120F9E77047FEF7BDBE30B58FB028217A
:1021D0006846FDF7AEFF14210AA8FDF7AAFF092003
:1021E000012100904FF48030002404910691CDE944
:1021F00001040225CDE907504FF4E010099068462C
:10220000FFF742F80F20CDE90A056802CDE90C403E
:1022100002210AA80E94FEF72BFF0FB030BD00007C
:102220000D48016841F00101016041680B4A11400D
:10223000416001680A4A11400160016821F480216F
:102240000160416821F4FE0141604FF41F0181608B
:102250000449C00308607047001002400000FFF806
:10226000FFFFF6FE08ED00E010B5406A0021C185D1
:10227000C184FFF73BFB10BD70B5446A206840691C
:1022800094F83910C0F3C0100025212904D118B1E9
:10229000E584204600F062F82068406994F83A101E
:1022A000C0F38010222904D118B1E585204600F042
:1022B00047F8E06B40F01000E0632046FFF716FBA4
:1022C00070BD10B50146406A09680968890613D4D3
:1022D0000021C1850168CA6822F48072CA60016861
:1022E0004A6922F001024A6101684A6922F040020B
:1022F0004A61202180F83A10FFF7CEFC10BD10B5DE
:10230000406AFFF7E3FC10BD10B50146406A09685A
:10231000096889060CD40021C18401684A6922F049
:1023200080024A610068C16841F04001C16010BD8F
:10233000FFF70EFD10BD10B5406AFFF70AFD10BD96
:102340000168CA6822F49072CA6001684A6922F082
:1023500001024A61202180F83A1070470168CA687A
:1023600022F0C002CA60202180F83910704710B5F1
:1023700090F83A10222901D0022010BD8168B1F5F1
:10238000805F11D00169002901681FD0496801F000
:102390007F03816A4A1C82620B70C18D491E090449
:1023A000090CC18518D02BE00269816A002A0268F5
:1023B000526805D0D2B20A80816A491C8162ECE77A
:1023C000C2F308020A80816A891CF7E74A68816AB9
:1023D0004B1C83620A70E0E70168CA6822F02002A1
:1023E000CA600168CA6822F48072CA6001684A69DA
:1023F00022F001024A61202180F83A10FFF74CFCDC
:10240000002010BD2DE9F041044600680169E26832
:1024100021F44051114301612169A06808436169B9
:1024200008432168CA6841F20C639A430243CA60B8
:1024300020684169A26921F44071114341614C490E
:1024400020686425322688423CD1FEF7D7FE00EB97
:10245000C00101EB001061688900B0FBF1F7FEF7E5
:10246000CDFE00EBC00101EB00106168B0468900B1
:10247000B0FBF1F0B0FBF5F06FF01801484307EB4B
:10248000800106EB0110B0FBF5F000F0F006FEF75E
:10249000B5FE00EBC00101EB001061688900B0FBE4
:1024A000F1F0B0FBF5F006EB0016FEF7A7FE00EB2F
:1024B000C00101EB001061688900B0FBF1F7FEF785
:1024C0009DFE3BE0FEF78AFE00EBC00101EB001031
:1024D00061688900B0FBF1F7FEF780FE00EBC001F8
:1024E00001EB00106168B0468900B0FBF1F0B0FB71
:1024F000F5F06FF01801484307EB800106EB01107F
:10250000B0FBF5F000F0F006FEF768FE00EBC0014E
:1025100001EB001061688900B0FBF1F0B0FBF5F051
:1025200006EB0016FEF75AFE00EBC00101EB0010AF
:1025300061688900B0FBF1F7FEF750FE00EBC001C7
:1025400001EB001061688900B0FBF1F0B0FBF5F021
:102550006FF01801484307EB800108EB0110B0FB56
:10256000F5F0216800F00F0030448860BDE8F0818C
:102570000038014090F83910212901D0022070471D
:102580008168B1F5805F016A0BD04A1C0262026863
:1025900009785160C18C491E0904090CC1840ED010
:1025A00017E009880268C1F3080151600169002938
:1025B000016A02D0491C0162ECE7891CFBE7016853
:1025C000CA6822F08002CA600068C16841F0400118
:1025D000C1600020704700000148FFF789B9000082
:1025E0008001002070B5294908682A4DC30601F111
:1025F0000402274CA878096840D5116800262654A3
:102600001C212046FDF7A6FE227E23498AB9627E60
:102610007AB9A27E6AB9E27E5AB9627F237F02EB61
:102620000322824205D1A07F0D2802D1E07F0A2833
:102630000AD06868401C6860002803DD8E70CE7088
:102640000E714E71AE7070BDA0780870E078487061
:10265000207988706079C870A0790871E079487134
:10266000207A8871607AC871A07A0872E07A48721C
:10267000207B8872607BC8726E60E3E78906E2D5D2
:1026800011682154401CA87070BD00000044004037
:102690003400002000000020660000200148FDF703
:1026A000BFBF0000B000002000B58BB000200121AA
:1026B000CDE90601059000900190029003900490EE
:1026C0000E20CDE9081069460A48FDF7BDFE08B1A5
:1026D000FDF7A6FE0748FEF791F908B1FDF7A0FE49
:1026E00002210448FDF79DFE002801D0FDF798FE69
:1026F0000BB000BDB0000020FEE702E008C8121FCA
:1027000008C1002AFAD170477047002001E001C1DA
:10271000121F002AFBD17047FEF71CFCFFF755FD86
:10272000FFF796FBFFF766FBFFF7E6FBFFF71CFCE6
:10273000FFF73EFBFFF7AAFBFFF7FAFBFFF7BCFB37
:10274000FFF7B2FF4FF4E131242000F081F8244C70
:102750000026FF274FF0FE08A4F1160500F0D8F878
:1027600000F044F8277084F80180A889A070000A5E
:10277000E070A87BA97C00EB81002071E87B607190
:10278000287CA071687CE07128782072687860727B
:10279000A878A072E878E07228792073687960736D
:1027A000A879A073E879E073287A2074687A607455
:1027B000E87CA074287DE074687D2075FEF78CFBB2
:1027C000B042CBD9152206490648FFF781FAFEF739
:1027D00083FB00F114060448FEF7ADFBBEE70000E2
:1027E0007C00002080010020D800002010B5144C8F
:1027F000002214496078052820D2DFE800F0031297
:102800000B1213000A7001220E490F48FEF74EFF0B
:10281000012005E005220C48491CFEF747FF032074
:10282000607010BD4878FE2808D108488B78837402
:10283000CB78C3740B79037549794175627010BD0B
:10284000000000202A000020E40000206600002094
:1028500070B504460801FDF719FD05462848604398
:10286000FDF714FD2946FDF7C7FC0546FDF713FDEE
:1028700084B22046FDF70AFD2946FDF7BAFC042183
:10288000FDF7F8FCFDF707FD4FF6FF7101EA0411B3
:10289000084482B21B48816941F004018161C16929
:1028A00041F40031C16118490B6823F47F430B6088
:1028B0000B6843F40B430B60016941F40031016183
:1028C000016921F40031016110480260001D0168B6
:1028D00042F20C0211430160016841F48071016011
:1028E000016841F020010160016841F010010160C0
:1028F000BDE870400223262200210846FFF750BBA6
:1029000040420F000010024000080140084400400F
:1029100010B5144C002214492078052820D2DFE895
:1029200000F003120B1213000A7001220E490F4827
:10293000FFF766F9012005E005220C48491CFFF766
:102940005FF90320207010BD4878FE2808D10848A0
:102950008B788373CB78C3730B7903744979417493
:10296000227010BD00000020200000200002002086
:1029700066000020000000000000000001020304C7
:10298000060708090000000001020304AC29000842
:102990000000002020000000FA260008CC290008D2
:1029A00020000020F00600000A27000800000000B8
:1029B00000000000000000000000000000A24A0427
:0C29C000010000001000000000000000FA
:04000005080000ED02
:00000001FF
