:020000040800F2
:10000000E005002001010008BF1B00089919000845
:10001000BD1B000851030008152100080000000066
:10002000000000000000000000000000E31B0008CA
:100030000704000800000000E11B0008E51B0008A1
:100040001B0100081B0100081B0100081B01000820
:100050001B0100081B0100081B0100081B01000810
:100060001B0100081B0100081B0100081B01000800
:100070001B010008C5030008D10300081B0100088C
:100080001B0100081B0100081B0100081B010008E0
:10009000B92000081B0100081B0100081B01000813
:1000A0001B0100081B0100081B0100081B010008C0
:1000B0001B0100081B0100081B0100081B010008B0
:1000C0001B0100081B0100081B0100081B010008A0
:1000D0001B010008F51F0008012000081B01000893
:1000E0001B0100081B0100081B010008DFF80CD0F1
:1000F00000F01CF90048004735210008E005002009
:100100000648804706480047FEE7FEE7FEE7FEE7B1
:10011000FEE7FEE7FEE7FEE7FEE7FEE73D1C000820
:10012000ED000008D2B201E000F8012B491EFBD21D
:1001300070470022F6E710B513460A4604461946F2
:10014000FFF7F0FF204610BDF0B480EA0102D40FA3
:100150004200B2EB410F02D20246084611464A0065
:1001600042D0C30DDDB2C1F3C752AD1A202D35DA2E
:10017000C1F3160141F4000204B15242C5F1200658
:1001800002FA06F12A411044B3EBD05F23D0C4B188
:10019000012DA0EBC35009DCF0BC4FF0004202EA95
:1001A000C352DBB200F5000000F092B8400000F14D
:1001B000807000EBC350A0F1807040EAD17049001C
:1001C00009E0490841EAC071A0EBC35000F5000006
:1001D000400800EBC350F0BC00F071B8614201224E
:1001E00002EB4101001BF6E7F0BC704781F00041D3
:1001F000AAE780F00040A7E730B480EA010202F0ED
:10020000004530F0004221F0004013D090B1C30D02
:10021000D40DC2F31601C0F31600E41A41F4000134
:1002200040F400027D34914201D3641C00E0490097
:10023000002C02DA30BC002070474FF4000000238D
:10024000914201D3891A034340084FEA4101F7D193
:1002500051B1914202D14FF0004105E002D24FF07E
:10026000010101E06FF0010103EBC450284430BCF0
:1002700000F025B8420005D0C0F3C7525242914267
:1002800001DC0020704700EBC1507047962300222C
:10029000114600F01DB820F00040C10DC0F316005B
:1002A00040F400007F2901DA00207047962903DC22
:1002B000C1F19601C84070479639884070470029BF
:1002C000A8BF7047401C490008BF20F001007047DC
:1002D00010B4B0FA80FC00FA0CF050EA010404BF3C
:1002E00010BC704749B1CCF1200421FA04F411FA92
:1002F0000CF118BF012121430843A3EB0C01CB1DD6
:100300004FEA00614FEA102042BF002010BC704746
:1003100000EBC35010440029A4BF10BC7047401C20
:10032000490008BF20F0010010BC7047064C074D83
:1003300006E0E06840F0010394E8070098471034B5
:10034000AC42F6D3FFF7D6FE2C2300084C2300085E
:10035000FEE70000FCB505464FF6FF7600200C4690
:10036000ADF8006048F205078DF8040020E000BFFA
:1003700015F8010B8DF8040001A9084601F023FBD4
:10038000BDF800009DF8041080EA0120ADF80000DF
:100390005FF00000BDF800100A0402D587EA4101B1
:1003A00001E006EA4101401CADF800100828F1DB2D
:1003B000641EDDD26946084601F0EFFABDF8000080
:1003C000FCBD0000014800F08DBB0000980100203A
:1003D000014800F087BB00005401002030B590F8C0
:1003E00040500124AC40C56B6C6004686360436896
:1003F000102B036803D099600068C26030BD9A601A
:100400000068C16030BD7047704790F82020012A15
:1004100007D0022A05D0416A41F4802141620120BF
:100420007047006842690A4342610020704700003B
:1004300010B590F820300268012B07D0022B05D0B0
:10044000416A41F480214162012010BDD2F80002CE
:1004500040F00100C2F80002087D00F01F030120F7
:100460009840D2F81C328343C2F81C32CB69B3B92E
:10047000D2F80C328343C2F80C328C894B6864F397
:100480001F434C6902EBC404C4F840320C890B686A
:1004900064F31F434C6902EBC404C4F84432CB69D3
:1004A000012B16D1D2F80C320343C2F80C320C885F
:1004B0004B6864F31F434C6902EBC404C4F8403238
:1004C0000C89CB6864F31F434C6902EBC404C4F885
:1004D00044328B69002BD2F804320FD053EA000368
:1004E000C2F804320B69002BD2F8143208D003434F
:1004F000C2F81432096A012904D008E08343EFE707
:100500008343F5E7D2F81C120143C2F81C12D2F85B
:10051000000220F00100C2F80002002010BD704768
:1005200030B590F82040012C05D0022C03D0416A50
:1005300041F480215DE00468002955D02469A407B6
:1005400054D04FF4D874056804EB01142D5915F0FC
:100550000405956005682D594ED0ED085560056875
:100560002C59C4F34004D4604FF4DA74056804EBEA
:1005700001142D5905F00F05156105682D59C5F3B6
:100580000725956105682C59240C54614FF4DC72E1
:10059000046802EB0112A4581C700468A458240AD1
:1005A0005C700468A458240C9C700468A258120E55
:1005B000DA704FF4DE72046802EB0112A4581C7169
:1005C0000468A458240A5C710468A458240C9C7123
:1005D0000468A258120EDA71006881B1016941F015
:1005E00020010161002030BDE468A8E7416A41F4C0
:1005F00000114162012030BD6D0D1560AFE7C1688B
:1006000041F02001C160EDE72DE9F05F054600688B
:1006100000244669D0F804908768D0F80CB0D0F870
:1006200010A0D0F81880F10748D0F90714D00121A4
:100630008160B80703D5284600F001FA0CE078077E
:1006400002D54FF4006407E0380702D54FF4805418
:1006500002E0284600F0F2F9F80516D529684FF4B3
:1006600080708860B80503D5284600F0EAF90CE0F0
:10067000780502D544F4005407E0380502D544F467
:10068000804402E0284600F0DBF9F80316D529681B
:100690004FF480308860B80303D5284600F0D3F9C2
:1006A0000CE0780302D544F4004407E0380302D597
:1006B00044F4803402E0284600F0C4F9300707D53E
:1006C0005FEACB6004D52968102044F40074C86048
:1006D00070074FF0080707D55FEA0B7004D528684C
:1006E000C760284600F05AF9B00706D52868C068E8
:1006F000800702D0284600F053F9700607D55FEA5C
:10070000CA6004D52968102044F480640861B006EA
:1007100007D55FEA0A7004D528680761284600F00B
:100720005DF9F00606D528680069800702D02846E2
:1007300000F055F9B00308D55FEAC96005D529680E
:1007400010204860284600F04BF9F00307D55FEA17
:10075000097004D528684760284600F075F9300410
:1007600046D55FEA497040D5F00504D55FEAC87008
:1007700001D044F00104B00504D55FEA887001D5CA
:1007800044F00204700504D55FEA487001D544F0D6
:100790000404300529D518F0700F26D008F0700039
:1007A000402815D006DC102809D020280AD030288F
:1007B00016D10AE050280ED0602811D10EE044F086
:1007C00008040DE044F010040AE044F0200407E0BF
:1007D00044F0400404E044F0800401E044F48074F8
:1007E0002868816921F070018161296804204860CE
:1007F000002C05D0686A204368622846FFF78FFE08
:10080000BDE8F09F70B5040003D094F8200010B14B
:1008100004E0012070BD204600F082F820680168E5
:1008200021F00201016000F04BFB0546052604E0C3
:1008300000F046FB401B0A2811D82068406880075A
:10084000F6D42068016841F00101016000F038FB36
:1008500005460BE000F034FB401B0A2806D9606A0D
:1008600040F40030606284F82060D2E7206840687D
:10087000C007EFD0207E0128206801683DD021F01C
:1008800080010160607E01282068016838D021F075
:1008900040010160A07E01282068016833D021F06A
:1008A00020010160E07E0128206801682ED041F01F
:1008B00010010160207F01282068016829D021F003
:1008C00008010160607F01282068016824D021F0C0
:1008D00004010160D4E902010843D4E90412114380
:1008E00008436168491E08432168C86100206062AE
:1008F000012084F82000002070BD41F08001C0E795
:1009000041F04001C5E741F02001CAE721F01001A4
:10091000CFE741F00801D4E741F00401D9E7000036
:1009200010B586B0002100910191029103910068F9
:10093000174988422AD11748C16941F00071C16145
:10094000C16901F000710491816941F00401816184
:100950008069114C00F0040004904FF40060009096
:100960006946204600F0CEF9A014009002200190C4
:10097000032003906946204600F0C4F90022114686
:10098000142000F037FB142000F028FB06B010BD47
:100990000064004000100240000801407047000061
:1009A00010B50B4B0B4A0021FFF7BAFD08B1FFF75A
:1009B0002BFD08480068A0F5A061133906D1044852
:1009C0000179407901EB00200349888110BD0000C6
:1009D00008000020840000205C0000207047704761
:1009E0007047000070B5044690F82000012804D03C
:1009F000606A40F40020606218E0022084F8200061
:100A00002068016821F00101016000F059FA0546F3
:100A10000EE000BF00F054FA401B0A2808D9606AB3
:100A200040F400306062052084F82000012070BD91
:100A300020684068C007EDD1606270BD70477047A4
:100A400070477047704770477047000010B590F8C6
:100A500021100024022903D00421816301243DE0F8
:100A600001680A6822F00E020A6001680A6822F032
:100A700001020A601A4A0168914201D1012121E074
:100A8000174A1432914201D110211BE0144A283236
:100A9000914201D1891515E0114A3C32914201D1B0
:100AA00089140FE00E4A5032914202D14FF4803146
:100AB00008E00B4A6432914202D14FF4801101E008
:100AC0004FF08071064A083A5160012180F82110E8
:100AD000002180F82010416B01B18847204610BDED
:100AE000080002402DE9F05FC16B0C6801680B68DB
:100AF000D0F840C0042202FA0CF2494DDFF824A1DC
:100B0000494E4A4FDFF828B1DFF828E122422CD0C5
:100B10005A072AD50A68920603D40A6822F004020A
:100B20000A600168A94201D1042219E0514501D1AE
:100B3000402215E0B14202D14FF4806210E0B94288
:100B400002D14FF480420BE0594502D14FF480228C
:100B500006E0714502D14FF4800201E04FF080625F
:100B60002F4908394A60C16A3BE04FF0020808FA91
:100B70000CF818EA040F4FF000094FF0010235D0CD
:100B80005FEA837832D50B689B0605D40B6823F0A7
:100B90000A030B6080F821200168A94201D10222DA
:100BA00019E0514501D1202215E0B14202D14FF4A4
:100BB000007210E0B94202D14FF400520BE05945E7
:100BC00002D14FF4003206E0714502D14FF4001219
:100BD00001E04FF00072124908394A6080F8209015
:100BE000816A00291AD0BDE8F05F0847082505FA98
:100BF0000CF5254212D01B0710D50B6823F00E030D
:100C00000B6090F84010C36B02FA01F159608263E7
:100C100080F8212080F82090016BE2E7BDE8F09F8A
:100C2000080002401C000240300002404400024024
:100C3000580002406C00024030B528B308C8134980
:100C400014221944B1FBF2F18900C1631049816398
:100C5000022141771A6843F6F0718A43D0E9001403
:100C60002143D0E902452C432143046921434469CF
:100C7000214384692143114319600021416301220A
:100C800042770177084630BD012030BDF8FFFDBF37
:100C90000000024070B5044690F8200000250128AD
:100CA0000CD0012084F8200094F821600020012E4F
:100CB00006D084F820000225284670BD022070BDB1
:100CC000022684F82160A0632068066826F00106E9
:100CD00006602046FFF782FBE06A00282068016872
:100CE00002D041F00E0106E021F00401016020680D
:100CF000016841F00A0101602068016841F00101CA
:100D00000160D9E72DE9F84FDFF890A100220AF140
:100D1000040B144601274FF00F090BF1040E00BF1E
:100D20000B6807FA04F52B40AB4274D1DFF870C1B1
:100D30004E68A6EB0C0866452BD00DDC032E34D094
:100D400005DC36B3012E19D0022E2FD11BE0112E57
:100D500016D0122E2AD119E0B8F5881F19D006DC5A
:100D6000B8F5803F15D0B8F5801F1FD111E0B8F558
:100D7000001F0ED0B8F5041F18D10AE0CA6815E0AC
:100D8000CA68121D12E0CA6808320FE0CA680C3245
:100D90000CE08A682AB1012A4FF0080203D04561AD
:100DA00004E0042202E0056100E00022FF2B01D8EC
:100DB000064601E000F104064FEA840501D9A5F1D9
:100DC0002005D6F800C009FA05F82CEA080C02FA4A
:100DD00005F54CEA050CC6F800C04D68ED0057D586
:100DE000304DAE6946F00106AE61AD6924F00306F0
:100DF00005F0010500952C4D06EB050CDCF80850BC
:100E0000A6074FEA167809FA08F6B543274EB0420E
:100E100002D1002610E03BE0254EB04201D1012670
:100E20000AE0244EB04201D1022605E0224EB04233
:100E300001D1032600E0042606FA08F62E43CCF87A
:100E400008604D68DAF80060ED03554601D51E4391
:100E500000E09E432E604D68DBF80060AD035D4608
:100E600001D51E4300E09E432E604D68DEF8006011
:100E7000ED02754601D51E4300E09E432E604D688D
:100E8000AD020E4D2E6801D51E4300E09E432E603C
:100E9000641C102CFFF444AFBDE8F88F000401403F
:100EA0000000111000100240000001400008014045
:100EB000000C014000100140001401400C040140EE
:100EC00001488068704700001000002070B50400E1
:100ED00011D021684CF6CC400860216845F255508D
:100EE0000860D4E9000141602168A0688860FFF7CC
:100EF000E7FF054609E0012070BD00BFFFF7E0FFF6
:100F0000401B302801D9032070BD2068C06800282C
:100F1000F4D121684AF6AA200860002070BD00685C
:100F20004AF6AA210160002070470000024881684B
:100F3000027811448160704710000020074810B506
:100F4000016841F010010160032000F073F80020F7
:100F500000F006F800F024F8002010BD0020024048
:100F600070B50D4D04464FF47A712878B1FBF0F05E
:100F70000A490968B1FBF0F000F0FCFA48B9102CFE
:100F800007D200222146501E00F034F800206C6089
:100F900070BD012070BD0000100000201C0000206A
:100FA0000C4808B5816941F001018161816901F056
:100FB00001010091C16941F08051C161C06900F037
:100FC000805000900448416821F0E06141F00071D8
:100FD000416008BD001002400000014000F01F0207
:100FE000012191404009800000F1E020C0F800118B
:100FF00070470000F0B40E4B1B680C46C3F302238D
:10100000C3F10705042D00D90425191D072901D2B4
:10101000002300E0DB1E012606FA05F1491E2140EF
:1010200099409E40761E16403143F0BC00F0C8BD8A
:101030000CED00E0064900F0070208684FF6FF03D8
:10104000184040EA0220034A10430860704700003D
:101050000CED00E00000FA052DE9F047DFF85481BF
:1010600005460E46D8F8000000F00700B0420CD24A
:10107000D8F8001021F007013143C8F80010D8F863
:10108000000000F00700B0426FD128684A4C810789
:1010900012D5400703D5606840F4E06060602878AE
:1010A000000703D5606840F4605060606068A9681C
:1010B00020F0F000084360602878C00744D06868DA
:1010C000012816D02168022816D0890700294CDA99
:1010D000616821F0030101436160FFF7F1FE696877
:1010E000074641F2883001290ED00229814618D0E6
:1010F00026E021688903E9E78901E7E7FFF7E0FED9
:10110000C11B494501D918E081466068C0F38100E0
:101110000128F3D118E000BFFFF7D2FEC11B4945FB
:101120000BD86068C0F381000228F5D10CE000BF45
:10113000FFF7C6FEC11B494502D90320BDE8F08771
:10114000606810F00C0FF3D1D8F80010404601F0A1
:101150000701B1420BD9016821F007013143016059
:10116000006800F00700B04201D00120E6E72878CF
:10117000400705D56068E96820F4E06008436060D6
:101180002878000706D56068296920F4605040EA95
:10119000C100606000F036F86168084AC1F30311CD
:1011A000515CC840064908600020FFF7D9FE0020C6
:1011B000C4E7000000200240001002401423000891
:1011C0001C0000200448054900684968044AC1F32E
:1011D0000221515CC84070471C00002000100240F2
:1011E000242300080448054900684968044AC1F3FB
:1011F000C221515CC84070471C0000200010024012
:101200002423000812A185B00FC98DE80F0014A097
:10121000144A006804905168134801F00C03042B31
:1012200010D0082B0ED1C1F38343C9031DF803006E
:101230000AD5516804AAC1F34041515C0A4A50439F
:10124000B0FBF1F005B0704708494843FAE70000E9
:1012500002030405060708090A0B0C0D0E0F1010F7
:10126000010200000010024000127A0000093D0057
:101270002DE9F84F04460078B94DC00748D068689A
:10128000C0F38100012807D06868C0F381000228FC
:1012900009D16868C00306D52868800338D560681E
:1012A00000286FD034E06068B0F5803F0BD010B1FB
:1012B000B0F5A02F11D0286820F48030286028686D
:1012C00020F4802002E0286840F4803028606068C4
:1012D00088B1FFF7F5FD064609E0286840F4802054
:1012E0002860F0E7FFF7ECFD801B642875D82868BC
:1012F0008003F7D50CE0FFF7E3FD064605E000BFED
:10130000FFF7DEFD801B6428F0D828688003F7D43F
:101310002078944E80074FF001094FF000083BD52C
:10132000686810F00C0F07D06868C0F381000228CD
:1013300009D16868C00306D42868800714D52069DD
:1013400001281FD110E02069B0B1C6F80090FFF766
:10135000B7FD074605E000BFFFF7B2FDC01B02283E
:10136000C4D828688007F7D52868616920F0F8009C
:1013700040EAC10028600FE0C6F80080FFF7A0FD3A
:10138000074606E0E9E000BFFFF79AFDC01B022810
:1013900023D828688007F7D4207800072CD5724816
:1013A000A169D9B1C0F80090FFF78AFD074604E0B3
:1013B000FFF786FDC01B02280FD8686A8007F7D5A3
:1013C0006A484FF4FA510068B0FBF1F0009000BF9A
:1013D0000098411E0091FAD20EE080E0C0F8008033
:1013E000FFF76EFD074604E0FFF76AFDC01B022809
:1013F00075D8686A8007F7D42078400760D5E86917
:101400000027C00008D4E86940F08050E861E8692E
:10141000012700F08050009055480168C90513D499
:101420000168834641F480710160FFF749FD8246FF
:1014300006E000BFFFF744FDA0EB0A0064284ED889
:10144000DBF80000C005F5D5E06801280AD008B136
:10145000052813D0286A20F001002862286A20F0AD
:10146000040002E0286A40F001002862E06841F2CE
:10147000883B98B1FFF724FD82460BE0286A40F0D4
:1014800004002862EEE700BFFFF71AFDA0EB0A0197
:1014900059455AD8286A8007F6D50CE0FFF710FDA9
:1014A000824605E0FFF70CFDA0EB0A0159454CD838
:1014B000286A8007F6D41FB1E86920F08050E861FF
:1014C000E06988B36968C1F38101022945D0022827
:1014D000C6F8608004D0FFF7F3FC044638E034E03F
:1014E000FFF7EEFC074604E0FFF7EAFCC01B02280A
:1014F0002BD828688001F7D4206AB0F5803F05D149
:101500006868A16820F4003008436860D4E90801E5
:101510000843696821F4741108436860C6F8609054
:10152000FFF7CEFC044606E015E000BFFFF7C8FC5D
:10153000001B022809D828688001F7D50BE000BFFE
:10154000FFF7BEFC001B022802D90320BDE8F88F7C
:1015500028688001F4D40020F8E70120F6E70000B5
:101560000010024000004242800442421C00002061
:101570000070004010B5401EB0F1807F01D3012003
:1015800010BD4FF0E02460610F21601700F018FBE0
:101590000020A06107202061002010BD70470000DE
:1015A00070B5026804461068D168536910F00F0FD7
:1015B00050D003F0010501F4907635435DD0C207A9
:1015C00005D0CA0503D5E26B42F00102E26342078F
:1015D00005D5DA0703D0E26B42F00202E26382072C
:1015E00005D5DA0703D0E26B42F00402E26302079A
:1015F00005D5DA0703D0E26B42F00802E263E26B42
:10160000002A33D0800604D5880602D5204600F093
:10161000BCFB20684069E16BC0F38010090700D46F
:1016200028B3204600F09AFB2068416949061AD584
:10163000416921F040014161606BA0B11B494163E8
:10164000606BFFF703FA002810D0606B416BBDE8B8
:1016500070400847830610D58B060ED52046BDE89E
:10166000704000F092BB2046FFF798FF70BD204607
:10167000FFF794FF0020E06370BD030606D50B065C
:1016800004D52046BDE8704000F082BC4006F3D58A
:101690004806F1D5D168204621F04001D1602021D3
:1016A00084F8391000F076F970BD0000851C000840
:1016B00070B5040004D094F83900002510B106E09C
:1016C000012070BD84F83850204600F023F8242013
:1016D00084F839002068C16821F40051C1602046B7
:1016E00000F09EFB2068016921F4904101612068AF
:1016F000416921F02A0141612068C16841F400512B
:10170000C160E563202084F8390084F83A000020A5
:1017100070BD00002DE9F04186B0002400940194D2
:1017200002940394064603684048DFF8FCC0022197
:1017300003220515802763453DD1836943F4804327
:101740008361836903F480430493836943F0040352
:1017500083618069DFF8D88000F0040004900802FB
:10176000CDE90001039269464046FFF7CBFACDE987
:101770000054694640460294FFF7C4FA2E4D2D48A6
:1017800001C5102091C52C4845F810496C61AC6129
:10179000EC61FFF751FA08B1FEF736FE356300221F
:1017A000114625206E62FFF725FC2520FFF716FC69
:1017B00006B0BDE8F081DFF884C06345F8D1C369A5
:1017C00043F48023C361C36903F4802304938369D2
:1017D00043F0080383618069CDE9005100F00800FF
:1017E000CDE90320164D69462846FFF78BFAE81429
:1017F000CDE90004694628460294FFF783FA0E4DAE
:101800000C4844351438C5E90004C5E902472C6189
:101810006C61AC612846EC61FFF70EFA08B1FEF787
:10182000F3FD75636E62C3E70038014000100240AB
:1018300000080140440002405401002000480040DC
:10184000000C0140F8B5044690F83A0020283CD13D
:10185000C1B3BAB394F83800012836D0012084F817
:101860003800A162A2850025E563222084F83A00B1
:10187000636B17489862636B1648D862636B1648AF
:101880001863606B134645630846666B2168024621
:101890003046091DFFF7FEF9206801684168009194
:1018A00084F83850C16841F48071C1602068416992
:1018B00041F0010141612068416941F0400141610D
:1018C0000020F8BDFFE70120FBE70220F9E7000058
:1018D000DF1C00081B1D0008951C000809498842F0
:1018E0000DD109480178012903D0032907D104212A
:1018F00004E006490978FF2902D0002101707047F1
:101900000221FBE71401002000000020200000203D
:101910007047000070B5044690F83900202830D197
:1019200069B362B394F8380001282AD0012084F802
:1019300038002162A284E2840025E563212084F836
:101940003900236B10489862236B1048D862236BD0
:101950000F481863206B134645632668206B321DC1
:10196000FFF798F921686FF04000086084F838505C
:101970002068416941F080014161002070BD012073
:1019800070BD022070BD0000251D0008531D000819
:10199000951C000870477047FEE770B500230C885F
:1019A00063F30F02012505FA03F6344206D0C3F1B2
:1019B0000F0605FA06F1114361F30F025B1C102BB1
:1019C000F1DB028070BD70B500230C7863F3070271
:1019D000012505FA03F6344206D0C3F1070605FADD
:1019E00006F1114361F307025B1C082BF1DB027067
:1019F00070BD00000F4810B50D4901600321416022
:101A000000214FF480228160C0E903124FF4A0024C
:101A10004261017641768176C17601774177FEF7A2
:101A2000F1FE002803D0BDE81040FEF7EDBC10BD6C
:101A300000640040A00000200D4808B5416941F055
:101A4000010141614069002200F00100009011464F
:101A50000D20FFF7CFFA0D20FFF7C0FA0022114644
:101A60000E20FFF7C7FABDE808400E20FFF7B6BA10
:101A7000001002400D4808B5816941F020018161E4
:101A8000816901F020010091816941F008018161C3
:101A9000816901F008010091816941F004018161CF
:101AA000806900F00400009008BD000000100240B2
:101AB000094810B5074901600321416040F6FF71F4
:101AC0008160FFF703FA002803D0BDE81040FEF75D
:101AD0009BBC10BD00300040C80000200C4810B571
:101AE0000A4901604FF4E1314160002181600C221C
:101AF000C160C0E904128161C161FFF7D9FD00280E
:101B000003D0BDE81040FEF77FBC10BD0038014097
:101B1000D40000200C4810B50A4901604FF4E131AF
:101B20004160002181600C22C160C0E90412816122
:101B3000C161FFF7BDFD002803D0BDE81040FEF7EE
:101B400063BC10BD0048004014010020F0B50546FC
:101B500014460F461E46184600F01EF8C6F1040053
:101B600085400F20F040384028436109890001F189
:101B7000E021D1F8002104F01F050123AB401A43F6
:101B8000C1F8002104F1E02494F8001441EA0010A7
:101B900084F80004F0BD0000072181430A020549D2
:101BA00008684FF6FF031840034B184310430860C2
:101BB000704700000CED00E00000FA05FEE77047FA
:101BC0000907090E002806DA00F00F0000F1E020F6
:101BD00080F8141D704700F1E02080F80014704771
:101BE00070477047FFF7A2B930B58FB0282168461B
:101BF000FEF79FFA14210AA8FEF79BFA092001219B
:101C000000904FF48030002404910691CDE9010446
:101C10000225CDE907504FF4E01009906846FFF720
:101C200027FB0F20CDE90A056802CDE90C4002210F
:101C30000AA80E94FFF710FA0FB030BD0D480168E6
:101C400041F00101016041680B4A114041600168A7
:101C50000A4A11400160016821F480210160416855
:101C600021F4FE0141604FF41F0181600449C0036B
:101C700008607047001002400000FFF8FFFFF6FE0A
:101C800008ED00E010B5406A0021C185C184FFF76E
:101C900085FC10BD70B5446A2068406994F839101D
:101CA000C0F3C0100025212904D118B1E5842046D5
:101CB00000F062F82068406994F83A10C0F3801090
:101CC000222904D118B1E585204600F047F8E06BE1
:101CD00040F01000E0632046FFF760FC70BD10B5D7
:101CE0000146406A09680968890613D40021C18544
:101CF0000168CA6822F48072CA6001684A6922F0E9
:101D000001024A6101684A6922F040024A612021C9
:101D100080F83A10FFF7E2FD10BD10B5406AFFF7FA
:101D2000F7FD10BD10B50146406A096809688906CB
:101D30000CD40021C18401684A6922F080024A6102
:101D40000068C16841F04001C16010BDFFF722FE8C
:101D500010BD10B5406AFFF71EFE10BD0168CA68CD
:101D600022F49072CA6001684A6922F001024A6155
:101D7000202180F83A1070470168CA6822F0C0023A
:101D8000CA60202180F83910704710B590F83A10D9
:101D9000222901D0022010BD8168B1F5805F11D0E9
:101DA0000169002901681FD0496801F07F03816A39
:101DB0004A1C82620B70C18D491E0904090CC18541
:101DC00018D02BE00269816A002A0268526805D0A7
:101DD000D2B20A80816A491C8162ECE7C2F3080230
:101DE0000A80816A891CF7E74A68816A4B1C836212
:101DF0000A70E0E70168CA6822F02002CA60016840
:101E0000CA6822F48072CA6001684A6922F001023D
:101E10004A61202180F83A10FFF760FD002010BDD4
:101E20002DE9F041044600680169E26821F440515F
:101E3000114301612169A068084361690843216871
:101E4000CA6841F20C639A430243CA602068416940
:101E5000A26921F44071114341614C492068642515
:101E6000322688423CD1FFF7BDF900EBC00101EBFF
:101E7000001061688900B0FBF1F7FFF7B3F900EBE0
:101E8000C00101EB00106168B0468900B0FBF1F0C1
:101E9000B0FBF5F06FF01801484307EB800106EB4B
:101EA0000110B0FBF5F000F0F006FFF79BF900EB36
:101EB000C00101EB001061688900B0FBF1F0B0FBDC
:101EC000F5F006EB0016FFF78DF900EBC00101EB12
:101ED000001061688900B0FBF1F7FFF783F93BE080
:101EE000FFF770F900EBC00101EB00106168890099
:101EF000B0FBF1F7FFF766F900EBC00101EB001052
:101F00006168B0468900B0FBF1F0B0FBF5F06FF00E
:101F10001801484307EB800106EB0110B0FBF5F018
:101F200000F0F006FFF74EF900EBC00101EB0010E6
:101F300061688900B0FBF1F0B0FBF5F006EB00162C
:101F4000FFF740F900EBC00101EB00106168890068
:101F5000B0FBF1F7FFF736F900EBC00101EB001021
:101F600061688900B0FBF1F0B0FBF5F06FF018018B
:101F7000484307EB800108EB0110B0FBF5F0216846
:101F800000F00F0030448860BDE8F0810038014067
:101F900090F83910212901D0022070478168B1F5ED
:101FA000805F016A0BD04A1C0262026809785160A6
:101FB000C18C491E0904090CC1840ED017E00988A0
:101FC0000268C1F30801516001690029016A02D069
:101FD000491C0162ECE7891CFBE70168CA6822F032
:101FE0008002CA600068C16841F04001C160002001
:101FF000704700000148FFF7D3BA0000D40000206A
:1020000070B529480168294CCA0600F10401284D21
:10201000006841D50868687800261C2126542046AF
:10202000FEF798F9227E23498AB9627E7AB9A27EA8
:102030006AB9E27E5AB9627F237F02EB03228242B1
:1020400005D1A07F0D2802D1E07F0A280AD0686858
:10205000401C6860002803DD8E70CE700E714E71DA
:102060006E7070BDA0780870E07848702079887034
:102070006079C870A0790871E0794871207A887118
:10208000607AC871A07A0872E07A4872207B887200
:10209000607BC8726E60E3E78006E2D50968687805
:1020A0002154401C687070BD004400402A0000208C
:1020B000000000205C0000200148FEF7A5BA0000E7
:1020C000A000002000B58BB000200121CDE9060161
:1020D0000590009001900290039004900E20CDE9AD
:1020E000081069460A48FEF7A3F908B1FEF78CF913
:1020F0000748FEF777FC08B1FEF786F9022104488D
:10210000FEF783F9002801D0FEF77EF90BB000BD81
:10211000A0000020FEE702E008C8121F08C1002A44
:10212000FAD170477047002001E001C1121F002A58
:10213000FBD17047FEF702FFFFF756FDFFF79AFC51
:10214000FFF77AFCFFF7CAFCFFF7E4FCFFF752FC4D
:10215000FFF7AEFCFFF7B6FF4FF4E131242000F0AB
:1021600047F8204C0026FF274FF0FE08A4F1120587
:1021700000F09EF8277084F80180A889A070000AFA
:10218000E070A87B2071E87B6071287CA071687C7E
:10219000E0712878207268786072A878A072E87878
:1021A000E0722879207368796073A879A073E87960
:1021B000E073287A2074687A6074A87AA074E87A48
:1021C000E074FEF77DFEB042D2D9142205490648DC
:1021D000FFF7A0FBFEF774FE00F114060348FEF7BC
:1021E0009EFEC5E76E000020D4000020C80000203D
:1021F00070B504460801FEF749F8054628486043D3
:10220000FEF744F82946FDF7F7FF0546FEF743F8C9
:1022100084B22046FEF73AF82946FDF7EAFF04218A
:10222000FEF728F8FEF737F84FF6FF7101EA0411C0
:10223000084482B21B48816941F004018161C1698F
:1022400041F40031C16118490B6823F47F430B60EE
:102250000B6843F40B430B60016941F400310161E9
:10226000016921F40031016110480260001D01681C
:1022700042F20C0211430160016841F48071016077
:10228000016841F020010160016841F01001016026
:10229000BDE870400223262200210846FFF756BC05
:1022A00040420F0000100240000801400844004076
:1022B00010B5144C002214492078052820D2DFE8FC
:1022C00000F003120B1213000A7001220E490F488E
:1022D000FFF7B8FA012005E005220C48491CFFF77A
:1022E000B1FA0320207010BD4878FE2808D10848B4
:1022F0008B788373CB78C3730B79037449794174FA
:10230000227010BD000000202000002014010020D9
:102310005C00002000000000000000000102030437
:102320000607080900000000010203044C2300080E
:102330000000002020000000162100086C23000887
:1023400020000020C0050000262100080000000039
:10235000000000000000000000000000010000007C
:0C236000100000000000000000A24A0471
:04000005080000ED02
:00000001FF
