:020000040800F2
:10000000280700200101000813260008FD20000831
:100010001126000851030008852D0008000000008B
:10002000000000000000000000000000372600086B
:1000300013040008000000003526000839260008D7
:100040001B0100081B0100081B0100081B01000820
:100050001B0100081B0100081B0100081B01000810
:100060001B0100081B0100081B0100081B01000800
:100070001B010008C5030008D10300081B0100088C
:10008000DD0300081B0100081B0100081B0100081C
:10009000292D00081B0100081B0100081B01000896
:1000A0001B0100081B0100081B0100081B010008C0
:1000B000D9260008E5260008F12600081B010008E3
:1000C0001B0100081B0100081B0100081B010008A0
:1000D0001B010008652C0008712C00081B0100089A
:1000E0001B0100081B0100081B010008DFF80CD0F1
:1000F00000F01CF900480047A52D00082807002043
:100100000648804706480047FEE7FEE7FEE7FEE7B1
:10011000FEE7FEE7FEE7FEE7FEE7FEE791260008C2
:10012000ED000008D2B201E000F8012B491EFBD21D
:1001300070470022F6E710B513460A4604461946F2
:10014000FFF7F0FF204610BDF0B480EA0102D40FA3
:100150004200B2EB410F02D20246084611464A0065
:1001600042D0C30DDDB2C1F3C752AD1A202D35DA2E
:10017000C1F3160141F4000204B15242C5F1200658
:1001800002FA06F12A411044B3EBD05F23D0C4B188
:10019000012DA0EBC35009DCF0BC4FF0004202EA95
:1001A000C352DBB200F5000000F092B8400000F14D
:1001B000807000EBC350A0F1807040EAD17049001C
:1001C00009E0490841EAC071A0EBC35000F5000006
:1001D000400800EBC350F0BC00F071B8614201224E
:1001E00002EB4101001BF6E7F0BC704781F00041D3
:1001F000AAE780F00040A7E730B480EA010202F0ED
:10020000004530F0004221F0004013D090B1C30D02
:10021000D40DC2F31601C0F31600E41A41F4000134
:1002200040F400027D34914201D3641C00E0490097
:10023000002C02DA30BC002070474FF4000000238D
:10024000914201D3891A034340084FEA4101F7D193
:1002500051B1914202D14FF0004105E002D24FF07E
:10026000010101E06FF0010103EBC450284430BCF0
:1002700000F025B8420005D0C0F3C7525242914267
:1002800001DC0020704700EBC1507047962300222C
:10029000114600F01DB820F00040C10DC0F316005B
:1002A00040F400007F2901DA00207047962903DC22
:1002B000C1F19601C84070479639884070470029BF
:1002C000A8BF7047401C490008BF20F001007047DC
:1002D00010B4B0FA80FC00FA0CF050EA010404BF3C
:1002E00010BC704749B1CCF1200421FA04F411FA92
:1002F0000CF118BF012121430843A3EB0C01CB1DD6
:100300004FEA00614FEA102042BF002010BC704746
:1003100000EBC35010440029A4BF10BC7047401C20
:10032000490008BF20F0010010BC7047064C074D83
:1003300006E0E06840F0010394E8070098471034B5
:10034000AC42F6D3FFF7D6FEFC2F00081C300008A5
:10035000FEE70000FCB505464FF6FF7600200C4690
:10036000ADF8006048F205078DF8040020E000BFFA
:1003700015F8010B8DF8040001A9084601F0D5FE1F
:10038000BDF800009DF8041080EA0120ADF80000DF
:100390005FF00000BDF800100A0402D587EA4101B1
:1003A00001E006EA4101401CADF800100828F1DB2D
:1003B000641EDDD26946084601F0A1FEBDF80000CA
:1003C000FCBD0000014800F093BB0000E4020020E7
:1003D000014800F08DBB00005C020020014800F0E5
:1003E00087BB0000A002002030B590F840500124E7
:1003F000AC40C56B6C60046863604368102B036895
:1004000003D099600068C26030BD9A600068C16026
:1004100030BD7047704790F82020012A07D0022A8B
:1004200005D0416A41F48021416201207047006893
:1004300042690A43426100207047000010B590F8FD
:1004400020300268012B07D0022B05D0416A41F40D
:1004500080214162012010BDD2F8000240F001006D
:10046000C2F80002087D00F01F0301209840D2F876
:100470001C328343C2F81C32CB69B3B9D2F80C32B8
:100480008343C2F80C328C894B6864F31F434C6978
:1004900002EBC404C4F840320C890B6864F31F43B8
:1004A0004C6902EBC404C4F84432CB69012B16D169
:1004B000D2F80C320343C2F80C320C884B6864F358
:1004C0001F434C6902EBC404C4F840320C89CB686A
:1004D00064F31F434C6902EBC404C4F844328B69D3
:1004E000002BD2F804320FD053EA0003C2F80432D2
:1004F0000B69002BD2F8143208D00343C2F814322F
:10050000096A012904D008E08343EFE78343F5E754
:10051000D2F81C120143C2F81C12D2F8000220F0DB
:100520000100C2F80002002010BD704730B590F8FD
:100530002040012C05D0022C03D0416A41F48021D7
:100540005DE00468002955D02469A40754D04FF415
:10055000D874056804EB01142D5915F00405956055
:1005600005682D594ED0ED08556005682C59C4F327
:100570004004D4604FF4DA74056804EB01142D597B
:1005800005F00F05156105682D59C5F3072595611F
:1005900005682C59240C54614FF4DC72046802EB9A
:1005A0000112A4581C700468A458240A5C700468E2
:1005B000A458240C9C700468A258120EDA704FF4F0
:1005C000DE72046802EB0112A4581C710468A4587E
:1005D000240A5C710468A458240C9C710468A25815
:1005E000120EDA71006881B1016941F020010161E8
:1005F000002030BDE468A8E7416A41F4001141627F
:10060000012030BD6D0D1560AFE7C16841F02001DC
:10061000C160EDE72DE9F05F0546006800244669FA
:10062000D0F804908768D0F80CB0D0F810A0D0F8BB
:100630001880F10748D0F90714D001218160B8076C
:1006400003D5284600F001FA0CE0780702D54FF4F4
:10065000006407E0380702D54FF4805402E02846D2
:1006600000F0F2F9F80516D529684FF4807088601B
:10067000B80503D5284600F0EAF90CE0780502D564
:1006800044F4005407E0380502D544F4804402E005
:10069000284600F0DBF9F80316D529684FF48030BE
:1006A0008860B80303D5284600F0D3F90CE078033E
:1006B00002D544F4004407E0380302D544F4803402
:1006C00002E0284600F0C4F9300707D55FEACB60A6
:1006D00004D52968102044F40074C86070074FF0F6
:1006E000080707D55FEA0B7004D52868C76028465D
:1006F00000F05AF9B00706D52868C068800702D014
:10070000284600F053F9700607D55FEACA6004D5A1
:100710002968102044F480640861B00607D55FEAB8
:100720000A7004D528680761284600F05DF9F006D4
:1007300006D528680069800702D0284600F055F9E0
:10074000B00308D55FEAC96005D529681020486064
:10075000284600F04BF9F00307D55FEA097004D58D
:1007600028684760284600F075F9300446D55FEAEE
:10077000497040D5F00504D55FEAC87001D044F057
:100780000104B00504D55FEA887001D544F0020485
:10079000700504D55FEA487001D544F004043005C3
:1007A00029D518F0700F26D008F07000402815D019
:1007B00006DC102809D020280AD0302816D10AE0FB
:1007C00050280ED0602811D10EE044F008040DE04E
:1007D00044F010040AE044F0200407E044F0400430
:1007E00004E044F0800401E044F4807428688169E6
:1007F00021F070018161296804204860002C05D037
:10080000686A204368622846FFF78FFEBDE8F09FC4
:1008100070B5040003D094F8200010B104E001206A
:1008200070BD204600F082F82068016821F00201C6
:10083000016000F055FB0546052604E000F050FB82
:10084000401B0A2811D8206840688007F6D4206829
:10085000016841F00101016000F042FB05460BE038
:1008600000F03EFB401B0A2806D9606A40F40030C5
:10087000606284F82060D2E720684068C007EFD04B
:10088000207E0128206801683DD021F080010160B0
:10089000607E01282068016838D021F040010160A5
:1008A000A07E01282068016833D021F0200101607A
:1008B000E07E0128206801682ED041F0100101601F
:1008C000207F01282068016829D021F008010160FB
:1008D000607F01282068016824D021F004010160B4
:1008E000D4E902010843D4E90412114308436168C2
:1008F000491E08432168C86100206062012084F815
:100900002000002070BD41F08001C0E741F04001AF
:10091000C5E741F02001CAE721F01001CFE741F01F
:100920000801D4E741F00401D9E7000010B586B012
:1009300000210091019102910391006817498842BA
:100940002AD11748C16941F00071C161C16901F044
:1009500000710491816941F0040181618069114C49
:1009600000F0040004904FF40060009069462046B7
:1009700000F0CEF9A0140090022001900320039013
:100980006946204600F0C4F900221146142000F008
:1009900041FB142000F032FB06B010BD00640040A3
:1009A00000100240000801407047000010B50B4BDA
:1009B0000B4A0021FFF7BAFD08B1FFF72BFD0848ED
:1009C0000068A0F5A061133906D104480179407987
:1009D00001EB00200349888110BD000014000020B5
:1009E0008C000020680000207047704770470000AE
:1009F00070B5044690F82000012804D0606A40F4E5
:100A00000020606218E0022084F82000206801685D
:100A100021F00101016000F063FA05460EE000BF1D
:100A200000F05EFA401B0A2808D9606A40F40030E2
:100A30006062052084F82000012070BD20684068B5
:100A4000C007EDD1606270BD704770477047704756
:100A5000704770477047000010B590F821100024CF
:100A6000022903D00421816301243DE001680A6862
:100A700022F00E020A6001680A6822F001020A6090
:100A80001A4A0168914201D1012121E0174A14322A
:100A9000914201D110211BE0144A2832914201D128
:100AA000891515E0114A3C32914201D189140FE0B9
:100AB0000E4A5032914202D14FF4803108E00B4A85
:100AC0006432914202D14FF4801101E04FF0807105
:100AD000064A083A5160012180F82110002180F86F
:100AE0002010416B01B18847204610BD080002402C
:100AF0002DE9F05FC16B0C6801680B68D0F840C04D
:100B0000042202FA0CF2494DDFF824A1494E4A4F63
:100B1000DFF828B1DFF828E122422CD05A072AD585
:100B20000A68920603D40A6822F004020A60016887
:100B3000A94201D1042219E0514501D1402215E01A
:100B4000B14202D14FF4806210E0B94202D14FF4B9
:100B500080420BE0594502D14FF4802206E07145F6
:100B600002D14FF4800201E04FF080622F49083932
:100B70004A60C16A3BE04FF0020808FA0CF818EA34
:100B8000040F4FF000094FF0010235D05FEA83787F
:100B900032D50B689B0605D40B6823F00A030B6063
:100BA00080F821200168A94201D1022219E05145B3
:100BB00001D1202215E0B14202D14FF4007210E0C1
:100BC000B94202D14FF400520BE0594502D14FF423
:100BD000003206E0714502D14FF4001201E04FF0FF
:100BE0000072124908394A6080F82090816A002911
:100BF0001AD0BDE8F05F0847082505FA0CF5254234
:100C000012D01B0710D50B6823F00E030B6090F871
:100C10004010C36B02FA01F15960826380F8212011
:100C200080F82090016BE2E7BDE8F09F08000240E9
:100C30001C000240300002404400024058000240C4
:100C40006C00024030B528B308C813491422194477
:100C5000B1FBF2F18900C163104981630221417740
:100C60001A6843F6F0718A43D0E900142143D0E9B1
:100C700002452C432143046921434469214384698B
:100C8000214311431960002141630122427701771A
:100C9000084630BD012030BDF8FFFDBF0000024016
:100CA00070B5044690F82000002501280CD00120E2
:100CB00084F8200094F821600020012E06D084F8EA
:100CC00020000225284670BD022070BD022684F84F
:100CD0002160A0632068066826F0010606602046B1
:100CE000FFF782FBE06A00282068016802D041F02B
:100CF0000E0106E021F0040101602068016841F066
:100D00000A0101602068016841F001010160D9E732
:100D10002DE9F84FDFF890A100220AF1040B1446E8
:100D200001274FF00F090BF1040E00BF0B6807FA03
:100D300004F52B40AB4274D1DFF870C14E68A6EBCE
:100D40000C0866452BD00DDC032E34D005DC36B301
:100D5000012E19D0022E2FD11BE0112E16D0122EEB
:100D60002AD119E0B8F5881F19D006DCB8F5803F04
:100D700015D0B8F5801F1FD111E0B8F5001F0ED0B7
:100D8000B8F5041F18D10AE0CA6815E0CA68121D38
:100D900012E0CA6808320FE0CA680C320CE08A68B8
:100DA0002AB1012A4FF0080203D0456104E0042271
:100DB00002E0056100E00022FF2B01D8064601E0B9
:100DC00000F104064FEA840501D9A5F12005D6F803
:100DD00000C009FA05F82CEA080C02FA05F54CEAFD
:100DE000050CC6F800C04D68ED0057D5304DAE6912
:100DF00046F00106AE61AD6924F0030605F0010579
:100E000000952C4D06EB050CDCF80850A6074FEAC0
:100E1000167809FA08F6B543274EB04202D10026EB
:100E200010E03BE0254EB04201D101260AE0244EFD
:100E3000B04201D1022605E0224EB04201D1032684
:100E400000E0042606FA08F62E43CCF808604D6848
:100E5000DAF80060ED03554601D51E4300E09E43DD
:100E60002E604D68DBF80060AD035D4601D51E4382
:100E700000E09E432E604D68DEF80060ED0275468E
:100E800001D51E4300E09E432E604D68AD020E4D1D
:100E90002E6801D51E4300E09E432E60641C102C7A
:100EA000FFF444AFBDE8F88F0004014000001110CA
:100EB000001002400000014000080140000C014009
:100EC00000100140001401400C040140C2684A4077
:100ED000C26070470AB1016170470904FBE7000076
:100EE00001488068704700002000002070B50400B1
:100EF00011D021684CF6CC400860216845F255506D
:100F00000860D4E9000141602168A0688860FFF7AB
:100F1000E7FF054609E0012070BD00BFFFF7E0FFD5
:100F2000401B302801D9032070BD2068C06800280C
:100F3000F4D121684AF6AA200860002070BD00683C
:100F40004AF6AA210160002070470000024881682B
:100F5000027811448160704720000020074810B5D6
:100F6000016841F010010160032000F073F80020D7
:100F700000F006F800F024F8002010BD0020024028
:100F800070B50D4D04464FF47A712878B1FBF0F03E
:100F90000A490968B1FBF0F000F0FCFA48B9102CDE
:100FA00007D200222146501E00F034F800206C6069
:100FB00070BD012070BD0000200000201C0000203A
:100FC0000C4808B5816941F001018161816901F036
:100FD00001010091C16941F08051C161C06900F017
:100FE000805000900448416821F0E06141F00071B8
:100FF000416008BD001002400000014000F01F02E7
:10100000012191404009800000F1E020C0F800116A
:1010100070470000F0B40E4B1B680C46C3F302236C
:10102000C3F10705042D00D90425191D072901D294
:10103000002300E0DB1E012606FA05F1491E2140CF
:1010400099409E40761E16403143F0BC01F0E2BA52
:101050000CED00E0064900F0070208684FF6FF03B8
:10106000184040EA0220034A10430860704700001D
:101070000CED00E00000FA052DE9F047DFF854819F
:1010800005460E46D8F8000000F00700B0420CD22A
:10109000D8F8001021F007013143C8F80010D8F843
:1010A000000000F00700B0426FD128684A4C810769
:1010B00012D5400703D5606840F4E060606028788E
:1010C000000703D5606840F4605060606068A968FC
:1010D00020F0F000084360602878C00744D06868BA
:1010E000012816D02168022816D0890700294CDA79
:1010F000616821F0030101436160FFF7F1FE696857
:10110000074641F2883001290ED00229814618D0C5
:1011100026E021688903E9E78901E7E7FFF7E0FEB8
:10112000C11B494501D918E081466068C0F38100C0
:101130000128F3D118E000BFFFF7D2FEC11B4945DB
:101140000BD86068C0F381000228F5D10CE000BF25
:10115000FFF7C6FEC11B494502D90320BDE8F08751
:10116000606810F00C0FF3D1D8F80010404601F081
:101170000701B1420BD9016821F007013143016039
:10118000006800F00700B04201D00120E6E72878AF
:10119000400705D56068E96820F4E06008436060B6
:1011A0002878000706D56068296920F4605040EA75
:1011B000C100606000F036F86168084AC1F30311AD
:1011C000515CC840064908600020FFF7D9FE0020A6
:1011D000C4E700000020024000100240E42F000895
:1011E0001C0000200448054900684968044AC1F30E
:1011F0000221515CC84070471C00002000100240D2
:10120000F42F00080448054900684968044AC1F3FE
:10121000C221515CC84070471C00002000100240F1
:10122000F42F000812A185B00FC98DE80F0014A09B
:10123000144A006804905168134801F00C03042B11
:1012400010D0082B0ED1C1F38343C9031DF803004E
:101250000AD5516804AAC1F34041515C0A4A50437F
:10126000B0FBF1F005B0704708494843FAE70000C9
:1012700002030405060708090A0B0C0D0E0F1010D7
:10128000010200000010024000127A0000093D0037
:101290002DE9F84F04460078B94DC00748D068687A
:1012A000C0F38100012807D06868C0F381000228DC
:1012B00009D16868C00306D52868800338D56068FE
:1012C00000286FD034E06068B0F5803F0BD010B1DB
:1012D000B0F5A02F11D0286820F48030286028684D
:1012E00020F4802002E0286840F4803028606068A4
:1012F00088B1FFF7F5FD064609E0286840F4802034
:101300002860F0E7FFF7ECFD801B642875D828689B
:101310008003F7D50CE0FFF7E3FD064605E000BFCC
:10132000FFF7DEFD801B6428F0D828688003F7D41F
:101330002078944E80074FF001094FF000083BD50C
:10134000686810F00C0F07D06868C0F381000228AD
:1013500009D16868C00306D42868800714D52069BD
:1013600001281FD110E02069B0B1C6F80090FFF746
:10137000B7FD074605E000BFFFF7B2FDC01B02281E
:10138000C4D828688007F7D52868616920F0F8007C
:1013900040EAC10028600FE0C6F80080FFF7A0FD1A
:1013A000074606E0E9E000BFFFF79AFDC01B0228F0
:1013B00023D828688007F7D4207800072CD57248F6
:1013C000A169D9B1C0F80090FFF78AFD074604E093
:1013D000FFF786FDC01B02280FD8686A8007F7D583
:1013E0006A484FF4FA510068B0FBF1F0009000BF7A
:1013F0000098411E0091FAD20EE080E0C0F8008013
:10140000FFF76EFD074604E0FFF76AFDC01B0228E8
:1014100075D8686A8007F7D42078400760D5E869F6
:101420000027C00008D4E86940F08050E861E8690E
:10143000012700F08050009055480168C90513D479
:101440000168834641F480710160FFF749FD8246DF
:1014500006E000BFFFF744FDA0EB0A0064284ED869
:10146000DBF80000C005F5D5E06801280AD008B116
:10147000052813D0286A20F001002862286A20F08D
:10148000040002E0286A40F001002862E06841F2AE
:10149000883B98B1FFF724FD82460BE0286A40F0B4
:1014A00004002862EEE700BFFFF71AFDA0EB0A0177
:1014B00059455AD8286A8007F6D50CE0FFF710FD89
:1014C000824605E0FFF70CFDA0EB0A0159454CD818
:1014D000286A8007F6D41FB1E86920F08050E861DF
:1014E000E06988B36968C1F38101022945D0022807
:1014F000C6F8608004D0FFF7F3FC044638E034E01F
:10150000FFF7EEFC074604E0FFF7EAFCC01B0228E9
:101510002BD828688001F7D4206AB0F5803F05D128
:101520006868A16820F4003008436860D4E90801C5
:101530000843696821F4741108436860C6F8609034
:10154000FFF7CEFC044606E015E000BFFFF7C8FC3D
:10155000001B022809D828688001F7D50BE000BFDE
:10156000FFF7BEFC001B022802D90320BDE8F88F5C
:1015700028688001F4D40020F8E70120F6E7000095
:101580000010024000004242800442421C00002041
:101590000070004010B5401EB0F1807F01D30120E3
:1015A00010BD4FF0E02460610F21601701F032F8A8
:1015B0000020A06107202061002010BD7047704707
:1015C00030B590F83C20012A20D0012280F83C2040
:1015D000022380F83D3003685C6824F070045C608E
:1015E00003685C680D682C435C6003689C6824F0A9
:1015F00080049C6003689C6849680C439C6080F888
:101600003D20002180F83C10084630BD022030BD4E
:1016100010B5040003D094F83D0010B107E001209C
:1016200010BD002084F83C00204600F00DF8022098
:1016300084F83D00211D206801F060F8012084F845
:101640003D00002010BD000010B586B000210091C3
:10165000019102910391026831493248B2F1804F01
:1016600022D0314C4023A2423AD1CA6942F0020250
:10167000CA61CA6902F0020204928A6942F0040255
:101680008A618969009301F0040104916946FFF7BA
:101690003FFB002211461D20FFF7BCFC5FF01D0040
:1016A000FFF7ACFC06B010BDCA6942F00102CA6186
:1016B000CA6902F0010204928A6942F004028A6156
:1016C000896901F004010491012100916946FFF745
:1016D0001FFB002211461C20FFF79CFC1C20DFE7AB
:1016E00012488242DED1C86940F00400C861C8696E
:1016F00000F004000490886940F00800886188695F
:10170000694600F00800049000930948FFF700FBC9
:10171000002211461E20FFF77DFC1E20C0E70000BE
:101720000010024000080140000400400008004092
:10173000000C014070B5044690F83C00012817D019
:10174000012584F83C50022084F83D00206882681E
:1017500022F0770222F47F4282600868502837D056
:101760000DDC202859D005DC88B3102841D151E088
:10177000022070BD302853D040283AD13FE0602885
:101780002ED070280BD0B0F5805F03D0B0F5005F8D
:101790002FD110E02068816821F0070115E0CB68A7
:1017A000D1E90121206800F0EAFF2168886840F053
:1017B000770088601DE0CB68D1E90121206800F046
:1017C000DEFF2068816841F48041816011E01EE005
:1017D000CA684968206801F022F85021206806E0B4
:1017E000CA684968206801F057F86021206800F055
:1017F000D0FF84F83D50002084F83C0070BDCA68DA
:101800004968206801F00BF840212068EFE70021CB
:101810002068ECE710212068E9E720212068E6E74E
:1018200030212068E3E7000070B505463048314EAE
:10183000314C854202D1297F012905D0854217D13B
:10184000287F02280FD013E00021294800F0DFF99B
:101850000004000C60800BD0A188FA225143B1FB38
:10186000F0F0307404E00421214800F0D0F9A080A9
:101870002248854202D1297F012905D0854217D10E
:10188000287F02280FD013E000211C4800F0BFF988
:101890000004000CE0800BD02189FA225143B1FBF7
:1018A000F0F0707404E00421144800F0B0F92081D5
:1018B0001348854202D1297F01290AD0854207D1E8
:1018C000287F022804D104210D4800F0A0F9A0814E
:1018D00070BD00210A4800F09AF90004000C6081F4
:1018E000F6D0A189FA225143B1FBF0F0F07370BD3C
:1018F000DC00002068000020000000201C01002007
:101900005C0100202DE9F041044690F83C000D46B2
:1019100001283BD0012684F83C60022084F83D0079
:101920009AB3042A44D02068082A53D0D5E9002766
:10193000E968036A23F480530362D0F81CC0036A89
:101940002CF4407C4CEA07274FF6FF7C27F47047C5
:101950000CEA01313943770323F4005307EA0232DA
:101960001A43C16102622068C16921F44061C1610A
:101970002068C169AA6841EA0221C16184F83D601A
:10198000002084F83C00BDE8F08101E00220FAE785
:10199000D5E90012EB68206800F052FF20688169E9
:1019A00021F00C01816120688169AA6811430FE070
:1019B000D5E90012EB68206800F080FF206881699B
:1019C00021F44061816120688169AA6841EA0221AD
:1019D0008161D3E7D5E9002C2F7B016A21F4807166
:1019E0000162C169036A21F0030141EA0C0121F09F
:1019F000F00C39074FF400774CEA116123F40073BF
:101A000007EA02221A43C16102622068C16921F01B
:101A10000C01C1612068C169AA681143ADE710B526
:101A2000040003D094F83D0010B107E0012010BD80
:101A3000002084F83C00204600F00CF8022084F8D6
:101A40003D00211D206800F059FE012084F83D0072
:101A5000002010BD704710B50268044631B104295A
:101A600008D0082915D00C2908D116E0D06840F01C
:101A7000020002E0D06840F00400D060012220683B
:101A800000F072FE2068016841F001010160002051
:101A900010BDD06840F00800EFE7D06840F01000BB
:101AA000EBE770B50446006801694FF00005C943D3
:101AB000890715D4C168C943890711D4E91E01619A
:101AC00001202077206880698007204602D0FFF738
:101AD000ABFE04E000F098F8204600F096F8257779
:101AE00020680169C943490717D4C168C943490738
:101AF00013D46FF00401016102202077206880690F
:101B000010F4407F204602D0FFF78EFE04E000F084
:101B10007BF8204600F079F8257720680169C943F1
:101B2000090716D4C168C943090712D46FF0080128
:101B30000161042020772068C0698007204602D018
:101B4000FFF772FE04E000F05FF8204600F05DF859
:101B5000257720680169C943C90617D4C168C943FC
:101B6000C90613D46FF010010161082020772068A6
:101B7000C06910F4407F204602D0FFF755FE04E014
:101B800000F042F8204600F040F82577206801690F
:101B9000C943C90708D1C168C943C90704D1891E0F
:101BA0000161204600F032F820680169C943090646
:101BB00009D4C168C943090605D46FF080010161E9
:101BC0002046FFF7FBFC20680169C943490609D498
:101BD000C168C943490605D46FF040010161204640
:101BE00000F058F820680169C94389060BD4C16820
:101BF000C943890607D46FF0200101612046BDE882
:101C00007040FFF7DCBC70BD70477047704790F8BC
:101C10003C300022012B0AD0012380F83C3041B136
:101C2000042909D008290AD00C290DD10AE0022084
:101C3000704701684A6B07E001688A6B04E001683D
:101C4000CA6B01E001680A6C002180F83C10104664
:101C5000704770B5044690F83C00012818D0012563
:101C600084F83C50022084F83D00204600F099FDA5
:101C70002068C16821F04001C1602068C16821F47A
:101C80008041C16084F83D50002084F83C0070BD64
:101C9000022070BD7047704770B502680446106836
:101CA000D168536910F00F0F50D003F0010501F413
:101CB000907635435DD0C20705D0CA0503D5E26BE7
:101CC00042F00102E263420705D5DA0703D0E26B76
:101CD00042F00202E263820705D5DA0703D0E26B25
:101CE00042F00402E263020705D5DA0703D0E26B93
:101CF00042F00802E263E26B002A33D0800604D58A
:101D0000880602D5204600F077FE20684069E16B26
:101D1000C0F38010090700D428B3204600F055FE18
:101D20002068416949061AD5416921F040014161A5
:101D3000606BA0B11B494163606BFEF78DFE00280C
:101D400010D0606B416BBDE870400847830610D52A
:101D50008B060ED52046BDE8704000F04DBE2046F3
:101D6000FFF799FF70BD2046FFF795FF0020E06365
:101D700070BD030606D50B0604D52046BDE87040AD
:101D800000F03EBF4006F3D54806F1D5D1682046A5
:101D900021F04001D160202184F8391000F0ACF925
:101DA00070BD0000F328000870B5040004D094F85A
:101DB0003900002510B106E0012070BD84F83850CC
:101DC000204600F023F8242084F839002068C168F8
:101DD00021F40051C160204600F05AFE20680169DC
:101DE00021F4904101612068416921F02A0141619B
:101DF0002068C16841F40051C160E563202084F887
:101E0000390084F83A00002070BD00002DE9F0414F
:101E100086B0002400940194029403940546DFF8F0
:101E200068C10368594802210322594F80264FF4A4
:101E3000806863453BD1836943F480438361836950
:101E400003F480430493836943F00403836180694E
:101E5000039200F0040004900802CDE900016946F5
:101E60003846FEF755FFCDE90084694638460294AE
:101E7000FEF74EFF484F474801C7102051C746485C
:101E800047F810497C61BC61FC61FEF7DBFE08B1DC
:101E9000FEF7C0FA2F630022114625207D62FFF76E
:101EA000B9F82520FFF7AAF806B0BDE8F081DFF801
:101EB000ECC0634530D1C36943F40033C361C369E7
:101EC00003F400330493836943F00403836180695E
:101ED000039200F0040004900420CDE9000169465B
:101EE0003846FEF715FF0820CDE90004694638465C
:101EF0000294FEF70DFF2748274F28304437C7E9E3
:101F00000004C7E902463C617C61BC613846FC6163
:101F100032E06F637D62C7E7214FBB42C4D1C36922
:101F200043F48023C361C36903F48023049383696A
:101F300043F0080383618069CDE9008100F0080067
:101F4000CDE90320174F69463846FEF7E1FEF81445
:101F5000CDE90004694638460294FEF7D9FE0E4FDB
:101F60000C4888371438C7E90004C7E902463C61C9
:101F70007C61BC613846FC61FEF764FE0028C8D075
:101F8000FEF748FAC5E700000038014000100240A3
:101F900000080140440002405C0200200044004070
:101FA00000480040000C0140F8B5044690F83A00A3
:101FB00020283CD1C1B3BAB394F83800012836D0F8
:101FC000012084F83800A162A2850025E563222063
:101FD00084F83A00636B17489862636B1648D862BE
:101FE000636B16481863606B134645630846666B5F
:101FF000216802463046091DFEF752FE206801683E
:102000004168009184F83850C16841F48071C16022
:102010002068416941F0010141612068416941F056
:10202000400141610020F8BDFFE70120FBE70220ED
:10203000F9E700004D290008892900080329000854
:10204000094988420DD109480178012903D00329A3
:1020500007D1042104E006490978FF2902D00021B4
:10206000017070470221FBE71C02002000000020E5
:102070002C0000207047000070B5044690F839002D
:10208000202830D169B362B394F8380001282AD0EF
:10209000012084F838002162A284E2840025E563EF
:1020A000212084F83900236B10489862236B104874
:1020B000D862236B0F481863206B1346456326686C
:1020C000206B321DFEF7ECFD21686FF040000860C8
:1020D00084F838502068416941F080014161002056
:1020E00070BD012070BD022070BD00009329000862
:1020F000C12900080329000870477047FEE770B542
:1021000000230C8863F30F02012505FA03F634421D
:1021100006D0C3F10F0605FA06F1114361F30F0271
:102120005B1C102BF1DB028070BD70B500230C78B6
:1021300063F30702012505FA03F6344206D0C3F122
:10214000070605FA06F1114361F307025B1C082B31
:10215000F1DB027070BD00000F4810B50D49016041
:102160000321416000214FF480228160C0E9031205
:102170004FF4A0024261017641768176C176017703
:102180004177FEF745FB002803D0BDE81040FEF77D
:1021900041B910BD00640040A8000020114808B5F6
:1021A000416941F0010141614069002200F00100F4
:1021B000009011460D20FEF72DFF0D20FEF71EFFAB
:1021C000002211460E20FEF725FF0E20FEF716FF17
:1021D000002211461020FEF71DFFBDE80840102028
:1021E000FEF70CBF0010024070B586B000241C48FA
:1021F0000094019402940394816941F0100181617B
:10220000816901F010010491816941F0200181612F
:10221000816901F020010491816941F0040181612B
:10222000816901F004010491816941F00801816133
:1022300080690C4E00F008004FF400550490002215
:1022400029463046FEF746FE01200095CDE90104FF
:102250000220039069463046FEF75AFD06B070BD75
:102260000010024000100140094810B50749016004
:102270000321416040F6FF718160FEF737FE0028C0
:1022800003D0BDE81040FEF7C5B810BD00300040D7
:10229000D000002010B590B0002409940A940B944B
:1022A000142104A80C94FDF744FF2C480D940E94BF
:1022B0000094019402944FF080410394016008213E
:1022C000C0E901144FF6FF71C0E903148461FFF700
:1022D0009FF908B1FEF79EF84FF48050099009A9C4
:1022E0001E48FFF727FA08B1FEF794F81B48FFF7DE
:1022F00096FB08B1FEF78EF8042004905020CDE93B
:10230000050404A915480894FFF7A3FC08B1FEF7DB
:1023100081F80D940DA911480E94FFF751F908B1F9
:10232000FEF778F80120CDE90040029400226946CA
:102330000A480394FFF7E6FA08B1FEF76BF80220AB
:1023400000900190042269460448FFF7DBFA002858
:1023500001D0FEF75FF810B010BD0000DC000020D7
:1023600010B590B0002409940A940B94142104A889
:102370000C94FDF7DEFE2C480D940E94009401940D
:1023800002942849039401600821C0E901144FF622
:10239000FF71C0E903148461FFF73AF908B1FEF751
:1023A00039F84FF48050099009A91F48FFF7C2F986
:1023B00008B1FEF72FF81C48FFF731FB08B1FEF714
:1023C00029F8042004905020CDE9050404A91648FA
:1023D0000894FFF73EFC08B1FEF71CF80D940DA918
:1023E00011480E94FFF7ECF808B1FEF713F801203E
:1023F000CDE900400294002269460B480394FFF7A0
:1024000081FA08B1FEF706F802200090019004223C
:1024100069460548FFF776FA002801D0FDF7FAFF74
:1024200010B010BD000400401C01002010B590B099
:10243000002409940A940B94142104A80C94FDF729
:1024400078FE2C480D940E9400940194029428492F
:10245000039401600821C0E901144FF6FF71C0E93F
:1024600003148461FFF7D4F808B1FDF7D3FF4FF4EC
:102470008050099009A91F48FFF75CF908B1FDF7E2
:10248000C9FF1C48FFF7CBFA08B1FDF7C3FF0420D2
:1024900004905020CDE9050404A916480894FFF7DC
:1024A000D8FB08B1FDF7B6FF0D940DA911480E94A5
:1024B000FFF786F808B1FDF7ADFF0120CDE9004038
:1024C0000294002269460B480394FFF71BFA08B1F7
:1024D000FDF7A0FF02200090019004226946054804
:1024E000FFF710FA002801D0FDF794FF10B010BDDF
:1024F000000800405C0100200C4810B50A4901604A
:102500004FF461414160002181600C22C160C0E94B
:1025100004128161C161FFF747FC002803D0BDE8C8
:102520001040FDF777BF10BD003801409C0100202E
:102530000C4810B50A4901604FF4E13141600021B7
:1025400081600C22C160C0E904128161C161FFF7A2
:102550002BFC002803D0BDE81040FDF75BBF10BD89
:1025600000440040DC0100200C4810B50A4901601D
:102570004FF4E1314160002181600C22C160C0E96B
:1025800004128161C161FFF70FFC002803D0BDE890
:102590001040FDF73FBF10BD004800401C02002066
:1025A000F0B5054614460F461E46184600F01EF8C4
:1025B000C6F1040085400F20F040384028436109EF
:1025C000890001F1E021D1F8002104F01F05012369
:1025D000AB401A43C1F8002104F1E02494F8001440
:1025E00041EA001084F80004F0BD00000721814397
:1025F0000A02054908684FF6FF031840034B1843C9
:1026000010430860704700000CED00E00000FA0580
:10261000FEE770470907090E002806DA00F00F00F0
:1026200000F1E02080F8141D704700F1E02080F8F0
:102630000014704770477047FEF788BC30B58FB004
:1026400028216846FDF775FD14210AA8FDF771FDE4
:102650000920012100904FF480300024049106915C
:10266000CDE901040225CDE907504FF4E0100990AF
:102670006846FEF70DFE0F20CDE90A056802CDE998
:102680000C4002210AA80E94FEF7F6FC0FB030BDF4
:102690000D48016841F00101016041680B4A114099
:1026A000416001680A4A11400160016821F48021FB
:1026B0000160416821F4FE0141604FF41F01816017
:1026C0000449C00308607047001002400000FFF892
:1026D000FFFFF6FE08ED00E00148FFF7E2B9000059
:1026E000DC0000200148FFF7DCB900001C010020DD
:1026F0000148FFF7D6B900005C010020F0B5026880
:10270000164B174C174D4FF08047984205D0B842F2
:1027100003D0A04201D0A84203D122F070064A683B
:102720003243984205D0B84203D0A04201D0A8421B
:1027300003D122F44074CA68224322F080044A691B
:10274000224302608A68C2620A688262984201D1AA
:102750000969016301214161F0BD0000002C0140C5
:10276000000400400008004010B50123046A8B40BB
:102770009C430462036A8A401343036210BD10B590
:10278000846842EA032224F47F440A43224382609D
:1027900010BD826822F070020A4342F00701816096
:1027A000704730B403689A6822F070044A68224384
:1027B00022F007040A6822439A604A6812F00F0F59
:1027C0001FD11211082A1CD2DFE802F01B1B1B1BB1
:1027D0000B1D23040B69D1E90221006830BCFFF70F
:1027E000CEBF0268136A146A24F0010414620268FE
:1027F0009469096924F0F00444EA011191610068C8
:10280000036230BC70470A698968006830BC00F018
:1028100006B80A698968006830BC00F03DB810B598
:10282000036A046A24F001040462846924F0F00459
:1028300044EA021423F00A020A438461026210BDD2
:1028400070B5046A24F0010404628469056A0F4EBD
:10285000B04208D0B0F1804F05D00D4EB04202D04A
:102860000C4EB04203D124F00304144301E044F0C1
:1028700001041A0724F0F00444EA126225F00A0366
:1028800001F00A0119438261016270BD002C014010
:10289000000400400008004010B5036A23F0100354
:1028A00003628369046A23F4704343EA023224F02A
:1028B000A00343EA01118261016210BD30B5046AD0
:1028C00024F0100404628469056A24F4407444EA24
:1028D000022222F470444FF6FF7202EA03322243CE
:1028E000A02425F0A00304EA0111194382610162CA
:1028F00030BD10B5406A0021C185C184FFF7CBF916
:1029000010BD70B5446A2068406994F83910C0F36E
:10291000C0100025212904D118B1E584204600F01B
:1029200062F82068406994F83A10C0F380102229B8
:1029300004D118B1E585204600F047F8E06B40F07F
:102940001000E0632046FFF7A6F970BD10B5014600
:10295000406A09680968890613D40021C1850168A5
:10296000CA6822F48072CA6001684A6922F00102D2
:102970004A6101684A6922F040024A61202180F8D8
:102980003A10FFF75DFB10BD10B5406AFFF772FB10
:1029900010BD10B50146406A0968096889060CD463
:1029A0000021C18401684A6922F080024A610068FE
:1029B000C16841F04001C16010BDFFF79DFB10BD33
:1029C00010B5406AFFF799FB10BD0168CA6822F490
:1029D0009072CA6001684A6922F001024A612021AE
:1029E00080F83A1070470168CA6822F0C002CA60D5
:1029F000202180F83910704710B590F83A1022293C
:102A000001D0022010BD8168B1F5805F11D001694D
:102A1000002901681FD0496801F07F03816A4A1CC0
:102A200082620B70C18D491E0904090CC18518D042
:102A30002BE00269816A002A0268526805D0D2B28E
:102A40000A80816A491C8162ECE7C2F308020A80AD
:102A5000816A891CF7E74A68816A4B1C83620A70A5
:102A6000E0E70168CA6822F02002CA600168CA680B
:102A700022F48072CA6001684A6922F001024A6148
:102A8000202180F83A10FFF7DBFA002010BD00008B
:102A90002DE9F041044600680169E26821F44051E3
:102AA000114301612169A0680843616908432168F5
:102AB000CA6841F20C639A430243CA6020684169C4
:102AC000A26921F44071114341614C492068642599
:102AD000322688423CD1FEF795FB00EBC00101EBAA
:102AE000001061688900B0FBF1F7FEF78BFB00EB8B
:102AF000C00101EB00106168B0468900B0FBF1F045
:102B0000B0FBF5F06FF01801484307EB800106EBCE
:102B10000110B0FBF5F000F0F006FEF773FB00EBE0
:102B2000C00101EB001061688900B0FBF1F0B0FB5F
:102B3000F5F006EB0016FEF765FB00EBC00101EBBC
:102B4000001061688900B0FBF1F7FEF75BFB3BE02A
:102B5000FEF748FB00EBC00101EB00106168890043
:102B6000B0FBF1F7FEF73EFB00EBC00101EB0010FC
:102B70006168B0468900B0FBF1F0B0FBF5F06FF092
:102B80001801484307EB800106EB0110B0FBF5F09C
:102B900000F0F006FEF726FB00EBC00101EB001091
:102BA00061688900B0FBF1F0B0FBF5F006EB0016B0
:102BB000FEF718FB00EBC00101EB00106168890013
:102BC000B0FBF1F7FEF70EFB00EBC00101EB0010CC
:102BD00061688900B0FBF1F0B0FBF5F06FF018010F
:102BE000484307EB800108EB0110B0FBF5F02168CA
:102BF00000F00F0030448860BDE8F08100380140EB
:102C000090F83910212901D0022070478168B1F570
:102C1000805F016A0BD04A1C026202680978516029
:102C2000C18C491E0904090CC1840ED017E0098823
:102C30000268C1F30801516001690029016A02D0EC
:102C4000491C0162ECE7891CFBE70168CA6822F0B5
:102C50008002CA600068C16841F04001C160002084
:102C6000704700000148FFF717B800009C010020E2
:102C700070B5294908682A4DC30601F10402274CA2
:102C80006878096840D51168002626541C21204622
:102C9000FDF760FB227E23498AB9627E7AB9A27E63
:102CA0006AB9E27E5AB9627F237F02EB0322824235
:102CB00005D1A07F0D2802D1E07F0A280AD028691B
:102CC000401C2861002803DD8E70CE700E714E719D
:102CD0006E7070BDA0780870E078487020798870B8
:102CE0006079C870A0790871E0794871207A88719C
:102CF000607AC871A07A0872E07A4872207B887284
:102D0000607BC8722E61E3E78906E2D51168215421
:102D1000401C687070BD0000004400403600002078
:102D200000000020680000200148FDF773BC00008F
:102D3000A800002000B58BB000200121CDE90601DC
:102D40000590009001900290039004900E20CDE930
:102D5000081069460A48FDF771FB08B1FDF75AFBF8
:102D60000748FDF745FE08B1FDF754FB0221044872
:102D7000FDF751FB002801D0FDF74CFB0BB000BD67
:102D8000A8000020FEE702E008C8121F08C1002AC0
:102D9000FAD170477047002001E001C1121F002ADC
:102DA000FBD17047FEF7DAF8FFF748FCFFF71CFA93
:102DB000FFF7F4F9FFF7A0FBFFF7D6FBFFF7CCF91D
:102DC000FFF752FAFFF7B4FBFFF764FAFFF7C8FA10
:102DD000FFF72CFBFFF7AEFF4FF4E131242000F0AA
:102DE00075F8002739463248FEF735FE0421304891
:102DF000FEF731FE00212F48FEF72DFE04212D485D
:102E0000FEF729FE00212C48FEF725FE04212A4862
:102E1000FEF721FE294C00264FF0FF084FF0FE0977
:102E2000A4F1120500F0B2F884F8008084F8019053
:102E3000A88900F5FA6000F07F01A170C009E07078
:102E4000A87B2071E87B6071287CA071687CE071B0
:102E50002878207268786072A878A072E878E072AA
:102E60002879207368796073A879A073E879E07392
:102E7000287A2074687A6074FEF732F8B842D1D9A3
:102E800012220E490E48FFF7F7F8FEF729F800F175
:102E900014070C48FEF753F8092E01D0761CC1E741
:102EA0004FF400510848FEF711F80026BAE7000079
:102EB000DC0000201C0100205C0100207A000020C2
:102EC0009C010020D00000200010014070B5044695
:102ED0000801FDF7DBF9054628486043FDF7D6F900
:102EE0002946FDF789F90546FDF7D5F984B2204654
:102EF000FDF7CCF92946FDF77CF90421FDF7BAF975
:102F0000FDF7C9F94FF6FF7101EA0411084482B2D6
:102F10001B48816941F004018161C16941F40031BC
:102F2000C16118490B6823F47F430B600B6843F4BD
:102F30000B430B60016941F400310161016921F427
:102F40000031016110480260001D016842F20C026C
:102F500011430160016841F480710160016841F032
:102F600020010160016841F010010160BDE870407E
:102F70000223262200210846FFF712BB40420F0021
:102F800000100240000801400844004010B5114CF8
:102F9000002011492278052A19D2DFE802F003192E
:102FA0000B191200087001220B490C48FEF7FCFFB8
:102FB00001200CE002220948491CFEF7F5FF03201E
:102FC00005E04A78FE2A02D1054A8978917320707B
:102FD00010BD0000000000202C0000201C0200207A
:102FE000680000200000000000000000010203044F
:102FF0000607080900000000010203041C30000855
:10300000000000202C000000862D00084830000839
:103010002C000020FC060000962D00080000000097
:1030200000000000000000000000000000000000A0
:10303000000000000000000000A24A04010000009F
:08304000100000000000000078
:04000005080000ED02
:00000001FF
