:020000040800F2
:10000000C00C0020450100086D37000819240008C5
:10001000A9310008690B0008293D00080000000014
:10002000000000000000000000000000C3370008CE
:100030005F0C0008000000006F370008113800084E
:100040005F0100085F0100085F0100085F01000810
:100050005F0100085F0100085F0100085F01000800
:10006000A50C0008E90C0008EF0C00085F0100086F
:10007000050C0008110C00085F0100085F01000872
:100080001D0C0008290C00085F0100085F01000832
:100090005F0100085F0100085F010008F50C00081F
:1000A0005F0100085F0100085F0100085F010008B0
:1000B0005F0100085F0100085F0100085F010008A0
:1000C0005F0100085F0100085F0100085F01000890
:1000D0005F0100085F0100085F0100085F01000880
:1000E000610C00085F0100085F0100085F01000863
:1000F0005F0100085F0100085F0100085F01000860
:100100005F0100085F0100085F0100085F0100084F
:100110005F0100085F0100085F0100085F0100083F
:100120005F0100085F0100085F0100085F0100082F
:10013000DFF80CD000F056FC00480047ED4C0008FA
:10014000C00C00200648804706480047FEE7FEE74F
:10015000FEE7FEE7FEE7FEE7FEE7FEE7FEE7FEE777
:100160007138000831010008202A04DB203A21FA06
:1001700002F00021704721FA02F3D040C2F12002C0
:10018000914008431946704740EA01039B0703D09A
:1001900009E008C9121F08C0042AFAD203E011F8C6
:1001A000013B00F8013B521EF9D27047D2B201E088
:1001B00000F8012B491EFBD270470022F6E710B56C
:1001C00013460A4604461946FFF7F0FF204610BDC5
:1001D000F0B480EA0102D40F4200B2EB410F02D228
:1001E0000246084611464A0042D0C30DDDB2C1F3B3
:1001F000C752AD1A202D35DAC1F3160141F40002C1
:1002000004B15242C5F1200602FA06F12A41104417
:10021000B3EBD05F23D0C4B1012DA0EBC35009DCF8
:10022000F0BC4FF0004202EAC352DBB200F500001E
:1002300000F0FCBA400000F1807000EBC350A0F168
:10024000807040EAD170490009E0490841EAC07174
:10025000A0EBC35000F50000400800EBC350F0BC19
:1002600000F0DBBA6142012202EB4101001BF6E71C
:10027000F0BC704781F00041AAE780F00040A7E79A
:1002800080EA010210B502F00043400022D04A008B
:100290001FD0010E01EB1261C0F35600C2F35602EB
:1002A00040F4000042F40002A0FB022000047F3969
:1002B000140400D0401C50EA124001D44000491EF2
:1002C000C2B20C0604EBD010401C4008802A02D0B9
:1002D00003E0002010BD20F00100002900DA00201A
:1002E000184310BD30B480EA010202F0004530F03E
:1002F000004221F0004013D090B1C30DD40DC2F3E1
:100300001601C0F31600E41A41F4000140F40002A3
:100310007D34914201D3641C00E04900002C02DAD4
:1003200030BC002070474FF400000023914201D3FD
:10033000891A034340084FEA4101F7D151B1914274
:1003400002D14FF0004105E002D24FF0010101E07F
:100350006FF0010103EBC450284430BC00F05DBADB
:100360002DE9FE4F804681EA0300C00F0C46009045
:1003700021F0004123F00045B8EB0200A94105D26D
:100380004046214690461C460B46024623F000405C
:10039000104347D0270DC7F30A00C3F30A51029058
:1003A000401A019040286BDAC3F3130040F4801B1D
:1003B0000098924620B10023D2EB030A63EB0B0BAB
:1003C00001985946C0F14002504600F005FA064631
:1003D0000D4650465946019A00F00DFA10EB080000
:1003E0006141002487EA115284EAE7731A4340D03E
:1003F000009A62B3019A012A4FEA075215DC001BEA
:1004000061EB02014FF0004202EA0752CDE90042DF
:10041000001C41F5801132462B4600F044FA03B02F
:10042000BDE8F08F40462146F9E7001B61EB020171
:10043000001C41F5801300185B412018A2F500173D
:1004400047EB030140EAD570B6196D4111E06D0824
:100450004FEA360645EAC0754FEA0752001B61EBCA
:100460000201001C41F5801149084FEA30000019D3
:10047000514132462B4603B0BDE8F04F00F004BABC
:100480000098012240000023D0EB020263EBE073EE
:10049000009821464FEAE074B8EB000061EB0401DC
:1004A000E9E783F000435BE781F0004158E72DE97D
:1004B000FE4F81EA030404F0004421F0004100945F
:1004C0004FF0000B23F0004350EA01045ED052EAE3
:1004D00003045BD0C3F30A54C1F30A552C44A4F2BD
:1004E000F3340194A0FB0254C1F3130141F48011D1
:1004F000C3F3130343F4801301FB024400FB034ED8
:10050000840A970A44EA815447EA8357A4FB0768A0
:1005100002958D0A05FB07854FEA932C04FB0C54CA
:100520002705029D4FEA065847EA1637B5EB08053E
:100530006EEB070C870E920E47EA811742EA831290
:10054000A7FB0201B6EB0B0164EB00042B0D43EAA1
:100550000C335E1844EB1C50DA465146E7FB0201AF
:10056000C5F313044FEA0B3343EA14534FEA043242
:10057000019C43EA0603A4F10C040294009CCDE91B
:1005800000B400F090F903B0BDE8F08F0020014600
:10059000F9E72DE9F04D81EA030404F0004B21F066
:1005A000004514464FF0000A23F0004150EA0502CE
:1005B00020D054EA01021DD0C5F30A570246C5F304
:1005C0001303C1F31300C1F30A5640F4801543F43A
:1005D0008013A7EB0608101BD64608F2FD3873EB14
:1005E000050002D308F1010801E092185B41B8F15F
:1005F000000F03DA00200146BDE8F08D00204FF423
:100600008011064684460EE0171B73EB050705D3E1
:10061000121B63EB050306434CEA010C49084FEA41
:10062000300092185B4150EA0107EDD152EA030015
:1006300012D082EA040083EA0501084305D0101BAA
:10064000AB4106D20122002306E000224FF0004316
:1006500002E06FF0010253101AEB06004CEB085158
:1006600010EB0A0041EB0B01BDE8F04D00F00CB9B6
:10067000C10F80EAE0700844CA079623002100F009
:10068000D5B896230022114600F0D0B80EB5C10FA0
:1006900080EAE0700844CA07002140F233438DE845
:1006A0000E000A460B4600F0FEF803B000BD0EB582
:1006B00040F2334102910021CDE900110A460B4678
:1006C00000F0F1F803B000BD00F0004220F000405F
:1006D000C10DC0F3160040F400007F2901DA0020AC
:1006E0007047962903DCC1F19601C84001E09639B4
:1006F0008840002AF4D04042704770B5C1F30A52D6
:1007000001F000450024C1F3130140F2FF3341F42E
:1007100080119A4201DA002070BD40F233439A42C0
:10072000A2F2334203DC5242FFF71EFD00E090408C
:100730002C43F1D0404270BD00F0004230F0004048
:100740000AD0C10D01F56071C0F3160042EA0151F3
:10075000C20840071143704700200146704701F06E
:10076000004330B421F0004150EA010206D00A0DE6
:10077000A2F56072C1F31301002A02DC30BC002034
:100780007047440F44EAC104C100E01830BC00EBDC
:10079000C25000F042B80000002801DBC0F1004068
:1007A000002901DBC1F100418842704730B50B469A
:1007B000014600202022012409E021FA02F59D4291
:1007C00005D303FA02F5491B04FA02F52844151E65
:1007D000A2F10102F1DC30BD202A04DB203A00FA4C
:1007E00002F1002070479140C2F1200320FA03F388
:1007F000194390407047202A06DBCB17203A41FA74
:1008000002F043EAE07306E041FA02F3D040C2F19D
:10081000200291400843194670470029A8BF70473D
:10082000401C490008BF20F00100704710B4B0FA26
:1008300080FC00FA0CF050EA010404BF10BC7047C1
:1008400049B1CCF1200421FA04F411FA0CF118BFDB
:10085000012121430843A3EB0C01CB1D4FEA0061AA
:100860004FEA102042BF002010BC704700EBC3507D
:1008700010440029A4BF10BC7047401C490008BFA9
:1008800020F0010010BC704710B5141E73F1000475
:1008900008DA401C41F1000192185B411A4301D172
:1008A00020F0010010BD2DE9F04D92469B4611B19C
:1008B000B1FA81F202E0B0FA80F220329046FFF7FE
:1008C0008BFF04460F4640EA0A0041EA0B015346FB
:1008D0005A46084313D0114653EA010019D0C8F113
:1008E00040025046FFF740FC05460E46504659462A
:1008F0004246FFF771FF084305D0012004E020467F
:100900003946BDE8F08D0020054346EAE0762C43E9
:1009100037430A986305E40AA0EB08000022FD0AA9
:1009200044EA47540A3002D500200146E9E70105B0
:1009300010196941DDE9084500196941BDE8F04D2C
:10094000A2E72DE9F04D00231A461B1A8A4103DB6A
:1009500000200146BDE8F08DC1F30A52C1F3130136
:1009600041F480154FF0000BD10702D100186D4102
:10097000521E0027044640F2FF11384601EB620A7E
:100980003E468046024600204FF48011FFF7ECFB04
:10099000C2197141BB1846EB0100B4EB030C75EBB7
:1009A000000C04D3E41A65EB000517460E46241923
:1009B00008F101006D4180463428E3DDF91946EB6A
:1009C0000600091BA84103D24FF0FF32134601E095
:1009D000002213461BEB070046EB0A51BDE8F04D21
:1009E000FFF752BF064C074D06E0E06840F00103F8
:1009F00094E8070098471034AC42F6D3FFF79CFB0D
:100A0000F85A0008185B000870B521F00043034352
:100A10000CD0C1F30A550024D5EB040564EB0403A4
:100A2000D617AD1AB34102DB0020014670BD201875
:100A300041EB025170BD00001A4B012A03EBC111BA
:100A400001EB00100ED0022A17D0032A1FD0042A6F
:100A500007D1017841F008010170017C41F00201E9
:100A600001747047017841F00101017090F8801025
:100A700041F0040180F88010704710F8101941F01F
:100A800002010174017841F008010170704701789A
:100A900041F00401017010F8801C41F0010100F8E0
:100AA000801C70478C0000202DE9F0412A4E012760
:100AB0002A4930780024154605284AD2DFE800F09C
:100AC000030A0C0A14000C7001222449244801F086
:100AD000C7FB3770BDE8F08102222148491C01F0B4
:100AE000BFFB03203070F5E74878302831D1887893
:100AF0001C496D2811D0782812D04FF4FA7277284B
:100B000010D0514273280FD0612810D0642811D022
:100B1000712813D0652815D017E0FF20087014E065
:100B20000C7012E0EA8000E0E980AC8004E0EC8028
:100B3000A98001E0EC80AA802C8106E0EC80AC80EA
:100B4000298102E0EC80AC802A81AF7200F0D8FBF2
:100B500028603470BEE70000140000205000002020
:100B60003007002019000020FEE7000070B50021CA
:100B7000224C0B46002004EBC11200BF02EB001513
:100B800001282B7002D0062806D00CE0167C02F15A
:100B9000100546F0020605E092F8606002F160057B
:100BA00046F008062E70012902D0062908D00EE072
:100BB000124D803505EB00152E7846F0040605E051
:100BC0000F4D05EB00152E7846F001062E70401CE7
:100BD0000828D3DB491C0829CCDB0124C4F1060515
:100BE000E9B2E0B20122FFF727FFE9B2E0B2042246
:100BF000FFF722FF641C062CF0DB70BD8C00002088
:100C00008C030020014800F0ADB800007C080020F3
:100C1000014800F0A7B8000038080020014800F0A3
:100C2000A1B80000B0070020014800F09BB8000008
:100C3000F407002030B590F840500124AC40C56B5B
:100C40006C60046863604368102B036803D099608C
:100C50000068C26030BD9A600068C16030BD7047F6
:100C600070B50C480168090413D54FF400440460C2
:100C70000421094800F032FB05462146074800F0F0
:100C80002DFB07498542088801D1401E00E0401C29
:100C9000088070BD14040140000C014000080140B0
:100CA0000C0000200C4810B50168490712D504213A
:100CB00001600A4800F012FB04464FF40041084866
:100CC00000F00CFB07498442088801D1401C00E079
:100CD000401E088010BD000014040140000C0140BB
:100CE000000801400C000020082000F0EFB910209F
:100CF00000F0ECB910B5402000F0E8F9BDE8104074
:100D0000802000F0E3B9FEE770B512494268124C4A
:100D1000B1F90030D21A42602368426D5B6A1BB29F
:100D2000D21A42650D4AC36A15686D6A2DB25B1B03
:100D3000C3620B4BC56F1E68766A36B2AD1BC567C2
:100D4000002008802168486211684862196848627A
:100D500070BD00000C000020F005002030060020CF
:100D6000700600202DE9F05FC16B0A6801680B680E
:100D7000046C4FF0040808FA04F8844D844E854F43
:100D8000DFF814C2DFF81492DFF814A2DFF814B20F
:100D9000DFF814E218EA020F65D05FEA437862D503
:100DA0000A68920603D40A6822F004020A60DFF897
:100DB000F0814FF48062016808F1140813011402F5
:100DC000414524D9A9420DD0B1420FD0B9421AD021
:100DD000614515D0494515D0514501D1120312E0A6
:100DE000594501D104220EE0714501D140220AE0AB
:100DF0006D4D1435A94206D06B4A2832914201D17B
:100E00001A4600E022466749091F0A6029E0A94204
:100E100013D0B14215D0B94220D061451BD049450D
:100E20001BD0514502D14FF4800217E0414502D159
:100E30004FF0806212E0594501D104220EE0714565
:100E400001D140220AE0584D1435A94206D0564A35
:100E50002832914201D11A4600E022464B49083916
:100E60004A60C16A71E04FF0020808FA04F818EA13
:100E7000020F70D05FEA83786DD50A68920606D4B7
:100E80000A6822F00A020A60012180F82110DFF8C6
:100E900010814FF40072016808F114081301140264
:100EA000414524D9A9420DD0B1420FD0B9421AD040
:100EB000614515D0494515D0514501D1120312E0C5
:100EC000594501D102220EE0714501D120220AE0EC
:100ED000354D1435A94206D0334A2832914201D10A
:100EE0001A4600E022462F49091F0A6029E0A9425C
:100EF00013D0B14215D0B94220D061451BD049452D
:100F00001BD0514502D14FF4001217E0414502D1E8
:100F10004FF0007212E0594501D102220EE07145F6
:100F200001D120220AE0204D1435A94206D01E4AE4
:100F30002832914201D11A4600E02246134908396D
:100F40004A60002180F82010816A00291CD0BDE889
:100F5000F05F0847FFE70825A540154214D01A079F
:100F600012D50A6822F00E020A6090F84020C36B86
:100F7000012101FA02F25A60816380F821100021F8
:100F800080F82010016BE0E7BDE8F09F0800024008
:100F90001C00024030000240440002405800024061
:100FA0006C000240080402401C04024030B560B1ED
:100FB0001A4B026814219A4209D2194B1344B3FB0D
:100FC000F1F18900016417490AE0012030BD134B9B
:100FD0005B421344B3FBF1F1890001640F49083906
:100FE000C163022180F82110136843F6F0718B432E
:100FF000F0E901142143D0E902452C43214304695F
:10100000214344692143846921431943116000212C
:101010004163012242770177084630BD080402404F
:10102000F8FFFDBF0000024070B5044690F82000B4
:10103000002501280CD0012084F8200094F82160BC
:101040000020012E06D084F820000225284670BD1D
:10105000022070BD022684F82160A0632068066823
:1010600026F0010606602046FFF7E4FDE06A00284E
:101070002068016802D041F00E0106E021F0040171
:1010800001602068016841F00A0101602068016880
:1010900041F001010160D9E70B4A012113780D2BC2
:1010A00007D00B2B04D140280BD0802800D15171E0
:1010B0007047082803D01028FAD1D170704791707A
:1010C000704711717047000018000020044910B5E6
:1010D0000A68024202D00860FFF7DEFF10BD000080
:1010E000140401402DE9F84FDFF8C891002409F1FC
:1010F000040A0AF1040B23460F270BF1040ED1E07A
:101100000125A54006EA0502AA4276D1DFF8A8C16A
:101110004E68A6EB0C0866452BD00DDC032E34D0B0
:1011200005DC36B3012E19D0022E2FD11BE0112E73
:1011300016D0122E2AD119E0B8F5881F19D006DC76
:10114000B8F5803F15D0B8F5801F1FD111E0B8F574
:10115000001F0ED0B8F5041F18D10AE0CB6815E0C7
:10116000CB681B1D12E0CB6808330FE0CB680C3353
:101170000CE08B682BB1012B4FF0080303D04561C5
:1011800004E0042302E0056100E00023FF2A01D807
:10119000064601E000F104064FEA840501D9A5F1F5
:1011A0002005D6F8008007FA05FC28EA0C0803FAA7
:1011B00005F548EA0508C6F800804D68ED0070D5D1
:1011C0003E4DAE6946F00106AE61AD6924F00306FE
:1011D00005F0010500953A4D06EB050CDCF80850CA
:1011E000A607360F07FA06F825EA0805DFF8D480C7
:1011F000404503D14FF0000825E052E0DFF8C880F9
:10120000404502D14FF001081DE0DFF8C0804045A5
:1012100002D14FF0020816E0DFF8B480404502D159
:101220004FF003080FE0DFF8AC80404502D14FF0EB
:10123000040808E0DFF8A080404502D14FF005081F
:1012400001E04FF0060808FA06F848EA0508CCF86D
:1012500008804D68D9F80060ED034D4601D516436E
:1012600000E096432E604D68DAF80060AD03554605
:1012700001D5164300E096432E604D68DBF8006010
:10128000ED025D4601D5164300E096432E604D68A1
:10129000DEF80060AD02754601D5164300E09643C6
:1012A0002E60641C0A681646E2407FF429AFBDE850
:1012B000F88F0000000401400000111000100240EF
:1012C0000000014000080140000C014000100140F6
:1012D0000014014000180140001C014080680840D3
:1012E00000D001207047C2680A4201D041617047B6
:1012F000016170470AB1016170470904FBE7000012
:1013000001488068704700002800002070B5040084
:101310001BD094F83D00002520B984F83C502046AD
:1013200000F0AEF8242084F83D002068016821F028
:101330000101016000F00AFA4D4A6168914201D84A
:101340004C4900E04C49884201D2012070BD4B4914
:101350002368B0FBF1F15E6826F03F060E435E6045
:101360006368934206D94FF4967359434FF47A73E6
:10137000B1FBF3F12368491C1E6A26F03F06314396
:1013800019626168914210D84900401EB0FBF1F229
:10139000521CC2F30B02042A01D2042022E0B0FB4B
:1013A000F1F0401CC0F30B001CE0A368F3B301EBA9
:1013B000C10202EB0116421EB2FBF6F2521C42F4CD
:1013C0008042120549D093B301EBC10202EB011137
:1013D000401EB0FBF1F0401CC0F30B0040F4804015
:1013E00040F400402168CA694CF6FF739A431043E9
:1013F000C861D4E90701084321680A6822F0C002E5
:1014000010430860D4E9030101432068826848F270
:10141000FF339A4311438160D4E9050108432168F1
:10142000CA6822F0FF021043C86001E00EE016E037
:101430002068016841F0010101602564202084F8E2
:101440003D00256384F83E50002070BD01EB41064D
:10145000421EB2FBF6F2521CB3E70120C2E701EBD9
:101460004101401EB0FBF1F0401CC0F30B00B7E798
:10147000A086010080841E0000093D0040420F004C
:1014800010B586B00021009101910291039100688E
:101490001349884222D1134CA06940F00800A06192
:1014A000A069694600F0080004904FF44070009075
:1014B00012200190032003900B48FFF713FE0B4806
:1014C000416841F0E06141F002014160E06940F4AF
:1014D0000010E061E06900F40010049006B010BD57
:1014E0000054004000100240000C01400000014088
:1014F000024881680278114481607047280000200A
:10150000074810B5016841F010010160032000F0A8
:1015100075F8002000F006F800F024F8002010BD57
:101520000020024070B50D4D04464FF47A712878C2
:10153000B1FBF0F00A490968B1FBF0F000F0ECFAF9
:1015400048B9102C07D200222146501E00F036F870
:1015500000206C6070BD012070BD000028000020DC
:10156000340000200C4808B5816941F00101816117
:10157000816901F001010091C16941F08051C161AF
:10158000C06900F0805000900448416821F0E0619B
:1015900041F00071416008BD0010024000000140B0
:1015A000002809DB00F01F02012191404009800062
:1015B00000F1E020C0F8001170470000F0B40E4BBD
:1015C0001B680C46C3F30223C3F10705042D00D9A1
:1015D0000425191D072901D2002300E0DB1E012686
:1015E00006FA05F1491E214099409E40761E16409C
:1015F0003143F0BC02F0BEBB0CED00E0064900F048
:10160000070208684FF6FF03184040EA0220034A29
:1016100010430860704700000CED00E00000FA0580
:101620002DE9F0470F46050061D0434E306800F0C9
:101630000700B84209D2306820F007003843306014
:10164000306800F00700B84251D128683B4C810750
:1016500012D5400703D5606840F4E06060602878E8
:10166000000703D5606840F4605060606068A96856
:1016700020F0F000084360602878C00728D0686830
:10168000012810D02168022810D0890700292EDAFD
:10169000616821F0030101436160FFF731FE80467C
:1016A00041F288390DE021688903EFE78901EDE710
:1016B000FFF726FEA0EB0801494502D90320BDE84B
:1016C000F0876068696800F00C00B0EB810FEFD123
:1016D000306800F00700B8420BD9306820F00700EE
:1016E00038433060306800F00700B84201D0012074
:1016F000E5E72878400705D56068E96820F4E060F0
:10170000084360602878000706D56068296920F4DE
:10171000605040EAC100606000F038F86168084A33
:10172000C1F30311515CC8400649086006480068CF
:10173000FFF7F8FE0020C2E7002002400010024040
:1017400020590008340000202C00002004480549DE
:1017500000684968044AC1F30221515CC8407047DF
:1017600034000020001002403059000804480549A8
:1017700000684968044AC1F3C221515CC8407047FF
:1017800034000020001002403059000812A185B03A
:101790000FC98DE80F0014A0144A00680490516826
:1017A000134801F00C03042B10D0082B0ED1C1F309
:1017B0008343C9031DF803000AD5516804AAC1F385
:1017C0004041515C0A4A5043B0FBF1F005B070470C
:1017D00008494843FAE70000020304050607080920
:1017E0000A0B0C0D0E0F1010010200000010024039
:1017F00000127A0000093D002DE9F84F040070D076
:101800002078C04DC00749D06868C0F38100012826
:1018100007D06868C0F38100022809D16868C00356
:1018200006D52868800339D560680028E7D035E000
:101830006068B0F5803F0BD010B1B0F5A02F11D08B
:10184000286820F480302860286820F4802002E096
:10185000286840F480302860606890B1FFF750FD40
:1018600006460AE0286840F480202860F0E700BFC0
:10187000FFF746FD801B642873D828688003F7D5DE
:101880000CE0FFF73DFD064605E000BFFFF738FD21
:10189000801B6428F0D828688003F7D420789A4EFB
:1018A00080074FF001094FF0000839D5686810F043
:1018B0000C0F07D06868C0F38100022809D168685E
:1018C000C00306D42868800714D52069012808D1F0
:1018D00010E02069B0B1C6F80090FFF711FD07468F
:1018E00005E00AE1FFF70CFDC01B0228C4D82868F8
:1018F0008007F7D52868616920F0F80040EAC10048
:1019000028600DE0C6F80080FFF7FAFC074604E007
:10191000FFF7F6FCC01B022823D828688007F7D4FD
:10192000207800072CD57948A169D9B1C0F800907A
:10193000FFF7E6FC074604E0FFF7E2FCC01B0228C5
:101940000FD8686A8007F7D571484FF4FA510068DC
:10195000B0FBF1F0009000BF0098411E0091FAD258
:101960000EE080E0C0F80080FFF7CAFC074604E004
:10197000FFF7C6FCC01B022875D8686A8007F7D439
:101980002078400760D5E8690027C00008D4E869DE
:1019900040F08050E861E869012700F08050009035
:1019A0005C480168C90513D40168834641F480711D
:1019B0000160FFF7A5FC824606E000BFFFF7A0FC30
:1019C000A0EB0A0064284ED8DBF80000C005F5D56E
:1019D000E06801280AD008B1052813D0286A20F051
:1019E00001002862286A20F0040002E0286A40F022
:1019F00001002862E06841F2883B98B1FFF780FC63
:101A000082460BE0286A40F004002862EEE700BF3F
:101A1000FFF776FCA0EB0A0159455AD8286A8007DF
:101A2000F6D50CE0FFF76CFC824605E0FFF768FC9A
:101A3000A0EB0A0159454CD8286A8007F6D41FB19B
:101A4000E86920F08050E861E06988B36968C1F313
:101A50008101022944D00228C6F8608004D0FFF733
:101A60004FFC044638E034E0FFF74AFC074604E048
:101A7000FFF746FCC01B02282BD828688001F7D44A
:101A8000206AB0F5803F05D16868A16820F4003075
:101A900008436860D4E908010843696821F47411B7
:101AA00008436860C6F86090FFF72AFC044606E029
:101AB00025E000BFFFF724FC001B022809D8286896
:101AC0008001F7D51BE000BFFFF71AFC001B0228BE
:101AD00002D90320BDE8F88F28688001F4D40EE015
:101AE0000128F7D06868226A00F48031914204D15D
:101AF000616A00F47010884201D00120EAE70020FA
:101B0000E8E7000000100240000042428004424228
:101B1000340000200070004010B5401EB0F1807FFE
:101B200001D3012010BD4FF0E02460610F21601748
:101B300002F020F90020A06107202061002010BDE4
:101B400010B590F83C20012A22D0012280F83C20D8
:101B5000CA688C6822F4407222434C6822F4806286
:101B600022430C6822F4006222430C6922F4805262
:101B700022434C6922F400522243C969002322F413
:101B800080420A4301684A6480F83C30002010BD5E
:101B9000022010BD70B590F83C20012A19D0012414
:101BA00000F83C4F0222427050F83C3C5A689D6855
:101BB00022F070060A684968324325F080052943FF
:101BC0005A6050F83C2C9160447000210170084626
:101BD00070BD022070BD10B5040003D094F83D0024
:101BE00010B107E0012010BD002084F83C00204621
:101BF00000F00CF8022084F83D00211D206801F05F
:101C00005BFE012084F83D00002010BD08B501688E
:101C10001148B1F1804F0BD0104A914210D1C169E7
:101C200041F01001C161C06900F01000009008BDD2
:101C3000C16941F00101C161C06900F00100F5E72F
:101C4000074A9142F3D1816941F400518161806971
:101C500000F40050EAE700000010024000100040CD
:101C60000034014070B5044690F83C00012817D0BC
:101C7000012584F83C50022084F83D0020688268E9
:101C800022F0770222F47F4282600868502830D028
:101C90000DDC20284DD005DC98B310283BD148E05E
:101CA000022070BD302844D0402834D139E060286B
:101CB00028D0702806D0B0F5805F2CD0B0F5005F3A
:101CC00029D10AE0CB68D1E90121206801F047FE63
:101CD0002068816841F0770109E0CB68D1E90121F2
:101CE000206801F03CFE2068816841F480418160F9
:101CF00011E0CA684968206801F006FF5021206899
:101D000007E016E0CA684968206801F00EFF60210C
:101D1000206801F02EFE84F83D50002084F83C003D
:101D200070BDCA684968206801F0EEFE4021206855
:101D3000EFE7226801461046EBE72DE9F0410D463A
:101D4000040003D094F83D0018B108E00120BDE87C
:101D5000F081002084F83C00204600F03BF802208F
:101D600084F83D002068816844F207029143816055
:101D7000211D206801F0A0FD226890689169166A13
:101D80002B68AF69034340F20330814341EA0721E6
:101D9000A868EF6908434FF6FC418843E96840EAC8
:101DA0000720014328692F6A000140EA07300843F1
:101DB00069686D6926F0220646EA05152943936095
:101DC0002268906120680162012084F83D000020B3
:101DD000BDE7000000B585B000210091019102919E
:101DE00003912B4B02682B492B489A421FD1CA6999
:101DF00042F00202CA61CA6902F0020204928A69D0
:101E000042F008028A61896901F0080104913021D9
:101E100000916946FFF766F92048416821F4406166
:101E200041F0E06141F40061416005B000BD1C4B30
:101E30009A4213D1CA6942F00402CA61CA6902F027
:101E4000040204928A6942F008028A61896901F0F9
:101E500008010491C0210091694616E011488242B0
:101E6000E3D1C86940F00800C861C86900F0080003
:101E70000490886940F0040088618869694600F030
:101E800004000490032000900748FFF72BF9CCE7EB
:101E90000004004000100240000C0140000001401E
:101EA00000080040000C00400008014010B5044646
:101EB000006891B1042904D00122002101F042FD03
:101EC000206801225FF0040101F03CFD20680168F8
:101ED00041F001010160002010BD01220021F3E763
:101EE00000B585B000210091019102910391006835
:101EF0000B49884212D10B48816941F01001816180
:101F00008069694600F0100004904FF44070009022
:101F10000220019003900448FFF7E4F805B000BDEB
:101F200000340140001002400010014070B504462A
:101F300090F83C000D4601280DD0012684F83C6045
:101F4000022084F83D0042B1042A18D0082A2AD081
:101F50000C2A4DD139E0022070BD206801F012FD3D
:101F60002068816941F0080181612068816921F060
:101F700004018161206881692A69114311E02068A8
:101F800001F030FD2068816941F4006181612068C1
:101F9000816921F480618161206881692A6941EA4F
:101FA0000221816124E0206801F052FD2068C169AE
:101FB00041F00801C1612068C16921F00401C161DB
:101FC0002068C1692A69114311E0206801F074FD9D
:101FD0002068C16941F40061C1612068C16921F4D0
:101FE0008061C1612068C1692A6941EA0221C16139
:101FF00084F83D60002084F83C0070BD10B50400FA
:1020000003D094F83D0010B107E0012010BD00207E
:1020100084F83C00204600F00CF8022084F83D00D3
:10202000211D206801F048FC012084F83D000020BB
:1020300010BD704710B504460068012201F082FC13
:102040000B492068884202D00A49884203D1416C7A
:1020500041F4004141642068816801F007010629CC
:1020600003D0016841F001010160002010BD0000B3
:10207000002C014000340140704770B5040004D0CA
:1020800094F83900002510B106E0012070BD84F8F5
:102090003850204600F022F8242084F839002068C7
:1020A000C16821F40051C160204601F0AFFD2068F5
:1020B000016921F4904101612068416921F02A0100
:1020C00041612068C16841F40051C160E56320208E
:1020D00084F8390084F83A00002070BD2DE9F04101
:1020E00086B0002500950195029503950446514F51
:1020F000036851480221032280264FF01008BB429A
:1021000045D1C36943F40033C361C36903F40033A9
:102110000493836943F0040383618069474F00F0AF
:10212000040004900420CDE900010392694638467A
:10213000FEF7D8FF0820CDE900050120029069468E
:102140003846FEF7CFFF3F4F3D48C7E90005C7E9D6
:1021500002563D617D61BD613846FD61FEF726FF97
:1021600008B1FEF7D0FD67637C62374F3448C7E99A
:1021700002563D617D61BD611430FD61C7E9000813
:10218000384650E027637C6206B0BDE8F0812F4FEF
:10219000BB42F9D1C36943F48023C361C36903F42B
:1021A00080230493836943F0100383618069039261
:1021B00000F0100004903815CDE90001244F694665
:1021C0003846FEF78FFFF814CDE90005694638461A
:1021D0000295FEF787FF1F48416821F0300141F06A
:1021E000E06141F01001416015481B4F3C38C7E9E0
:1021F0000005C7E902563D617D61BD613846FD615C
:10220000FEF7D4FE08B1FEF77EFD67637C62134FD4
:102210000B48C7E902563D617D61BD615038FD61E3
:10222000C7E900083846FEF7C1FE0028AAD0FEF72D
:102230006AFDA7E70044004000100240000801408A
:102240006C000240B0070020F40700200048004066
:102250000010014000000140380800207C080020E8
:10226000F8B5044690F83A0020283CD1C1B3BAB37F
:1022700094F83800012836D0012084F83800A16293
:10228000A2850025E563222084F83A00636B174895
:102290009862636B1648D862636B16481863606B6C
:1022A000134645630846666B216802463046091DA1
:1022B000FEF7BAFE206801684168009184F8385042
:1022C000C16841F48071C1602068416941F0010139
:1022D00041612068416941F0400141610020F8BD41
:1022E000FFE70120FBE70220F9E70000993B000827
:1022F000D53B00084F3B000830B5144D00220223A7
:1023000004241349A8420ED10878012803D00328D9
:1023100000D10C7030BD0F480078312801D00A7010
:1023200030BD0B7030BD0C4DA842FBD14878012860
:1023300003D00328F6D14C7030BD06480A3000782F
:10234000FF2801D04A7030BD4B7030BD30070020EF
:1023500014000020500000207007002070472DE975
:10236000F843044690F839001F4616460D462028CB
:1023700050D1A5B19EB194F8380001284AD001206F
:1023800084F838004FF00008C4F83C80212084F81D
:102390003900FEF7B5FFA6848146E68426E00120D9
:1023A000BDE8F883E08C401EE084A0684B46B0F5A1
:1023B000805F4FF000024FF080012046009703D06D
:1023C00001F080FCE8B90DE001F07CFCC8B9288878
:1023D0002168C0F308004860206908B16D1C05E061
:1023E000AD1C03E0216815F8010B4860E08C002863
:1023F000D8D14B46002240212046009701F062FCD4
:1024000008B10320CCE7202084F8390084F8388014
:102410000020C5E70220C3E7FEE70000044908B535
:102420008A6902438A6189690140009108BD000000
:1024300000100240F0B50A68C2F30F2595FAA5F224
:10244000B2FA82F369E001229A402A4264D0082B52
:1024500003D240F201129A4006E0A3F108024FF0C5
:102460000114944044F0806292FAA2F700EB1264E7
:10247000B7FA87F74FEA870C0F27266807FA0CF799
:10248000BE4392FAA2F7D1F804E0B7FA87F7BF008B
:102490000EFA07FE46EA0E0626600E69C7684FEA86
:1024A000122C9CFAACFCBCFA8CFC27EA122706FA28
:1024B0000CF63743C7604E68012E01D0092E2BD190
:1024C00092FAA2F7B7FA87F74FEA870C032707FAC1
:1024D0000CF72668D1F808E0BE4392FAA2F7B7FAE3
:1024E00087F7BF000EFA07FE92FAA2FC46EA0E0634
:1024F000BCFA8CFC4FEA8C0E4FF0040C26600CFAF0
:102500000EFC92FAA2F2B2FA82F2CF68920026EAA8
:102510000C0697403E4326605B1C35FA03F292D1CD
:102520000020F0BD30B591FAA1F400EB1160B4FACF
:1025300084F4A5000F24AC4091FAA1F10368B1FA2C
:1025400081F18900A3438A401343036030BD0A7BB5
:102550008B681A434B6822F480621A430B6822F49A
:1025600000621A43CB8922F480521A430B6922F489
:1025700000521A434B6922F480421A4322F400416C
:102580001943416400207047F0B502681C4B1D4D93
:102590001D4E1E4F1E4C4FF0804C984209D0A04259
:1025A00007D0604505D0A84203D0B04201D0B84260
:1025B00005D1D1F804E022F0700242EA0E029842FE
:1025C00009D0A04207D0604505D0A84203D0B04250
:1025D00001D0B84203D1CD6822F440722A43026090
:1025E0008A68C2620A888262984201D0A04201D100
:1025F000097C0163416941F0010141610020F0BDA6
:10260000002C01400004004000080040000C004085
:1026100000340140012919D0042919D0102919D0FA
:10262000402919D0B1F5807F18D0B1F5806F17D04F
:1026300006210C4A1830525C10440268094BDB1D1D
:102640005B5C042199408A43026070470021F0E7F7
:102650000121EEE70221ECE70321EAE70421E8E7A4
:102660000521E6E7FC580008012919D0042919D0F2
:10267000102919D0402919D0B1F5807F18D0B1F5B3
:10268000806F17D006210C4A1830525C1044026843
:10269000094BDB1D5B5C082199400A4302607047CF
:1026A0000021F0E70121EEE70221ECE70321EAE750
:1026B0000421E8E70521E6E7FC580008F0B501260B
:1026C00000236E4C6E4D012908D010293BD0B1F586
:1026D000807F73D0B1F5805F6ED1A6E0016A21F0F2
:1026E00001010162016A46688769D2F800C027F0DB
:1026F000730747EA0C07D2F810C021F0020141EA43
:102700000C01D2F804C021F0010141EA0C01A04201
:1027100001D0A84212D1546921F0080141EA840194
:10272000946821F0040141EA8401956926F48074DB
:102730002C43D56924F4007444EA45064660876159
:10274000D26842636FE0016A21F010010162066AFB
:1027500041688769D2F800C027F4E64747EA0C27AA
:10276000D2F810C026F0200646EA0C16D2F804C0B3
:1027700026F0100646EA0C16A04201D0A84213D15A
:10278000556926F0800444EA8514956824F04004D5
:1027900044EA8516946921F4806141EA8401D46990
:1027A00021F4006141EAC40141608761D16881631D
:1027B00061E003E000E01E463046F0BD016A21F40E
:1027C00080710162016A4668C769D2F800C027F0CB
:1027D000730747EA0C07D2F810C021F4007141EAF0
:1027E0000C21D2F804C021F4807141EA0C21A042EE
:1027F00001D0A84213D1546921F4006141EA842137
:10280000946821F4806141EA8421956926F480541A
:1028100044EA0514D56924F4005444EA4516466098
:10282000C761D268C2630162C5E7016A21F48051C1
:102830000162066A4168C769D2F800C027F4E6471A
:1028400047EA0C27D2F810C026F4005646EA0C36A8
:10285000D2F804C026F4805646EA0C36A04201D0D5
:10286000A84204D1946921F4804141EA8411416075
:10287000C761D168016406629DE70000002C014039
:102880000034014010B5012916D0042916D01029B2
:1028900016D0402916D0B1F5807F15D0B1F5806FE4
:1028A00014D00623016A0A4CE35C02249C40A14335
:1028B0009A401143016210BD0023F3E70123F1E7C1
:1028C0000223EFE70323EDE70423EBE70523E9E722
:1028D000F45800082DE9F04F85B0002457480094C3
:1028E000019402940394816941F01001816181692E
:1028F00001F010010491816941F020018161816939
:1029000001F020010491816941F004018161816934
:1029100001F004010491816941F00801816180693D
:10292000DFF81C8100F008004FF4004704900022FB
:1029300039464046FEF7DEFC4FF4805A00225146ED
:102940004048FEF7D7FCDFF800B1002204215846CA
:10295000FEF7D0FC47F22000CDE90004694640466E
:102960000294FEF7BFFB0226012500970396CDE9EE
:10297000015469464046FEF7B5FBD8200090334825
:10298000CDE9010469464046FEF7ACFB4FF0040870
:10299000DFF8BC90CDF80080CDE901946946294864
:1029A000FEF7A0FBCDF800A00396CDE901546946DF
:1029B0002448FEF797FB0097CDE901946946254826
:1029C000FEF790FBCDF800800396CDE901546946EF
:1029D0005846FEF787FB0820CDE9000469461948F0
:1029E0000294FEF77FFB002211460820FEF7E6FD69
:1029F0000820FEF7D5FD002211460920FEF7DEFD76
:102A00000920FEF7CDFD002211460A20FEF7D6FD73
:102A10000A20FEF7C5FD002211461720FEF7CEFD65
:102A20001720FEF7BDFD002205212820FEF7C6FD78
:102A30002820FEF7B5FD05B0BDE8F08F001002407C
:102A400000100140000C0140001401400000111072
:102A50000000311000080140F0B599B0142113A80E
:102A6000FDF7ABFB20216846FDF7A7FB18210DA859
:102A7000FDF7A3FB142108A8FDF79FFB4FF40060AE
:102A8000FFF7CCFC002440F2E730CDE91440454D7F
:102A90000326ADF84C6016948DF85C4013A92846C7
:102AA000FFF772FD286840F080002860A86844F2B3
:102AB00007018843A86001212846FFF7D5FD602063
:102AC000CDE90004022002940394C7010494CDE9E7
:102AD00005076A46012128460797FFF7EFFD012108
:102AE0002846FFF797FD10212846FFF7BDFD01940A
:102AF0006A46102128460294FFF7E0FD102128467F
:102B0000FFF788FD39462846FFF7AEFD01946A4677
:102B1000394628460294FFF7D1FD39462846FFF78B
:102B200079FDAF1439462846FFF79EFD02940194C3
:102B30006A46394628460794FFF7C0FD39462846BD
:102B4000FFF768FD686820F070006860A86820F0F2
:102B50008000A8608DF840400D940E940F94ADF85D
:102B600042406814CDE911040DA92846FFF7EFFC97
:102B70000820FFF753FC0420FFF750FC0A4808A97F
:102B800009250B9481E861000848FFF753FC0848C9
:102B900008A90B9481E861000648FFF74BFC19B0C7
:102BA000F0BD0000002C0140E000E004000C0140FA
:102BB0000F000F040008014010B586B0002415482E
:102BC000009401940294039404944FF0804105947E
:102BD00001604721C0E9011444F61F61C0E90314F4
:102BE00080218161FEF7F7FF00B1FEE74FF48050CE
:102BF000009069460748FFF735F800B1FEE70494F6
:102C000004A904480594FEF7C5FF002800D0FEE79C
:102C100006B010BDB005002010B58CB02421684668
:102C2000FDF7CBFA00241548099413490A94C0E92A
:102C300000144FF6FF71C0E9024104618461032072
:102C4000CDE900040120CDE902040494CDE905405A
:102C50000794694609480894FFF76FF800B1FEE74A
:102C6000099409A905480A94FEF794FF002800D0AA
:102C7000FEE70CB010BD000000040040F00500208D
:102C800010B58CB024216846FDF797FA002415484A
:102C9000099413490A94C0E900144FF6FF71C0E982
:102CA0000241046184610320CDE900040120CDE9E3
:102CB00002040494CDE90540079469460948089444
:102CC000FFF73BF800B1FEE7099409A905480A940B
:102CD000FEF760FF002800D0FEE70CB010BD00003A
:102CE000000800403006002010B58CB02421684652
:102CF000FDF763FA00241548099413490A94C0E9C2
:102D000000144FF6FF71C0E90241046184610320A1
:102D1000CDE900040120CDE902040494CDE9054089
:102D20000794694609480894FFF707F800B1FEE7E1
:102D3000099409A905480A94FEF72CFF002800D041
:102D4000FEE70CB010BD0000000C00407006002033
:102D500010B596B000240F9410941194129413940B
:102D60001C2168461494FDF728FA202107A8FDF7D6
:102D700024FA2A48284901604721C0E9011444F691
:102D80001F61C0E903148021C0E90541FEF723FF5C
:102D900000B1FEE74FF480500F900FA91F48FEF7D7
:102DA00061FF00B1FEE71D48FFF728F900B1FEE71B
:102DB000139413A919481494FEF7ECFE00B1FEE732
:102DC0006020009040F2DC50CDE9010403940494AB
:102DD00005940822694611480694FFF7A7F800B148
:102DE000FEE70C2269460D48FFF7A0F800B1FEE7A8
:102DF0000794089409944FF400500A94CDE90B40CD
:102E000007A906480E94FEF79BFE00B1FEE70348B3
:102E1000FFF766F816B010BD00340140F006002040
:102E20002DE9FF4F81B00546DDE90E9602989846E0
:102E3000FF24404506D10399494503D1002005B040
:102E4000BDE8F08F012D17D0022D39D0032D25D0EC
:102E5000042D4AD1700704D5DDE902010122FDF7F6
:102E6000EBFDB00704D5DDE902010422FDF7E4FD26
:102E7000F0073AD0032234E0700704D5DDE90201FF
:102E80000222FDF7D9FDB00704D5DDE902010122D8
:102E9000FDF7D2FDF00728D0042222E0700704D508
:102EA000DDE902010422FDF7C7FDB00704D5DDE925
:102EB00002010322FDF7C0FDF00716D0022210E048
:102EC000700704D5DDE902010322FDF7B5FDB00767
:102ED00004D5DDE902010222FDF7AEFDF00704D0C2
:102EE0000122DDE90201FDF7A7FD0021DFF8B4C2F0
:102EF0000E464FF47A7300200CEBC11707EB00125B
:102F0000401CC2E9016316730828F7DB491C082935
:102F1000F1DB039802990CEBC01000EB011E4A464E
:102F200000210CEBC2108A46E14600EB08129B46DA
:102F3000CEF808605B460126012009EBC61800BFE9
:102F400008EB001797F80CC0BCF1000F05D1D7F8BB
:102F500008C09C4501DA63463946401C0728EFDB70
:102F6000761C072EE8DB8A457ED001200873107B93
:102F7000CC46012811D0A1F110000090A1EB0C006B
:102F80000311486801F11007A1F1800601F1800AE0
:102F900038B1A0EB0900001104E063461046764604
:102FA000AFE018461B1A91F800805846DC465FEAED
:102FB000087807D4B3B1012B14D0B3F1FF3F14D07C
:102FC0004FF0020CD1F80880C444D7F80880C445FB
:102FD00001DAC7E9011C91F800C05FEA8C7C07D5D3
:102FE00084460DE04FF0010CECE74FF0030CE9E7ED
:102FF000F3B1B3F1FF3F1BD0012B1CD04FF0020CFB
:10300000D1F80880C444DDF80080D8F80880C445B1
:1030100007DADDF80080C8F808C0DDF800C0CCF899
:10302000041091F800C05FEA4C7C07D584460DE09F
:103030004FF0010CE4E74FF0030CE1E7BBB113F1F3
:10304000080F14D0082B15D04FF0020CD1F80880CF
:10305000C444D6F80880C44501DAC6E9011C91F8D9
:1030600000C05FEACC7C00E068E00DD105E04FF0E5
:10307000010CEBE74FF0030CE8E783B1082B0ED00F
:1030800013F1080F0DD00220D1F808C06044DAF81F
:1030900008C0604501DACAE9011023B12FE0012020
:1030A000F2E70320F0E7012D06D0022D16D0032D04
:1030B00006D0042D23D115E0B068801CB06004E078
:1030C000DAF80800801CCAF80800B868401CB8602C
:1030D0000098009B8068401C986010E0B868801CD5
:1030E000B86004E00098009B8068801C9860DAF863
:1030F0000800401CCAF80800B068401CB0608A464E
:1031000018E74168D1B1B1424AD1A0EB0C000011DF
:10311000C11700EB517121F00703C01A029BC0B226
:10312000C01AC1F3C70101280AD0401C11D003986E
:10313000081A012816D0401C1DD02CE0FF207EE686
:10314000012D27D0022D1FD0032D1FD0042D22D1F9
:103150001EE0012D1AD0022D1AD0032D1AD0042DF5
:1031600019D111E0012D13D0022D13D0032D0BD056
:10317000042D10D10AE0012D06D0022D06D0032D1A
:1031800006D0042D07D105E0102404E00E2402E04F
:103190000B2400E00F2410999068086020464EE64A
:1031A0000846AEE78C000020FEE700002DE9F003A2
:1031B0000025DFF84090DDF818C02E464FF47A78ED
:1031C00005EB850401EBC4046D1C676826611434AB
:1031D000EDB2A4E80C10042D44E90676C4E9008998
:1031E000EED30221C17001218170BDE8F00302F02D
:1031F000FDB9000000409C462DE9F04F06460078DE
:1032000085B00F4600287CD0B078DFF804846C4687
:10321000F0B3FEF775F8FF4981464A68904270D3D3
:103220000025FC494968A9EB0100F1780844FDF745
:1032300028FA05EB850A07EBCA048346D4E90101A5
:10324000401AFDF715FA5946FDF74CF8FDF774FAE8
:103250000022F14BFDF72BF98346049157F83A0011
:10326000FDF706FAFDF768FAEC4AED4BFDF71FF99A
:103270005A46049BFDF715F9FDF771FADFF8A4A390
:1032800001464AF825002069FCF7A2FF206100E012
:1032900005E0616AFDF780FA7ED2616A72E17078BA
:1032A00000282ED05FF0000000EB800157F83110AD
:1032B000494244F82010401CC0B20428F4D34FF413
:1032C00000570398FD10002800984FF4804A4FF4EF
:1032D000007B4FF480797ADB002813DB0222042183
:1032E000D148FFF7CFFAD248D049C0F81490012254
:1032F000FFF718F90922CF494046FFF713F9009864
:1033000015E03BE100220121C748FFF7BBFA444624
:10331000C8F814700922C549C548FFF703F901220E
:10332000C4492046FFF7FEF80098404200904FF451
:103330007A77B84200DD3846BB4C00906063019854
:10334000002814DB002210212046FFF79BFADFF84B
:10335000E8B2C8F814A00922B849B548FFF7E2F866
:10336000012259464046FFF7DDF8019813E002229A
:1033700040212046FFF786FAAD48B049C0F814B0A6
:103380000122FFF7CFF80922AB494046FFF7CAF800
:1033900001984042019000E0F3E0B84200DD384679
:1033A0000190A0630298002812DB022229462046E1
:1033B000FFF768FA9E48A24945610122FFF7B2F87B
:1033C0000922A0494046FFF7ADF8029819E02DE028
:1033D000002249462046FFF755FADFF868924FF47D
:1033E00000404546C8F81400092295499048FFF767
:1033F00099F8012249462846FFF794F8029840427E
:103400000290B84200DD3846014602902046E16352
:103410004FF48051C8F814100022FFF733FA0398D4
:10342000B84200DC074603972764A5E0002813DBB9
:10343000022201217C48FFF725FA4446C8F81070A3
:1034400009227A497A48FFF76DF801227949204626
:10345000FFF768F8009813E0002204217248FFF794
:1034600011FA73487149C0F810900122FFF75AF819
:10347000092270494046FFF755F8009840420090F5
:103480004FF47A74A04200DD2046674F00907863C5
:103490000198002812DB002240213846FFF7F2F99C
:1034A00063486649C0F810B00122FFF73BF80922D3
:1034B00061494046FFF736F8019815E002221021D5
:1034C0003846FFF7DFF9DFF870B1C8F810A009221D
:1034D0005A495748FFF726F8012259464046FFF758
:1034E00021F8019840420190A04200DD2046019061
:1034F000B8630298002817DB022249463846FFF7D6
:10350000C1F9DFF840914FF400404546C8F810007B
:1035100009224B494648FFF705F80122494628464B
:10352000FFF700F8029812E0002229463846FFF71C
:10353000A9F93F48424905610122FEF7F3FF09223C
:1035400040494046FEF7EEFF029840420290A042FA
:1035500000DD2046014602903846F9634FF4805161
:10356000C8F810100222FFF78DF90398A04200DC82
:1035700004466042039438640020707005B0BDE8D2
:10358000F08F21692161606A80F00040FDF704F945
:1035900003D2606A80F0004000E020692061616829
:1035A000A160A169FCF76CFE83465AF825006169A9
:1035B0008246FCF765FE5946FCF70AFE83465146F3
:1035C000E068FCF757FEE169FCF75AFE5946FCF744
:1035D00051FEFDF779F84DF82500C4F80CA05DF810
:1035E0002520206A6946824200DC104641F8250009
:1035F000226A5242904200DA104641F825006D1CC2
:10360000EDB2042DFFF40DAEF178024849441BE001
:10361000000C01400C00002000408F40A4703D0AC7
:10362000D7A3084040000020002C01400100010405
:103630000008014020002004400040040200020471
:1036400004000404800080044160009800280BDB23
:1036500001223E493E48FEF765FF09223D494046AA
:10366000FEF760FF00980CE0092238493848FEF761
:1036700059FF012237494046FEF754FF0098404267
:1036800000904FF47A74A04200DD2046324D009045
:103690006863019800280BDB092230492C48FEF7AB
:1036A00041FF01222E494046FEF73CFF01980CE005
:1036B00001222A492648FEF735FF092228494046BB
:1036C000FEF730FF019840420190A04200DD204605
:1036D0000190A863029800280BDB012221491C48B5
:1036E000FEF720FF092220494046FEF71BFF029803
:1036F0000CE009221B491648FEF714FF01221A4963
:103700004046FEF70FFF029840420290A04200DDC3
:1037100020460290E86303984FF480510028404609
:1037200006DB416100222846FFF7ACF8039807E06A
:10373000016102222846FFF7A5F803984042039052
:10374000A04200DC044603942C6417E70100010446
:103750000008014020002004002C01400200020467
:103760004000400404000404800080047047704757
:103770002DE9F04785B08946DDE90D17DDE90F65D4
:1037800082464FF47A7003900490CDE9001503A8A7
:103790000290904649465046FFF742FB044604A873
:1037A0000096CDE901503B46424649465046FFF758
:1037B00037FBDDE90312914200DA204605B0BDE88F
:1037C000F087704740F6C412914203D84FF4FA7262
:1037D000914200D21146032804D0042801D10348A5
:1037E000016070470148001FFAE7000040340140C3
:1037F000054B04225A614FF6FF7202EA4002034869
:103800004908028041607047001401400000002018
:10381000FDF76EBE30B58FB028216846FCF7CDFCB1
:1038200014210AA8FCF7C9FC01210804CDE9001005
:103830000024029402250491CDE907504FF4E010D2
:1038400009906846FDF7D8FF00B1FEE70F20CDE9EB
:103850000A054FF48060CDE90C4002210AA80E94BD
:10386000FDF7DEFE002800D0FEE70FB030BD0000FF
:103870000D48016841F00101016041680B4A1140A7
:10388000416001680A4A11400160016821F4802109
:103890000160416821F4FE0141604FF41F01816025
:1038A0000449C00308607047001002400000FFF8A0
:1038B000FFFFF6FE08ED00E0F0B502681C4B1D4D61
:1038C0001D4E1E4F1E4C4FF0804C984209D0A04216
:1038D00007D0604505D0A84203D0B04201D0B8421D
:1038E00004D122F0700E4A6842EA0E02984209D0D2
:1038F000A04207D0604505D0A84203D0B04201D015
:10390000B84203D122F44075CA682A434D6922F0B7
:1039100080022A4302608A68C2620A688262984210
:1039200001D0A04201D10969016301214161F0BDCB
:10393000002C01400004004000080040000C004042
:103940000034014010B501F01F030121046A9940C1
:103950008C430462016A9A401143016210BD10B5A4
:10396000846842EA032224F47F440A4322438260AB
:1039700010BD826822F070020A4342F007018160A4
:1039800070470000F0B5026A22F001020262036A89
:1039900042688469124E24F073050C682C4323F0AE
:1039A00002058B682B430D4DA84201D0B04205D1D2
:1039B00023F00807CB683B4323F00403A84201D05F
:1039C000B04205D14D6922F4407215438A692A43F9
:1039D00042608461496841630362F0BD002C01408C
:1039E00000340140F0B5026A22F010020262026A5D
:1039F000436884690D6824F4E64444EA05248D682C
:103A000022F0200242EA05120F4D104EA84201D0CA
:103A1000B04206D1CF6822F0800242EA071222F0BB
:103A20004002A84201D0B04207D14D6923F440635F
:103A300043EA85038D6943EA8503436084614968ED
:103A400081630262F0BD0000002C0140003401409F
:103A5000F0B5026A22F480720262026A4368C469A5
:103A600022F4007224F073050C68124E2C438D680A
:103A700042EA05220E4DA84201D0B04206D1CF68DD
:103A800022F4006242EA072222F48062A84201D0B6
:103A9000B04207D14D6923F4405343EA05138D69C1
:103AA00043EA05134360C4614968C1630262F0BD23
:103AB000002C01400034014030B5026A22F48052EB
:103AC0000262046A4268C3690D6823F4E64343EA6C
:103AD00005238D6824F4005444EA0534084DA842B7
:103AE00002D0084DA84204D14D6922F4804242EA36
:103AF00085124260C36149680164046230BD000000
:103B0000002C01400034014010B5036A046A24F01F
:103B100001040462846924F0F00444EA021423F0EE
:103B20000A020A438461026210BD10B5036A23F0E1
:103B3000100303628369046A23F4704343EA023288
:103B400024F0A00343EA01118261016210BD70B547
:103B5000446A2068406994F83910C0F3C010002509
:103B6000212904D118B1E584204600F046F82068E8
:103B7000406994F83A10C0F38010222904D118B19A
:103B8000E585204600F02BF8E06B40F01000E06384
:103B90002046FEF771FA70BD10B50146406A09680B
:103BA0000968890613D40021C1850168CA6822F416
:103BB0008072CA6001684A6922F001024A610168A4
:103BC0004A6922F040024A61202180F83A10FEF74B
:103BD00093FB10BD10B5406AFEF7C0FB10BD016835
:103BE000CA6822F49072CA6001684A6922F0010230
:103BF0004A61202180F83A1070470168CA6822F0B3
:103C0000C002CA60202180F8391070472DE9F041C8
:103C1000044600680169E26821F4405111430161E2
:103C20002169A0680843616908432168CA6841F2B4
:103C30000C639A430243CA6020684169A26921F477
:103C40004071114341611E49206864253226884233
:103C500002D1FDF78BFD01E0FDF778FD00EBC0011F
:103C600001EB001160686FF018078000B1FBF0F203
:103C7000B2FBF5F2B1FBF0F37A4303EB8202B1FB46
:103C8000F0F306EB0212B2FBF5F2B3FBF5F302F030
:103C9000F00202EB0312B1FBF0F3B1FBF0F0B0FB6A
:103CA000F5F0784303EB800006EB0010B0FBF5F075
:103CB000216800F00F0010448860BDE8F08100002A
:103CC000003801402DE9F041984617460E4604465B
:103CD000069D1DE0681C1BD02DB1FDF711FBA0EB6C
:103CE0000800A84214D92068C16821F4D071C160CD
:103CF0002068416921F001014161202084F83900E8
:103D000084F83A00002084F838000320BDE8F081F0
:103D10002068006836EA000004D00020B842D9D0FC
:103D20000020F3E70120F9E7FEE700000FB4054BA0
:103D300010B503A9044A029800F064FB10BC5DF8BA
:103D400014FB00007D4C000838000020490050EAB8
:103D5000C12018BF04204A0D18BF40F0010040F2F6
:103D6000FF72B2EB515F08BF40F00200012808BFAC
:103D7000052070470907090E002804DB00F1E02048
:103D800080F80014704700F00F0000F1E02080F888
:103D9000141D70472DE9F74F144694B00021C4E973
:103DA00002111599079121F00045C9498D4206DCA1
:103DB0001599C4E9000117B00020BDE8F08FC5498E
:103DC000DFF814A3A9423CDD0799C44E0029C44F73
:103DD000C44A1599534619DDFCF763FB554506D0D7
:103DE000C14AC24BFCF75DFBC4E900010AE04FF099
:103DF000D352BE4BFCF755FB32463B46FCF751FB1A
:103E0000C4E9000117B00120BDE8F08FFCF7A8FA63
:103E1000554506D0B44AB54BFCF7A2FAC4E90001F7
:103E20000AE04FF0D352B14BFCF79AFA32463B46C8
:103E3000FCF796FAC4E9000117B04FF0FF30BDE877
:103E4000F08FAB49A942159978DB21F000418346F8
:103E50008846A84AA84BFCF72AFB0022A74BFCF790
:103E60007FFAFCF74AFC0990FCF710FC06460F4667
:103E70009C4A5346FCF71BFB43465A46FCF714FB8F
:103E800080468A46984A994B30463946FCF70FFBE4
:103E90002A0D01250B9242465346FCF705FB032DE4
:103EA000C4E9000139D00B98C1F30A51401A05EB5F
:103EB00045111139814230DA9148C346784400EB0C
:103EC0000510CDF80CA00C90D0E9002330463946FF
:103ED000FCF7EDFA02460B4604910690584603990A
:103EE000FCF7DFFA80468A4602460B46584603999D
:103EF000FCF7D7FA049B069AFCF7D3FA83460C9892
:103F000003913946D0E902233046FCF7D0FA5A46ED
:103F1000039BFCF7C6FA6D1CBDE707980028A2BFFB
:103F2000099817B0BDE8F08F616881F000416160C9
:103F3000099817B04042BDE8F08FFFE78446159816
:103F4000C1F31301C0F30A50A0F2F5304FEA601834
:103F500000F01F06C6F12000139000200690079085
:103F600041F4801E05206D4676B1664A08EB0001DB
:103F70007A4452F8213002EB8101B3404A68139928
:103F800022FA01F1194305E05F4908EB0002794488
:103F900051F82210A1FB0E27A1FB0C131A449A42E0
:103FA00034BF0123002303EB070A05EB8003D3E9A9
:103FB00001B70F448F4234BF0121002193448B4449
:103FC00011B1934502D903E0934501D2012100E0EC
:103FD0000021C3E901B7514445F82010011EA0F1AA
:103FE0000100C1DC0298059F00F10050800F129083
:103FF0000298DDE903568000FCF748FB834628461B
:104000000D91FCF754FB6FF01D02FCF7FDFCCDE9B0
:104010000E013046FCF74BFB6FF03D02FCF7F4FC61
:1040200080468A463846FCF742FB6FF05D02FCF79B
:10403000EBFC0746424653461191FCF791F9DDE946
:104040000E23FCF78DF95A460D9BFCF789F90025E4
:104050000E465A4628460D9BFCF723FADDE90E234F
:10406000FCF71FFA42465346FCF71BFA3A46119BEF
:10407000FCF71AFADFF898A0244A5346FCF717FA1F
:1040800007468846234A244B31462846FCF70FFA58
:104090003A464346FCF764F9074688464FF0A84283
:1040A000534631462846FCF702FA3A464346FCF7A7
:1040B00057F9159A12F0004F04D0129A81F000417E
:1040C00052421292C4E90001129817B0BDE8F08F75
:1040D000FB21E93F7CD90240FB21F93F7370032E9D
:1040E0008A19A33B000040543163621A61B4D03D89
:1040F000FB21394183C8C96D305FE43F0000E03FD8
:10410000481B0000C41A0000A61A0000182D4454D1
:10411000FB21F93D3326A611460B113C2DE9FF4D3D
:1041200021F0004807460C46B8F1795F08DAFCF741
:10413000E4FA002801BF0020324904B0BDE8F08D48
:104140003A46234610461946FCF7B1F905460246A1
:104150002D480E460B460621784400F05DF82A46AD
:104160003346FCF7A4F9DDE9022382468B46384644
:104170002146FCF79CF904460F4652465B4628460A
:104180003146FCF794F922463B46FCF78AF907468C
:104190008A464FF0FF3228463146FCF735FC1B4A71
:1041A00090450ADA3A465346FCF77BF904B0002200
:1041B000BDE8F04D134BFCF777B9154A4245A8BF4F
:1041C000A8F500154FF00004B8BF124D22462B464B
:1041D000FCF767F90646884622462B460020094927
:1041E000FCF75FF904460D463A46534630464146D1
:1041F000FCF757F904B022462B46BDE8F04DFCF71A
:1042000053B900000000F03F741800003333D33F6F
:104210000000E93F0000D23F2DE9F0414F1E00EBC6
:10422000C7010446D1E9000115461E4637F00602D3
:104230000DD02A463346FCF73AF97F1E04EBC7033C
:10424000D3E90023FCF78CF837F00602F1D1022FF6
:1042500025D0042F13D0062F18BFBDE8F0812A46C1
:104260003346FCF724F9D4E90A23FCF779F82A4607
:104270003346FCF71CF9D4E90823FCF771F82A4609
:104280003346FCF714F9D4E90623FCF769F82A460B
:104290003346FCF70CF9D4E90423FCF761F82A460D
:1042A0003346FCF704F9D4E90223FCF759F82A460F
:1042B0003346FCF7FCF8D4E90023BDE8F041FCF7F5
:1042C0004FB800002DE9FF4D054621F0004084B0B5
:1042D0000C46B0F1795F0BDA2846FFF737FD04286A
:1042E00008BF00F071F8284608B02146BDE8F08DFF
:1042F0002A460B461046FCF7DAF806460F462A46D1
:104300002346FCF7D4F8804626488A4632463B4688
:1043100005217844FFF780FF83461098029160B32F
:10432000214A224B40465146FCF7C1F8CDE9000135
:104330005A4640465146029BFCF7B9F882468846E9
:10434000DDE906014FF0FF32FCF75EFB52464346C3
:10435000FCF7A7F832463B46FCF7A9F8DDE906234F
:10436000FCF79FF8DDE90023FCF79BF808B02A462C
:104370002346BDE8F04DFCF797B80B465A46304649
:104380003946FCF794F8084A084BFBF7E9FF424628
:104390005346FCF78CF808B02A462346BDE8F04D9A
:1043A000FBF7DEBFBA170000495555555555C5BF37
:1043B0000122FCF729BBFBF7D3BF002213461046AE
:1043C0001146FCF7E6B80000024A00201107FCF78E
:1043D0001BBB000001FDFFFF02E008C8121F08C15F
:1043E000002AFAD170477047002001E001C1121F76
:1043F000002AFBD1704700000149086070470000A7
:104400003C0000202DE9FF4F89B09B460446002563
:1044100006E025280BD05A460B999047641C6D1C6A
:1044200020780028F5D10DB02846BDE8F08F002790
:10443000B8460122474900E0074314F8013F203BFA
:1044400002FA03F00842F7D120782E2819D114F887
:10445000010F47F004072A280ED06FF02F022078B2
:10446000A0F1300109290CD808EB880102EB4101C9
:1044700000EB0108641CF2E70A98641C50F8048BF6
:104480000A9020780028CED0642808D0692806D069
:1044900075281ED05A460B9990476D1C58E00A9912
:1044A0004FF00A0901C90A91002802DA40422D2181
:1044B00002E0390504D52B218DF82010012103E0FD
:1044C000F90704D02021F7E78A4608AE0DE0002165
:1044D000FAE70A994FF00A0901C90A91F7E7494634
:1044E000FCF764F9303106F8011D0028F7D1ADEB77
:1044F000060000F12009780701D44FF00108C845F3
:1045000002DDA8EB090000E000208046002706E05D
:1045100008A85A46C05D0B9990476D1C7F1C5745F3
:10452000F6DB04E030205A460B9990476D1CB8F139
:104530000001A8F10108F5DC05E016F8010B5A4668
:104540000B9990476D1CB9F10001A9F10109F4DC48
:10455000641C65E7092801002DE9F84F04460D4663
:1045600021F0004000917349814211DC7249884278
:1045700001DC06D12CB120462946BDE8F84FFFF7F3
:1045800017BF6E48002DCCBF6D496E49BDE8F88F4E
:104590006D49814211DD6D498142D8BF4FF0FF3630
:1045A0006DDD20462946FFF7D1FB042808BFFFF741
:1045B0000BFF20462946BDE8F88F6549654F25F079
:1045C0000045814233DD6449814219DD00263246CF
:1045D0004FF0804320462946FBF7C2FE80468A46BC
:1045E000012220462946FCF70FFA00223B46FBF742
:1045F00058FF42465346FBF7CCFF04460D463EE0CB
:1046000001260022BA463B4620462946FBF7A8FE73
:1046100080460F460022534620462946FBF741FFBD
:1046200042463B46FBF7B5FF04460D4627E04B49A3
:1046300081421BDDDFF828A10226002253462046D6
:104640002946FBF734FF00223B46FBF789FE8046F4
:104650000F460022534620462946FBF722FF4246DA
:104660003B46FBF796FF04460D4608E0032622462C
:104670002B4600203B49FBF78CFF04460D462246A3
:104680002B4610461946FBF712FF8B468246024620
:104690000B46FBF70CFF07460246334888460B469D
:1046A00006217844FFF7B8FD52465B46FBF7FFFE54
:1046B00082462E488B463A46434605217844FFF70A
:1046C000ABFD3A464346FBF7F2FE02460B46002E90
:1046D000504659460CDAFBF743FE22462B46FBF7C1
:1046E000E6FE01B022462B46BDE8F04FFBF7DCBEEC
:1046F000FBF736FE22462B46FBF7D9FE1C4A7A44CE
:1047000002EBC603D3E90023FBF7CBFE22462B4680
:10471000FBF7C7FE174A7A4402EBC603D3E900232E
:10472000FBF7C2FE009A002AB8BF81F00041BDE845
:10473000F88F0000000010440000F07F182D445452
:10474000FB21F93FFB21F9BF0000DC3F0000203EC8
:104750000000F33F0000F03F0000E63F0080034010
:104760000000F83F0000F0BFFA120000B81200008D
:10477000561200001E1200002DE9F04D9446CCF1B7
:10478000000423F000464CEA0404524F46EAD47475
:104790009A46884621F00042BC4206D8454240EA8B
:1047A000050442EAD474BC4204D9BDE8F04D624627
:1047B000FFF701BEAAF14055A5F17F6555EA0C044B
:1047C0000BD0022404EAAA74434DDFF810E144EA56
:1047D000D87452EA000B04D00CE0BDE8F04DFFF7AE
:1047E000BBBE002C14BF012CBDE8F08D022C30D0D4
:1047F000032C32D056EA0C0B0AD0BE4220D1BA426A
:1048000009D126F0804622F080423346114617E057
:1048100000291ADB25E0DFF8C8B0FB44002C04BFF8
:10482000DBE90001BDE8F08D012C02BFDBE90001EE
:1048300081F00041BDE8F08D022C0AD0032C0CD091
:10484000BA4212D1B8F1000F0BDA23482549BDE86E
:10485000F08D28462449BDE8F08D28467146BDE814
:10486000F08D1D482149BDE8F08D921B12153C2AA0
:10487000C4BF19481D490EDCBAF1000FBEBF12F1CA
:104880003C0F0020014606DB6246FBF782FE21F06A
:104890000041FFF761FE002C08BFBDE8F08D012C40
:1048A00004BF81F00041BDE8F08D114A114B022C8C
:1048B00007D0FBF7F6FD2A46BDE8F04D0A4BFBF7A3
:1048C000F0BDFBF7EEFD2A46BDE8F04D064BFBF7C9
:1048D000EBBD00000000F07F182D4454FB2109C0FF
:1048E000E2110000FB21F9BFFB210940FB21F93F48
:1048F000075C143326A6A13C2DE9F0478A46B0F99F
:1049000006101E23904691FBF3F3828800895442DF
:10491000C01A65184B42404205441C442EB2044460
:10492000114425B201440CB2D118084407B24FF427
:104930007A70864205DA854203DA844201DA8742D8
:1049400034DB3046854200DD2846844200DD2046C7
:10495000874200DD3846FBF78BFE01461A48FBF71D
:10496000C1FC81463046FBF783FE4946FBF788FCD5
:10497000FBF7AAFE06B22846FBF77AFE4946FBF78C
:104980007FFCFBF7A1FE05B22046FBF771FE49460E
:10499000FBF776FCFBF798FE04B23846FBF768FE9F
:1049A0004946FBF76DFCFBF78FFE07B2C8F80070B5
:1049B000C8F87860C8F850500121C8F828408AF833
:1049C0000110BDE8F087000000007A4400B5244BD8
:1049D00021F0004287B09A42DCBF0022134629DD55
:1049E000204B9A4208D140B94FF00100FFF704FD77
:1049F000FFF7E3FC07B000BD03DBFFF7D9FC07B00E
:104A000000BD02AAFFF7C6F910F0030104BF0DF1C3
:104A1000080C9CE80F000DD0012001290ED00229BE
:104A200014D00DF1080C00909CE80F00FFF74AFC31
:104A300007B000BDFFF772FB07B000BD0DF1080C19
:104A400000909CE80F00FFF73DFC05E00DF1080C1D
:104A50009CE80F00FFF762FB07B081F0004100BD4A
:104A6000FB21E93F0000F07F2DE9F05F754D044622
:104A7000012768787449002605287CD2DFE800F019
:104A8000030A0C0A14000E7001226F496F48FDF7EB
:104A9000E7FB6F70BDE8F09F13226C48491CFDF7DF
:104AA000DFFB03206870F5E74878FE2863D10A7AB7
:104AB000BB46B7EB921F01D1012000E00020644A01
:104AC000607048881288801A00B26080B0F5E16F8B
:104AD00002DBA0F5616004E010F5E16F02DA00F599
:104AE00061606080087984F82000487984F82100AA
:104AF000887984F82200C87984F823000B7A8A7AAE
:104B00004FF4807000EA43131A44A2810B7ACA7AE8
:104B100000EA83131A44E2810B7A0A7B00EAC3138A
:104B20001A4422820F7A4B7BFF0700D007461F44AE
:104B3000678291F809C08B7B00EA4C0C6344A38226
:104B400091F8098091F80FC000EA8808E044A4F8C1
:104B50001680C24691F8098091F810C000EAC80892
:104B6000C444A4F818C091F8098091F811C000EA73
:104B70000818E04400E062E0A4F81A80C14691F809
:104B8000098091F812C000EA4818C444A4F81CC077
:104B900091F813C0497A84F800B000EA8110844487
:104BA000B4F90410B4F90600A280C7F58C77E78049
:104BB000CAF58C78A4F81680C9F58C78A4F81A8008
:104BC000CCF58C7CA4F81EC0DFF888C09CF800C02F
:104BD000BCF10A0F14D2002A07DD4FF48C7C624529
:104BE00003DA002F01DD674509DBAA78521CD2B237
:104BF000AA70A180E080032A02D9267000E0AE707E
:104C00001846CE22382100F0DFFD2072B4F91600DC
:104C1000DE22482100F0D8FD6072B4F91800CE22DF
:104C2000382100F0D1FDA072B4F91A00DE2248212B
:104C300000F0CAFDE072FCF763FB074908606E7084
:104C400028E70000140000205A0000207007002010
:104C50001E0000201800002024000020081A00B2C6
:104C6000B0F5E16F02DBA0F5616004E010F5E16FE3
:104C700002DA00F5616000B27047000013B54FF62C
:104C8000FF73012269460248FDF769FB00981CBDCD
:104C9000300700202DE9F0411D460E46101AFBF7A3
:104CA000F5FC04460F46A81BFBF7F0FC22463B46EA
:104CB000FFF762FD044A054BFBF7F9FBFBF71DFD0F
:104CC00000B2BDE8F081000048E17A14AEE781400F
:104CD000121A5243581A10B500FB0020FBF7D6FCFD
:104CE00000F098FDFBF709FD00B210BDACB06427E1
:104CF000FCF706FCFEF78EFDFDF7ECFDFE48416972
:104D000041F0010141614069002200F00100009082
:104D100011460C20FCF752FC0C20FCF741FC002251
:104D200011460D20FCF74AFC0D20FCF739FC00224F
:104D300011461020FCF742FC1020FCF731FC002249
:104D400011461120FCF73AFC1120FCF729FCFDF775
:104D5000CBFFFDF781FEEA48E84900240160E949FC
:104D6000C0E901144FF4804BC0E9034B44618461F6
:104D7000C4610462FCF7CAFA00B1FEE7FDF780FFE8
:104D8000FDF74AFFE1480094DF49019401604721A3
:104D9000C0E901144FF6FF718461C160FCF71BFF8D
:104DA00000B1FEE700946946D8480194FCF7F2FE92
:104DB00000B1FEE7FDF700FFFDF7CAFFD348D44975
:104DC00080300C2501604FF41651C0E90114C46015
:104DD000C0E904458461C461FDF74FF900B1FEE705
:104DE000CA48CC49C03001604FF4E131C0E9011438
:104DF000C460C0E904458461C461FDF73EF900B1B7
:104E0000FEE74FF47A710220FEF7F2FC00F028FD75
:104E1000C1494FF00108C14B81F80080B849C04A30
:104E2000D039BD480094FEF7C1F900F055FD4FF4AC
:104E3000C8610420FEF7C6FCB74D0126083D3C21A1
:104E40002C7009A8FBF7B9F91422B64904A8FBF79E
:104E50009BF90020239022908246219020901A9066
:104E60001990189050202890002026902590A44A50
:104E7000A948303AA2F1A001FBF716FEA048243859
:104E8000FFF7F2FDFCF73CFAB84211D39C482438F6
:104E9000B0F90620B0F90410A3A0FEF747FFDDE942
:104EA0001921A4A0FEF742FFFCF72AFA00F5FA77D1
:104EB000934824380178002972D08146407818B18F
:104EC00095F90100401C03D06878012802D061E305
:104ED00085F801808A48303880F80A8028780D28C3
:104EE0007ED007DCB0B101286AD002282BD00B2875
:104EF00008D186E10E2874D00F2873D0102872D004
:104F0000152871D085F8004089F80040042E6CDD2A
:104F1000361F35E3B9F8020000F5617000B2E88091
:104F2000B0F5E16F02DDA0F56160E8800220287035
:104F3000229904A830F821102191229900EB8100D8
:104F400040882090E0E7209AB9F90610B9F90400EA
:104F500013B21C93219A12B20392FFF79BFE189092
:104F6000B9F90210FFF77AFE0090239828B14FF4A8
:104F7000E1600099FFF772FE0090B9F90610B9F9E7
:104F800004001C9B039AFFF7A3FE5D483038848021
:104F9000C4800099B1F5C87F03DD4FF448710AE081
:104FA00010E211F5C87F01DA674904E03C31792944
:104FB00003D3009949000181A6E785F80080A3E7A3
:104FC000209AB9F90610B9F9040013B21C93219A7A
:104FD00012B20392FFF75EFE1890B9F9021005E0D5
:104FE000F1E12DE24EE26CE292E2C6E2FFF736FE1C
:104FF0000090239828B14FF4E1600099FFF72EFE4E
:105000000090B9F90610B9F904001C9B039AFFF748
:105010005FFE1C901E2823DD0098B0F5167F1CDA79
:1050200010F5167F19DDFBF731FB484A484BFBF7BB
:10503000B0FACDE9000100F077FB0022454BFBF709
:1050400036FAFBF75AFB2E4930398880DDE900013A
:10505000FFF7BCFC00223F4B2CE002202870C5E08B
:105060000A2801DC04282FDD0098FBF70FFB374AE4
:10507000374BFBF78EFACDE9020100F055FBCDE985
:105080001E011C9800EB8000C000FBF7FFFACDE981
:105090000001DDE91E23FBF70AFAFBF72EFB184996
:1050A00030398880DDE90201FFF790FC02460B46AB
:1050B000DDE90001FBF7FBF9FBF71FFB1049303975
:1050C000C8800846048191E0022028702298401C84
:1050D000C0B22290132802D9002022906C7021982F
:1050E0002C283DD016283FD0102843D028284DD05A
:1050F0005A2855D0E0282FE000100240005400400C
:105100005C050020A086010000100040B0060020D1
:105110000044004000480040200000209A99193EB9
:105120009A99993F0C590008583A25642C593A2508
:10513000640A0000626967583A25642C62696759FD
:105140003A25640A00000000E0FCFFFF48E17A1401
:10515000AEE7814000C092402FD00F2833D03BE013
:1051600020982A282CD037E02098382834D14FF4C2
:105170007A7107E02098B0F5817F2DD100204FF49F
:10518000C86123900420FEF71DFB25E02098BE286F
:1051900022D10B2028700426701F1A90304608E098
:1051A0002098F02818D10B202870012003261A908F
:1051B00006201990FBF7DAFC0EE0209811280BD19D
:1051C0000120239008E02098112805D14FF47A712E
:1051D0000420FEF7F7FA6C70229904A830F8211029
:1051E0002191229900EB810040882090239800288B
:1051F0003FF4A8AEF848818849428180C18849427D
:105200001CE199F92010C8070AD199F821002D282E
:1052100006D9732804D2F0494FF4C860C88003E06F
:10522000ED48C480C8072DD199F822101D912D2971
:1052300028D9872926D299F8210028991C90401A4C
:1052400000EB8000C000FBF721FACDE900011C98BB
:10525000FBF72DFA0022E14BFBF723F90022E04B8C
:10526000FBF725F9DDE90023FBF77AF8FBF745FAB0
:10527000D94988801D985A38A0EB800080000881A9
:105280001C9803E0D4488480048150202890287919
:1052900001287FF457AE68790128FAD12C710D20CE
:1052A0006C712870AC70EC70012E06D0022E07D005
:1052B000032E08D0042E0BD00EE01998401C04E0F9
:1052C0001A98401E06E01998401E40B2199003E05B
:1052D0001A98401C40B21A904FF48051C148FBF715
:1052E000FDFFD8B35FF0000002904FF40051BD48BD
:1052F000FBF7F4FF98B3002001905946B948FBF73B
:10530000EDFF68B300200299890001EB400101988C
:1053100008442B9099F80B2099F80A3099F809C0A5
:10532000521C5B1C0CF1010CD2B2DBB20CF0FF0C76
:10533000CDE90220CDE900C399F80800401CC3B2B2
:105340001998401CC2B22A901A98401CC1B22990E8
:10535000F0B2FEF70DFAFF2809D028E001E002E0E4
:1053600003E00120C0E70120C6E70120CBE7FBF7FF
:10537000FDFB99F80B2099F80A3099F809C0521CE6
:105380005B1C0CF1010C2B99D2B2DBB20CF0FF0CC0
:10539000CDE90221CDE900C399F80800401CC3B251
:1053A0002A98C2B22998C1B2F0B2FEF7E1F908B169
:1053B0008246A9E5042EFCD1012025904FF00F0A6A
:1053C00089F80040DDE084484FF49671BAF10B0F84
:1053D000C18002D14FF4C861C18099F820204946AC
:1053E000D20712D191F822202D2A0ED9872A0CD269
:1053F00091F82130503B03EB43035B005A3AA2EB98
:10540000820283809200028101E084800481AA7874
:10541000012ACED1EA78012ACBD1AC70EC702C7184
:105420006C718480C4800481B9F90210189185F8E8
:1054300000A0BAF10B0FBCD14FF4C861C18063E585
:10544000654B4FF650304A461881B9F9021018984A
:10545000FFF704FC40F22621884202DD4FF60C6083
:105460001881B2F902101898FFF7F8FBB0F5487FE1
:105470009FDD1C81761C1FE028702C716C71502000
:10548000289041E5544A4FF496601081B9F9021012
:105490001898FFF7E3FB40F22621C84202DA4FF4E6
:1054A000FA701081B9F902101898FFF7D7FB10F5C0
:1054B000487FC4DA1481761E259876B230B3152061
:1054C000DAE7454A4FF496604B461081B9F902106D
:1054D0001898FFF7C3FB40F2AA51C84202DA4FF412
:1054E000FA701081B3F902101898FFF7B7FB40F279
:1054F000A461C84207DBB3F902101898FFF7AEFBAE
:10550000B0F5617F9BDD1481B61CD5E70B20B3E7B6
:1055100031494FF4C860C88099F820104846C9073F
:105520001DD190F8221002912D2918D9872916D261
:1055300099F82100FBF7BBF80022284BFAF7B1FFDE
:105540000022274BFAF7B3FFFBF7D7F822498880F0
:1055500002985A38A0EB80008000088102E01E48C3
:10556000848004812698401CC0B22690182888D9CF
:105570000220287000202690C6E4012E01DA361D94
:1055800076B26878012805D1FBF7BAFEE968401ABF
:10559000822806D9104880F80A808480C48004815B
:1055A00002E00D48807A38B10B4A0F49A03A0A4808
:1055B000FFF7A2F9084884720748A038FBF7A4FB5C
:1055C00005490948A039FDF717FE4FF40041054889
:1055D000FBF789FE4BE400002C05002000E053405F
:1055E0000000184000100140200000202DE9F05F6D
:1055F000424C206A40F001002062206A40F0100016
:105600002062206AA51540F480702062206AA614EA
:1056100040F480502062206A40F004002062206A3A
:1056200040F040002062206A271540F4806020622C
:10563000002201212046FDF725F9002210212046F5
:10564000FDF720F9002229462046FDF71BF900222C
:1056500031462046FDF716F9022204212046FDF7C7
:1056600011F9022240212046FDF70CF902223946A9
:105670002046FDF707F9234C214965614814606114
:105680006761214F80006061214DDFF880808000DC
:105690006861DFF8809040006861DFF87CB040000E
:1056A0006861DFF878A06E6101222046FCF73AFFBE
:1056B00001221B492046FCF735FF012219492046EB
:1056C000FCF730FF092239462046FCF72BFF012268
:1056D00041462846FCF726FF012249462846FCF7AA
:1056E00021FF012259462846FCF71CFF5146284657
:1056F000BDE8F05F0122FCF715BF0000002C01405F
:1057000001000104000801400800080420002004F2
:10571000000C014040004004800080041000100490
:10572000020002040400040400B5254B21F00042ED
:1057300087B09A4203DC0022134600922BE0214BF3
:105740009A4208D140B94FF00100FEF755FEFEF72E
:1057500034FE07B000BD03DBFEF72AFE07B000BD34
:1057600002AAFEF717FB10F003014FF001000DD065
:10577000012914D002291AD00DF1080C9CE80F0061
:10578000FEF7CCFC07B081F0004100BD0DF1080C24
:1057900000909CE80F00FEF795FD07B000BD0DF1ED
:1057A000080C9CE80F00FEF7B9FC07B000BD0DF136
:1057B000080C00909CE80F00FEF784FDE2E7000073
:1057C000FB21E93F0000F07F70B50C460646101B38
:1057D000FAF74EFF0546301BFAF74AFF0B49FAF776
:1057E0004FFD2946FAF77EFDFAF7A6FF0022084B87
:1057F000FAF7B6FDFAF781FF40B2002801DA00207F
:1058000002E0052800DD0520C0B270BD0000A04008
:105810000000E03F2DE9F04106460F46FBF791F806
:10582000041E0D4618BF0120284320F00040C0F19F
:105830007F6000F1E040C00F0ED0301C18BF012087
:10584000384320F00040C0F17F6000F1E040C00F1D
:1058500004BF0120FEF7D0FD20462946BDE8F081B7
:10586000194810B5416C41F400414164016841F0B0
:1058700001010160016A41F001010162016A41F028
:1058800010010162016A41F480710162016A41F410
:1058900080510162016A41F004010162016A41F034
:1058A00040010162016A41F4806101623C210748C4
:1058B000FCF7FCFA3C210648FCF7F8FABDE810407A
:1058C0003C210448FCF7F2BA002C0140F00500200E
:1058D000300600207006002010B508210448FCF7AF
:1058E000A9FBBDE810400C210148FCF7A3BB000058
:1058F000F006002000020406080A0C000000000068
:105900000404040000080000000800000101E90090
:10591000F000E900E30002015E0002015A00F0001D
:10592000000000000000000001020304060708094F
:1059300000000000010203044FBB610567ACDD3FBE
:10594000182D4454FB21E93F9BF681D20B73EF3FA6
:10595000182D4454FB21F93FE2652F227F2B7A3C1E
:10596000075C143326A6813CBDCBF07A8807703CD7
:10597000075C143326A6913CC4EB98999999C9BF4A
:10598000711623FEC671BCBF6D9A74AFF2B0B3BF7F
:105990009AFDDE522DDEADBF2F6C6A2C44B4A2BF3F
:1059A0000D5555555555D53FFF8300922449C23FAB
:1059B0006E204CC5CD45B73F513DD0A0660DB13FDF
:1059C000EB0D76244B7BA93F11DA22E33AAD903FF1
:1059D0004C5555555555A53F7751C1166CC156BF0D
:1059E0009015CB19A001FA3EAD529C804F7E92BE1D
:1059F000C4B1B4BD9EEE213ED43888BEE9FAA8BD3C
:105A0000000000000000000000004054FB21F93FAE
:105A10003163621A61B4D03D0000601A61B4D03DB8
:105A20007370032E8A19A33B0000002E8A19A33B32
:105A3000C14920259A837B39000000000000000046
:105A40006E83F9A22915444ED15727FCC0DD34F5E9
:105A5000999562DB4190433CAB6351FE61C5BBDE6F
:105A60003A6E24B7E0D24D42EA2E49061C92D10983
:105A70001CEB1DFE3EA729B1F53582E88444BB2E00
:105A800026709CE9417E5FB439D69139F43953834D
:105A90008B5F849C3B28F9BDFF97F81F0F9805DEAC
:105AA0008B112FEF1F6D0A5ACF7E366DB709CB27AA
:105AB000663F464F2DEA5F9EC7BA27757BF1E5EB3F
:105AC000F739073DEA92528AB15FFB6B085D8D1F83
:105AD000A6F810111111813FD561C119A0012ABF8B
