:020000040800F2
:10000000C00C002045010008E1360008F924000872
:100010001D310008610B00087D3F00080000000052
:100020000000000000000000000000004F39000840
:10003000570C00080000000049390008B1390008D9
:100040005F0100085F0100085F0100085F01000810
:100050005F0100085F0100085F0100085F01000800
:100060009D0C00085F0100085F0100085F010008A7
:10007000FD0B0008090C00085F0100085F01000883
:10008000150C0008210C00085F0100085F01000842
:100090005F0100085F0100085F0100085F010008C0
:1000A0005F0100085F0100085F0100085F010008B0
:1000B0005F0100085F0100085F0100085F010008A0
:1000C0005F0100085F0100085F0100085F01000890
:1000D0005F0100085F0100085F0100085F01000880
:1000E000590C00085F0100085F0100085F0100086B
:1000F0005F0100085F0100085F0100085F01000860
:100100005F0100085F0100085F0100085F0100084F
:100110005F0100085F0100085F0100085F0100083F
:100120005F0100085F0100085F0100085F0100082F
:10013000DFF80CD000F06CFC00480047D54E0008FA
:10014000C00C00200648804706480047FEE7FEE74F
:10015000FEE7FEE7FEE7FEE7FEE7FEE7FEE7FEE777
:10016000113A000831010008202A04DB203A21FA64
:1001700002F00021704721FA02F3D040C2F12002C0
:10018000914008431946704740EA01039B0703D09A
:1001900009E008C9121F08C0042AFAD203E011F8C6
:1001A000013B00F8013B521EF9D27047D2B201E088
:1001B00000F8012B491EFBD270470022F6E710B56C
:1001C00013460A4604461946FFF7F0FF204610BDC5
:1001D000F0B480EA0102D40F4200B2EB410F02D228
:1001E0000246084611464A0042D0C30DDDB2C1F3B3
:1001F000C752AD1A202D35DAC1F3160141F40002C1
:1002000004B15242C5F1200602FA06F12A41104417
:10021000B3EBD05F23D0C4B1012DA0EBC35009DCF8
:10022000F0BC4FF0004202EAC352DBB200F500001E
:1002300000F012BB400000F1807000EBC350A0F151
:10024000807040EAD170490009E0490841EAC07174
:10025000A0EBC35000F50000400800EBC350F0BC19
:1002600000F0F1BA6142012202EB4101001BF6E706
:10027000F0BC704781F00041AAE780F00040A7E79A
:1002800080EA010210B502F00043400022D04A008B
:100290001FD0010E01EB1261C0F35600C2F35602EB
:1002A00040F4000042F40002A0FB022000047F3969
:1002B000140400D0401C50EA124001D44000491EF2
:1002C000C2B20C0604EBD010401C4008802A02D0B9
:1002D00003E0002010BD20F00100002900DA00201A
:1002E000184310BD30B480EA010202F0004530F03E
:1002F000004221F0004013D090B1C30DD40DC2F3E1
:100300001601C0F31600E41A41F4000140F40002A3
:100310007D34914201D3641C00E04900002C02DAD4
:1003200030BC002070474FF400000023914201D3FD
:10033000891A034340084FEA4101F7D151B1914274
:1003400002D14FF0004105E002D24FF0010101E07F
:100350006FF0010103EBC450284430BC00F073BAC5
:100360002DE9FE4F804681EA0300C00F0C46009045
:1003700021F0004123F00045B8EB0200A94105D26D
:100380004046214690461C460B46024623F000405C
:10039000104347D0270DC7F30A00C3F30A51029058
:1003A000401A019040286BDAC3F3130040F4801B1D
:1003B0000098924620B10023D2EB030A63EB0B0BAB
:1003C00001985946C0F14002504600F01BFA06461B
:1003D0000D4650465946019A00F023FA10EB0800EA
:1003E0006141002487EA115284EAE7731A4340D03E
:1003F000009A62B3019A012A4FEA075215DC001BEA
:1004000061EB02014FF0004202EA0752CDE90042DF
:10041000001C41F5801132462B4600F05AFA03B019
:10042000BDE8F08F40462146F9E7001B61EB020171
:10043000001C41F5801300185B412018A2F500173D
:1004400047EB030140EAD570B6196D4111E06D0824
:100450004FEA360645EAC0754FEA0752001B61EBCA
:100460000201001C41F5801149084FEA30000019D3
:10047000514132462B4603B0BDE8F04F00F01ABAA6
:100480000098012240000023D0EB020263EBE073EE
:10049000009821464FEAE074B8EB000061EB0401DC
:1004A000E9E783F000435BE781F0004158E72DE97D
:1004B000FE4F81EA030404F0004421F0004100945F
:1004C0004FF0000B23F0004350EA01045ED052EAE3
:1004D00003045BD0C3F30A54C1F30A552C44A4F2BD
:1004E000F3340194A0FB0254C1F3130141F48011D1
:1004F000C3F3130343F4801301FB024400FB034ED8
:10050000840A970A44EA815447EA8357A4FB0768A0
:1005100002958D0A05FB07854FEA932C04FB0C54CA
:100520002705029D4FEA065847EA1637B5EB08053E
:100530006EEB070C870E920E47EA811742EA831290
:10054000A7FB0201B6EB0B0164EB00042B0D43EAA1
:100550000C335E1844EB1C50DA465146E7FB0201AF
:10056000C5F313044FEA0B3343EA14534FEA043242
:10057000019C43EA0603A4F10C040294009CCDE91B
:1005800000B400F0A6F903B0BDE8F08F00200146EA
:10059000F9E72DE9F04D81EA030404F0004B21F066
:1005A000004514464FF0000A23F0004150EA0502CE
:1005B00020D054EA01021DD0C5F30A570246C5F304
:1005C0001303C1F31300C1F30A5640F4801543F43A
:1005D0008013A7EB0608101BD64608F2FD3873EB14
:1005E000050002D308F1010801E092185B41B8F15F
:1005F000000F03DA00200146BDE8F08D00204FF423
:100600008011064684460EE0171B73EB050705D3E1
:10061000121B63EB050306434CEA010C49084FEA41
:10062000300092185B4150EA0107EDD152EA030015
:1006300012D082EA040083EA0501084305D0101BAA
:10064000AB4106D20122002306E000224FF0004316
:1006500002E06FF0010253101AEB06004CEB085158
:1006600010EB0A0041EB0B01BDE8F04D00F022B9A0
:1006700070B521F0004303430CD0C1F30A550024A8
:10068000D5EB040564EB0403D617AD1AB34102DBC6
:100690000020014670BD201841EB025170BDC10F12
:1006A00080EAE0700844CA079623002100F0D4B81D
:1006B00096230022114600F0CFB80EB5C10F80EA94
:1006C000E0700844CA07002140F233438DE80E0071
:1006D0000A460B4600F0FDF803B000BD0EB540F22F
:1006E000334102910021CDE900110A460B4600F08A
:1006F000F0F803B000BD00F0004220F00040C10D52
:10070000C0F3160040F400007F2901DA0020704792
:10071000962903DCC1F19601C84001E09639884072
:10072000002AF4D04042704770B5C1F30A5201F07C
:1007300000450024C1F3130140F2FF3341F480115E
:100740009A4201DA002070BD40F233439A42A2F28D
:10075000334203DC5242FFF707FD00E090402C4398
:10076000F1D0404270BD00F0004230F000400AD0AD
:10077000C10D01F56071C0F3160042EA0151C208D3
:1007800040071143704700200146704701F00043C5
:1007900030B421F0004150EA010206D00A0DA2F562
:1007A0006072C1F31301002A02DC30BC00207047E4
:1007B000440F44EAC104C100E01830BC00EBC25051
:1007C00000F041B8002801DBC0F10040002901DB46
:1007D000C1F100418842704730B50B460146002008
:1007E0002022012409E021FA02F59D4205D303FAF3
:1007F00002F5491B04FA02F52844151EA2F1010274
:10080000F1DC30BD202A04DB203A00FA02F100209E
:1008100070479140C2F1200320FA03F3194390403E
:100820007047202A06DBCB17203A41FA02F043EA50
:10083000E07306E041FA02F3D040C2F12002914099
:100840000843194670470029A8BF7047401C49005B
:1008500008BF20F00100704710B4B0FA80FC00FA25
:100860000CF050EA010404BF10BC704749B1CCF150
:10087000200421FA04F411FA0CF118BF01212143DC
:100880000843A3EB0C01CB1D4FEA00614FEA102097
:1008900042BF002010BC704700EBC3501044002939
:1008A000A4BF10BC7047401C490008BF20F00100E5
:1008B00010BC704710B5141E73F1000408DA401C18
:1008C00041F1000192185B411A4301D120F001006F
:1008D00010BD2DE9F04D92469B4611B1B1FA81F25F
:1008E00002E0B0FA80F220329046FFF78BFF044618
:1008F0000F4640EA0A0041EA0B0153465A460843B4
:1009000013D0114653EA010019D0C8F140025046F5
:10091000FFF72AFC05460E46504659464246FFF769
:1009200071FF084305D0012004E020463946BDE8A8
:10093000F08D0020054346EAE0762C4337430A98C1
:100940006305E40AA0EB08000022FD0A44EA4754CC
:100950000A3002D500200146E9E701051019694176
:10096000DDE9084500196941BDE8F04DA2E72DE930
:10097000F04D00231A461B1A8A4103DB0020014672
:10098000BDE8F08DC1F30A52C1F3130141F48015A3
:100990004FF0000BD10702D100186D41521E002705
:1009A000044640F2FF11384601EB620A3E4680469B
:1009B000024600204FF48011FFF7D6FBC2197141A7
:1009C000BB1846EB0100B4EB030C75EB000C04D331
:1009D000E41A65EB000517460E46241908F10100DC
:1009E0006D4180463428E3DDF91946EB0600091B0A
:1009F000A84103D24FF0FF32134601E00022134614
:100A00001BEB070046EB0A51BDE8F04DFFF752BF64
:100A1000064C074D06E0E06840F0010394E807004B
:100A200098471034AC42F6D3FFF786FBC06300084A
:100A3000E06300081A4B012A03EBC11101EB00101F
:100A40000ED0022A17D0032A1FD0042A07D101781A
:100A500041F008010170017C41F00201017470470E
:100A6000017841F00101017090F8801041F004011B
:100A700080F88010704710F8101941F002010174DD
:100A8000017841F0080101707047017841F00401DC
:100A9000017010F8801C41F0010100F8801C7047C3
:100AA000BC0400202DE9F041294E01272949307866
:100AB00000241546052849D2DFE800F0030A0C0A95
:100AC00014000C7001222349234801F039FC3770CF
:100AD000BDE8F08102222048491C01F031FC0320CE
:100AE0003070F5E74878302830D188781B496D2878
:100AF00011D0782811D04FF4FA7177280FD04A42DC
:100B000073280ED061280FD0642810D0712812D01D
:100B1000652814D016E00F7014E00C7012E0E98024
:100B200000E0EA80AC8004E0EC80AA8001E0EC8088
:100B3000A9802C8106E0EC80AC802A8102E0EC8068
:100B4000AC802981AF7200F0A9FB28603470BFE748
:100B5000140000204C0000202C030020190000206D
:100B6000FEE7000070B50021224C0B46002004EB8C
:100B7000C11200BF02EB001501282B7002D006281D
:100B800006D00CE0167C02F1100546F0020605E0E6
:100B900092F8606002F1600546F008062E700129A7
:100BA00002D0062908D00EE0124D803505EB001565
:100BB0002E7846F0040605E00F4D05EB00152E7863
:100BC00046F001062E70401C0828D3DB491C08297A
:100BD000CCDB0124C4F10605E9B2E0B20122FFF743
:100BE00029FFE9B2E0B20422FFF724FF641C062CBF
:100BF000F0DB70BDBC040020BC070020014800F001
:100C00009FB8000078040020014800F099B8000067
:100C100034040020014800F093B80000AC03002029
:100C2000014800F08DB80000F003002030B590F8C6
:100C300040500124AC40C56B6C600468636043683D
:100C4000102B036803D099600068C26030BD9A60C1
:100C50000068C16030BD704770B50C480168090478
:100C600013D54FF4004404600421094800F008FB48
:100C700005462146074800F003FB074985420888DE
:100C800001D1401E00E0401C088070BD14040140EA
:100C9000000C0140000801400C0000200C4810B579
:100CA0000168490712D5042101600A4800F0E8FAFA
:100CB00004464FF40041084800F0E2FA0749844234
:100CC000088801D1401C00E0401E088010BD0000D3
:100CD00014040140000C0140000801400C000020F9
:100CE000FEE7000070B512494268124CB1F90030BD
:100CF000D21A42602368426D5B6A1BB2D21A426507
:100D00000D4AC36A15686D6A2DB25B1BC3620B4B3B
:100D1000C56F1E68766A36B2AD1BC56700200880B5
:100D200021684862116848621968486270BD000015
:100D30000C000020EC0100202C0200206C0200209E
:100D40002DE9F05FC16B0A6801680B68046C4FF015
:100D5000040808FA04F8844D844E854FDFF814C265
:100D6000DFF81492DFF814A2DFF814B2DFF814E20F
:100D700018EA020F65D05FEA437862D50A689206E6
:100D800003D40A6822F004020A60DFF8F0814FF40D
:100D90008062016808F1140813011402414524D946
:100DA000A9420DD0B1420FD0B9421AD0614515D039
:100DB000494515D0514501D1120312E0594501D1E1
:100DC00004220EE0714501D140220AE06D4D143538
:100DD000A94206D06B4A2832914201D11A4600E05E
:100DE00022466749091F0A6029E0A94213D0B1428F
:100DF00015D0B94220D061451BD049451BD0514583
:100E000002D14FF4800217E0414502D14FF08062D9
:100E100012E0594501D104220EE0714501D1402272
:100E20000AE0584D1435A94206D0564A283291425C
:100E300001D11A4600E022464B4908394A60C16A8E
:100E400071E04FF0020808FA04F818EA020F70D0B7
:100E50005FEA83786DD50A68920606D40A6822F0A4
:100E60000A020A60012180F82110DFF810814FF496
:100E70000072016808F1140813011402414524D9D5
:100E8000A9420DD0B1420FD0B9421AD0614515D058
:100E9000494515D0514501D1120312E0594501D100
:100EA00002220EE0714501D120220AE0354D1435B1
:100EB000A94206D0334A2832914201D11A4600E0B5
:100EC00022462F49091F0A6029E0A94213D0B142E6
:100ED00015D0B94220D061451BD049451BD05145A2
:100EE00002D14FF4001217E0414502D14FF00072D9
:100EF00012E0594501D102220EE0714501D12022B4
:100F00000AE0204D1435A94206D01E4A28329142EB
:100F100001D11A4600E02246134908394A600021EF
:100F200080F82010816A00291CD0BDE8F05F0847D6
:100F3000FFE70825A540154214D01A0712D50A6804
:100F400022F00E020A6090F84020C36B012101FAE2
:100F500002F25A60816380F82110002180F820108D
:100F6000016BE0E7BDE8F09F080002401C00024072
:100F70003000024044000240580002406C00024031
:100F8000080402401C04024030B560B11A4B0268EC
:100F900014219A4209D2194B1344B3FBF1F1890091
:100FA000016417490AE0012030BD134B5B42134432
:100FB000B3FBF1F1890001640F490839C1630221D3
:100FC00080F82110136843F6F0718B43F0E90114A7
:100FD0002143D0E902452C4321430469214344695C
:100FE0002143846921431943116000214163012297
:100FF00042770177084630BD08040240F8FFFDBF84
:101000000000024070B5044690F820000025012839
:101010000CD0012084F8200094F821600020012EDB
:1010200006D084F820000225284670BD022070BD3D
:10103000022684F82160A0632068066826F0010675
:1010400006602046FFF7F2FDE06A0028206801688C
:1010500002D041F00E0106E021F004010160206899
:10106000016841F00A0101602068016841F0010156
:101070000160D9E770B5044600F010F90546601C20
:1010800002D004480078044400F008F9401BA04254
:10109000FAD370BD240000202DE9F84FDFF8B8A185
:1010A00000220AF1040B144601274FF00F090BF13F
:1010B000040E00BF0B6807FA04F52B40AB4274D155
:1010C000DFF898C14E68A6EB0C0866452BD00DDC06
:1010D000032E34D005DC36B3012E19D0022E2FD1C9
:1010E0001BE0112E16D0122E2AD119E0B8F5881F58
:1010F00019D006DCB8F5803F15D0B8F5801F1FD198
:1011000011E0B8F5001F0ED0B8F5041F18D10AE0A1
:10111000CA6815E0CA68121D12E0CA6808320FE0FA
:10112000CA680C320CE08A682AB1012A4FF0080222
:1011300003D0456104E0042202E0056100E00022E2
:10114000FF2B01D8064601E000F104064FEA8405B2
:1011500001D9A5F12005D6F800C009FA05F82CEA56
:10116000080C02FA05F54CEA050CC6F800C04D68FB
:10117000ED006AD53A4DAE6946F00106AE61AD6943
:1011800024F0030605F001050095364D06EB050C2D
:10119000DCF80850A6074FEA167809FA08F6B543B6
:1011A000314EB04202D100261AE04EE02F4EB0423E
:1011B00001D1012614E02E4EB04201D102260FE0EB
:1011C0002C4EB04201D103260AE02B4EB04201D191
:1011D000042605E0294EB04201D1052600E006268E
:1011E00006FA08F62E43CCF808604D68DAF800607D
:1011F000ED03554601D51E4300E09E432E604D6829
:10120000AD0305D5DBF800601E43CBF8006004E0B9
:10121000DBF800509D43CBF800504D68DEF80060CD
:10122000ED02754601D51E4300E09E432E604D68D9
:10123000AD0205D5084D0C352E681E432E6004E026
:10124000054E0C3635689D433560641C102CFFF448
:1012500031AFBDE8F88F000000040140000011101C
:10126000001002400000014000080140000C014055
:10127000001001400014014000180140001C014012
:101280008068084000D001207047C2684A40C260B0
:1012900070470AB1016170470904FBE701488068A3
:1012A000704700002400002070B504001BD094F8A3
:1012B0003D00002520B984F83C50204600F030F96C
:1012C000242084F83D002068016821F001010160BC
:1012D00000F0AAFA404A6168914201D83F4900E013
:1012E0003F49884201D2012070BD3E492368B0FBCE
:1012F000F1F159606368934206D94FF496735943EC
:101300004FF47A73B1FBF3F12368491C19626168E9
:10131000914210D84900401EB0FBF1F2521CC2F3BA
:101320000B02042A01D2042022E0B0FBF1F0401CA1
:10133000C0F30B001CE0A368CBB301EBC10202EBCE
:101340000116421EB2FBF6F2521C42F48042120514
:1013500036D06BB301EBC10202EB0111401EB0FBB2
:10136000F1F0401CC0F30B0040F4804040F400401A
:101370002168C861D4E90701084321680860D4E9FD
:101380000310084321688860D4E9050108432168F7
:10139000C8602068016841F00101016025642020D7
:1013A00084F83D00256384F83E50002070BD00E0C5
:1013B00008E001EB4106421EB2FBF6F2521CC6E702
:1013C0000120D5E701EB4101401EB0FBF1F0401CCC
:1013D000C0F30B00CAE70000A086010080841E0055
:1013E00000093D0040420F002DE9F84F1F4690468E
:1013F0008A460446DDF82890FFF750FF064694F829
:101400003D0020287ED11923012243492046009621
:1014100001F0F9F800287DD194F83C00012879D03A
:10142000012084F83C0020680168C90703D10168E5
:1014300041F0010101602068016821F40061016050
:10144000212084F83D00102084F83E00002525640A
:10145000C4F8248067853148E062608D208533467A
:101460004A465146204601F05DF828B1206C84F8C8
:101470003C5004284CD00DE0206841698069009000
:1014800030E032464946204601F032F928B1206C5E
:10149000042838D00320BDE8F88F606A411C6162DF
:1014A000216800780861608D401E6085208D401E97
:1014B00080B2208521684A69D24352070BD450B1CB
:1014C000606A421C626200780861608D401E60851F
:1014D000208D401E208532464946204601F06CF89A
:1014E0000028D4D1208D0028CBD154F83D0B0168C1
:1014F00041F400710160202004F81E09E57765774A
:101500000020C8E706E02068016841F4007101602E
:101510000120C0E70220BEE7020010000000FFFF2C
:1015200010B586B0002100910191029103910068ED
:101530001349884222D1134CA06940F00800A061F1
:10154000A069694600F0080004904FF440700090D4
:1015500012200190032003900B48FFF79DFD0B48DC
:10156000416841F0E06141F002014160E06940F40E
:101570000010E061E06900F40010049006B010BDB6
:101580000054004000100240000C014000000140E7
:10159000024881680278114481607047240000206D
:1015A000074810B5016841F010010160032000F008
:1015B00073F8002000F006F800F024F8002010BDB9
:1015C0000020024070B50D4D04464FF47A71287822
:1015D000B1FBF0F00A490968B1FBF0F000F0FCFA49
:1015E00048B9102C07D200222146501E00F034F8D2
:1015F00000206C6070BD012070BD00002400002040
:10160000300000200C4808B5816941F0010181617A
:10161000816901F001010091C16941F08051C1610E
:10162000C06900F0805000900448416821F0E061FA
:1016300041F00071416008BD00100240000001400F
:1016400000F01F02012191404009800000F1E020DC
:10165000C0F8001170470000F0B40E4B1B680C4638
:10166000C3F30223C3F10705042D00D90425191D76
:10167000072901D2002300E0DB1E012606FA05F14E
:10168000491E214099409E40761E16403143F0BCD1
:1016900002F027B80CED00E0064900F007020868E8
:1016A0004FF6FF03184040EA0220034A1043086047
:1016B000704700000CED00E00000FA052DE9F0474E
:1016C000DFF8548105460E46D8F8000000F0070008
:1016D000B0420CD2D8F8001021F007013143C8F80D
:1016E0000010D8F8000000F00700B0426FD1286861
:1016F0004A4C810712D5400703D5606840F4E0608A
:1017000060602878000703D5606840F4605060602E
:101710006068A96820F0F000084360602878C0077E
:1017200044D06868012816D02168022816D089079D
:1017300000294CDA616821F0030101436160FFF781
:10174000ADFD6968074641F2883001290ED00229B3
:10175000814618D026E021688903E9E78901E7E797
:10176000FFF79CFDC11B494501D918E0814660681F
:10177000C0F381000128F3D118E000BFFFF78EFD10
:10178000C11B49450BD86068C0F381000228F5D120
:101790000CE000BFFFF782FDC11B494502D90320C1
:1017A000BDE8F087606810F00C0FF3D1D8F8001096
:1017B000404601F00701B1420BD9016821F0070151
:1017C00031430160006800F00700B04201D0012001
:1017D000E6E72878400705D56068E96820F4E0600E
:1017E000084360602878000706D56068296920F4FE
:1017F000605040EAC100606000F036F86168084A55
:10180000C1F30311515CC840064908600020FFF78E
:10181000D9FE0020C4E70000002002400010024072
:10182000E461000830000020044805490068496868
:10183000044AC1F30221515CC840704730000020C7
:1018400000100240F4610008044805490068496836
:10185000044AC1F3C221515CC840704730000020E7
:1018600000100240F461000812A185B00FC98DE894
:101870000F0014A0144A006804905168134801F046
:101880000C03042B10D0082B0ED1C1F38343C903E2
:101890001DF803000AD5516804AAC1F34041515C08
:1018A0000A4A5043B0FBF1F005B07047084948437D
:1018B000FAE7000002030405060708090A0B0C0DED
:1018C0000E0F1010010200000010024000127A00FA
:1018D00000093D002DE9F84F04460078B94DC007D6
:1018E00048D06868C0F38100012807D06868C0F359
:1018F0008100022809D16868C00306D528688003E2
:1019000038D5606800286FD034E06068B0F5803F5B
:101910000BD010B1B0F5A02F11D0286820F4803082
:101920002860286820F4802002E0286840F4803095
:101930002860606888B1FFF7B1FC064609E02868B6
:1019400040F480202860F0E7FFF7A8FC801B6428A3
:1019500075D828688003F7D50CE0FFF79FFC064692
:1019600005E000BFFFF79AFC801B6428F0D82868C8
:101970008003F7D42078944E80074FF001094FF090
:1019800000083BD5686810F00C0F07D06868C0F3FA
:101990008100022809D16868C00306D4286880073E
:1019A00014D5206901281FD110E02069B0B1C6F814
:1019B0000090FFF773FC074605E000BFFFF76EFCE1
:1019C000C01B0228C4D828688007F7D52868616939
:1019D00020F0F80040EAC10028600FE0C6F800805F
:1019E000FFF75CFC074606E0E9E000BFFFF756FCA6
:1019F000C01B022823D828688007F7D42078000766
:101A00002CD57248A169D9B1C0F80090FFF746FC07
:101A1000074604E0FFF742FCC01B02280FD8686AA3
:101A20008007F7D56A484FF4FA510068B0FBF1F02F
:101A3000009000BF0098411E0091FAD20EE080E0B5
:101A4000C0F80080FFF72AFC074604E0FFF726FCF9
:101A5000C01B022875D8686A8007F7D42078400731
:101A600060D5E8690027C00008D4E86940F08050DC
:101A7000E861E869012700F080500090554801684E
:101A8000C90513D40168834641F480710160FFF7F2
:101A900005FC824606E000BFFFF700FCA0EB0A0051
:101AA00064284ED8DBF80000C005F5D5E0680128B1
:101AB0000AD008B1052813D0286A20F00100286256
:101AC000286A20F0040002E0286A40F00100286241
:101AD000E06841F2883B98B1FFF7E0FB82460BE0FB
:101AE000286A40F004002862EEE700BFFFF7D6FB4B
:101AF000A0EB0A0159455AD8286A8007F6D50CE0B0
:101B0000FFF7CCFB824605E0FFF7C8FBA0EB0A011C
:101B100059454CD8286A8007F6D41FB1E86920F0EF
:101B20008050E861E06988B36968C1F381010229E6
:101B300045D00228C6F8608004D0FFF7AFFB04460A
:101B400038E034E0FFF7AAFB074604E0FFF7A6FB06
:101B5000C01B02282BD828688001F7D4206AB0F572
:101B6000803F05D16868A16820F4003008436860B0
:101B7000D4E908010843696821F4741108436860D6
:101B8000C6F86090FFF78AFB044606E015E000BF48
:101B9000FFF784FB001B022809D828688001F7D5CD
:101BA0000BE000BFFFF77AFB001B022802D90320DD
:101BB000BDE8F88F28688001F4D40020F8E7012000
:101BC000F6E700000010024000004242800442425A
:101BD000300000200070004010B5401EB0F1807F42
:101BE00001D3012010BD4FF0E02460610F21601788
:101BF00001F077FD0020A06107202061002010BDCA
:101C000010B590F83C20012A25D0012280F83C2014
:101C1000CA688C6822F4407222434C6822F48062C5
:101C200022430C6822F4006222430C6922F48052A1
:101C300022434C6922F4005222438C6922F48042F0
:101C4000224322F40041026800232143516480F8BA
:101C50003C30002010BD022010BD30B590F83C2073
:101C6000012A20D0012280F83C20022380F83D3058
:101C700003685C6824F070045C6003685C680D684D
:101C80002C435C6003689C6824F080049C600368BB
:101C90009C6849680C439C6080F83D20002180F8D6
:101CA0003C10084630BD022030BD10B5040003D002
:101CB00094F83D0010B107E0012010BD002084F829
:101CC0003C00204600F00CF8022084F83D00211D65
:101CD000206801F0C1FE012084F83D00002010BD05
:101CE00008B501681148B1F1804F0BD0104A9142FC
:101CF00010D1C16941F01001C161C06900F010004C
:101D0000009008BDC16941F00101C161C06900F0E6
:101D10000100F5E7074A9142F3D1816941F400518E
:101D20008161806900F40050EAE700000010024081
:101D3000001000400034014070B5044690F83C00AB
:101D4000012817D0012584F83C50022084F83D007A
:101D50002068826822F0770222F47F42826008685D
:101D6000502837D00DDC202859D005DC88B3102846
:101D700041D151E0022070BD302853D040283AD1E3
:101D80003FE060282ED070280BD0B0F5805F03D0E4
:101D9000B0F5005F2FD110E02068816821F00701C5
:101DA00015E0CB68D1E90121206801F0A6FE216889
:101DB000886840F0770088601DE0CB68D1E9012198
:101DC000206801F09AFE2068816841F480418160BA
:101DD00011E01EE0CA684968206801F063FF5021E5
:101DE000206806E0CA684968206801F06CFF60213D
:101DF000206801F08CFE84F83D50002084F83C00FF
:101E000070BDCA684968206801F04CFF4021206815
:101E1000EFE700212068ECE710212068E9E72021A6
:101E20002068E6E730212068E3E72DE9F0410D4620
:101E3000040003D094F83D0018B108E00120BDE88B
:101E4000F081002084F83C00204600F039F80220A0
:101E500084F83D002068816821F007018160211D20
:101E6000206801F0F9FD226890689169166A2B6874
:101E7000AF69034340F20330814341EA0721A86878
:101E8000EF6908434FF6FC418843E96840EA0720C0
:101E9000014328692F6A000140EA07300843696856
:101EA0006D6926F0AA0646EA051529439360226863
:101EB000906120680162012084F83D000020BEE7A7
:101EC00000B585B0002100910191029103912B4B47
:101ED00002682B492B489A421FD1CA6942F002027C
:101EE000CA61CA6902F0020204928A6942F00802D9
:101EF0008A61896901F008010491302100916946E5
:101F0000FFF7CAF82048416821F4406141F0E061E0
:101F100041F40061416005B000BD1C4B9A4213D1F1
:101F2000CA6942F00402CA61CA6902F0040204925A
:101F30008A6942F008028A61896901F00801049106
:101F4000C0210091694616E011488242E3D1C86978
:101F500040F00800C861C86900F008000490886972
:101F600040F0040088618869694600F0040004902C
:101F7000032000900748FFF78FF8CCE700040040EB
:101F800000100240000C0140000001400008004029
:101F9000000C00400008014010B50446006891B1F3
:101FA000042904D00122002101F09CFD20680122B7
:101FB0005FF0040101F096FD2068016841F0010125
:101FC0000160002010BD01220021F3E700B585B0BB
:101FD0000021009101910291039100680B49884210
:101FE00012D10B48816941F0100181618069694615
:101FF00000F0100004904FF47070009002200190E7
:1020000003900448FFF748F805B000BD00340140D4
:10201000001002400010014070B5044690F83C00EA
:102020000D4601280DD0012684F83C60022084F87A
:102030003D0042B1042A18D0082A2AD00C2A4DD1DA
:1020400039E0022070BD206801F06AFD20688169D6
:1020500041F0080181612068816921F004018161FA
:10206000206881692A69114311E0206801F088FD28
:102070002068816941F4006181612068816921F4EF
:1020800080618161206881692A6941EA0221816158
:1020900024E0206801F0AAFD2068C16941F0080130
:1020A000C1612068C16921F00401C1612068C16972
:1020B0002A69114311E0206801F0CCFD2068C16954
:1020C00041F40061C1612068C16921F48061C1618E
:1020D0002068C1692A6941EA0221C16184F83D6032
:1020E000002084F83C0070BD10B5040003D094F8C3
:1020F0003D0010B107E0012010BD002084F83C0035
:10210000204600F00CF8022084F83D00211D2068D4
:1021100001F0A2FC012084F83D00002010BD7047B2
:1021200010B504460068012201F0DCFC0849206873
:10213000884202D00749884203D1416C41F40041F2
:1021400041642068016841F001010160002010BD78
:10215000002C014000340140704770B5040004D0E9
:1021600094F83900002510B106E0012070BD84F814
:102170003850204600F022F8242084F839002068E6
:10218000C16821F40051C160204601F00DFE2068B5
:10219000016921F4904101612068416921F02A011F
:1021A00041612068C16841F40051C160E5632020AD
:1021B00084F8390084F83A00002070BD2DE9F04120
:1021C00086B0002500950195029503950446514F70
:1021D000036851480221032280264FF01008BB42B9
:1021E00045D1C36943F40033C361C36903F40033C9
:1021F0000493836943F0040383618069474F00F0CF
:10220000040004900420CDE9000103926946384699
:10221000FEF742FF0820CDE9000501200290694643
:102220003846FEF739FF3F4F3D48C7E90005C7E98B
:1022300002563D617D61BD613846FD61FEF7A4FE39
:1022400008B1FEF74DFD67637C62374F3448C7E93C
:1022500002563D617D61BD611430FD61C7E9000832
:10226000384650E027637C6206B0BDE8F0812F4F0E
:10227000BB42F9D1C36943F48023C361C36903F44A
:1022800080230493836943F0100383618069039280
:1022900000F0100004903815CDE90001244F694684
:1022A0003846FEF7F9FEF814CDE9000569463846D0
:1022B0000295FEF7F1FE1F48416821F0300141F020
:1022C000E06141F01001416015481B4F3C38C7E9FF
:1022D0000005C7E902563D617D61BD613846FD617B
:1022E000FEF752FE08B1FEF7FBFC67637C62134FFA
:1022F0000B48C7E902563D617D61BD615038FD6103
:10230000C7E900083846FEF73FFE0028AAD0FEF7CE
:10231000E7FCA7E70044004000100240000801402D
:102320006C000240AC030020F00300200048004095
:102330000010014000000140340400207804002017
:10234000F8B5044690F83A0020283CD1C1B3BAB39E
:1023500094F83800012836D0012084F83800A162B2
:10236000A2850025E563222084F83A00636B1748B4
:102370009862636B1648D862636B16481863606B8B
:10238000134645630846666B216802463046091DC0
:10239000FEF738FE206801684168009184F83850E3
:1023A000C16841F48071C1602068416941F0010158
:1023B00041612068416941F0400141610020F8BD60
:1023C000FFE70120FBE70220F9E70000353D0008A8
:1023D000713D0008EB3C000830B5144D002202238B
:1023E00004241349A8420ED10878012803D00328F9
:1023F00000D10C7030BD0F480078312801D00A7030
:1024000030BD0B7030BD0C4DA842FBD1487801287F
:1024100003D00328F6D14C7030BD06480A3000784E
:10242000FF2801D04A7030BD4B7030BD2C03002016
:10243000140000204C0000206C03002070472DE9A0
:10244000F843044690F839001F4616460D462028EA
:1024500050D1A5B19EB194F8380001284AD001208E
:1024600084F838004FF00008C4F83C80212084F83C
:102470003900FEF713FFA6848146E68426E001209A
:10248000BDE8F883E08C401EE084A0684B46B0F5C0
:10249000805F4FF000024FF080012046009703D08C
:1024A00001F03AFDE8B90DE001F036FDC8B9288821
:1024B0002168C0F308004860206908B16D1C05E080
:1024C000AD1C03E0216815F8010B4860E08C002882
:1024D000D8D14B46002240212046009701F01CFD38
:1024E00008B10320CCE7202084F8390084F8388034
:1024F0000020C5E70220C3E7FEE701684A69D2432E
:1025000052050CD46FF480624A61042101640021F9
:1025100040F8301F202242730173012070470020D1
:1025200070470000F8B50446C06A1E460D461746BF
:10253000042807D0012805D010F5803F02D0206B79
:10254000122804D12068016841F4807101601346AB
:1025500000224FF001112046009600F054F8A0B977
:102560002069B0F5804F12D00620216800EAD5100E
:1025700040F0F000086133463A460E49204600F02C
:1025800073F838B1206C042811D00320F8BD05F091
:10259000FE0000E0E8B221680861064933463A4689
:1025A000891F204600F060F80028EBD1F8BD01201B
:1025B000F8BD00000800010070B516460D4604463F
:1025C0001AE02046FFF799FF08B1012070BD681C92
:1025D00012D025B1FEF762FE801BA8420CD954F838
:1025E000400F40F0200044F8100900202060202116
:1025F00061732073032070BD20684069C0434007A9
:10260000DFD4002070BD2DE9F0471E4690460D46F0
:102610000446C1F30747DDF8209012E0701C10D08B
:102620002EB1FEF73BFEA0EB0900B04209D9002015
:1026300044F8300F20216173A07320730320BDE89C
:10264000F0872068012F0AD0806925EA0000000485
:10265000000C06D000214145E0D00020EFE74069A2
:10266000F3E70121F7E700002DE9F0479A4691468C
:102670000D46044600264FF02008C1F307472AE024
:1026800020684069C043400512D42068016841F4C5
:102690000071016021686FF480604861042020644B
:1026A000266384F83D8084F83C600120BDE8F08713
:1026B000B9F1FF3F0FD0B9F1000F05D0FEF7EEFDE5
:1026C000A0EB0A01494506D944F8306F84F80D8023
:1026D00026730320EAE72068012F07D0D0F81800FE
:1026E00025EA00000004000CE0D0C9E74069F7E7E4
:1026F00070B516460D4604461AE02046FFF7FDFE6B
:1027000008B1012070BD681C12D025B1FEF7C6FDCE
:10271000801BA8420CD954F8400F40F0200044F828
:10272000100900202060202161732073032070BDF8
:1027300020684069C0430006DFD4002070BD00005F
:10274000044908B58A6902438A6189690140009198
:1027500008BD000000100240F0B50A68C2F30F2562
:1027600095FAA5F2B2FA82F369E001229A402A4270
:1027700064D0082B03D240F201129A4006E0A3F184
:1027800008024FF00114944044F0806292FAA2F7DC
:1027900000EB1264B7FA87F74FEA870C0F27266819
:1027A00007FA0CF7BE4392FAA2F7D1F804E0B7FAA1
:1027B00087F7BF000EFA07FE46EA0E0626600E698E
:1027C000C7684FEA122C9CFAACFCBCFA8CFC27EAD6
:1027D000122706FA0CF63743C7604E68012E01D067
:1027E000092E2BD192FAA2F7B7FA87F74FEA870C96
:1027F000032707FA0CF72668D1F808E0BE4392FADF
:10280000A2F7B7FA87F7BF000EFA07FE92FAA2FC0A
:1028100046EA0E06BCFA8CFC4FEA8C0E4FF0040C14
:1028200026600CFA0EFC92FAA2F2B2FA82F2CF689B
:10283000920026EA0C0697403E4326605B1C35FA60
:1028400003F292D10120F0BD30B591FAA1F400EB72
:102850001160B4FA84F4A5000F24AC4091FAA1F100
:102860000368B1FA81F18900A3438A4013430360EE
:1028700030BD0A7B8B681A434B6822F480621A438E
:102880000B6822F400621A43CB8922F480521A4367
:102890000B6922F400521A434B6922F480421A4316
:1028A00022F400411943416401207047F0B50268E9
:1028B0001C4B1D4D1D4E1E4F1E4C4FF0804C984220
:1028C00009D0A04207D0604505D0A84203D0B0424D
:1028D00001D0B84205D1D1F804E022F0700242EAFA
:1028E0000E02984209D0A04207D0604505D0A84208
:1028F00003D0B04201D0B84203D1CD6822F4407277
:102900002A4302608A68C2620A888262984201D0C1
:10291000A04201D1097C0163416941F0010141619B
:102920000120F0BD002C01400004004000080040E0
:10293000000C004000340140012919D0042919D0AD
:10294000102919D0402919D0B1F5807F18D0B1F5E0
:10295000806F17D006210C4A18300B4B525CDB1DE0
:1029600010445B5C0421026899408A43026070470E
:102970000021F0E70121EEE70221ECE70321EAE77D
:102980000421E8E70521E6E7A4610008012919D040
:10299000042919D0102919D0402919D0B1F5807F08
:1029A00018D0B1F5806F17D006210C4A18300B4BA8
:1029B000525CDB1D10445B5C0821026899400A43AD
:1029C000026070470021F0E70121EEE70221ECE709
:1029D0000321EAE70421E8E70521E6E7A46100080E
:1029E000F0B5002601236E4C6E4D012908D0102948
:1029F0003BD0B1F5807F73D0B1F5805F6ED1A6E09A
:102A0000016A21F001010162016A46688769D2F812
:102A100000C027F0730747EA0C07D2F810C021F076
:102A2000020141EA0C01D2F804C021F0010141EA9F
:102A30000C01A04201D0A84212D1546921F0080132
:102A400041EA8401946821F0040141EA8401956916
:102A500026F480742C43D56924F4007444EA4506B6
:102A600046608761D26842636FE0016A21F010011D
:102A70000162066A41688769D2F800C027F4E64718
:102A800047EA0C27D2F810C026F0200646EA0C16BA
:102A9000D2F804C026F0100646EA0C16A04201D077
:102AA000A84213D1556926F0800444EA851495683C
:102AB00024F0400444EA8516946921F4806141EAD7
:102AC0008401D46921F4006141EAC4014160876155
:102AD000D168816361E003E000E01E463046F0BD4E
:102AE000016A21F480710162016A4668C769D2F8FF
:102AF00000C027F0730747EA0C07D2F810C021F492
:102B0000007141EA0C21D2F804C021F4807141EA3D
:102B10000C21A04201D0A84213D1546921F40061D4
:102B200041EA8421946821F4806141EA8421956915
:102B300026F4805444EA0514D56924F4005444EA88
:102B400045164660C761D268C2630162C5E7016A83
:102B500021F480510162066A4168C769D2F800C059
:102B600027F4E64747EA0C27D2F810C026F40056AF
:102B700046EA0C36D2F804C026F4805646EA0C36F3
:102B8000A04201D0A84204D1946921F4804141EAD5
:102B900084114160C761D168016406629DE700004D
:102BA000002C01400034014010B5012916D0042941
:102BB00016D0102916D0402916D0B1F5807F15D037
:102BC000B1F5806F14D00623016A0A4CE35C02243D
:102BD0009C40A1439A401143016210BD0023F3E7DA
:102BE0000123F1E70223EFE70323EDE70423EBE7FB
:102BF0000523E9E7845900082DE9F04F85B000244A
:102C000047480094019402940394816941F01001B3
:102C10008161816901F010010491816941F0200115
:102C20008161816901F020010491816941F0040111
:102C30008161816901F004010491816941F0080119
:102C400081618069DFF8DC8000F008004FF4004704
:102C50000490002239464046FEF71BFB4FF4805A91
:102C6000002251463048FEF714FBDFF8C0B00022C6
:102C700004215846FEF70DFB47F23800CDE9000469
:102C8000694640460294FEF707FA0226012500979E
:102C90000396CDE9015469464046FEF7FDF94FF031
:102CA0000408DFF88C90CDF80080CDE901946946E6
:102CB0001D48FEF7F1F9CDF800A00396CDE90154C7
:102CC00069461948FEF7E8F90097CDE9019469468D
:102CD0001848FEF7E1F9CDF800800396CDE90154DC
:102CE00069465846FEF7D8F90820CDE90004694640
:102CF0000D480294FEF7D0F9002211460820FEF795
:102D0000ABFC0820FEF79CFC002205212820FEF7E2
:102D1000A3FC2820FEF794FC05B0BDE8F08F00006E
:102D20000010024000100140000C0140001401405E
:102D30000000311000080140F0B599B0142113A82B
:102D4000FDF73BFA20216846FDF737FA18210DA858
:102D5000FDF733FA142108A8FDF72FFA4FF40060AD
:102D6000FFF7EEFC002440F2E730CDE91440454D7A
:102D70000326ADF84C6016948DF85C4013A92846E4
:102D8000FFF794FD286840F080002860A86844F2AE
:102D900007018843A86001212846FFF7F7FD60205E
:102DA000CDE90004022002940394C7010494CDE904
:102DB00005076A46012128460797FFF711FE012102
:102DC0002846FFF7B9FD10212846FFF7DFFD0194E3
:102DD0006A46102128460294FFF702FE1021284679
:102DE000FFF7AAFD39462846FFF7D0FD01946A4651
:102DF000394628460294FFF7F3FD39462846FFF787
:102E00009BFDAF1439462846FFF7C0FD029401949C
:102E10006A46394628460794FFF7E2FD39462846B8
:102E2000FFF78AFD686820F070006860A86820F0ED
:102E30008000A8608DF840400D940E940F94ADF87A
:102E400042406814CDE911040DA92846FFF711FD91
:102E50000820FFF775FC0420FFF772FC0A4808A958
:102E600009250B9481E861000848FFF775FC0848C4
:102E700008A90B9481E861000648FFF76DFC19B0C2
:102E8000F0BD0000002C0140E000E004000C014017
:102E90000F000F040008014010B586B0002415484B
:102EA000009401940294039404944FF0804105949B
:102EB00001604721C0E9011444F61F61C0E9031411
:102EC00080218161FEF7F1FE00B1FEE74FF48050F2
:102ED000009069460748FEF72FFF00B1FEE7049413
:102EE00004A904480594FEF7B8FE002800D0FEE7C8
:102EF00006B010BDAC01002010B58CB0242168468E
:102F0000FDF75BF900241548099413490A94C0E9B8
:102F100000144FF6FF71C0E902410461846103208F
:102F2000CDE900040120CDE902040494CDE9054077
:102F30000794694609480894FEF777FF00B1FEE759
:102F4000099409A905480A94FEF787FE002800D0D5
:102F5000FEE70CB010BD000000040040EC010020B2
:102F600010B58CB024216846FDF727F900241548D8
:102F7000099413490A94C0E900144FF6FF71C0E99F
:102F80000241046184610320CDE900040120CDE900
:102F900002040494CDE90540079469460948089461
:102FA000FEF743FF00B1FEE7099409A905480A941A
:102FB000FEF753FE002800D0FEE70CB010BD000065
:102FC000000800402C02002010B58CB02421684677
:102FD000FDF7F3F800241548099413490A94C0E951
:102FE00000144FF6FF71C0E90241046184610320BF
:102FF000CDE900040120CDE902040494CDE90540A7
:103000000794694609480894FEF70FFF00B1FEE7F0
:10301000099409A905480A94FEF71FFE002800D06C
:10302000FEE70CB010BD0000000C00406C02002058
:1030300010B594B000240E940F941094119412942F
:103040001C2168461394FDF7B8F81C2107A8FDF76A
:10305000B4F831482F4901604721C0E9011444F612
:103060001F61C0E903148021C0E90541FEF71DFE80
:1030700000B1FEE74FF480500E900EA92648FEF7EF
:103080005BFE00B1FEE72448FFF72EF800B1FEE733
:10309000129412A920481394FEF7DFFD00B1FEE759
:1030A0006020009040F2DC50CDE9010403940494C8
:1030B00005940022694618480694FEF7ADFF00B15A
:1030C000FEE7042269461448FEF7A6FF00B1FEE7BA
:1030D000082269461048FEF79FFF00B1FEE70C2268
:1030E00069460D48FEF798FF00B1FEE70794089483
:1030F00009944FF400500A94CDE90B4007A9064803
:103100000D94FEF77DFD00B1FEE70348FEF75EFF7C
:1031100014B010BD00340140EC020020FEE70000B6
:103120002DE9F0030025DFF84090DDF818C02E46A9
:103130004FF47A7805EB850401EBC4046D1C6768D5
:1031400026611434EDB2A4E80C10042D44E906768F
:10315000C4E90089EED30221C17001218170BDE86C
:10316000F00302F0A9BA000000409C462DE9F04FA0
:103170000646007885B00F4600287CD0B078DFF88E
:1031800004846C46F0B3FEF789F8FF4981464A682B
:10319000904270D30025FC494968A9EB0100F17801
:1031A0000844FDF785FA05EB850A07EBCA04834658
:1031B000D4E90101401AFDF772FA5946FDF792F879
:1031C000FDF7D1FA0022F14BFDF771F98346049126
:1031D00057F83A00FDF763FAFDF7C5FAEC4AED4BF4
:1031E000FDF765F95A46049BFDF75BF9FDF7CEFA4A
:1031F000DFF8A4A301464AF825002069FCF7E8FFA0
:10320000206100E005E0616AFDF7DCFA7ED2616AC8
:1032100072E1707800282ED05FF0000000EB800192
:1032200057F83110494244F82010401CC0B204281D
:10323000F4D34FF400570398FD10002800984FF482
:10324000804A4FF4007B4FF480797ADB002813DB4F
:1032500002220421D148FFF7A7FCD248D049C0F888
:1032600014900122FFF7F0FA0922CF494046FFF7F8
:10327000EBFA009815E03BE100220121C748FFF777
:1032800093FC4446C8F814700922C549C548FFF7A5
:10329000DBFA0122C4492046FFF7D6FA00984042E3
:1032A00000904FF47A77B84200DD3846BB4C00906E
:1032B00060630198002814DB002210212046FFF7EC
:1032C00073FCDFF8E8B2C8F814A00922B849B54881
:1032D000FFF7BAFA012259464046FFF7B5FA0198BE
:1032E00013E0022240212046FFF75EFCAD48B049C2
:1032F000C0F814B00122FFF7A7FA0922AB494046F3
:10330000FFF7A2FA01984042019000E0F3E0B842D2
:1033100000DD38460190A0630298002812DB0222EB
:1033200029462046FFF740FC9E48A24945610122FC
:10333000FFF78AFA0922A0494046FFF785FA02986A
:1033400019E02DE0002249462046FFF72DFCDFF86A
:1033500068924FF400404546C8F814000922954988
:103360009048FFF771FA012249462846FFF76CFAA8
:10337000029840420290B84200DD38460146029071
:103380002046E1634FF48051C8F814100022FFF783
:103390000BFC0398B84200DC074603972764A5E0BE
:1033A000002813DB022201217C48FFF7FDFB444685
:1033B000C8F8107009227A497A48FFF745FA0122C5
:1033C00079492046FFF740FA009813E000220421D3
:1033D0007248FFF7E9FB73487149C0F81090012269
:1033E000FFF732FA092270494046FFF72DFA00989C
:1033F000404200904FF47A74A04200DD2046674FAF
:10340000009078630198002812DB002240213846A2
:10341000FFF7CAFB63486649C0F810B00122FFF706
:1034200013FA092261494046FFF70EFA019815E0A8
:10343000022210213846FFF7B7FBDFF870B1C8F859
:1034400010A009225A495748FFF7FEF901225946B0
:103450004046FFF7F9F9019840420190A04200DD93
:1034600020460190B8630298002817DB02224946E3
:103470003846FFF799FBDFF840914FF4004045468E
:10348000C8F8100009224B494648FFF7DDF9012230
:1034900049462846FFF7D8F9029812E0002229464B
:1034A0003846FFF781FB3F48424905610122FFF79B
:1034B000CBF9092240494046FFF7C6F9029840423D
:1034C0000290A04200DD2046014602903846F96392
:1034D0004FF48051C8F810100222FFF765FB0398E3
:1034E000A04200DC044660420394386400207070FF
:1034F00005B0BDE8F08F21692161606A80F000406D
:10350000FDF760F903D2606A80F0004000E02069B6
:1035100020616168A160A169FCF7B2FE83465AF898
:10352000250061698246FCF7ABFE5946FCF750FE68
:1035300083465146E068FCF79DFEE169FCF7A0FE7A
:103540005946FCF797FEFDF7D6F84DF82500C4F86C
:103550000CA05DF82520206A6946824200DC1046F6
:1035600041F82500226A5242904200DA104641F8A2
:1035700025006D1CEDB2042DFFF40DAEF17802486C
:1035800049441BE0000C01400C00002000408F402B
:10359000A4703D0AD7A308403C000020002C014045
:1035A0000100010400080140200020044000400404
:1035B00002000204040004048000800441600098BA
:1035C00000280BDB01223E493E48FFF73DF9092266
:1035D0003D494046FFF738F900980CE00922384988
:1035E0003848FFF731F9012237494046FFF72CF9F7
:1035F0000098404200904FF47A74A04200DD2046CB
:10360000324D00906863019800280BDB0922304995
:103610002C48FFF719F901222E494046FFF714F90B
:1036200001980CE001222A492648FFF70DF90922EA
:1036300028494046FFF708F9019840420190A0420E
:1036400000DD20460190A863029800280BDB0122D0
:1036500021491C48FFF7F8F8092220494046FFF7A6
:10366000F3F802980CE009221B491648FFF7ECF822
:1036700001221A494046FFF7E7F8029840420290BB
:10368000A04200DD20460290E86303984FF4805189
:103690000028404606DB416100222846FFF784FAF5
:1036A000039807E0016102222846FFF77DFA03989C
:1036B00040420390A04200DC044603942C6417E7C8
:1036C000010001040008014020002004002C0140FA
:1036D000020002044000400404000404800080044E
:1036E00070470907090E002806DA00F00F0000F104
:1036F000E02080F8141D704700F1E02080F80014ED
:10370000704770B50024002104F1B00000F000F90A
:103710000021084600F0FCF80021102000F0F8F825
:1037200000250121002000F0F3F86D1CEDB2802D82
:10373000F7D3641CE4B2082CE5D370BD10B5FA20B1
:10374000FDF798FC0021AE2000F0E2F808B1FF2060
:1037500010BD0021084600F0DBF80021102000F029
:10376000D7F80021402000F0D3F80021B02000F06D
:10377000CFF80021812000F0CBF80021FF2000F0DD
:10378000C7F80021A12000F0C3F80021A62000F016
:10379000BFF80021A82000F0BBF800213F2000F076
:1037A000B7F80021C82000F0B3F80021D32000F0C2
:1037B000AFF80021084600F0ABF80021D52000F05A
:1037C000A7F80021802000F0A3F80021D82000F005
:1037D0009FF80021052000F09BF80021D92000F07F
:1037E00097F80021F12000F093F80021DA2000F092
:1037F0008FF80021122000F08BF80021DB2000F070
:1038000087F80021302000F083F800218D2000F09F
:103810007FF80021142000F07BF80021AF2000F099
:1038200077F8002010BD10B50A460446002102F1C9
:10383000B00000F06DF8102040EA1410002100F0F4
:1038400067F804F00F00BDE81040002100F060B8F8
:103850002DE9F041203A00240D468046D6B27F285B
:1038600003D900208D1C8046EDB2102B294610D0C4
:10387000FFF7D9FF164906EB460001EB4005012191
:10388000285D00F045F8641CE4B2062CF7D3BDE8CF
:10389000F081FFF7C8FF0F4F04EB06100121385CE1
:1038A00000F036F8641CE4B2082CF5D36D1CE9B2C4
:1038B0004046FFF7B8FF002404EB0610384401210E
:1038C000007A00F025F8641CE4B2082CF4D3DEE79B
:1038D0008B590008B35B00082DE9F0419846174664
:1038E0000E46044600250DE0434631462046FFF7CC
:1038F000AFFF0834E4B2782C02D90024B61CF6B22B
:103900006D1CEDB27A5D002AEED1BDE8F0810000B9
:103910007CB5FF240A22002519B109A1096801918B
:1039200000E001958DF805000092022301AA78219C
:103930000448FDF759FD08B120467CBD28467CBDF2
:1039400040000000580100207047FF20704770477A
:1039500040F6C412914203D84FF4FA72914200D259
:103960001146012808D0022809D003280AD00428CB
:1039700001D106480160704704480C38FAE7034853
:103980000838F7E70148001FF4E700004034014021
:10399000054B04225A614FF6FF7202EA40020348C7
:1039A0004908028041607047001401400000002077
:1039B000FDF7EEBD30B58FB028216846FCF7FDFB62
:1039C00014210AA8FCF7F9FB01210804CDE9001035
:1039D0000024029402250491CDE907504FF4E01031
:1039E00009906846FDF776FF00B1FEE70F20CDE9AC
:1039F0000A054FF48060CDE90C4002210AA80E941C
:103A0000FDF75CFE002800D0FEE70FB030BD0000DF
:103A10000D48016841F00101016041680B4A114005
:103A2000416001680A4A11400160016821F4802167
:103A30000160416821F4FE0141604FF41F01816083
:103A40000449C00308607047001002400000FFF8FE
:103A5000FFFFF6FE08ED00E0F0B502681C4B1D4DBF
:103A60001D4E1E4F1E4C4FF0804C984209D0A04274
:103A700007D0604505D0A84203D0B04201D0B8427B
:103A800004D122F0700E4A6842EA0E02984209D030
:103A9000A04207D0604505D0A84203D0B04201D073
:103AA000B84203D122F44075CA682A4322F0800547
:103AB0004A692A4302608A68C2620A68826298423E
:103AC00001D0A04201D10969016301214161F0BD2A
:103AD000002C01400004004000080040000C0040A1
:103AE0000034014010B50123046A8B409C430462FA
:103AF000036A8A401343036210BD10B5846842EA2A
:103B0000032224F47F440A432243826010BD82686A
:103B100022F070020A4342F0070181607047000002
:103B2000F0B5026A22F001020262036A4268846907
:103B3000124E24F073050C682C4323F002058B68A9
:103B40002B430D4DA84201D0B04205D123F0080708
:103B5000CB683B4323F00403A84201D0B04205D117
:103B60004D6922F4407215438A692A434260846198
:103B7000496841630362F0BD002C014000340140FC
:103B8000F0B5026A22F010020262026A4368846998
:103B90000D6824F4E64444EA05248D6822F02002EE
:103BA00042EA05120F4D104EA84201D0B04206D194
:103BB000CF6822F0800242EA071222F04002A842B7
:103BC00001D0B04207D14D6923F4406343EA850335
:103BD0008D6943EA850343608461496881630262B9
:103BE000F0BD0000002C014000340140F0B5026A35
:103BF00022F480720262026A4368C46922F400728D
:103C000024F073050C68124E2C438D6842EA05229D
:103C10000E4DA84201D0B04206D1CF6822F4006216
:103C200042EA072222F48062A84201D0B04207D1C2
:103C30004D6923F4405343EA05138D6943EA0513A4
:103C40004360C4614968C1630262F0BD002C014059
:103C50000034014030B5026A22F480520262046AE4
:103C60004268C3690D6823F4E64343EA05238D687F
:103C700024F4005444EA0534084DA84202D0084D0B
:103C8000A84204D14D6922F4804242EA8512426082
:103C9000C36149680164046230BD0000002C01402A
:103CA0000034014010B5036A046A24F00104046280
:103CB000846924F0F00444EA021423F00A020A435F
:103CC0008461026210BD10B5036A23F01003036221
:103CD0008369046A23F4704343EA023224F0A003A8
:103CE00043EA01118261016210BD70B5446A206827
:103CF000406994F83910C0F3C0100025212904D17F
:103D000018B1E584204600F046F82068406994F830
:103D10003A10C0F38010222904D118B1E58520465D
:103D200000F02BF8E06B40F01000E0632046FEF757
:103D300013FA70BD10B50146406A09680968890622
:103D400013D40021C1850168CA6822F48072CA6058
:103D500001684A6922F001024A6101684A6922F059
:103D600040024A61202180F83A10FEF735FB10BD71
:103D700010B5406AFEF762FB10BD0168CA6822F404
:103D80009072CA6001684A6922F001024A612021EA
:103D900080F83A1070470168CA6822F0C002CA6011
:103DA000202180F8391070472DE9F0410446006861
:103DB0000169E26821F44051114301612169A06861
:103DC0000843616908432168CA6841F20C639A4359
:103DD0000243CA6020684169A26921F4407111431D
:103DE00041614C4920686425322688423CD1FDF768
:103DF0002BFD00EBC00101EB001061688900B0FBF6
:103E0000F1F7FDF721FD00EBC00101EB0010616847
:103E1000B0468900B0FBF1F0B0FBF5F06FF018018F
:103E2000484307EB800106EB0110B0FBF5F000F012
:103E3000F006FDF709FD00EBC00101EB0010616821
:103E40008900B0FBF1F0B0FBF5F006EB0016FDF7D2
:103E5000FBFC00EBC00101EB001061688900B0FBC6
:103E6000F1F7FDF7F1FC3BE0FDF7DEFC00EBC001F4
:103E700001EB001061688900B0FBF1F7FDF7D4FC9D
:103E800000EBC00101EB00106168B0468900B0FB97
:103E9000F1F0B0FBF5F06FF01801484307EB80013B
:103EA00006EB0110B0FBF5F000F0F006FDF7BCFCEE
:103EB00000EBC00101EB001061688900B0FBF1F07C
:103EC000B0FBF5F006EB0016FDF7AEFC00EBC00111
:103ED00001EB001061688900B0FBF1F7FDF7A4FC6D
:103EE00000EBC00101EB001061688900B0FBF1F04C
:103EF000B0FBF5F06FF01801484307EB800108EBC9
:103F00000110B0FBF5F0216800F00F00304488602C
:103F1000BDE8F081003801402DE9F0419846174690
:103F20000E460446069D1DE0681C1BD02DB1FDF712
:103F3000B5F9A0EB0800A84214D92068C16821F4A3
:103F4000D071C1602068416921F0010141612020E8
:103F500084F8390084F83A00002084F838000320FF
:103F6000BDE8F0812068006836EA000004D0002037
:103F7000B842D9D00020F3E70120F9E7FEE70000BE
:103F80000FB4054B10B503A9044A029800F054FB86
:103F900010BC5DF814FB0000654E000834000020E2
:103FA000490050EAC12018BF04204A0D18BF40F054
:103FB000010040F2FF72B2EB515F08BF40F0020017
:103FC000012808BF052070472DE9F74F144694B02B
:103FD0000021C4E902111599079121F00045C94952
:103FE0008D4206DC1599C4E9000117B00020BDE838
:103FF000F08FC549DFF814A3A9423CDD0799C44EF0
:104000000029C44FC44A1599534619DDFCF749FAF3
:10401000554506D0C14AC24BFCF743FAC4E900013A
:104020000AE04FF0D352BE4BFCF73BFA32463B4618
:10403000FCF737FAC4E9000117B00120BDE8F08FA2
:10404000FCF78EF9554506D0B44AB54BFCF788F914
:10405000C4E900010AE04FF0D352B14BFCF780F9FC
:1040600032463B46FCF77CF9C4E9000117B04FF03B
:10407000FF30BDE8F08FAB49A942159978DB21F0FC
:10408000004183468846A84AA84BFCF710FA002254
:10409000A74BFCF765F9FCF747FB0990FCF70DFB14
:1040A00006460F469C4A5346FCF701FA43465A46D9
:1040B000FCF7FAF980468A46984A994B30463946C9
:1040C000FCF7F5F92A0D01250B9242465346FCF701
:1040D000EBF9032DC4E9000139D00B98C1F30A5163
:1040E000401A05EB45111139814230DA9148C34637
:1040F000784400EB0510CDF80CA00C90D0E900231B
:1041000030463946FCF7D3F902460B460491069037
:1041100058460399FCF7C5F980468A4602460B4685
:1041200058460399FCF7BDF9049B069AFCF7B9F9C8
:1041300083460C9803913946D0E902233046FCF7B8
:10414000B6F95A46039BFCF7ACF96D1CBDE707981E
:104150000028A2BF099817B0BDE8F08F616881F010
:1041600000416160099817B04042BDE8F08FFFE759
:1041700084461598C1F31301C0F30A50A0F2F5303C
:104180004FEA601800F01F06C6F1200013900020CF
:104190000690079041F4801E05206D4676B1664A70
:1041A00008EB00017A4452F8213002EB8101B34060
:1041B0004A68139922FA01F1194305E05F4908EBB7
:1041C0000002794451F82210A1FB0E27A1FB0C1329
:1041D0001A449A4234BF0123002303EB070A05EB7C
:1041E0008003D3E901B70F448F4234BF012100217E
:1041F00093448B4411B1934502D903E0934501D216
:10420000012100E00021C3E901B7514445F8201025
:10421000011EA0F10100C1DC0298059F00F10050D1
:10422000800F12900298DDE903568000FCF745FAF2
:10423000834628460D91FCF751FA6FF01D02FCF7FA
:1042400017FACDE90E013046FCF748FA6FF03D024F
:10425000FCF70EFA80468A463846FCF73FFA6FF0C4
:104260005D02FCF705FA0746424653461191FCF7FA
:1042700077F8DDE90E23FCF773F85A460D9BFCF73F
:104280006FF800250E465A4628460D9BFCF709F9A3
:10429000DDE90E23FCF705F942465346FCF701F928
:1042A0003A46119BFCF700F9DFF898A0244A5346E0
:1042B000FCF7FDF807468846234A244B314628463A
:1042C000FCF7F5F83A464346FCF74AF807468846B5
:1042D0004FF0A842534631462846FCF7E8F83A46E4
:1042E0004346FCF73DF8159A12F0004F04D0129A9D
:1042F00081F0004152421292C4E90001129817B0B5
:10430000BDE8F08FFB21E93F7CD90240FB21F93F5A
:104310007370032E8A19A33B000040543163621A64
:1043200061B4D03DFB21394183C8C96D305FE43FA2
:104330000000E03FDC210000582100003A2100008D
:10434000182D4454FB21F93D3326A611460B113C90
:104350002DE9FF4D21F0004807460C46B8F1795F82
:1043600008DAFCF7E1F9002801BF0020324904B067
:10437000BDE8F08D3A46234610461946FCF797F8FB
:10438000054602462D480E460B460621784400F0AD
:104390005DF82A463346FCF78AF8DDE902238246B7
:1043A0008B4638462146FCF782F804460F465246B3
:1043B0005B4628463146FCF77AF822463B46FCF736
:1043C00070F807468A464FF0FF3228463146FCF720
:1043D0004FF91B4A90450ADA3A465346FCF761F812
:1043E00004B00022BDE8F04D134BFCF75DB8154A50
:1043F0004245A8BFA8F500154FF00004B8BF124D04
:1044000022462B46FCF74DF80646884622462B46A8
:1044100000200949FCF745F804460D463A46534644
:1044200030464146FCF73DF804B022462B46BDE835
:10443000F04DFCF739B800000000F03F081F000005
:104440003333D33F0000E93F0000D23F2DE9F04174
:104450004F1E00EBC7010446D1E9000115461E4678
:1044600037F006020DD02A463346FCF720F87F1EAF
:1044700004EBC703D3E90023FBF772FF37F0060212
:10448000F1D1022F25D0042F13D0062F18BFBDE87D
:10449000F0812A463346FCF70AF8D4E90A23FBF7F1
:1044A0005FFF2A463346FCF702F8D4E90823FBF7FE
:1044B00057FF2A463346FBF7FAFFD4E90623FBF7FA
:1044C0004FFF2A463346FBF7F2FFD4E90423FBF7FC
:1044D00047FF2A463346FBF7EAFFD4E90223FBF7FE
:1044E0003FFF2A463346FBF7E2FFD4E90023BDE84D
:1044F000F041FBF735BF00002DE9FF4D054621F0E7
:10450000004084B00C46B0F1795F0BDA2846FFF723
:1045100047FD042808BF00F071F8284608B021467E
:10452000BDE8F08D2A460B461046FBF7C0FF064655
:104530000F462A462346FBF7BAFF804626488A469E
:1045400032463B4605217844FFF780FF83461098AA
:10455000029160B3214A224B40465146FBF7A7FF28
:10456000CDE900015A4640465146029BFBF79FFFAA
:1045700082468846DDE906014FF0FF32FCF778F805
:1045800052464346FBF78DFF32463B46FBF78FFF13
:10459000DDE90623FBF785FFDDE90023FBF781FF5B
:1045A00008B02A462346BDE8F04DFBF77DBF0B4619
:1045B0005A4630463946FBF77AFF084A084BFBF764
:1045C000CFFE42465346FBF772FF08B02A46234609
:1045D000BDE8F04DFBF7C4BE4E1E000049555555D1
:1045E0005555C5BF0122FCF743B8FBF7B9BE002201
:1045F000134610461146FBF7CCBF0000024A0020CC
:104600001107FCF735B8000001FDFFFF02E008C804
:10461000121F08C1002AFAD170477047002001E03C
:1046200001C1121F002AFBD1704700000149086038
:1046300070470000380000202DE9FF4F89B09B46ED
:104640000446002506E025280BD05A460B999047D2
:10465000641C6D1C20780028F5D10DB02846BDE8FB
:10466000F08F0027B8460122474900E0074314F8BD
:10467000013F203B02FA03F00842F7D120782E28B0
:1046800019D114F8010F47F004072A280ED06FF053
:104690002F022078A0F1300109290CD808EB8801FD
:1046A00002EB410100EB0108641CF2E70A98641C6C
:1046B00050F8048B0A9020780028CED0642808D0C7
:1046C000692806D075281ED05A460B9990476D1C54
:1046D00058E00A994FF00A0901C90A91002802DA44
:1046E00040422D2102E0390504D52B218DF8201000
:1046F000012103E0F90704D02021F7E78A4608AE3C
:104700000DE00021FAE70A994FF00A0901C90A9160
:10471000F7E74946FCF760F8303106F8011D00283C
:10472000F7D1ADEB060000F12009780701D44FF076
:104730000108C84502DDA8EB090000E00020804622
:10474000002706E008A85A46C05D0B9990476D1CEB
:104750007F1C5745F6DB04E030205A460B99904702
:104760006D1CB8F10001A8F10108F5DC05E016F8B0
:10477000010B5A460B9990476D1CB9F10001A9F144
:104780000109F4DC641C65E7092801002DE9F84FF4
:1047900004460D4621F0004000917349814211DC2E
:1047A0007249884201DC06D12CB120462946BDE879
:1047B000F84FFFF717BF6E48002DCCBF6D496E490B
:1047C000BDE8F88F6D49814211DD6D498142D8BF46
:1047D0004FF0FF366DDD20462946FFF7E1FB042848
:1047E00008BFFFF70BFF20462946BDE8F88F654953
:1047F000654F25F00045814233DD6449814219DD72
:10480000002632464FF0804320462946FBF7A8FD9C
:1048100080468A46012220462946FBF729FF0022CE
:104820003B46FBF73EFE42465346FBF7B2FE0446CC
:104830000D463EE001260022BA463B462046294668
:10484000FBF78EFD80460F46002253462046294640
:10485000FBF727FE42463B46FBF79BFE04460D4610
:1048600027E04B4981421BDDDFF828A10226002208
:10487000534620462946FBF71AFE00223B46FBF72B
:104880006FFD80460F460022534620462946FBF71F
:1048900008FE42463B46FBF77CFE04460D4608E018
:1048A000032622462B4600203B49FBF772FE0446B6
:1048B0000D4622462B4610461946FBF7F8FD8B465F
:1048C000824602460B46FBF7F2FD07460246334896
:1048D00088460B4606217844FFF7B8FD52465B46F2
:1048E000FBF7E5FD82462E488B463A4643460521B6
:1048F0007844FFF7ABFD3A464346FBF7D8FD024646
:104900000B46002E504659460CDAFBF729FD22468D
:104910002B46FBF7CCFD01B022462B46BDE8F04FFD
:10492000FBF7C2BDFBF71CFD22462B46FBF7BFFD84
:104930001C4A7A4402EBC603D3E90023FBF7B1FD1E
:1049400022462B46FBF7ADFD174A7A4402EBC6031D
:10495000D3E90023FBF7A8FD009A002AB8BF81F035
:104960000041BDE8F88F0000000010440000F07F17
:10497000182D4454FB21F93FFB21F9BF0000DC3F17
:104980000000203E0000F33F0000F03F0000E63F43
:10499000008003400000F83F0000F0BF8E190000C7
:1049A0004C190000EA180000B21800002DE9F04D83
:1049B0009446CCF1000423F000464CEA0404524F24
:1049C00046EAD4749A46884621F00042BC4206D892
:1049D000454240EA050442EAD474BC4204D9BDE829
:1049E000F04D6246FFF701BEAAF14055A5F17F6583
:1049F00055EA0C040BD0022404EAAA74434DDFF8F4
:104A000010E144EAD87452EA000B04D00CE0BDE88F
:104A1000F04DFFF7BBBE002C14BF012CBDE8F08D9C
:104A2000022C30D0032C32D056EA0C0B0AD0BE42F6
:104A300020D1BA4209D126F0804622F08042334686
:104A4000114617E000291ADB25E0DFF8C8B0FB4467
:104A5000002C04BFDBE90001BDE8F08D012C02BF92
:104A6000DBE9000181F00041BDE8F08D022C0AD0A5
:104A7000032C0CD0BA4212D1B8F1000F0BDA234844
:104A80002549BDE8F08D28462449BDE8F08D28462B
:104A90007146BDE8F08D1D482149BDE8F08D921B9F
:104AA00012153C2AC4BF19481D490EDCBAF1000F8B
:104AB000BEBF12F13C0F0020014606DB6246FBF749
:104AC00068FD21F00041FFF761FE002C08BFBDE842
:104AD000F08D012C04BF81F00041BDE8F08D114A3A
:104AE000114B022C07D0FBF7DCFC2A46BDE8F04D49
:104AF0000A4BFBF7D6BCFBF7D4FC2A46BDE8F04DC9
:104B0000064BFBF7D1BC00000000F07F182D445489
:104B1000FB2109C076180000FB21F9BFFB210940E9
:104B2000FB21F93F075C143326A6A13C2DE9F04791
:104B30008A46B0F906101E23904691FBF3F3828853
:104B400000895442C01A65184B42404205441C4437
:104B50002EB20444114425B201440CB2D1180844C9
:104B600007B24FF47A70864205DA854203DA84424E
:104B700001DA874234DB3046854200DD2846844234
:104B800000DD2046874200DD3846FBF788FD014600
:104B90001A48FBF7A7FB81463046FBF780FD4946E4
:104BA000FBF76EFBFBF7A7FD06B22846FBF777FD88
:104BB0004946FBF765FBFBF79EFD05B22046FBF778
:104BC0006EFD4946FBF75CFBFBF795FD04B23846EA
:104BD000FBF765FD4946FBF753FBFBF78CFD07B27E
:104BE000C8F80070C8F87860C8F850500121C8F8BB
:104BF00028408AF80110BDE8F087000000007A44E0
:104C000000B5244B21F0004287B09A42DCBF00225D
:104C1000134629DD204B9A4208D140B94FF00100DC
:104C2000FFF704FDFFF7E3FC07B000BD03DBFFF770
:104C3000D9FC07B000BD02AAFFF7C6F910F00301C6
:104C400004BF0DF1080C9CE80F000DD001200129D4
:104C50000ED0022914D00DF1080C00909CE80F0032
:104C6000FFF74AFC07B000BDFFF772FB07B000BDBD
:104C70000DF1080C00909CE80F00FFF73DFC05E0EB
:104C80000DF1080C9CE80F00FFF762FB07B081F004
:104C9000004100BDFB21E93F0000F07F2DE9F04716
:104CA000624D634900246A784FF0010A052A7DD2DB
:104CB000DFE802F0030B0D0B15000C7001225C49BC
:104CC0005C48FDF73DFB85F801A0BDE8F0871322A5
:104CD0005848491CFDF734FB03206870F5E74A7813
:104CE000FE2A63D1544B4A881B88D21A12B24280E2
:104CF000B2F5E16F02DBA2F5616204E012F5E16F4B
:104D000002DA02F5616242800A7980F820204A794D
:104D100080F821208A7980F82220CA7980F823201F
:104D20000E7A8B7A4FF4807202EA461633448381FE
:104D30000F7ACE7A02EA87173E44C68191F808C0FE
:104D40000F7B02EACC1C6744078291F808C04F7BB6
:104D50005FEACC7C00D094466744478291F809C052
:104D60008F7B02EA4C0C6744878291F809C0CF7BA5
:104D700002EA8C0CBC44A0F816C0E14691F809C0C8
:104D80000F7C02EACC0C6744078391F809C04F7C82
:104D900002EA0C1C6744478391F8098091F812C01D
:104DA00002EA4818C444A0F81CC000E03BE091F8B7
:104DB00013C0497A80F800A002EA81110CEB0108C7
:104DC000B0F90420B0F906108380C6F58C76C68051
:104DD000C9F58C7CA0F816C0C7F58C774783C8F559
:104DE0008C77C783154F3F780A2F14D2002B07DD2D
:104DF0004FF48C77BB4203DA002E01DDBE4209DBA3
:104E0000AB785B1CDBB2AB708280C180052B02D912
:104E1000047000E0AC70047244728472C472FCF7D7
:104E20003DFA074908606C704FE70000140000204D
:104E3000560000206C0300201A00002018000020FB
:104E400020000020081A00B2B0F5E16F02DBA0F5E7
:104E5000616004E010F5E16F02DA00F5616000B214
:104E60007047000013B54FF6FF73012269460248F0
:104E7000FDF7E5FA00981CBD2C0300202DE9F04158
:104E80001D460E46101AFBF718FC04460F46A81BD9
:104E9000FBF713FC22463B46FFF788FD044A054B0F
:104EA000FBF705FBFBF740FC00B2BDE8F08100001A
:104EB00048E17A14AEE78140121A5243581A10B5ED
:104EC00000FB0020FBF7F9FB00F0E4FCFBF72CFCF7
:104ED00000B210BDA8B06427FCF762FBFEF76AFDC4
:104EE000FDF78AFEFE48416941F0010141614069D8
:104EF000002200F00100009011460C20FCF7ACFBF2
:104F00000C20FCF79DFB002211460D20FCF7A4FBB2
:104F10000D20FCF795FB002211461020FCF79CFBAE
:104F20001020FCF78DFB002211461120FCF794FBAA
:104F30001120FCF785FBFEF747F8FDF7FDFEEA4878
:104F4000E84900250160E949C0E901154FF48041B5
:104F5000C0E9035145618561C5610562FCF7A4F9AB
:104F600000B1FEE7FDF7FCFFFDF7C6FFE148009545
:104F7000DF49019501604721C0E901154FF6FF7136
:104F80008561C160FCF791FE00B1FEE700956946BE
:104F9000D8480195FCF761FE00B1FEE7FDF77CFF04
:104FA000FEF746F8D348D44980300C2401604FF412
:104FB0001651C0E90115C560C0E904548561C56199
:104FC000FDF7CBF800B1FEE7CA48CC49C03001601C
:104FD0004FF4E131C0E90115C560C0E904548561B1
:104FE000C561FDF7BAF800B1FEE74FF47A7102200F
:104FF000FEF7CEFC00F074FCC1494FF00109C14B33
:1050000081F80090B849C04AD039BD480095FEF7F4
:1050100087F8FEF793FBFEF774FB00210823BBA281
:105020000846FEF759FC0121002000BF401C8842C1
:10503000FBD300F091FC4FF416710320FEF788FCBF
:105040004FF4C8610420FEF783FCAD4C4FF001081B
:10505000241F2021257010A8FBF7AFF83022AD499E
:1050600004A8FBF791F80020DFF87CA2259021909E
:105070001F902390AAF1240AA34620902290199011
:105080001A90AAF10C042690974A9D48303AA2F152
:10509000A001FBF707FD94482438FFF7FFFDFCF75C
:1050A000FDF8B8420AD3BAF90620BAF904109AA05A
:1050B000FEF766FFFCF7F2F800F5FA779AF80000C1
:1050C0005646002870D09BF8011000296DD084F856
:1050D0000A909BF800000D2868D00BDC02282CD029
:1050E00003DCC8B101280DD161E00B287ED00C286B
:1050F00008D138E20E287AD00F2879D0102878D03D
:10510000152877D08BF800503570B8F1040F72D99C
:10511000A8F10400C0B29AE27188ABF80210022133
:105120008BF80010219904A830F8211020912199C2
:1051300000EB810040881F90E6E71F9AB6F9061041
:10514000B6F9040013B21B93209A12B20392FFF730
:1051500095FE1990B6F90210FFF774FE009025989D
:1051600028B14FF4E1600099FFF76CFE0090B6F9AA
:105170000610B6F904001B9B039AFFF79DFEA5805D
:10518000E58000994FF4FA70814202DC404281428E
:1051900001DA2081B8E701F15000A12801D3218173
:1051A000B2E78BF80090AFE752E25BE265E11F9A4D
:1051B000B6F90610B6F9040013B21B93209A12B286
:1051C0000392FFF75BFE1990B6F90210FFF73AFE63
:1051D0000090259828B14FF4E1600099FFF732FE66
:1051E0000090B6F90610B6F9040005E0ECE0E6E13F
:1051F000F8E106E21AE226E21B9B039AFFF75CFE47
:105200001B901E2803DDA58040F2EE201BE00A283B
:1052100020DD0098FBF751FA424A434BFBF7B9F9FE
:1052200000F0E8FACDE902011B9800EB8000800055
:105230000190FBF742FADDE90223FBF738F9FBF7AF
:1052400073FAA0800198E080009800EBD0704010C5
:105250002081AEE004282ADD0098FBF72EFA314ABF
:10526000314BFBF796F9CDE9020100F0C3FACDE925
:105270001D101B9800EB80008000FBF71EFACDE9A3
:105280000001DDE91D32FBF712F9FBF74DFAA080B2
:10529000DDE90201FFF7B4FC02460B46DDE900013F
:1052A000FBF705F9FBF740FAE080258181E0022158
:1052B0008BF8001021995846491CC9B22191132935
:1052C00002D90021219145702099302931D0162929
:1052D00033D0102937D022293FD0E0294CD025E007
:1052E000001002400054004058010020A086010038
:1052F00000100040AC020020004400400048004084
:105300001C0000209A99193E9A99993F6C79686E11
:1053100062000000B4610008583A25642C593A250F
:10532000640A000048E17A14AEE78140182929D0C8
:1053300035E01F982A2822D031E01F9838282ED136
:105340004FF47A7107E01F98B0F5817F27D10020D4
:105350004FF4C861259004201FE01F99BE291ED17B
:105360000B218BF800104FF004084FF0FF30CDE90F
:105370002280FBF7F7FB12E01F9816280FD10120BF
:1053800025900CE01F98162809D14FF47A7104205B
:10539000FEF7DEFA4FF416610320FEF7D9FA2199E1
:1053A00004A830F821102091219900EB8100408859
:1053B0001F90259800283FF4BFAEA0884042A080EF
:1053C000E0884042E0809FE696F920000290C00706
:1053D00009D196F82100372805D9692803D24FF45E
:1053E0001670E08003E0E5800298C0071AD196F8B5
:1053F000220003902D2815D9872813D296F8210072
:10540000FBF76CF90022A54BFBF74BF80222FBF7E8
:105410002FF9FBF789F9A08003985A38C000404261
:10542000208101E0A58025810298800724D51A9863
:10543000401CC0B21A900128C5D9B8F1010F09D09B
:10544000B8F1020F09D0B8F1030F09D0B8F1040F79
:105450000BD00EE02298401C04E02398401E06E08A
:105460002298401E40B2229003E02398401C40B294
:1054700023900D218BF8001073E04FF41670E0803C
:10548000A58025811A98401CC0B21A9007289AD985
:10549000E580B6F9020019904FF480518048FBF77F
:1054A000EFFEE8B310217E48FBF7EAFEC0B3002010
:1054B00002904FF400517A48FBF7E2FE88B30821CE
:1054C0007748FBF7DDFE60B35FF0000001904FF41A
:1054D00080417348FBF7D4FE80B300200090DDE9E3
:1054E000012103466FA0FEF74BFD0298B27A8100BE
:1054F0000098737A01EB400001990844F17ACDE9F4
:105500000210CDE900322298337A401CC2B22398AF
:10551000401CC1B24046FEF718FA0146009001E077
:1055200008E009E060A0FEF72BFD009848B1FF28D5
:1055300015D111E00120BBE70120C7E7FFE70120FB
:10554000CCE7B8F1040F7FF4F7AD0F218BF8001012
:105550000120269035707BE0FBF704FBD4E58BF847
:10556000000000201CE04FF41670E08096F9201037
:10557000C80710D196F822002D280CD987280AD206
:1055800096F821205A389200A2F5A072C000A2809D
:105590004042208101E0A5802581880702D50220B4
:1055A0001A90B1E51A98401E10F0FF001A90D5D15C
:1055B0002698A8B15FF015008BF80000A4E53B48E1
:1055C0002081B6F902101998FFF73CFCB0F5487F2E
:1055D000C4DD258108F1010022E000201A90E9E7EE
:1055E0000B20E9E74FF4FA702081B6F90210199800
:1055F000FFF728FC10F5487FB0DA2581A8F10100FB
:105600000EE04FF4FA702081B6F902101998FFF7F6
:1056100019FC40F2A461C842A0DA2581A8F1020079
:1056200000F0FF0826980028DAD0D6E7A5804FF4CE
:105630001670E08025811A98401CC0B21A900E287E
:105640008CD902208BE7B8F1000F01D104208046ED
:105650009BF801005E4628B1FBF720FEB168401AB6
:10566000502805D984F80A90A580E580258101E0BD
:10567000A07A30B10E4A0F4902F1A000FFF756FAA6
:10568000A5720B48FBF72EFB09490A48FDF76EFD92
:105690004FF400410248FBF7F8FDF5E400E0534009
:1056A000001001402564256425640A000CFEFFFFFC
:1056B000880000201C0000202DE9F05F424C206A89
:1056C00040F001002062206A40F010002062206A51
:1056D000A51540F480702062206AA61440F4805022
:1056E0002062206A40F004002062206A40F04000FE
:1056F0002062206A271540F4806020620022012188
:105700002046FDF751FA002210212046FDF74CFA01
:10571000002229462046FDF747FA0022314620465E
:10572000FDF742FA022204212046FDF73DFA02224B
:1057300040212046FDF738FA022239462046FDF77F
:1057400033FA234C21496561481460616761214F38
:1057500080006061214DDFF8808080006861DFF8A3
:10576000809040006861DFF87CB040006861DFF83D
:1057700078A06E6101222046FDF766F801221B49E0
:105780002046FDF761F8012219492046FDF75CF833
:10579000092239462046FDF757F80122414628469E
:1057A000FDF752F8012249462846FDF74DF801223F
:1057B00059462846FDF748F851462846BDE8F05FAF
:1057C0000122FDF741B80000002C01400100010456
:1057D000000801400800080420002004000C0140DB
:1057E0004000400480008004100010040200020405
:1057F0000400040400B5254B21F0004287B09A4212
:1058000003DC0022134600922BE0214B9A4208D180
:1058100040B94FF00100FEF709FFFEF7E8FE07B0C0
:1058200000BD03DBFEF7DEFE07B000BD02AAFEF7F7
:10583000CBFB10F003014FF001000DD0012914D073
:1058400002291AD00DF1080C9CE80F00FEF780FD2C
:1058500007B081F0004100BD0DF1080C00909CE8FC
:105860000F00FEF749FE07B000BD0DF1080C9CE8E3
:105870000F00FEF76DFD07B000BD0DF1080C0090A4
:105880009CE80F00FEF738FEE2E70000FB21E93F4D
:105890000000F07F2DE9F04106460F46FBF767F860
:1058A000041E0D4618BF0120284320F00040C0F11F
:1058B0007F6000F1E040C00F0ED0301C18BF012007
:1058C000384320F00040C0F17F6000F1E040C00F9D
:1058D00004BF0120FEF7AAFE20462946BDE8F0815C
:1058E000194810B5416C41F400414164016841F030
:1058F00001010160016A41F001010162016A41F0A8
:1059000010010162016A41F480710162016A41F48F
:1059100080510162016A41F004010162016A41F0B3
:1059200040010162016A41F4806101621821074867
:10593000FCF732FB18210648FCF72EFBBDE81040AF
:1059400018210448FCF728BB002C0140EC01002082
:105950002C0200206C02002010B500210848FCF742
:10596000DFFB04210648FCF7DBFB08210448FCF7B9
:10597000D7FBBDE810400C210148FCF7D1BB00006B
:10598000EC02002000020406080A0C0000000000DF
:10599000000000002F000000000700070000147F37
:1059A000147F1400242A7F2A120062640813230043
:1059B000364955225000000503000000001C22411A
:1059C00000000041221C000014083E0814000808D2
:1059D0003E0808000000A060000008080808080051
:1059E0000060600000002010080402003E5149459C
:1059F0003E0000427F400000426151494600214183
:105A0000454B31001814127F1000274545453900D9
:105A10003C4A4949300001710905030036494949AA
:105A20003600064949291E0000363600000000569F
:105A3000360000000814224100001414141414004D
:105A4000004122140800020151090600324959514F
:105A50003E007C1211127C007F49494936003E41CC
:105A6000414122007F4141221C007F4949494100B8
:105A70007F09090901003E4149497A007F08080869
:105A80007F0000417F4100002040413F01007F082E
:105A9000142241007F40404040007F020C027F0002
:105AA0007F0408107F003E4141413E007F09090903
:105AB00006003E4151215E007F09192946004649F2
:105AC0004949310001017F0101003F4040403F0052
:105AD0001F2040201F003F4038403F00631408143F
