:020000040800F2
:10000000380C002045010008913600082D22000818
:10001000CD300008690B0008313D000800000000E9
:10002000000000000000000000000000E5370008AC
:10003000570C000800000000B73600081938000807
:100040005F0100085F0100085F0100085F01000810
:100050005F0100085F010008590C0008A50C0008AA
:10006000AD0C0008F10C0008F70C00085F01000857
:100070005F010008090C00085F0100085F0100082B
:10008000150C0008210C00085F0100085F01000842
:100090005F0100085F0100085F010008FD0C000817
:1000A0005F0100085F0100085F0100085F010008B0
:1000B0005F0100085F0100085F0100085F010008A0
:1000C0005F0100085F0100085F0100085F01000890
:1000D0005F0100085F0100085F0100085F01000880
:1000E000610C00085F0100085F0100085F01000863
:1000F0005F0100085F0100085F0100085F01000860
:100100005F0100085F0100085F0100085F0100084F
:100110005F0100085F0100085F0100085F0100083F
:100120005F0100085F0100085F0100085F0100082F
:10013000DFF80CD000F048FC00480047C54D00082F
:10014000380C00200648804706480047FEE7FEE7D7
:10015000FEE7FEE7FEE7FEE7FEE7FEE7FEE7FEE777
:100160007938000831010008202A04DB203A21FAFE
:1001700002F00021704721FA02F3D040C2F12002C0
:10018000914008431946704740EA01039B0703D09A
:1001900009E008C9121F08C0042AFAD203E011F8C6
:1001A000013B00F8013B521EF9D27047D2B201E088
:1001B00000F8012B491EFBD270470022F6E710B56C
:1001C00013460A4604461946FFF7F0FF204610BDC5
:1001D000F0B480EA0102D40F4200B2EB410F02D228
:1001E0000246084611464A0042D0C30DDDB2C1F3B3
:1001F000C752AD1A202D35DAC1F3160141F40002C1
:1002000004B15242C5F1200602FA06F12A41104417
:10021000B3EBD05F23D0C4B1012DA0EBC35009DCF8
:10022000F0BC4FF0004202EAC352DBB200F500001E
:1002300000F0EEBA400000F1807000EBC350A0F176
:10024000807040EAD170490009E0490841EAC07174
:10025000A0EBC35000F50000400800EBC350F0BC19
:1002600000F0CDBA6142012202EB4101001BF6E72A
:10027000F0BC704781F00041AAE780F00040A7E79A
:1002800080EA010210B502F00043400022D04A008B
:100290001FD0010E01EB1261C0F35600C2F35602EB
:1002A00040F4000042F40002A0FB022000047F3969
:1002B000140400D0401C50EA124001D44000491EF2
:1002C000C2B20C0604EBD010401C4008802A02D0B9
:1002D00003E0002010BD20F00100002900DA00201A
:1002E000184310BD30B480EA010202F0004530F03E
:1002F000004221F0004013D090B1C30DD40DC2F3E1
:100300001601C0F31600E41A41F4000140F40002A3
:100310007D34914201D3641C00E04900002C02DAD4
:1003200030BC002070474FF400000023914201D3FD
:10033000891A034340084FEA4101F7D151B1914274
:1003400002D14FF0004105E002D24FF0010101E07F
:100350006FF0010103EBC450284430BC00F04FBAE9
:100360002DE9FE4F804681EA0300C00F0C46009045
:1003700021F0004123F00045B8EB0200A94105D26D
:100380004046214690461C460B46024623F000405C
:10039000104347D0270DC7F30A00C3F30A51029058
:1003A000401A019040286BDAC3F3130040F4801B1D
:1003B0000098924620B10023D2EB030A63EB0B0BAB
:1003C00001985946C0F14002504600F0F7F9064640
:1003D0000D4650465946019A00F0FFF910EB08000F
:1003E0006141002487EA115284EAE7731A4340D03E
:1003F000009A62B3019A012A4FEA075215DC001BEA
:1004000061EB02014FF0004202EA0752CDE90042DF
:10041000001C41F5801132462B4600F036FA03B03D
:10042000BDE8F08F40462146F9E7001B61EB020171
:10043000001C41F5801300185B412018A2F500173D
:1004400047EB030140EAD570B6196D4111E06D0824
:100450004FEA360645EAC0754FEA0752001B61EBCA
:100460000201001C41F5801149084FEA30000019D3
:10047000514132462B4603B0BDE8F04F00F0F6B9CB
:100480000098012240000023D0EB020263EBE073EE
:10049000009821464FEAE074B8EB000061EB0401DC
:1004A000E9E783F000435BE781F0004158E72DE97D
:1004B000FE4F81EA030404F0004421F0004100945F
:1004C0004FF0000B23F0004350EA01045ED052EAE3
:1004D00003045BD0C3F30A54C1F30A552C44A4F2BD
:1004E000F3340194A0FB0254C1F3130141F48011D1
:1004F000C3F3130343F4801301FB024400FB034ED8
:10050000840A970A44EA815447EA8357A4FB0768A0
:1005100002958D0A05FB07854FEA932C04FB0C54CA
:100520002705029D4FEA065847EA1637B5EB08053E
:100530006EEB070C870E920E47EA811742EA831290
:10054000A7FB0201B6EB0B0164EB00042B0D43EAA1
:100550000C335E1844EB1C50DA465146E7FB0201AF
:10056000C5F313044FEA0B3343EA14534FEA043242
:10057000019C43EA0603A4F10C040294009CCDE91B
:1005800000B400F082F903B0BDE8F08F002001460E
:10059000F9E72DE9F04D81EA030404F0004B21F066
:1005A000004514464FF0000A23F0004150EA0502CE
:1005B00020D054EA01021DD0C5F30A570246C5F304
:1005C0001303C1F31300C1F30A5640F4801543F43A
:1005D0008013A7EB0608101BD64608F2FD3873EB14
:1005E000050002D308F1010801E092185B41B8F15F
:1005F000000F03DA00200146BDE8F08D00204FF423
:100600008011064684460EE0171B73EB050705D3E1
:10061000121B63EB050306434CEA010C49084FEA41
:10062000300092185B4150EA0107EDD152EA030015
:1006300012D082EA040083EA0501084305D0101BAA
:10064000AB4106D20122002306E000224FF0004316
:1006500002E06FF0010253101AEB06004CEB085158
:1006600010EB0A0041EB0B01BDE8F04D00F0FEB8C5
:10067000C10F80EAE0700844CA079623002100F009
:10068000C7B896230022114600F0C2B80EB5C10FBC
:1006900080EAE0700844CA07002140F233438DE845
:1006A0000E000A460B4600F0F0F803B000BD00F063
:1006B000004220F00040C10DC0F3160040F40000DD
:1006C0007F2901DA00207047962903DCC1F19601E9
:1006D000C84001E096398840002AF4D04042704773
:1006E00070B5C1F30A5201F000450024C1F31301B3
:1006F00040F2FF3341F480119A4201DA002070BDCC
:1007000040F233439A42A2F2334203DC5242FFF7F3
:100710002BFD00E090402C43F1D0404270BD00F032
:10072000004230F000400AD0C10D01F56071C0F305
:10073000160042EA0151C2084007114370470020E9
:100740000146704701F0004330B421F0004150EA07
:10075000010206D00A0DA2F56072C1F31301002A4E
:1007600002DC30BC00207047440F44EAC104C100E1
:10077000E01830BC00EBC25000F041B8002801DBAB
:10078000C0F10040002901DBC1F1004188427047FF
:1007900030B50B46014600202022012409E021FA51
:1007A00002F59D4205D303FA02F5491B04FA02F54E
:1007B0002844151EA2F10102F1DC30BD202A04DB21
:1007C000203A00FA02F1002070479140C2F1200364
:1007D00020FA03F3194390407047202A06DBCB1719
:1007E000203A41FA02F043EAE07306E041FA02F3EC
:1007F000D040C2F1200291400843194670470029B9
:10080000A8BF7047401C490008BF20F00100704796
:1008100010B4B0FA80FC00FA0CF050EA010404BFF6
:1008200010BC704749B1CCF1200421FA04F411FA4C
:100830000CF118BF012121430843A3EB0C01CB1D90
:100840004FEA00614FEA102042BF002010BC704701
:1008500000EBC35010440029A4BF10BC7047401CDB
:10086000490008BF20F0010010BC704710B5141EED
:1008700073F1000408DA401C41F1000192185B4159
:100880001A4301D120F0010010BD2DE9F04D924630
:100890009B4611B1B1FA81F202E0B0FA80F2203247
:1008A0009046FFF78BFF04460F4640EA0A0041EAF4
:1008B0000B0153465A46084313D0114653EA010030
:1008C00019D0C8F140025046FFF74EFC05460E46CF
:1008D000504659464246FFF771FF084305D00120B4
:1008E00004E020463946BDE8F08D0020054346EA85
:1008F000E0762C4337430A986305E40AA0EB08002E
:100900000022FD0A44EA47540A3002D5002001467D
:10091000E9E7010510196941DDE908450019694158
:10092000BDE8F04DA2E72DE9F04D00231A461B1A51
:100930008A4103DB00200146BDE8F08DC1F30A5275
:10094000C1F3130141F480154FF0000BD10702D120
:1009500000186D41521E0027044640F2FF11384630
:1009600001EB620A3E468046024600204FF48011A9
:10097000FFF7FAFBC2197141BB1846EB0100B4EB5B
:10098000030C75EB000C04D3E41A65EB0005174665
:100990000E46241908F101006D4180463428E3DD3C
:1009A000F91946EB0600091BA84103D24FF0FF32AC
:1009B000134601E0002213461BEB070046EB0A51E9
:1009C000BDE8F04DFFF752BF064C074D06E0E0686A
:1009D00040F0010394E8070098471034AC42F6D386
:1009E000FFF7AAFBE06600080067000870B521F079
:1009F000004303430CD0C1F30A550024D5EB040592
:100A000064EB0403D617AD1AB34102DB00200146A4
:100A100070BD201841EB025170BD0EB540F233415C
:100A200002910021CDE900110A460B46FFF72DFF88
:100A300003B000BD1A4B012A03EBC11101EB0010FA
:100A40000ED0022A17D0032A1FD0042A07D101781A
:100A500041F008010170017C41F00201017470470E
:100A6000017841F00101017090F8801041F004011B
:100A700080F88010704710F8101941F002010174DD
:100A8000017841F0080101707047017841F00401DC
:100A9000017010F8801C41F0010100F8801C7047C3
:100AA000940000202DE9F041294E01272949307892
:100AB00000241546052849D2DFE800F0030A0C0A95
:100AC00014000C7001222349234801F0D3FA377037
:100AD000BDE8F08102222048491C01F0CBFA032036
:100AE0003070F5E74878302830D188781B496D2878
:100AF00014D0782815D01A4A772892F9001012D00D
:100B0000732812D0174A612892F900100DD064287A
:100B100009D071280CD065280FD013E0FF20087091
:100B200010E00C700EE0491C00E0491E117009E055
:100B3000EC80AC804FF60C6003E0EC80AC804FF4AE
:100B4000FA702881AF7200F0EBFB28603470BFE7C9
:100B50001400002058000020E806002019000020A2
:100B60002300002022000020FEE7000070B50021D5
:100B7000234D0B46002005EBC11200BF02EB001411
:100B800001282370637302D0062806D00CE0167C7F
:100B900002F1100446F0020605E092F8606002F1EE
:100BA000600446F008062670012902D0062908D004
:100BB0000EE0134C803404EB0014267846F0040653
:100BC00005E0104C04EB0014267846F00106267070
:100BD000401C0828D2DB491C0829CBDB5FF001044C
:100BE000C4F10605E9B2E0B20122FFF723FFE9B242
:100BF000E0B20422FFF71EFF641C062CF0DB70BD80
:100C00009400002094030020014800F0B7B80000D1
:100C1000F0070020014800F0B1B80000680700208C
:100C2000014800F0ABB80000AC07002030B590F8E8
:100C300040500124AC40C56B6C600468636043683D
:100C4000102B036803D099600068C26030BD9A60C1
:100C50000068C16030BD7047012000F04FBA00004D
:100C600070B50C480168090413D54FF400440460C2
:100C70000421094800F04AFB05462146074800F0D8
:100C800045FB07498542088801D1401E00E0401C11
:100C9000088070BD14040140000C014000080140B0
:100CA0000C000020022000F029BA00000C4810B50A
:100CB0000168490712D5042101600A4800F026FBAB
:100CC00004464FF40041084800F020FB07498442E5
:100CD000088801D1401C00E0401E088010BD0000C3
:100CE00014040140000C0140000801400C000020E9
:100CF000082000F003BA102000F000BA10B5402020
:100D000000F0FCF9802000F0F9F94FF4807000F059
:100D1000F5F9BDE810404FF4007000F0EFB9FEE7C0
:100D200070B512494268124CB1F90030D21A4260D3
:100D30002368426D5B6A1BB2D21A42650D4AC36AD0
:100D400015686D6A2DB25B1BC3620B4BC56F1E68C5
:100D5000766A36B2AD1BC5670020088021684862FC
:100D6000116848621968486270BD00000C000020DC
:100D7000A8050020E8050020280600202DE9F05FE6
:100D8000C16B0A6801680B68046C4FF0040808FA2C
:100D900004F8844D844E854FDFF814C2DFF81492B6
:100DA000DFF814A2DFF814B2DFF814E218EA020F39
:100DB00065D05FEA437862D50A68920603D40A6870
:100DC00022F004020A60DFF8F0814FF480620168CB
:100DD00008F1140813011402414524D9A9420DD089
:100DE000B1420FD0B9421AD0614515D0494515D04E
:100DF000514501D1120312E0594501D104220EE000
:100E0000714501D140220AE06D4D1435A94206D04A
:100E10006B4A2832914201D11A4600E022466749C6
:100E2000091F0A6029E0A94213D0B14215D0B94286
:100E300020D061451BD049451BD0514502D14FF40C
:100E4000800217E0414502D14FF0806212E059451F
:100E500001D104220EE0714501D140220AE0584D33
:100E60001435A94206D0564A2832914201D11A4679
:100E700000E022464B4908394A60C16A71E04FF0F0
:100E8000020808FA04F818EA020F70D05FEA8378C3
:100E90006DD50A68920606D40A6822F00A020A6032
:100EA000012180F82110DFF810814FF400720168F1
:100EB00008F1140813011402414524D9A9420DD0A8
:100EC000B1420FD0B9421AD0614515D0494515D06D
:100ED000514501D1120312E0594501D102220EE021
:100EE000714501D120220AE0354D1435A94206D0C2
:100EF000334A2832914201D11A4600E022462F4956
:100F0000091F0A6029E0A94213D0B14215D0B942A5
:100F100020D061451BD049451BD0514502D14FF42B
:100F2000001217E0414502D14FF0007212E059451E
:100F300001D102220EE0714501D120220AE0204DAC
:100F40001435A94206D01E4A2832914201D11A46D0
:100F500000E02246134908394A60002180F8201039
:100F6000816A00291CD0BDE8F05F0847FFE708252B
:100F7000A540154214D01A0712D50A6822F00E02B5
:100F80000A6090F84020C36B012101FA02F25A6016
:100F9000816380F82110002180F82010016BE0E7C8
:100FA000BDE8F09F080002401C00024030000240F3
:100FB00044000240580002406C0002400804024015
:100FC0001C04024030B560B11A4B026814219A42E9
:100FD00009D2194B1344B3FBF1F18900016417499D
:100FE0000AE0012030BD134B5B421344B3FBF1F127
:100FF000890001640F490839C163022180F821107A
:10100000136843F6F0718B43F0E901142143D0E9F2
:1010100002452C43214304692143446921438469E7
:101020002143194311600021416301224277017776
:10103000084630BD08040240F8FFFDBF0000024032
:1010400070B5044690F82000002501280CD001203E
:1010500084F8200094F821600020012E06D084F846
:1010600020000225284670BD022070BD022684F8AB
:101070002160A0632068066826F00106066020460D
:10108000FFF7D4FDE06A00282068016802D041F033
:101090000E0106E021F0040101602068016841F0C2
:1010A0000A0101602068016841F001010160D9E78F
:1010B0000121114A102811D0082811D0B0F5007F65
:1010C00010D0B0F5807F0FD080280FD002280FD02D
:1010D00040280FD0012800D1D1717047917070471E
:1010E000D17070471172704751727047117170471B
:1010F000917170475171704718000020044910B574
:101100000A68024202D00860FFF7D2FF10BD00005B
:10111000140401402DE9F84FDFF8C891002409F1CB
:10112000040A0AF1040B23460F270BF1040ED1E049
:101130000125A54006EA0502AA4276D1DFF8A8C13A
:101140004E68A6EB0C0866452BD00DDC032E34D080
:1011500005DC36B3012E19D0022E2FD11BE0112E43
:1011600016D0122E2AD119E0B8F5881F19D006DC46
:10117000B8F5803F15D0B8F5801F1FD111E0B8F544
:10118000001F0ED0B8F5041F18D10AE0CB6815E097
:10119000CB681B1D12E0CB6808330FE0CB680C3323
:1011A0000CE08B682BB1012B4FF0080303D0456195
:1011B00004E0042302E0056100E00023FF2A01D8D7
:1011C000064601E000F104064FEA840501D9A5F1C5
:1011D0002005D6F8008007FA05FC28EA0C0803FA77
:1011E00005F548EA0508C6F800804D68ED0070D5A1
:1011F0003E4DAE6946F00106AE61AD6924F00306CE
:1012000005F0010500953A4D06EB050CDCF8085099
:10121000A607360F07FA06F825EA0805DFF8D48096
:10122000404503D14FF0000825E052E0DFF8C880C8
:10123000404502D14FF001081DE0DFF8C080404575
:1012400002D14FF0020816E0DFF8B480404502D129
:101250004FF003080FE0DFF8AC80404502D14FF0BB
:10126000040808E0DFF8A080404502D14FF00508EF
:1012700001E04FF0060808FA06F848EA0508CCF83D
:1012800008804D68D9F80060ED034D4601D516433E
:1012900000E096432E604D68DAF80060AD035546D5
:1012A00001D5164300E096432E604D68DBF80060E0
:1012B000ED025D4601D5164300E096432E604D6871
:1012C000DEF80060AD02754601D5164300E0964396
:1012D0002E60641C0A681646E2407FF429AFBDE820
:1012E000F88F0000000401400000111000100240BF
:1012F0000000014000080140000C014000100140C6
:101300000014014000180140001C014080680840A2
:1013100000D0012070470AB1016170470904FBE762
:101320000148806870470000300000200248816852
:10133000027811448160704730000020074810B5E2
:10134000016841F010010160032000F075F80020F1
:1013500000F006F800F024F8002010BD0020024044
:1013600070B50D4D04464FF47A712878B1FBF0F05A
:101370000A490968B1FBF0F000F0ECFA48B9102C0A
:1013800007D200222146501E00F036F800206C6083
:1013900070BD012070BD0000300000203C00002026
:1013A0000C4808B5816941F001018161816901F052
:1013B00001010091C16941F08051C161C06900F033
:1013C000805000900448416821F0E06141F00071D4
:1013D000416008BD0010024000000140002809DB08
:1013E00000F01F02012191404009800000F1E0203F
:1013F000C0F8001170470000F0B40E4B1B680C469B
:10140000C3F30223C3F10705042D00D90425191DD8
:10141000072901D2002300E0DB1E012606FA05F1B0
:10142000491E214099409E40761E16403143F0BC33
:1014300002F0A4BC0CED00E0064900F007020868C9
:101440004FF6FF03184040EA0220034A10430860A9
:10145000704700000CED00E00000FA052DE9F047B0
:101460000F46050061D0434E306800F00700B842D7
:1014700009D2306820F0070038433060306800F04F
:101480000700B84251D128683B4C810712D540076C
:1014900003D5606840F4E06060602878000703D5F9
:1014A000606840F4605060606068A96820F0F000F7
:1014B000084360602878C00728D06868012810D0E9
:1014C0002168022810D0890700292EDA616821F0EE
:1014D000030101436160FFF723FF804641F2883931
:1014E0000DE021688903EFE78901EDE7FFF718FFB9
:1014F000A0EB0801494502D90320BDE8F0876068E8
:10150000696800F00C00B0EB810FEFD1306800F09B
:101510000700B8420BD9306820F00700384330602C
:10152000306800F00700B84201D00120E5E72878D4
:10153000400705D56068E96820F4E0600843606012
:101540002878000706D56068296920F4605040EAD1
:10155000C100606000F038F86168084AC1F3031107
:10156000515CC8400649086006480068FFF7F8FE6D
:101570000020C2E70020024000100240046500087D
:101580003C000020340000200448054900684968F8
:10159000044AC1F30221515CC84070473C0000205E
:1015A00000100240146500080448054900684968B5
:1015B000044AC1F3C221515CC84070473C0000207E
:1015C000001002401465000812A185B00FC98DE813
:1015D0000F0014A0144A006804905168134801F0E9
:1015E0000C03042B10D0082B0ED1C1F38343C90385
:1015F0001DF803000AD5516804AAC1F34041515CAB
:101600000A4A5043B0FBF1F005B07047084948431F
:10161000FAE7000002030405060708090A0B0C0D8F
:101620000E0F1010010200000010024000127A009C
:1016300000093D002DE9F84F040070D02078C04D1E
:10164000C00749D06868C0F38100012807D06868E6
:10165000C0F38100022809D16868C00306D5286854
:10166000800339D560680028E7D035E06068B0F5C0
:10167000803F0BD010B1B0F5A02F11D0286820F416
:1016800080302860286820F4802002E0286840F438
:1016900080302860606890B1FFF742FE06460AE09D
:1016A000286840F480202860F0E700BFFFF738FE8C
:1016B000801B642873D828688003F7D50CE0FFF7F7
:1016C0002FFE064605E000BFFFF72AFE801B6428B8
:1016D000F0D828688003F7D420789A4E80074FF01E
:1016E00001094FF0000839D5686810F00C0F07D0D9
:1016F0006868C0F38100022809D16868C00306D475
:101700002868800714D52069012808D110E02069D5
:10171000B0B1C6F80090FFF703FE074605E00AE106
:10172000FFF7FEFDC01B0228C4D828688007F7D544
:101730002868616920F0F80040EAC10028600DE0E7
:10174000C6F80080FFF7ECFD074604E0FFF7E8FD70
:10175000C01B022823D828688007F7D42078000708
:101760002CD57948A169D9B1C0F80090FFF7D8FD10
:10177000074604E0FFF7D4FDC01B02280FD8686AB3
:101780008007F7D571484FF4FA510068B0FBF1F0CB
:10179000009000BF0098411E0091FAD20EE080E058
:1017A000C0F80080FFF7BCFD074604E0FFF7B8FD76
:1017B000C01B022875D8686A8007F7D420784007D4
:1017C00060D5E8690027C00008D4E86940F080507F
:1017D000E861E869012700F0805000905C480168EA
:1017E000C90513D40168834641F480710160FFF795
:1017F00097FD824606E000BFFFF792FDA0EB0A00CE
:1018000064284ED8DBF80000C005F5D5E068012853
:101810000AD008B1052813D0286A20F001002862F8
:10182000286A20F0040002E0286A40F001002862E3
:10183000E06841F2883B98B1FFF772FD82460BE009
:10184000286A40F004002862EEE700BFFFF768FD59
:10185000A0EB0A0159455AD8286A8007F6D50CE052
:10186000FFF75EFD824605E0FFF75AFDA0EB0A0197
:1018700059454CD8286A8007F6D41FB1E86920F092
:101880008050E861E06988B36968C1F38101022989
:1018900044D00228C6F8608004D0FFF741FD04461A
:1018A00038E034E0FFF73CFD074604E0FFF738FD81
:1018B000C01B02282BD828688001F7D4206AB0F515
:1018C000803F05D16868A16820F400300843686053
:1018D000D4E908010843696821F474110843686079
:1018E000C6F86090FFF71CFD044606E025E000BF47
:1018F000FFF716FD001B022809D828688001F7D5DC
:101900001BE000BFFFF70CFD001B022802D90320DB
:10191000BDE8F88F28688001F4D40EE00128F7D0E4
:101920006868226A00F48031914204D1616A00F44F
:101930007010884201D00120EAE70020E8E70000AB
:101940000010024000004242800442423C0000205D
:101950000070004010B5401EB0F1807F01D301201F
:1019600010BD4FF0E02460610F21601702F006FA0D
:101970000020A06107202061002010BD10B590F864
:101980003C20012A22D0012280F83C20CA688C68C1
:1019900022F4407222434C6822F4806222430C6895
:1019A00022F4006222430C6922F4805222434C69E3
:1019B00022F400522243C969002322F480420A43E0
:1019C00001684A6480F83C30002010BD022010BD40
:1019D00070B590F83C20012A19D0012400F83C4F42
:1019E0000222427050F83C3C5A689D6822F0700612
:1019F0000A684968324325F0800529435A6050F847
:101A00003C2C9160447000210170084670BD02209A
:101A100070BD10B5040003D094F83D0010B107E08C
:101A2000012010BD002084F83C00204600F00CF896
:101A3000022084F83D00211D206801F041FF0120B3
:101A400084F83D00002010BD08B501681148B1F1CF
:101A5000804F0BD0104A914210D1C16941F0100162
:101A6000C161C06900F01000009008BDC16941F07B
:101A70000101C161C06900F00100F5E7074A914228
:101A8000F3D1816941F400518161806900F4005013
:101A9000EAE700000010024000100040003401405E
:101AA00070B5044690F83C00012817D0012584F851
:101AB0003C50022084F83D002068826822F07702C2
:101AC00022F47F4282600868502830D00DDC202844
:101AD0004DD005DC98B310283BD148E0022070BD02
:101AE000302844D0402834D139E0602828D07028EC
:101AF00006D0B0F5805F2CD0B0F5005F29D10AE0A8
:101B0000CB68D1E90121206801F02DFF20688168B0
:101B100041F0770109E0CB68D1E90121206801F0AB
:101B200022FF2068816841F48041816011E0CA6829
:101B30004968206801F0ECFF5021206807E016E0BA
:101B4000CA684968206801F0F4FF6021206801F04C
:101B500014FF84F83D50002084F83C0070BDCA6832
:101B60004968206801F0D4FF40212068EFE722682F
:101B700001461046EBE72DE9F0410D46040003D085
:101B800094F83D0018B108E00120BDE8F081002084
:101B900084F83C00204600F03BF8022084F83D0029
:101BA0002068816844F2070291438160211D20680A
:101BB00001F086FE226890689169166A2B68AF6909
:101BC000034340F20330814341EA0721A868EF69EB
:101BD00008434FF6FC418843E96840EA0720014387
:101BE00028692F6A000140EA0730084369686D6977
:101BF00026F0220646EA0515294393602268906183
:101C000020680162012084F83D000020BDE700004B
:101C100000B585B0002100910191029103912B4BF9
:101C200002682B492B489A421FD1CA6942F002022E
:101C3000CA61CA6902F0020204928A6942F008028B
:101C40008A61896901F00801049130210091694697
:101C5000FFF760FA2048416821F4406141F0E061FB
:101C600041F40061416005B000BD1C4B9A4213D1A4
:101C7000CA6942F00402CA61CA6902F0040204920D
:101C80008A6942F008028A61896901F008010491B9
:101C9000C0210091694616E011488242E3D1C8692B
:101CA00040F00800C861C86900F008000490886925
:101CB00040F0040088618869694600F004000490DF
:101CC000032000900748FFF725FACCE70004004006
:101CD00000100240000C01400000014000080040DC
:101CE000000C00400008014010B50446006891B1A6
:101CF000042904D00122002101F028FE20680122DD
:101D00005FF0040101F022FE2068016841F001014A
:101D10000160002010BD01220021F3E700B585B06D
:101D20000021009101910291039100680B498842C2
:101D300012D10B48816941F01001816180696946C7
:101D400000F0100004904FF4007000900220019009
:101D500003900448FFF7DEF905B000BD00340140F0
:101D6000001002400010014070B5044690F83C009D
:101D70000D4601280DD0012684F83C60022084F82D
:101D80003D0042B1042A18D0082A2AD00C2A4DD18D
:101D900039E0022070BD206801F0F8FD20688169FB
:101DA00041F0080181612068816921F004018161AD
:101DB000206881692A69114311E0206801F016FE4C
:101DC0002068816941F4006181612068816921F4A2
:101DD00080618161206881692A6941EA022181610B
:101DE00024E0206801F038FE2068C16941F0080154
:101DF000C1612068C16921F00401C1612068C16925
:101E00002A69114311E0206801F05AFE2068C16977
:101E100041F40061C1612068C16921F48061C16140
:101E20002068C1692A6941EA0221C16184F83D60E4
:101E3000002084F83C0070BD10B5040003D094F875
:101E40003D0010B107E0012010BD002084F83C00E7
:101E5000204600F00CF8022084F83D00211D206887
:101E600001F02EFD012084F83D00002010BD7047D8
:101E700010B504460068012201F068FD0B49206896
:101E8000884202D00A49884203D1416C41F40041A2
:101E900041642068816801F00701062903D00168C8
:101EA00041F001010160002010BD0000002C014044
:101EB00000340140704770B5040004D094F8390034
:101EC000002510B106E0012070BD84F8385020468E
:101ED00000F022F8242084F839002068C16821F439
:101EE0000051C160204601F095FE2068016921F48F
:101EF000904101612068416921F02A014161206817
:101F0000C16841F40051C160E563202084F83900C4
:101F100084F83A00002070BDF0B585B0002400942C
:101F20000194029403940646484D036848480221F0
:101F300003228027AB4246D1C36943F40033C36117
:101F4000C36903F400330493836943F0040383619A
:101F50008069404D00F0040004900420CDE90001A8
:101F6000039269462846FFF7D5F80820CDE900041A
:101F70000120029069462846FFF7CCF8374D3648D5
:101F8000C5E90004C5E902472C616C61AC612846D3
:101F9000EC61FFF717F808B1FEF7C1FE75636E62DA
:101FA0002D482F4D143001C5102091C52C4845F8FF
:101FB00010496C61AC61EC61FFF704F808B1FEF701
:101FC000AEFE35633EE0274DAB423CD1C36943F4DE
:101FD0008023C361C36903F480230493836943F0BE
:101FE000100383618069039200F0100004902815AB
:101FF000CDE900011C4D69462846FFF78BF8E8142F
:10200000CDE90004694628460294FFF783F8174893
:10201000416821F0300141F0E06141F01001416080
:102020000D48134D3C38C5E90004C5E902472C6151
:102030006C61AC612846EC61FEF7C4FF08B1FEF7A5
:102040006EFE75636E6205B0F0BD00000044004096
:1020500000100240000801406C00024068070020A8
:10206000AC07002000480040001001400000014083
:10207000F0070020F8B5044690F83A0020283CD13B
:10208000C1B3BAB394F83800012836D0012084F8DF
:102090003800A162A2850025E563222084F83A0079
:1020A000636B17489862636B1648D862636B164877
:1020B0001863606B134645630846666B21680246E9
:1020C0003046091DFEF7BCFF206801684168009199
:1020D00084F83850C16841F48071C160206841695A
:1020E00041F0010141612068416941F040014161D5
:1020F0000020F8BDFFE70120FBE70220F9E7000020
:10210000A13B0008DD3B0008573B000830B5144DEB
:102110000022022304241349A8420ED10878012882
:1021200003D0032800D10C7030BD0F48007831284F
:1021300001D00A7030BD0B7030BD0C4DA842FBD1F0
:102140004878012803D00328F6D14C7030BD0648EA
:102150000A300078FF2801D04A7030BD4B7030BD86
:10216000E806002014000020580000202807002066
:1021700070472DE9F843044690F839001F4616468B
:102180000D46202850D1A5B19EB194F83800012801
:102190004AD0012084F838004FF00008C4F83C8091
:1021A000212084F83900FFF7BBF8A6848146E68435
:1021B00026E00120BDE8F883E08C401EE084A068A2
:1021C0004B46B0F5805F4FF000024FF08001204693
:1021D000009703D001F07AFDE8B90DE001F076FD3B
:1021E000C8B928882168C0F308004860206908B190
:1021F0006D1C05E0AD1C03E0216815F8010B48607B
:10220000E08C0028D8D14B46002240212046009780
:1022100001F05CFD08B10320CCE7202084F83900F0
:1022200084F838800020C5E70220C3E7FEE70000FD
:10223000044908B58A6902438A61896901400091AD
:1022400008BD000000100240F0B50A68C2F30F2577
:1022500095FAA5F2B2FA82F369E001229A402A4285
:1022600064D0082B03D240F201129A4006E0A3F199
:1022700008024FF00114944044F0806292FAA2F7F1
:1022800000EB1264B7FA87F74FEA870C0F2726682E
:1022900007FA0CF7BE4392FAA2F7D1F804E0B7FAB6
:1022A00087F7BF000EFA07FE46EA0E0626600E69A3
:1022B000C7684FEA122C9CFAACFCBCFA8CFC27EAEB
:1022C000122706FA0CF63743C7604E68012E01D07C
:1022D000092E2BD192FAA2F7B7FA87F74FEA870CAB
:1022E000032707FA0CF72668D1F808E0BE4392FAF4
:1022F000A2F7B7FA87F7BF000EFA07FE92FAA2FC20
:1023000046EA0E06BCFA8CFC4FEA8C0E4FF0040C29
:1023100026600CFA0EFC92FAA2F2B2FA82F2CF68B0
:10232000920026EA0C0697403E4326605B1C35FA75
:1023300003F292D10020F0BD30B591FAA1F400EB88
:102340001160B4FA84F4A5000F24AC4091FAA1F115
:102350000368B1FA81F18900A3438A401343036003
:1023600030BD0A7B8B681A434B6822F480621A43A3
:102370000B6822F400621A43CB8922F480521A437C
:102380000B6922F400521A434B6922F480421A432B
:1023900022F400411943416400207047F0B50268FF
:1023A0001C4B1D4D1D4E1E4F1E4C4FF0804C984235
:1023B00009D0A04207D0604505D0A84203D0B04262
:1023C00001D0B84205D1D1F804E022F0700242EA0F
:1023D0000E02984209D0A04207D0604505D0A8421D
:1023E00003D0B04201D0B84203D1CD6822F440728C
:1023F0002A4302608A68C2620A888262984201D0D7
:10240000A04201D1097C0163416941F001014161B0
:102410000020F0BD002C01400004004000080040F6
:10242000000C004000340140012919D0042919D0C2
:10243000102919D0402919D0B1F5807F18D0B1F5F5
:10244000806F17D006210C4A1830525C1044026885
:10245000094BDB1D5B5C042199408A430260704795
:102460000021F0E70121EEE70221ECE70321EAE792
:102470000421E8E70521E6E7C4640008012919D032
:10248000042919D0102919D0402919D0B1F5807F1D
:1024900018D0B1F5806F17D006210C4A1830525C65
:1024A00010440268094BDB1D5B5C082199400A431C
:1024B000026070470021F0E70121EEE70221ECE71E
:1024C0000321EAE70421E8E70521E6E7C464000800
:1024D000F0B5012600236E4C6E4D012908D010295D
:1024E0003BD0B1F5807F73D0B1F5805F6ED1A6E0AF
:1024F000016A21F001010162016A46688769D2F828
:1025000000C027F0730747EA0C07D2F810C021F08B
:10251000020141EA0C01D2F804C021F0010141EAB4
:102520000C01A04201D0A84212D1546921F0080147
:1025300041EA8401946821F0040141EA840195692B
:1025400026F480742C43D56924F4007444EA4506CB
:1025500046608761D26842636FE0016A21F0100132
:102560000162066A41688769D2F800C027F4E6472D
:1025700047EA0C27D2F810C026F0200646EA0C16CF
:10258000D2F804C026F0100646EA0C16A04201D08C
:10259000A84213D1556926F0800444EA8514956851
:1025A00024F0400444EA8516946921F4806141EAEC
:1025B0008401D46921F4006141EAC401416087616A
:1025C000D168816361E003E000E01E463046F0BD63
:1025D000016A21F480710162016A4668C769D2F814
:1025E00000C027F0730747EA0C07D2F810C021F4A7
:1025F000007141EA0C21D2F804C021F4807141EA53
:102600000C21A04201D0A84213D1546921F40061E9
:1026100041EA8421946821F4806141EA842195692A
:1026200026F4805444EA0514D56924F4005444EA9D
:1026300045164660C761D268C2630162C5E7016A98
:1026400021F480510162066A4168C769D2F800C06E
:1026500027F4E64747EA0C27D2F810C026F40056C4
:1026600046EA0C36D2F804C026F4805646EA0C3608
:10267000A04201D0A84204D1946921F4804141EAEA
:1026800084114160C761D168016406629DE7000062
:10269000002C01400034014010B5012916D0042956
:1026A00016D0102916D0402916D0B1F5807F15D04C
:1026B000B1F5806F14D00623016A0A4CE35C022452
:1026C0009C40A1439A401143016210BD0023F3E7EF
:1026D0000123F1E70223EFE70323EDE70423EBE710
:1026E0000523E9E7BC6400082DE9F04786B0002423
:1026F0005C480094019402940394816941F01001B4
:102700008161816901F010010491816941F020012A
:102710008161816901F020010491816941F0040126
:102720008161816901F004010491816941F008012E
:1027300081618069DFF8309100F008004FF4805625
:102740000490002231464846FEF7E5FDDFF81CA163
:10275000002204215046FEF7DEFD4FF47140CDE922
:102760000004434F694638460294FEF7D3FC414DBE
:10277000DA20CDE90005694602943846FEF7CAFC26
:1027800040F20130CDE90005694602944846FEF763
:10279000C1FC0425DFF8E0800095CDE9018469469D
:1027A0004846FEF7B7FC4FF48160CDE90004694666
:1027B00048460294FEF7AEFC0096022701260397D6
:1027C000CDE9016469464846FEF7A4FC6803CDE9FB
:1027D0000008694602942948FEF79CFC039700957F
:1027E000CDE9016469465046FEF794FC002211468B
:1027F0000620FEF701FE0620FEF7F0FD002211463E
:102800000720FEF7F9FD0720FEF7E8FD002211463C
:102810000820FEF7F1FD0820FEF7E0FD002211463A
:102820000920FEF7E9FD0920FEF7D8FD0022114638
:102830000A20FEF7E1FD0A20FEF7D0FD0022114636
:102840001720FEF7D9FD1720FEF7C8FD002205214D
:102850002820FEF7D1FD2820FEF7C0FD06B0BDE818
:10286000F087000000100240000C014000140140FD
:10287000001001400000111000003110000801405C
:10288000F0B599B0142113A8FDF797FC20216846F4
:10289000FDF793FC18210DA8FDF78FFC142108A863
:1028A000FDF78BFC4FF40060FFF7C2FC002440F200
:1028B000E730CDE91440454D0326ADF84C60169441
:1028C0008DF85C4013A92846FFF768FD286840F0A2
:1028D00080002860A86844F207018843A8600121AD
:1028E0002846FFF7CBFD6020CDE9000402200294CA
:1028F0000394C7010494CDE905076A4601212846DF
:102900000797FFF7E5FD01212846FFF78DFD102110
:102910002846FFF7B3FD01946A4610212846029429
:10292000FFF7D6FD10212846FFF77EFD39462846E1
:10293000FFF7A4FD01946A46394628460294FFF742
:10294000C7FD39462846FFF76FFDAF1439462846C4
:10295000FFF794FD029401946A463946284607948D
:10296000FFF7B6FD39462846FFF75EFD686820F0A0
:1029700070006860A86820F08000A8608DF8404072
:102980000D940E940F94ADF842406814CDE91104F3
:102990000DA92846FFF7E5FC0820FFF749FC0420B5
:1029A000FFF746FC0A4808A909250B9481E8610055
:1029B0000848FFF749FC084808A90B9481E8610022
:1029C0000648FFF741FC19B0F0BD0000002C0140A3
:1029D000E000E004000C01400F000F04000801407B
:1029E00010B586B000241548009401940294039415
:1029F00004944FF08041059401604721C0E901141F
:102A000044F61F61C0E9031480218161FFF701F8DA
:102A100000B1FEE74FF48050009069460748FFF789
:102A20003FF800B1FEE7049404A904480594FEF7BA
:102A3000CFFF002800D0FEE706B010BD68050020DB
:102A400010B58CB024216846FDF7B7FB002415486B
:102A5000099413490A94C0E900144FF6FF71C0E9C4
:102A60000241046184610320CDE900040120CDE925
:102A700002040494CDE90540079469460948089486
:102A8000FFF779F800B1FEE7099409A905480A940F
:102A9000FEF79EFF002800D0FEE70CB010BD00003E
:102AA00000040040A805002010B58CB02421684621
:102AB000FDF783FB00241548099413490A94C0E9E3
:102AC00000144FF6FF71C0E90241046184610320E4
:102AD000CDE900040120CDE902040494CDE90540CC
:102AE0000794694609480894FFF745F800B1FEE7E6
:102AF000099409A905480A94FEF76AFF002800D046
:102B0000FEE70CB010BD000000080040E805002002
:102B100010B58CB024216846FDF74FFB0024154802
:102B2000099413490A94C0E900144FF6FF71C0E9F3
:102B30000241046184610320CDE900040120CDE954
:102B400002040494CDE905400794694609480894B5
:102B5000FFF711F800B1FEE7099409A905480A94A6
:102B6000FEF736FF002800D0FEE70CB010BD0000D5
:102B7000000C00402806002010B596B000240F94E9
:102B800010941194129413941C2108A81494FDF726
:102B900014FB20216846FDF710FB264824490160FC
:102BA0004721C0E9011444F61F61C0E903148021E4
:102BB000C0E90541FEF72DFF00B1FEE74FF480505C
:102BC0000F900FA91B48FEF76BFF00B1FEE71948F5
:102BD000FFF732F900B1FEE7139413A915481494D6
:102BE000FEF7F6FE00B1FEE76020089040F2DC50F0
:102BF000CDE909040C940D940C2208A90D480E94FB
:102C0000FFF7B2F800B1FEE700944FF40050CDE9B1
:102C10000440029401940394694606480794FEF721
:102C2000ADFE00B1FEE70348FFF778F816B010BD1F
:102C300000340140A80600202DE9F04F8DB08246F7
:102C40001D4618216846169E189CFDF7B6FA1821F5
:102C500006A8FDF7B2FA5B4A002102EBC61000EBB2
:102C600005100DF1180BEE4610E0564A831A1A11A2
:102C7000D51702EB55751A11EE0825F007030BF86E
:102C80000160D21A0EF801204068491C0028ECD1DE
:102C90000E260F25102300274A1E1FD40EEB020C10
:102CA0001EF802801CF8020C1CF801CCA0EB0C09E9
:102CB000ACEB080081450DD10BEB02081BF802C0FC
:102CC00018F8020C18F8018CA0EB0809A8EB0C000E
:102CD000814501D0571E01E0521EDFD5881E874274
:102CE0000FD00BEB010010F8022C364800EBC2129B
:102CF0000EEB010010F8020C02EB0010407B0128E3
:102D00001ED000222270032902DDC81B042802DC29
:102D10001323112612250EEB010010F8022D407826
:102D2000101A01280ED0401C19D00BEB010010F82E
:102D3000021D4078081A01281ED0401C29D03CE012
:102D40000122DFE7BAF1010F36D0BAF1020F2DD020
:102D5000BAF1030F2CD0BAF1040F2ED12AE0BAF148
:102D6000010F25D0BAF1020F24D0BAF1030F23D0FE
:102D7000BAF1040F21D119E0BAF1010F1AD0BAF15A
:102D8000020F19D0BAF1030F10D0BAF1040F14D109
:102D90000EE0BAF1010F09D0BAF1020F08D0BAF172
:102DA000030F07D0BAF1040F07D105E01C4604E079
:102DB000344602E00B2400E02C46179804700DB056
:102DC000BDE8F08F940000202DE9FF4F85B0FF2073
:102DD000DDE912458DF80C00089906989346884263
:102DE00005D1A34503D1002009B0BDE8F08F0598B7
:102DF00001281ED002284ED0032833D0042866D1E3
:102E0000280704D5022259460698FDF713FE6807E5
:102E100004D5012259460698FDF70CFEA80704D5F3
:102E2000042259460698FDF705FEE8074FD0032215
:102E300049E0280704D5032259460698FDF7FAFD14
:102E4000680704D5022259460698FDF7F3FDA80746
:102E500004D5012259460698FDF7ECFDE80736D067
:102E6000042230E0280704D5012259460698FDF7D0
:102E7000E1FD680704D5042259460698FDF7DAFDFE
:102E8000A80704D5032259460698FDF7D3FDE807A5
:102E90001DD0022217E0280704D5042259460698BF
:102EA000FDF7C8FD680704D5032259460698FDF7CB
:102EB000C1FDA80704D5022259460698FDF7BAFDC0
:102EC000E80704D0012259460698FDF7B3FD7E4974
:102ED000069801EBCB1303EB001C4FF0010E002210
:102EE0008CF80DE013464FF47A75002001EBC21701
:102EF00007EB0016401CC6E9013533730828F7DBE1
:102F0000521C082AF1DBCCF80830089B002001EBAA
:102F1000C412074602EB031AA9464A4601250123BB
:102F200001EBC51808EB031696F80CC0BCF1000FB6
:102F300005D1D6F808C0944501DA624630465B1CDC
:102F4000072BEFDB6D1C072DE9DB874218D080F8DB
:102F50000CE09AF80C20012A0ED0A0F11003009387
:102F6000703B461A3711466800F1100500F18008E1
:102F700046B1721A121106E01598012876D0B0B346
:102F8000FF2031E73A46BA1A90F800C04E464F4645
:102F90005FEA0C7C03D482B1012A0ED00527D0F859
:102FA00008C06744D5F808C0674501DAC5E90107DC
:102FB0000778BF0703D5374605E00327EFE7BAB127
:102FC000571C15D00527D0F808C06744DDF800C0AD
:102FD000DCF808C0674505DADDF800C0CCF80870F9
:102FE000009F786007787F0704D5374607E059E0EF
:102FF0000327E8E782B112F1080F0DD00527D0F8BA
:1030000008C06744D3F808C0674501DAC3E901077F
:103010000778FF0706D101E00327F0E762B1082A2D
:103020000AD0052687683E44D8F80870BE4201DA07
:10303000C8E9010612B129E00326F3E7059A012A3F
:1030400006D0022A13D0032A04D0042A1ED110E08D
:103050009A6802E0D8F808204346921C9A60AA6851
:10306000921CAA60009A009B92680DE010E0AA688A
:1030700002E0009A009D9268921CAA60D8F808208D
:10308000921CC8F808209A68921C9A60074644E788
:1030900003A8CDE90040DDE905015A46089B00F090
:1030A00049FB0AE0169803A90094CDE90110DDE977
:1030B00005015A46089BFFF7BFFD1498DAF808107F
:1030C00001609DF80C008FE694000020FEE70000F0
:1030D0002DE9F0030025DFF84090DDF818C02E46FA
:1030E0004FF47A7805EB850401EBC4046D1C676826
:1030F00026611434EDB2A4E80C10042D44E90676E0
:10310000C4E90089EED30221C17001218170BDE8BC
:10311000F00303F04FB8000000409C462DE9F04F4B
:103120000646007885B00F4600287CD0B078DFF8DE
:1031300004846C46F0B3FEF7F3F8FF4981464A6811
:10314000904270D30025FC494968A9EB0100F17851
:103150000844FDF796FA05EB850A07EBCA04834697
:10316000D4E90101401AFDF783FA5946FDF7BAF890
:10317000FDF7D5FA0022F14BFDF799F9834604914A
:1031800057F83A00FDF774FAFDF7C9FAEC4AED4B2F
:10319000FDF78DF95A46049BFDF783F9FDF7D2FA46
:1031A000DFF8A4A301464AF825002069FDF710F8CE
:1031B000206100E005E0616AFDF7E0FA7ED2616A15
:1031C00072E1707800282ED05FF0000000EB8001E3
:1031D00057F83110494244F82010401CC0B204286E
:1031E000F4D34FF400570398FD10002800984FF4D3
:1031F000804A4FF4007B4FF480797ADB002813DBA0
:1032000002220421D148FFF747FAD248D049C0F83A
:1032100014900122FFF790F80922CF494046FFF7AA
:103220008BF8009815E03BE100220121C748FFF729
:1032300033FA4446C8F814700922C549C548FFF757
:103240007BF80122C4492046FFF776F800984042F7
:1032500000904FF47A77B84200DD3846BB4C0090BE
:1032600060630198002814DB002210212046FFF73C
:1032700013FADFF8E8B2C8F814A00922B849B54833
:10328000FFF75AF8012259464046FFF755F80198D2
:1032900013E0022240212046FFF7FEF9AD48B04975
:1032A000C0F814B00122FFF747F80922AB494046A5
:1032B000FFF742F801984042019000E0F3E0B84285
:1032C00000DD38460190A0630298002812DB02223C
:1032D00029462046FFF7E0F99E48A24945610122B0
:1032E000FFF72AF80922A0494046FFF725F802987F
:1032F00019E02DE0002249462046FFF7CDF9DFF81E
:1033000068924FF400404546C8F8140009229549D8
:103310009048FFF711F8012249462846FFF70CF8BC
:10332000029840420290B84200DD384601460290C1
:103330002046E1634FF48051C8F814100022FFF7D3
:10334000ABF90398B84200DC074603972764A5E071
:10335000002813DB022201217C48FFF79DF9444637
:10336000C8F8107009227A497A48FEF7E5FF012271
:1033700079492046FEF7E0FF009813E0002204217F
:103380007248FFF789F973487149C0F8109001221B
:10339000FEF7D2FF092270494046FEF7CDFF0098A4
:1033A000404200904FF47A74A04200DD2046674FFF
:1033B000009078630198002812DB002240213846F3
:1033C000FFF76AF963486649C0F810B00122FEF7BA
:1033D000B3FF092261494046FEF7AEFF019815E0B0
:1033E000022210213846FFF757F9DFF870B1C8F80C
:1033F00010A009225A495748FEF79EFF012259465C
:103400004046FEF799FF019840420190A04200DD3E
:1034100020460190B8630298002817DB0222494633
:103420003846FFF739F9DFF840914FF40040454640
:10343000C8F8100009224B494648FEF77DFF0122DB
:1034400049462846FEF778FF029812E000222946F6
:103450003846FFF721F93F48424905610122FEF74E
:103460006BFF092240494046FEF766FF0298404242
:103470000290A04200DD2046014602903846F963E2
:103480004FF48051C8F810100222FFF705F9039895
:10349000A04200DC0446604203943864002070704F
:1034A00005B0BDE8F08F21692161606A80F00040BD
:1034B000FDF764F903D2606A80F0004000E0206903
:1034C00020616168A160A169FCF7DAFE83465AF8C1
:1034D000250061698246FCF7D3FE5946FCF778FE69
:1034E00083465146E068FCF7C5FEE169FCF7C8FE7B
:1034F0005946FCF7BFFEFDF7DAF84DF82500C4F891
:103500000CA05DF82520206A6946824200DC104646
:1035100041F82500226A5242904200DA104641F8F2
:1035200025006D1CEDB2042DFFF40DAEF1780248BC
:1035300049441BE0000C01400C00002000408F407B
:10354000A4703D0AD7A3084048000020002C014089
:103550000100010400080140200020044000400454
:10356000020002040400040480008004416000980A
:1035700000280BDB01223E493E48FEF7DDFE092212
:103580003D494046FEF7D8FE00980CE00922384934
:103590003848FEF7D1FE012237494046FEF7CCFEFF
:1035A0000098404200904FF47A74A04200DD20461B
:1035B000324D00906863019800280BDB09223049E6
:1035C0002C48FEF7B9FE01222E494046FEF7B4FE14
:1035D00001980CE001222A492648FEF7ADFE092297
:1035E00028494046FEF7A8FE019840420190A042BB
:1035F00000DD20460190A863029800280BDB012221
:1036000021491C48FEF798FE092220494046FEF752
:1036100093FE02980CE009221B491648FEF78CFE27
:1036200001221A494046FEF787FE02984042029066
:10363000A04200DD20460290E86303984FF48051D9
:103640000028404606DB416100222846FFF724F8A7
:10365000039807E0016102222846FFF71DF803984E
:1036600040420390A04200DC044603942C6417E718
:10367000010001040008014020002004002C01404A
:10368000020002044000400404000404800080049E
:103690007047F0B587B00026DDE90C4505960DF1C1
:1036A000140C8DE8301006AF0126CDE90367FFF753
:1036B0008BFB07B0F0BD70472DE9FF4F8BB08B46F9
:1036C000DDE91B65DDE918194FF47A70DDF86880D3
:1036D00005900690002492468DF81C408DF82040FD
:1036E00005AACDE90016CDE9022407A804905246A8
:1036F00059460B98FFF768FB06A90746CDE9021467
:10370000CDE9008608A804904B46524659460B98CE
:10371000FFF75AFBDDE90512914206DA9DF81C001D
:10372000287038460FB0BDE8F08F9DF82010297042
:10373000F8E70000F0B52A4DDDE9056705EBC61690
:1037400006EB031305EBC21606EB011C5E68002EA8
:1037500043D0664542D15B1B1B11DD1703EB55754A
:1037600025F007069B1BDEB2711AC5F3C7030129BA
:1037700007D0491C0ED0991A012914D0491C1BD01E
:103780002AE0012827D002281FD003281FD00428B0
:1037900022D11EE001281AD002281AD003281AD0FC
:1037A000042819D111E0012813D0022813D00328CE
:1037B0000BD0042810D10AE0012806D0022806D038
:1037C000032806D0042807D105E0102404E00E24C5
:1037D00002E00B2400E00F243C70F0BD3346B5E757
:1037E0009400002070470000042801D101480160C6
:1037F0007047000040340140054B04225A614FF6E7
:10380000FF7202EA400203484908028041607047A3
:103810000014014000000020FDF788BD30B58FB0D6
:1038200028216846FCF7C9FC14210AA8FCF7C5FC4E
:1038300001210804CDE9001000240294022504911E
:10384000CDE907504FF4E01009906846FDF7F2FE0D
:1038500000B1FEE70F20CDE90A054FF48060CDE905
:103860000C4002210AA80E94FDF7F8FD002800D0B4
:10387000FEE70FB030BD00000D48016841F00101C6
:10388000016041680B4A1140416001680A4A1140D9
:103890000160016821F480210160416821F4FE018A
:1038A00041604FF41F0181600449C0030860704704
:1038B000001002400000FFF8FFFFF6FE08ED00E0F8
:1038C000F0B502681C4B1D4D1D4E1E4F1E4C4FF097
:1038D000804C984209D0A04207D0604505D0A8424C
:1038E00003D0B04201D0B84204D122F0700E4A6831
:1038F00042EA0E02984209D0A04207D0604505D0A6
:10390000A84203D0B04201D0B84203D122F440759E
:10391000CA682A434D6922F080022A4302608A68FD
:10392000C2620A688262984201D0A04201D109694C
:10393000016301214161F0BD002C01400004004001
:1039400000080040000C00400034014010B501F0B8
:103950001F030121046A99408C430462016A9A4062
:103960001143016210BD10B5846842EA032224F4B9
:103970007F440A432243826010BD826822F07002B5
:103980000A4342F00701816070470000F0B5026A07
:1039900022F001020262036A42688469124E24F036
:1039A00073050C682C4323F002058B682B430D4DE7
:1039B000A84201D0B04205D123F00807CB683B43B1
:1039C00023F00403A84201D0B04205D14D6922F48E
:1039D000407215438A692A434260846149684163A1
:1039E0000362F0BD002C014000340140F0B5026AD2
:1039F00022F010020262026A436884690D6824F4AE
:103A0000E64444EA05248D6822F0200242EA0512C9
:103A10000F4D104EA84201D0B04206D1CF6822F01F
:103A2000800242EA071222F04002A84201D0B042CE
:103A300007D14D6923F4406343EA85038D6943EA66
:103A4000850343608461496881630262F0BD0000C0
:103A5000002C014000340140F0B5026A22F480726B
:103A60000262026A4368C46922F4007224F073059A
:103A70000C68124E2C438D6842EA05220E4DA84276
:103A800001D0B04206D1CF6822F4006242EA072298
:103A900022F48062A84201D0B04207D14D6923F4DC
:103AA000405343EA05138D6943EA05134360C4613B
:103AB0004968C1630262F0BD002C0140003401403E
:103AC00030B5026A22F480520262046A4268C36915
:103AD0000D6823F4E64343EA05238D6824F400547B
:103AE00044EA0534084DA84202D0084DA84204D14A
:103AF0004D6922F4804242EA85124260C3614968FE
:103B00000164046230BD0000002C0140003401401B
:103B100010B5036A046A24F001040462846924F085
:103B2000F00444EA021423F00A020A4384610262A8
:103B300010BD10B5036A23F0100303628369046AA1
:103B400023F4704343EA023224F0A00343EA011154
:103B50008261016210BD70B5446A2068406994F8C2
:103B60003910C0F3C0100025212904D118B1E58413
:103B7000204600F046F82068406994F83A10C0F3F7
:103B80008010222904D118B1E585204600F02BF8D9
:103B9000E06B40F01000E0632046FEF78BF970BD4B
:103BA00010B50146406A09680968890613D40021E6
:103BB000C1850168CA6822F48072CA6001684A69D6
:103BC00022F001024A6101684A6922F040024A611A
:103BD000202180F83A10FEF799FA10BD10B5406A1E
:103BE000FEF7C6FA10BD0168CA6822F49072CA6076
:103BF00001684A6922F001024A61202180F83A10E6
:103C000070470168CA6822F0C002CA60202180F8AB
:103C1000391070472DE9F041044600680169E268F7
:103C200021F44051114301612169A0680843616991
:103C300008432168CA6841F20C639A430243CA6090
:103C400020684169A26921F44071114341611E4914
:103C5000206864253226884202D1FDF7A5FC01E0E8
:103C6000FDF792FC00EBC00101EB001160686FF002
:103C700018078000B1FBF0F2B2FBF5F2B1FBF0F3F4
:103C80007A4303EB8202B1FBF0F306EB0212B2FBC4
:103C9000F5F2B3FBF5F302F0F00202EB0312B1FB15
:103CA000F0F3B1FBF0F0B0FBF5F0784303EB8000EC
:103CB00006EB0010B0FBF5F0216800F00F00104497
:103CC0008860BDE8F0810000003801402DE9F04136
:103CD000984617460E460446069D1DE0681C1BD0FC
:103CE0002DB1FDF71DFBA0EB0800A84214D92068F8
:103CF000C16821F4D071C1602068416921F00101DF
:103D00004161202084F8390084F83A00002084F8CA
:103D100038000320BDE8F0812068006836EA000022
:103D200004D00020B842D9D00020F3E70120F9E701
:103D3000FEE700000FB4054B10B503A9044A029832
:103D400000F064FB10BC5DF814FB0000554D00084A
:103D500040000020490050EAC12018BF04204A0D4D
:103D600018BF40F0010040F2FF72B2EB515F08BF94
:103D700040F00200012808BF052070470907090E1E
:103D8000002804DB00F1E02080F80014704700F008
:103D90000F0000F1E02080F8141D70472DE9F74F67
:103DA000144694B00021C4E902111599079121F03D
:103DB0000045C9498D4206DC1599C4E9000117B0D8
:103DC0000020BDE8F08FC549DFF814A3A9423CDD0F
:103DD0000799C44E0029C44FC44A1599534619DDAA
:103DE000FCF75FFB554506D0C14AC24BFCF759FBB7
:103DF000C4E900010AE04FF0D352BE4BFCF751FB7F
:103E000032463B46FCF74DFBC4E9000117B00120E8
:103E1000BDE8F08FFCF7A4FA554506D0B44AB54B7F
:103E2000FCF79EFAC4E900010AE04FF0D352B14B0F
:103E3000FCF796FA32463B46FCF792FAC4E90001D9
:103E400017B04FF0FF30BDE8F08FAB49A94215998C
:103E500078DB21F0004183468846A84AA84BFCF74E
:103E600026FB0022A74BFCF77BFAFCF739FC0990F4
:103E7000FCF70CFC06460F469C4A5346FCF717FB22
:103E800043465A46FCF710FB80468A46984A994BAF
:103E900030463946FCF70BFB2A0D01250B924246B2
:103EA0005346FCF701FB032DC4E9000139D00B9800
:103EB000C1F30A51401A05EB45111139814230DA3C
:103EC0009148C346784400EB0510CDF80CA00C9047
:103ED000D0E9002330463946FCF7E9FA02460B46A2
:103EE0000491069058460399FCF7DBFA80468A460F
:103EF00002460B4658460399FCF7D3FA049B069AF0
:103F0000FCF7CFFA83460C9803913946D0E9022397
:103F10003046FCF7CCFA5A46039BFCF7C2FA6D1CFC
:103F2000BDE707980028A2BF099817B0BDE8F08F39
:103F3000616881F000416160099817B04042BDE8B6
:103F4000F08FFFE784461598C1F31301C0F30A50C0
:103F5000A0F2F5304FEA601800F01F06C6F120000D
:103F6000139000200690079041F4801E05206D46B6
:103F700076B1664A08EB00017A4452F8213002EB30
:103F80008101B3404A68139922FA01F1194305E00F
:103F90005F4908EB0002794451F82210A1FB0E277B
:103FA000A1FB0C131A449A4234BF0123002303EBF4
:103FB000070A05EB8003D3E901B70F448F4234BFF2
:103FC0000121002193448B4411B1934502D903E0B0
:103FD000934501D2012100E00021C3E901B751441A
:103FE00045F82010011EA0F10100C1DC0298059FD8
:103FF00000F10050800F12900298DDE90356800016
:10400000FCF744FB834628460D91FCF706FD6FF054
:104010001D02FCF7EBFCCDE90E013046FCF7FDFC80
:104020006FF03D02FCF7E2FC80468A463846FCF71A
:10403000F4FC6FF05D02FCF7D9FC0746424653469C
:104040001191FCF78DF9DDE90E23FCF789F95A4649
:104050000D9BFCF785F900250E465A4628460D9B18
:10406000FCF71FFADDE90E23FCF71BFA4246534624
:10407000FCF717FA3A46119BFCF716FADFF898A0FE
:10408000244A5346FCF713FA07468846234A244B32
:1040900031462846FCF70BFA3A464346FCF760F9EE
:1040A000074688464FF0A842534631462846FCF75B
:1040B000FEF93A464346FCF753F9159A12F0004FC1
:1040C00004D0129A81F0004152421292C4E90001D8
:1040D000129817B0BDE8F08FFB21E93F7CD9024070
:1040E000FB21F93F7370032E8A19A33B0000405453
:1040F0003163621A61B4D03DFB21394183C8C96D77
:10410000305FE43F0000E03F28270000A4260000C5
:1041100086260000182D4454FB21F93D3326A611B4
:10412000460B113C2DE9FF4D21F0004807460C4697
:10413000B8F1795F08DAFCF7D3FA002801BF002054
:10414000324904B0BDE8F08D3A4623461046194680
:10415000FCF7ADF9054602462D480E460B460621F2
:10416000784400F05DF82A463346FCF7A0F9DDE913
:10417000022382468B4638462146FCF798F90446CE
:104180000F4652465B4628463146FCF790F92246D8
:104190003B46FCF786F907468A464FF0FF32284631
:1041A0003146FCF723FC1B4A90450ADA3A4653464F
:1041B000FCF777F904B00022BDE8F04D134BFCF793
:1041C00073B9154A4245A8BFA8F500154FF0000481
:1041D000B8BF124D22462B46FCF763F906468846C7
:1041E00022462B4600200949FCF75BF904460D46A0
:1041F0003A46534630464146FCF753F904B022464E
:104200002B46BDE8F04DFCF74FB900000000F03F31
:10421000542400003333D33F0000E93F0000D23F75
:104220002DE9F0414F1E00EBC7010446D1E9000122
:1042300015461E4637F006020DD02A463346FCF7D7
:1042400036F97F1E04EBC703D3E90023FCF788F897
:1042500037F00602F1D1022F25D0042F13D0062FFC
:1042600018BFBDE8F0812A463346FCF720F9D4E9AF
:104270000A23FCF775F82A463346FCF718F9D4E907
:104280000823FCF76DF82A463346FCF710F9D4E909
:104290000623FCF765F82A463346FCF708F9D4E90B
:1042A0000423FCF75DF82A463346FCF700F9D4E90D
:1042B0000223FCF755F82A463346FCF7F8F8D4E910
:1042C0000023BDE8F041FCF74BB800002DE9FF4D9D
:1042D000054621F0004084B00C46B0F1795F0BDA5E
:1042E0002846FFF737FD042808BF00F071F828467C
:1042F00008B02146BDE8F08D2A460B461046FCF773
:10430000D6F806460F462A462346FCF7D0F88046E4
:1043100026488A4632463B4605217844FFF780FF0F
:1043200083461098029160B3214A224B4046514681
:10433000FCF7BDF8CDE900015A4640465146029BC4
:10434000FCF7B5F882468846DDE906014FF0FF32FA
:10435000FCF74CFB52464346FCF7A3F832463B467B
:10436000FCF7A5F8DDE90623FCF79BF8DDE900235F
:10437000FCF797F808B02A462346BDE8F04DFCF755
:1043800093B80B465A4630463946FCF790F8084A2F
:10439000084BFBF7E5FF42465346FCF788F808B0A8
:1043A0002A462346BDE8F04DFBF7DABF9A2300000A
:1043B000495555555555C5BF0122FCF717BBFBF7AD
:1043C000CFBF0022134610461146FCF7E2B80000AA
:1043D000024A00201107FCF709BB000001FDFFFFA6
:1043E00002E008C8121F08C1002AFAD170477047BE
:1043F000002001E001C1121F002AFBD1704700001C
:104400000149086070470000440000202DE9FF4F7B
:1044100089B09B460446002506E025280BD05A4665
:104420000B999047641C6D1C20780028F5D10DB0C5
:104430002846BDE8F08F0027B8460122474900E032
:10444000074314F8013F203B02FA03F00842F7D17A
:1044500020782E2819D114F8010F47F004072A28D4
:104460000ED06FF02F022078A0F1300109290CD86E
:1044700008EB880102EB410100EB0108641CF2E744
:104480000A98641C50F8048B0A9020780028CED03B
:10449000642808D0692806D075281ED05A460B9982
:1044A00090476D1C58E00A994FF00A0901C90A911A
:1044B000002802DA40422D2102E0390504D52B21E3
:1044C0008DF82010012103E0F90704D02021F7E73F
:1044D0008A4608AE0DE00021FAE70A994FF00A0972
:1044E00001C90A91F7E74946FCF752F9303106F85D
:1044F000011D0028F7D1ADEB060000F12009780777
:1045000001D44FF00108C84502DDA8EB090000E026
:1045100000208046002706E008A85A46C05D0B9997
:1045200090476D1C7F1C5745F6DB04E030205A464F
:104530000B9990476D1CB8F10001A8F10108F5DC5A
:1045400005E016F8010B5A460B9990476D1CB9F11E
:104550000001A9F10109F4DC641C65E709280100E8
:104560002DE9F84F04460D4621F0004000917349B3
:10457000814211DC7249884201DC06D12CB120460F
:104580002946BDE8F84FFFF717BF6E48002DCCBF96
:104590006D496E49BDE8F88F6D49814211DD6D4965
:1045A0008142D8BF4FF0FF366DDD20462946FFF728
:1045B000D1FB042808BFFFF70BFF20462946BDE8C2
:1045C000F88F6549654F25F00045814233DD644928
:1045D000814219DD002632464FF0804320462946AD
:1045E000FBF7BEFE80468A46012220462946FCF79C
:1045F000FDF900223B46FBF754FF42465346FBF7CA
:10460000C8FF04460D463EE001260022BA463B465E
:1046100020462946FBF7A4FE80460F46002253465B
:1046200020462946FBF73DFF42463B46FBF7B1FFDC
:1046300004460D4627E04B4981421BDDDFF828A1E7
:1046400002260022534620462946FBF730FF00226F
:104650003B46FBF785FE80460F4600225346204628
:104660002946FBF71EFF42463B46FBF792FF0446F6
:104670000D4608E0032622462B4600203B49FBF767
:1046800088FF04460D4622462B4610461946FBF786
:104690000EFF8B46824602460B46FBF708FF074695
:1046A0000246334888460B4606217844FFF7B8FD9A
:1046B00052465B46FBF7FBFE82462E488B463A4647
:1046C000434605217844FFF7ABFD3A464346FBF7E6
:1046D000EEFE02460B46002E504659460CDAFBF71A
:1046E0003FFE22462B46FBF7E2FE01B022462B4658
:1046F000BDE8F04FFBF7D8BEFBF732FE22462B4653
:10470000FBF7D5FE1C4A7A4402EBC603D3E900232B
:10471000FBF7C7FE22462B46FBF7C3FE174A7A4437
:1047200002EBC603D3E90023FBF7BEFE009A002A82
:10473000B8BF81F00041BDE8F88F000000001044D0
:104740000000F07F182D4454FB21F93FFB21F9BFF5
:104750000000DC3F0000203E0000F33F0000F03F7F
:104760000000E63F008003400000F83F0000F0BF7B
:10477000DA1E0000981E0000361E0000FE1D00001C
:104780002DE9F04D9446CCF1000423F000464CEAAC
:104790000404524F46EAD4749A46884621F00042F7
:1047A000BC4206D8454240EA050442EAD474BC4201
:1047B00004D9BDE8F04D6246FFF701BEAAF14055AD
:1047C000A5F17F6555EA0C040BD0022404EAAA7413
:1047D000434DDFF810E144EAD87452EA000B04D0EC
:1047E0000CE0BDE8F04DFFF7BBBE002C14BF012C60
:1047F000BDE8F08D022C30D0032C32D056EA0C0BE1
:104800000AD0BE4220D1BA4209D126F0804622F019
:1048100080423346114617E000291ADB25E0DFF815
:10482000C8B0FB44002C04BFDBE90001BDE8F08DFB
:10483000012C02BFDBE9000181F00041BDE8F08DF1
:10484000022C0AD0032C0CD0BA4212D1B8F1000FBE
:104850000BDA23482549BDE8F08D28462449BDE8F8
:10486000F08D28467146BDE8F08D1D482149BDE810
:10487000F08D921B12153C2AC4BF19481D490EDC4D
:10488000BAF1000FBEBF12F13C0F0020014606DB5B
:104890006246FBF77EFE21F00041FFF761FE002C2F
:1048A00008BFBDE8F08D012C04BF81F00041BDE8D8
:1048B000F08D114A114B022C07D0FBF7F2FD2A466E
:1048C000BDE8F04D0A4BFBF7ECBDFBF7EAFD2A46CD
:1048D000BDE8F04D064BFBF7E7BD00000000F07FA0
:1048E000182D4454FB2109C0C21D0000FB21F9BF53
:1048F000FB210940FB21F93F075C143326A6A13CAC
:104900002DE9F0478A46B0F906101E23904691FB28
:10491000F3F3828800895442C01A65184B42404222
:1049200005441C442EB20444114425B201440CB287
:10493000D118084407B24FF47A70864205DA8542EE
:1049400003DA844201DA874234DB3046854200DDF7
:104950002846844200DD2046874200DD3846FBF7CA
:1049600087FE01461A48FBF7BDFC81463046FBF73F
:104970007FFE4946FBF784FCFBF799FE06B228460A
:10498000FBF776FE4946FBF77BFCFBF790FE05B292
:104990002046FBF76DFE4946FBF772FCFBF787FEEE
:1049A00004B23846FBF764FE4946FBF769FCFBF7A7
:1049B0007EFE07B2C8F80070C8F87860C8F850509A
:1049C0000121C8F828408AF80110BDE8F0870000EE
:1049D00000007A44054800218170C1700171417165
:1049E0008171C1710172417270470000180000208E
:1049F000044800218170C170017141718171C171E0
:104A00007047000018000020044800210171417126
:104A10008171C1710172417270470000180000205D
:104A200000B5244B21F0004287B09A42DCBF00223F
:104A3000134629DD204B9A4208D140B94FF00100BE
:104A4000FFF7DEFCFFF7BDFC07B000BD03DBFFF79F
:104A5000B3FC07B000BD02AAFFF7A0F910F00301F4
:104A600004BF0DF1080C9CE80F000DD001200129B6
:104A70000ED0022914D00DF1080C00909CE80F0014
:104A8000FFF724FC07B000BDFFF74CFB07B000BDEB
:104A90000DF1080C00909CE80F00FFF717FC05E0F3
:104AA0000DF1080C9CE80F00FFF73CFB07B081F00C
:104AB000004100BDFB21E93F0000F07F2DE9F84FE8
:104AC000DFF858920446012699F801009449002520
:104AD00005287DD2DFE800F0030B0D0B16000D70EA
:104AE00001228F498F48FDF7C5FA89F80160BDE8BA
:104AF000F88F11228B48491CFDF7BCFA032189F875
:104B00000110F4E74878FE2862D10A7A0120B0EB60
:104B1000921F00D100E0002060708878CA7800EB16
:104B2000C210814AA0F5FA601288801A00B2608033
:104B3000B0F5E16F02DBA0F5616004E010F5E16F14
:104B400002DA00F5616060800F7927774B7963772F
:104B50008E79A677CA79E27791F8088091F80AC031
:104B60004FF4807000EA4818C444A4F80CC091F8CF
:104B7000088091F80BC000EA8818C444A4F80EC05D
:104B800091F8088091F80CC000EAC818C444A4F851
:104B900010C0E34691F8088091F80DC05FEAC8782C
:104BA00000D08046C444A4F812C0E64691F80980BB
:104BB00091F80EC000EA4808C444A4F814C0E246C4
:104BC00091F8098091F80FC000EA8808C44400E019
:104BD000A0E0A4F816C0CDF800C091F8098091F8C3
:104BE00010C000EAC808C444A4F818C091F811C065
:104BF000497A00EA011084440120A4F81AC0207008
:104C0000C82F07D9C82B01D925840FE00ED2C3F1D4
:104C10004F000AE00AD2C82B02D9A7F1510004E0E4
:104C200004D2A7EB0300A0F102002084C82E07D90C
:104C3000C82A01D9A5840FE00ED2C2F14D000AE0C6
:104C40000AD2C82A02D9A6F1530004E004D2A6EB86
:104C50000200A0F10600A084C82F05D2C82B03D201
:104C6000F818A038608400E06584C82E05D2C82AF0
:104C700003D2B018A038E08400E0E584B4F9043031
:104C8000B4F90620A4F804B0CEF58C71E180009E42
:104C90005846C6F58C76E682CCF58C766683234E34
:104CA00036780A2E17D2002807DD4FF48C76B042F2
:104CB00003DA002901DDB1420BDB99F80210491C2F
:104CC000C9B289F80210A380E280032903D92570B4
:104CD00001E089F802505046CE22382101F058FBFD
:104CE0002072B4F91600DE22482101F051FB6072F7
:104CF000B4F91800CE22382101F04AFBA072B4F9B1
:104D00001A00DE22482101F043FBE072FCF708FBA9
:104D10000749086089F80150E9E600001400002006
:104D20006200002028070020240000201800002036
:104D30002C000020081A00B2B0F5E16F02DBA0F5EC
:104D4000616004E010F5E16F02DA00F5616000B225
:104D50007047000013B54FF6FF7301226946024801
:104D6000FDF707FA00981CBDE80600202DE9F04188
:104D70001D460E46101AFBF789FC04460F46A81B79
:104D8000FBF784FC22463B46FFF7FAFC044A054B3E
:104D9000FBF78DFBFBF7A4FC00B2BDE8F08100003F
:104DA00048E17A14AEE78140121A5243581A10B5FE
:104DB00000FB0020FBF76AFC01F010FBFBF790FC06
:104DC00000B210BDB6B06426FCF7B8FAFEF726FDB7
:104DD000FDF78AFCF948416941F0010141614069F0
:104DE000002200F00100009011460D20FCF704FBAA
:104DF0000D20FCF7F3FA002211461020FCF7FCFA14
:104E00001020FCF7EBFA002211461120FCF7F4FA0F
:104E10001120FCF7E3FAFDF77BFEFDF731FDFDF70E
:104E200043FEFDF70DFE0024E6480094E44901949A
:104E300001604721C0E901144FF6FF718461C16030
:104E4000FCF7E7FD00B1FEE700946946DD480194F8
:104E5000FCF7BEFD00B1FEE7FDF7C2FDFDF78CFEDD
:104E6000D848D94980300C2501604FF41651C0E96B
:104E70000114C460C0E904458461C461FDF71BF8F6
:104E800000B1FEE7CF48D149C03001604FF4614125
:104E9000C0E90114C460C0E904458461C461FDF740
:104EA0000AF800B1FEE74FF47A7529460220FEF7B2
:104EB000A3FC01F0B9FAC6494FF0010AC54B81F8CD
:104EC00000A0C54AC549C2480094FEF701F901F0A7
:104ED000E7FA29460420FEF787FCDFF8F482012573
:104EE000A8F10E08202188F8004022A8FBF765F9F8
:104EF0003022BB4916A8FBF747F9002032903190C9
:104F000030902E902D900790DFF8D092059013905E
:104F1000129015908DF83040834614902C900746DF
:104F200033902B9009F1A0092F90AC4AAB49A032E5
:104F3000A748FBF7B7FDA948AC30FFF7BFFDFCF76A
:104F4000EFF9B0427DD398F80100012879D0012112
:104F5000A4A0FEF7EFFEA14E98F80030AC3698F909
:104F600001203178A2A0FEF7E5FEB6F90620B6F9D9
:104F70000410A3A0FEF7DEFE98F90B2098F90A10A2
:104F8000A2A0FEF7D7FEB6F90210A5A0059AFEF77B
:104F9000D1FEF07F0090B37F727F317FA3A0FEF738
:104FA000C9FEFCF7BDF9D8F81410411AA3A0FEF70A
:104FB000C1FE4FF40041A348FCF7A8F906464FF4A0
:104FC0008061A148FCF7A2F901904FF400519D487F
:104FD000FCF79CF900904FF480419A48FCF796F951
:104FE00003904FF480519748FCF790F904904FF4E8
:104FF00080719448FCF78AF90296DDE90332014694
:1050000092A0FEF797FE02218E48FCF77FF9064634
:105010004FF480718C48FCF779F9029001218A489D
:10502000FCF774F9019008218648FCF76FF90090AD
:1050300040218448FCF76AF90B904FF400718248D4
:1050400000E01DE0FCF762F9099080217D48FCF743
:105050005DF9089010217B48FCF758F901469DE85E
:105060000D000DF1040C8CE84D000B98DDE90823D0
:1050700000907AA0FEF75EFEFCF752F900F5FA7692
:105080005648AC30017800297DD0417819B198F9A3
:105090000120521C04D098F80110012902D0FCE331
:1050A00088F801A04D4A5846AC32B2F90210FFF719
:1050B00041FE0590B2F90210012D8B4606D0042D59
:1050C00007D0032D08D0022D08D00CE04FF46170FA
:1050D00006E0CDF850B006E0654801E04FF4E1602D
:1050E000FFF728FE149089F80AA098F80000162807
:1050F00062D2DFE810F01600D000290061006100E4
:10510000610061006100610061006100F201610005
:1051100004038703A703C303F6034E05A706610034
:10512000E1072E48AC304188A8F80C10022188F81D
:105130000010319916A830F821102E91319900EB0A
:10514000810040882D903DE2244F2D9AAC3713B258
:105150002E9AB7F90610B7F9040012B2049303921D
:10516000FFF704FE0790B7F90210FFF7E3FD0746CB
:10517000329828B139464FF4E160FFF7DBFD07466E
:105180001648AC3000E0FCE3B0F90610B0F90400BA
:10519000DDE90323FFF708FEA9F80440A9F806405B
:1051A0002E99F02902D12D99EB2971D0B7F5C87F3E
:1051B00060DD4FF4487168E0E5E369E0001002400B
:1051C00000100040680600200044004000480040F5
:1051D00026000020CDCCCC3D9A99993F9404002024
:1051E000D46400086D6F64653A25640A000000000D
:1051F00073746174653A25642025642025640A006F
:10520000583A25642C593A25640A000062696758A7
:105210003A25642C626967593A25640A0000000047
:105220007961773A25642025640A000063763A257F
:10523000642025642025642025640A00743A2564CE
:105240000A00000000100140000C014025642564A4
:1052500025642564256425640A000000256425640E
:105260002564256425642564256425640A000000FE
:105270007CFCFFFF17F5C87F02DA4FF6E04104E03F
:1052800007F13C01792903D37900A9F808105AE7FE
:1052900088F800A057E72D9AF64813B22E9AB0F975
:1052A0000610B0F9040012B204931746FFF75EFD32
:1052B0000790F048B0F902100798FFF73BFD009007
:1052C000329828B14FF4E1600099FFF733FD009068
:1052D000E8483A46049BB0F90610B0F90400FFF71D
:1052E00063FD0746282824DD0098B0F5167F1CDAF8
:1052F00010F5167F19DDFBF7C9F9DF4ADF4BFBF725
:1053000048F9CDE9001000F0F3FF0022DC4BFBF779
:10531000CEF8FBF7E5F9A9F80400DDE900104F46E7
:10532000FFF77EFB0022D64B52E0022088F80000F7
:10533000C7E00A2F25DD0098FBF7A8F9CE4ACF4B2E
:10534000FBF727F90091039000F0D2FFCDE90801A7
:10535000C7EB07104000FBF799F9CDE90101DDE942
:105360000823FBF7A4F8FBF7BBF9A9F804004F46A4
:1053700000990398FFF754FB02460B46DDE9010153
:1053800026E0042F2BDD0098FBF780F9BA4ABB4BCF
:10539000FBF7FFF8CDE9020100F0AAFFCDE9080113
:1053A000C7EB07104000FBF771F9CDE90010DDE90C
:1053B0000823FBF77CF8FBF793F9A9F80400DDE973
:1053C00002014F46FFF72CFB02460B46DDE90010B9
:1053D000FBF76DF8FBF784F9F8803C8171E002205F
:1053E00088F8000031984746401CC0B231902E9892
:1053F0002C280ED0162812D0132816D026281AD002
:105400005D2822D0E6282CD0EA283BD00F2844D0B3
:105410004DE02D9826284AD10120329047E02D9862
:10542000342844D14FF4AF6133E02D98B0F5827F3A
:105430003DD100202AE02D98BE2838D10B203870AD
:105440000425FF20B872284608E02D98F0282ED1B8
:105450000B203870032587F80AA0062088F80B0077
:1054600009E02D98672822D10B2038700620B872E9
:10547000022588F80BA0FBF779FBFFF7ABFA0120B8
:10548000159014E02D98132811D101204FF47A7152
:1054900032900420FEF7A8F909E02D98122806D1D1
:1054A0004FF4AF610420FEF79FF9FD207870319929
:1054B00016A830F821102E91319900EB8100408818
:1054C0002D90329800287DD0B9F804104942A9F8EF
:1054D0000410B9F806104942FEE357BB6548B0F91D
:1054E000200010F1280F24DD282822DA149911F168
:1054F000780F1EDD78291CDA4FF44871A9F80610E0
:1055000013998000491CC9B21391A9F804000598A9
:1055100000EB40004000FBF7B9F8074603911498F0
:10552000FBF7B4F80022574BFAF7C1FF3A46039B4A
:1055300018E05048A9F80640008C00EB8000A9F85C
:105540000400059800EB40004000FBF79FF8074679
:1055500001911498FBF79AF800224A4BFAF7A7FF3B
:105560003A46019BFAF7FCFEFBF7BAF8A9F80800E7
:105570002F98002807DD4FF46170A9F804002F98D8
:10558000A0F1010007E007DA4FF67C41A9F804100A
:105590002F9800F101002F9098F80600424640B184
:1055A000D07930B1159820B94FF001001590FFF770
:1055B00011FA107918B1507908B1159820B91398DB
:1055C000642800E07EE07DD900201390FFF71CFAEC
:1055D0000D201070012D06D0022D07D0032D08D00C
:1055E000042D0AD00CE0D07A401C04E0907A401ED2
:1055F00005E0D07A401ED07202E0907A401C907292
:10560000904692F90B2098F90A10AFF20040FEF78D
:1056100091FB4FF480511C48FBF778FE28B3002023
:1056200002904FF400511848FBF770FEF8B10027C4
:105630004FF480411448FBF769FED0B10020029975
:105640000523890001EB40000744CDE900A798F845
:105650000B1098F80A00491CCAB2401CC1B2E8B24B
:10566000FEF717F8FF2813D034E00120D8E7012710
:10567000DEE70BE04005002048E17A14AEE7814008
:1056800000C0924000000440001001400120D6E715
:10569000FBF76CFAF7480CABC17A827A491C521CB2
:1056A000C9B2D2B2CDE90121CDE90373417A491CD7
:1056B000C9B20091007A98F80B10401C491CC3B283
:1056C000CAB200E0BDE098F80A00401CC1B2E8B2DE
:1056D000FDF7F2FF18B130900B280BD007E0042D36
:1056E00001D03098F8E70F203090012033904FF42C
:1056F0009671F1E240F21450A9F80600A1E0D7BB80
:10570000DC48B0F9200010F1280F3ADD282838DAFB
:10571000149911F1780F34DD782932DA30990B2998
:105720002AD04FF49672A9F8062013998000491CDC
:10573000C9B21391A9F80400059800EB400040009D
:10574000FAF7A4FF074601911498FAF79FFF002289
:10575000C94BFAF7ACFE3A46DDF80430FAF700FE22
:10576000FAF7BEFFA9F8080098F80200424610B305
:10577000D07838BB1FE004E040F21451A9F80610BD
:10578000D3E7BC48A9F80640008C00EB8000A9F8DC
:105790000400059800EB40004000FAF777FF074649
:1057A00003911498FAF772FF0022B34BFAF77FFEC9
:1057B0003A46039BD2E7907908B1D07910B9139893
:1057C00064289BD9FFF706F9002015901390A9F8DB
:1057D0000440A848A9F80640A9F80840B0F902001A
:1057E00007903098107030980B2883D00E2885D001
:1057F0000F28FCD01028FAD04FF67C40A9F80600FC
:105800000120FDE34FF650309A4BA9F808004A46B4
:10581000B3F902100798FFF78DFAB0F5FA7F02DDB1
:105820004FF60C601081B3F902100798FFF782FA67
:10583000B0F5487F05DD14816D1C45E0152088F822
:10584000000068E14FF496608A4BA9F808004A46C8
:10585000B3F902100798FFF76DFA10F5FA7F02DA34
:105860004FF4FA701081B3F902100798FFF762FA4B
:1058700010F5487FE5DA14816D1E25E04FF496603F
:105880007C4BA9F808004A46B3F902100798FFF7C5
:1058900051FA10F5AF6F04DA00E0FCE34FF4FA7050
:1058A0001081B3F902100798FFF744FA40F2A4619F
:1058B000C84207DBB3F902100798FFF73BFAB0F5CF
:1058C000617FBEDD1481AD1C6DB2FFF783F800204F
:1058D0001590129033980028B0D10B2188F8001051
:1058E00019E198F80500424638B1D07928B11598E9
:1058F00018B901201590FFF76DF81079904650B156
:1059000098F8060038B1159828B1129818B90120F6
:105910001290FFF76DF8AFBB5648B0F9240010F1B4
:10592000240F50DD24284EDA149911F1780F4ADD46
:10593000782948DA129911B19DF8301089B34FF6E1
:105940001842A9F804201399491CC9B21391800088
:10595000A9F80600059800EB40004000FAF796FE13
:10596000074600911498FAF791FE0022424BFAF78D
:105970009EFD3A46DDF80030FAF7F2FCFAF7B0FE89
:1059800002E0E0E31FE0D2E3A9F808002B9800282A
:1059900033DD4FF67C41A9F806102B98A0F10100E9
:1059A00032E0FFE74FF6D462A9F804202C990229CF
:1059B00003D0491C49B22C91C9E71399491CC9B2BB
:1059C00013910021F7E72B48A9F80440808C00EBE5
:1059D0008000A9F80600059800EB40004000FAF7A7
:1059E00055FE074601911498FAF750FE0022224B0B
:1059F000FAF75DFD3A46019BBEE706DA4FF46170A7
:105A0000A9F806002B98401C2B90129850B198F8DA
:105A10000810404609B1417A39B9417911B198F875
:105A2000070010B91398642875D900202C90FEF750
:105A3000D1FF0020129015901390A9F80440A9F806
:105A40000640A9F80840012D06D0022D08D0032DEC
:105A50000AD0042D12D016E098F80A10491E06E06C
:105A600098F80B10491E0CE098F80A10491C88F8A9
:105A70000A1008E0400500200000044098F80B10D0
:105A8000491C88F80B1098F90B2098F90A10AFF60A
:105A90008400FEF74FF94FF48071FE48FBF736FCA7
:105AA000C0B300274FF48041FA48FBF72FFC98B3AE
:105AB0005FF0000001904FF40041F648FBF726FC30
:105AC00058B30020C00000EB87010198F24F01EBB2
:105AD00040000B90FA7ABB7A0CA9521C5B1CD2B224
