:020000040800F2
:10000000780C0020450100081D37000879220008FF
:1000100059310008410B0008753D00080000000040
:100020000000000000000000000000002938000867
:10003000370C0008000000001F3700085D3800087A
:100040005F0100085F0100085F0100085F01000810
:100050005F0100085F010008390C0008850C0008EA
:100060008D0C0008D10C0008D70C00085F010008B7
:10007000DD0B0008E90B00085F0100085F010008C4
:10008000F50B0008010C00085F0100085F01000883
:100090005F0100085F0100085F010008DD0C000837
:1000A0005F0100085F0100085F0100085F010008B0
:1000B0005F0100085F0100085F0100085F010008A0
:1000C0005F0100085F0100085F0100085F01000890
:1000D0005F0100085F0100085F0100085F01000880
:1000E000410C00085F0100085F0100085F01000883
:1000F0005F0100085F0100085F0100085F01000860
:100100005F0100085F0100085F0100085F0100084F
:100110005F0100085F0100085F0100085F0100083F
:100120005F0100085F0100085F0100085F0100082F
:10013000DFF80CD000F036FC00480047154E0008F0
:10014000780C00200648804706480047FEE7FEE797
:10015000FEE7FEE7FEE7FEE7FEE7FEE7FEE7FEE777
:10016000BD38000831010008202A04DB203A21FABA
:1001700002F00021704721FA02F3D040C2F12002C0
:100180009140084319467047D2B201E000F8012BB4
:10019000491EFBD270470022F6E710B513460A4607
:1001A00004461946FFF7F0FF204610BDF0B480EA80
:1001B0000102D40F4200B2EB410F02D202460846C0
:1001C00011464A0042D0C30DDDB2C1F3C752AD1A89
:1001D000202D35DAC1F3160141F4000204B1524278
:1001E000C5F1200602FA06F12A411044B3EBD05FB4
:1001F00023D0C4B1012DA0EBC35009DCF0BC4FF0FB
:10020000004202EAC352DBB200F5000000F0EEBA91
:10021000400000F1807000EBC350A0F1807040EA14
:10022000D170490009E0490841EAC071A0EBC35010
:1002300000F50000400800EBC350F0BC00F0CDBA60
:100240006142012202EB4101001BF6E7F0BC70475E
:1002500081F00041AAE780F00040A7E780EA0102B0
:1002600010B502F00043400022D04A001FD0010E1A
:1002700001EB1261C0F35600C2F3560240F40000D5
:1002800042F40002A0FB022000047F39140400D0D5
:10029000401C50EA124001D44000491EC2B20C0674
:1002A00004EBD010401C4008802A02D003E000205C
:1002B00010BD20F00100002900DA0020184310BD15
:1002C00030B480EA010202F0004530F0004221F033
:1002D000004013D090B1C30DD40DC2F31601C0F38A
:1002E0001600E41A41F4000140F400027D3491420A
:1002F00001D3641C00E04900002C02DA30BC00206D
:1003000070474FF400000023914201D3891A034340
:1003100040084FEA4101F7D151B1914202D14FF06B
:10032000004105E002D24FF0010101E06FF0010150
:1003300003EBC450284430BC00F04FBA2DE9FE4F07
:10034000804681EA0300C00F0C46009021F0004176
:1003500023F00045B8EB0200A94105D240462146F2
:1003600090461C460B46024623F00040104347D0FF
:10037000270DC7F30A00C3F30A510290401A0190F7
:1003800040286BDAC3F3130040F4801B00989246B8
:1003900020B10023D2EB030A63EB0B0B0198594603
:1003A000C0F14002504600F0F7F906460D465046AF
:1003B0005946019A00F0FFF910EB08006141002452
:1003C00087EA115284EAE7731A4340D0009A62B375
:1003D000019A012A4FEA075215DC001B61EB02016A
:1003E0004FF0004202EA0752CDE90042001C41F5FD
:1003F000801132462B4600F036FA03B0BDE8F08F8C
:1004000040462146F9E7001B61EB0201001C41F563
:10041000801300185B412018A2F5001747EB030179
:1004200040EAD570B6196D4111E06D084FEA360605
:1004300045EAC0754FEA0752001B61EB0201001C40
:1004400041F5801149084FEA300000195141324608
:100450002B4603B0BDE8F04F00F0F6B9009801223A
:1004600040000023D0EB020263EBE07300982146CA
:100470004FEAE074B8EB000061EB0401E9E783F0B8
:1004800000435BE781F0004158E72DE9FE4F81EA28
:10049000030404F0004421F0004100944FF0000BED
:1004A00023F0004350EA01045ED052EA03045BD01B
:1004B000C3F30A54C1F30A552C44A4F2F334019453
:1004C000A0FB0254C1F3130141F48011C3F31303E1
:1004D00043F4801301FB024400FB034E840A970A95
:1004E00044EA815447EA8357A4FB076802958D0AC2
:1004F00005FB07854FEA932C04FB0C542705029D4E
:100500004FEA065847EA1637B5EB08056EEB070CBD
:10051000870E920E47EA811742EA8312A7FB020177
:10052000B6EB0B0164EB00042B0D43EA0C335E18B1
:1005300044EB1C50DA465146E7FB0201C5F31304B5
:100540004FEA0B3343EA14534FEA0432019C43EA67
:100550000603A4F10C040294009CCDE900B400F061
:1005600082F903B0BDE8F08F00200146F9E72DE9DC
:10057000F04D81EA030404F0004B21F000451446DD
:100580004FF0000A23F0004150EA050220D054EA5F
:1005900001021DD0C5F30A570246C5F31303C1F388
:1005A0001300C1F30A5640F4801543F48013A7EBFF
:1005B0000608101BD64608F2FD3873EB050002D37F
:1005C00008F1010801E092185B41B8F1000F03DA6D
:1005D00000200146BDE8F08D00204FF48011064652
:1005E00084460EE0171B73EB050705D3121B63EB64
:1005F000050306434CEA010C49084FEA3000921803
:100600005B4150EA0107EDD152EA030012D082EAC1
:10061000040083EA0501084305D0101BAB4106D254
:100620000122002306E000224FF0004302E06FF0B9
:10063000010253101AEB06004CEB085110EB0A00B4
:1006400041EB0B01BDE8F04D00F0FEB8C10F80EAB0
:10065000E0700844CA079623002100F0C7B896232B
:100660000022114600F0C2B80EB5C10F80EAE0705A
:100670000844CA07002140F233438DE80E000A46C1
:100680000B4600F0F0F803B000BD00F0004220F08F
:100690000040C10DC0F3160040F400007F2901DACC
:1006A00000207047962903DCC1F19601C84001E0A3
:1006B00096398840002AF4D04042704770B5C1F3A3
:1006C0000A5201F000450024C1F3130140F2FF3348
:1006D00041F480119A4201DA002070BD40F23343A8
:1006E0009A42A2F2334203DC5242FFF73DFD00E0A2
:1006F00090402C43F1D0404270BD00F0004230F0F9
:1007000000400AD0C10D01F56071C0F3160042EA45
:100710000151C2084007114370470020014670474D
:1007200001F0004330B421F0004150EA010206D04C
:100730000A0DA2F56072C1F31301002A02DC30BC7D
:1007400000207047440F44EAC104C100E01830BCE7
:1007500000EBC25000F041B8002801DBC0F10040BE
:10076000002901DBC1F100418842704730B50B46DA
:10077000014600202022012409E021FA02F59D42D1
:1007800005D303FA02F5491B04FA02F52844151EA5
:10079000A2F10102F1DC30BD202A04DB203A00FA8C
:1007A00002F1002070479140C2F1200320FA03F3C8
:1007B000194390407047202A06DBCB17203A41FAB4
:1007C00002F043EAE07306E041FA02F3D040C2F1DE
:1007D000200291400843194670470029A8BF70477E
:1007E000401C490008BF20F00100704710B4B0FA67
:1007F00080FC00FA0CF050EA010404BF10BC704702
:1008000049B1CCF1200421FA04F411FA0CF118BF1B
:10081000012121430843A3EB0C01CB1D4FEA0061EA
:100820004FEA102042BF002010BC704700EBC350BD
:1008300010440029A4BF10BC7047401C490008BFE9
:1008400020F0010010BC704710B5141E73F10004B5
:1008500008DA401C41F1000192185B411A4301D1B2
:1008600020F0010010BD2DE9F04D92469B4611B1DC
:10087000B1FA81F202E0B0FA80F220329046FFF73E
:100880008BFF04460F4640EA0A0041EA0B0153463B
:100890005A46084313D0114653EA010019D0C8F153
:1008A00040025046FFF760FC05460E46504659464A
:1008B0004246FFF771FF084305D0012004E02046BF
:1008C0003946BDE8F08D0020054346EAE0762C432A
:1008D00037430A986305E40AA0EB08000022FD0AEA
:1008E00044EA47540A3002D500200146E9E70105F1
:1008F00010196941DDE9084500196941BDE8F04D6D
:10090000A2E72DE9F04D00231A461B1A8A4103DBAA
:1009100000200146BDE8F08DC1F30A52C1F3130176
:1009200041F480154FF0000BD10702D100186D4142
:10093000521E0027044640F2FF11384601EB620ABE
:100940003E468046024600204FF48011FFF70CFC23
:10095000C2197141BB1846EB0100B4EB030C75EBF7
:10096000000C04D3E41A65EB000517460E46241963
:1009700008F101006D4180463428E3DDF91946EBAA
:100980000600091BA84103D24FF0FF32134601E0D5
:10099000002213461BEB070046EB0A51BDE8F04D61
:1009A000FFF752BF064C074D06E0E06840F0010338
:1009B00094E8070098471034AC42F6D3FFF7BCFB2D
:1009C000786300089863000870B521F00043034382
:1009D0000CD0C1F30A550024D5EB040564EB0403E5
:1009E000D617AD1AB34102DB0020014670BD2018B6
:1009F00041EB025170BD0EB540F23341029100212E
:100A0000CDE900110A460B46FFF72DFF03B000BDEC
:100A10001A4B012A03EBC11101EB00100ED0022A80
:100A200017D0032A1FD0042A07D1017841F008010A
:100A30000170017C41F0020101747047017841F0BE
:100A40000101017090F8801041F0040180F88010DD
:100A5000704710F8101941F002010174017841F05B
:100A6000080101707047017841F00401017010F82D
:100A7000801C41F0010100F8801C704790000020AC
:100A80002DE9F0412A4E01272A49307800241546E5
:100A900005284AD2DFE800F0030A0C0A14000C70A3
:100AA00001222449244801F00BFB3770BDE8F08196
:100AB00002222148491C01F003FB03203070F5E7B6
:100AC0004878302831D188781C496D2811D0782891
:100AD00012D04FF4FA72772810D0514273280FD0F9
:100AE000612810D0642811D0712813D0652815D042
:100AF00017E0FF20087014E00C7012E0EA8000E0BC
:100B0000E980AC8004E0EC80A98001E0EC80AA8060
:100B10002C8106E0EC80AC80298102E0EC80AC8086
:100B20002A81AF7200F00EFC28603470BEE700002E
:100B30001400002054000020E406002019000020CA
:100B4000FEE7000070B50021224C0B46002004EBAC
:100B5000C11200BF02EB001501282B7002D006283D
:100B600006D00CE0167C02F1100546F0020605E006
:100B700092F8606002F1600546F008062E700129C7
:100B800002D0062908D00EE0124D803505EB001585
:100B90002E7846F0040605E00F4D05EB00152E7883
:100BA00046F001062E70401C0828D3DB491C08299A
:100BB000CCDB0124C4F10605E9B2E0B20122FFF763
:100BC00027FFE9B2E0B20422FFF722FF641C062CE3
:100BD000F0DB70BD9000002090030020014800F081
:100BE000BDB8000030080020014800F0B7B8000090
:100BF000EC070020014800F0B1B8000064070020B5
:100C0000014800F0ABB80000A807002030B590F80C
:100C100040500124AC40C56B6C600468636043685D
:100C2000102B036803D099600068C26030BD9A60E1
:100C30000068C16030BD7047012000F071BA00004B
:100C400070B50C480168090413D54FF400440460E2
:100C50000421094800F06CFB05462146074800F0D6
:100C600067FB07498542088801D1401E00E0401C0F
:100C7000088070BD14040140000C014000080140D0
:100C80000C000020022000F04BBA00000C4810B508
:100C90000168490712D5042101600A4800F048FBA9
:100CA00004464FF40041084800F042FB07498442E3
:100CB000088801D1401C00E0401E088010BD0000E3
:100CC00014040140000C0140000801400C00002009
:100CD000082000F025BA102000F022BA10B54020FC
:100CE00000F01EFA802000F01BFA4FF4807000F034
:100CF00017FABDE810404FF4007000F011BAFEE79B
:100D000070B512494268124CB1F90030D21A4260F3
:100D10002368426D5B6A1BB2D21A42650D4AC36AF0
:100D200015686D6A2DB25B1BC3620B4BC56F1E68E5
:100D3000766A36B2AD1BC56700200880216848621C
:100D4000116848621968486270BD00000C000020FC
:100D5000A4050020E4050020240600202DE9F05F12
:100D6000C16B0A6801680B68046C4FF0040808FA4C
:100D700004F8844D844E854FDFF814C2DFF81492D6
:100D8000DFF814A2DFF814B2DFF814E218EA020F59
:100D900065D05FEA437862D50A68920603D40A6890
:100DA00022F004020A60DFF8F0814FF480620168EB
:100DB00008F1140813011402414524D9A9420DD0A9
:100DC000B1420FD0B9421AD0614515D0494515D06E
:100DD000514501D1120312E0594501D104220EE020
:100DE000714501D140220AE06D4D1435A94206D06B
:100DF0006B4A2832914201D11A4600E022466749E7
:100E0000091F0A6029E0A94213D0B14215D0B942A6
:100E100020D061451BD049451BD0514502D14FF42C
:100E2000800217E0414502D14FF0806212E059453F
:100E300001D104220EE0714501D140220AE0584D53
:100E40001435A94206D0564A2832914201D11A4699
:100E500000E022464B4908394A60C16A71E04FF010
:100E6000020808FA04F818EA020F70D05FEA8378E3
:100E70006DD50A68920606D40A6822F00A020A6052
:100E8000012180F82110DFF810814FF40072016811
:100E900008F1140813011402414524D9A9420DD0C8
:100EA000B1420FD0B9421AD0614515D0494515D08D
:100EB000514501D1120312E0594501D102220EE041
:100EC000714501D120220AE0354D1435A94206D0E2
:100ED000334A2832914201D11A4600E022462F4976
:100EE000091F0A6029E0A94213D0B14215D0B942C6
:100EF00020D061451BD049451BD0514502D14FF44C
:100F0000001217E0414502D14FF0007212E059453E
:100F100001D102220EE0714501D120220AE0204DCC
:100F20001435A94206D01E4A2832914201D11A46F0
:100F300000E02246134908394A60002180F8201059
:100F4000816A00291CD0BDE8F05F0847FFE708254B
:100F5000A540154214D01A0712D50A6822F00E02D5
:100F60000A6090F84020C36B012101FA02F25A6036
:100F7000816380F82110002180F82010016BE0E7E8
:100F8000BDE8F09F080002401C0002403000024013
:100F900044000240580002406C0002400804024035
:100FA0001C04024030B560B11A4B026814219A4209
:100FB00009D2194B1344B3FBF1F1890001641749BD
:100FC0000AE0012030BD134B5B421344B3FBF1F147
:100FD000890001640F490839C163022180F821109A
:100FE000136843F6F0718B43F0E901142143D0E913
:100FF00002452C4321430469214344692143846908
:101000002143194311600021416301224277017796
:10101000084630BD08040240F8FFFDBF0000024052
:1010200070B5044690F82000002501280CD001205E
:1010300084F8200094F821600020012E06D084F866
:1010400020000225284670BD022070BD022684F8CB
:101050002160A0632068066826F00106066020462D
:10106000FFF7D4FDE06A00282068016802D041F053
:101070000E0106E021F0040101602068016841F0E2
:101080000A0101602068016841F001010160D9E7AF
:10109000224A01231028117815D0082819D0B0F55C
:1010A000007F1CD0B0F5807F1FD0802823D002287D
:1010B00027D040282BD0012804D1122901D0132990
:1010C00000D1D37170470D2901D01329FAD1937043
:1010D00070470D2901D01329FAD1D3707047112917
:1010E00001D01229FAD113727047112901D01229A7
:1010F000FAD153727047112901D00B29FAD113711B
:101100007047112901D01329FAD193717047122920
:1011100001D00B29FAD1537170470000180000204C
:10112000044910B50A68024202D00860FFF7B0FF18
:1011300010BD0000140401402DE9F84FDFF8C891FC
:10114000002409F1040A0AF1040B23460F270BF1CE
:10115000040ED1E00125A54006EA0502AA4276D197
:10116000DFF8A8C14E68A6EB0C0866452BD00DDC55
:10117000032E34D005DC36B3012E19D0022E2FD128
:101180001BE0112E16D0122E2AD119E0B8F5881FB7
:1011900019D006DCB8F5803F15D0B8F5801F1FD1F7
:1011A00011E0B8F5001F0ED0B8F5041F18D10AE001
:1011B000CB6815E0CB681B1D12E0CB6808330FE04D
:1011C000CB680C330CE08B682BB1012B4FF008037C
:1011D00003D0456104E0042302E0056100E0002340
:1011E000FF2A01D8064601E000F104064FEA840513
:1011F00001D9A5F12005D6F8008007FA05FC28EAF8
:101200000C0803FA05F548EA0508C6F800804D68A1
:10121000ED0070D53E4DAE6946F00106AE61AD6998
:1012200024F0030605F0010500953A4D06EB050C88
:10123000DCF80850A607360F07FA06F825EA080575
:10124000DFF8D480404503D14FF0000825E052E09C
:10125000DFF8C880404502D14FF001081DE0DFF8FB
:10126000C080404502D14FF0020816E0DFF8B4809C
:10127000404502D14FF003080FE0DFF8AC80404555
:1012800002D14FF0040808E0DFF8A080404502D109
:101290004FF0050801E04FF0060808FA06F848EAA2
:1012A0000508CCF808804D68D9F80060ED034D467C
:1012B00001D5164300E096432E604D68DAF80060D1
:1012C000AD03554601D5164300E096432E604D68A8
:1012D000DBF80060ED025D4601D5164300E0964361
:1012E0002E604D68DEF80060AD02754601D51643EC
:1012F00000E096432E60641C0A681646E2407FF4C4
:1013000029AFBDE8F88F0000000401400000111073
:10131000001002400000014000080140000C0140A4
:10132000001001400014014000180140001C014061
:101330008068084000D0012070470AB10161704701
:101340000904FBE701488068704700002C0000207A
:101350000248816802781144816070472C000020A7
:10136000074810B5016841F010010160032000F04A
:1013700075F8002000F006F800F024F8002010BDF9
:101380000020024070B50D4D04464FF47A71287864
:10139000B1FBF0F00A490968B1FBF0F000F0ECFA9B
:1013A00048B9102C07D200222146501E00F036F812
:1013B00000206C6070BD012070BD00002C0000207A
:1013C000380000200C4808B5816941F001018161B5
:1013D000816901F001010091C16941F08051C16151
:1013E000C06900F0805000900448416821F0E0613D
:1013F00041F00071416008BD001002400000014052
:10140000002809DB00F01F02012191404009800003
:1014100000F1E020C0F8001170470000F0B40E4B5E
:101420001B680C46C3F30223C3F10705042D00D942
:101430000425191D072901D2002300E0DB1E012627
:1014400006FA05F1491E214099409E40761E16403D
:101450003143F0BC02F0B4BC0CED00E0064900F0F2
:10146000070208684FF6FF03184040EA0220034ACB
:1014700010430860704700000CED00E00000FA0522
:101480002DE9F0470F46050061D0434E306800F06B
:101490000700B84209D2306820F0070038433060B6
:1014A000306800F00700B84251D128683B4C8107F2
:1014B00012D5400703D5606840F4E060606028788A
:1014C000000703D5606840F4605060606068A968F8
:1014D00020F0F000084360602878C00728D06868D2
:1014E000012810D02168022810D0890700292EDA9F
:1014F000616821F0030101436160FFF723FF80462B
:1015000041F288390DE021688903EFE78901EDE7B1
:10151000FFF718FFA0EB0801494502D90320BDE8F9
:10152000F0876068696800F00C00B0EB810FEFD1C4
:10153000306800F00700B8420BD9306820F007008F
:1015400038433060306800F00700B84201D0012015
:10155000E5E72878400705D56068E96820F4E06091
:10156000084360602878000706D56068296920F480
:10157000605040EAC100606000F038F86168084AD5
:10158000C1F30311515CC840064908600648006871
:10159000FFF7F8FE0020C2E70020024000100240E2
:1015A0009C610008380000203000002004480549F4
:1015B00000684968044AC1F30221515CC840704781
:1015C0003800002000100240AC61000804480549C2
:1015D00000684968044AC1F3C221515CC8407047A1
:1015E0003800002000100240AC61000812A185B054
:1015F0000FC98DE80F0014A0144A006804905168C8
:10160000134801F00C03042B10D0082B0ED1C1F3AA
:101610008343C9031DF803000AD5516804AAC1F326
:101620004041515C0A4A5043B0FBF1F005B07047AD
:1016300008494843FAE700000203040506070809C1
:101640000A0B0C0D0E0F10100102000000100240DA
:1016500000127A0000093D002DE9F84F040070D017
:101660002078C04DC00749D06868C0F381000128C8
:1016700007D06868C0F38100022809D16868C003F8
:1016800006D52868800339D560680028E7D035E0A2
:101690006068B0F5803F0BD010B1B0F5A02F11D02D
:1016A000286820F480302860286820F4802002E038
:1016B000286840F480302860606890B1FFF742FEEF
:1016C00006460AE0286840F480202860F0E700BF62
:1016D000FFF738FE801B642873D828688003F7D58D
:1016E0000CE0FFF72FFE064605E000BFFFF72AFEDD
:1016F000801B6428F0D828688003F7D420789A4E9D
:1017000080074FF001094FF0000839D5686810F0E4
:101710000C0F07D06868C0F38100022809D16868FF
:10172000C00306D42868800714D52069012808D191
:1017300010E02069B0B1C6F80090FFF703FE07463D
:1017400005E00AE1FFF7FEFDC01B0228C4D82868A7
:101750008007F7D52868616920F0F80040EAC100E9
:1017600028600DE0C6F80080FFF7ECFD074604E0B6
:10177000FFF7E8FDC01B022823D828688007F7D4AC
:10178000207800072CD57948A169D9B1C0F800901C
:10179000FFF7D8FD074604E0FFF7D4FDC01B022881
:1017A0000FD8686A8007F7D571484FF4FA5100687E
:1017B000B0FBF1F0009000BF0098411E0091FAD2FA
:1017C0000EE080E0C0F80080FFF7BCFD074604E0B3
:1017D000FFF7B8FDC01B022875D8686A8007F7D4E8
:1017E0002078400760D5E8690027C00008D4E86980
:1017F00040F08050E861E869012700F080500090D7
:101800005C480168C90513D40168834641F48071BE
:101810000160FFF797FD824606E000BFFFF792FDEB
:10182000A0EB0A0064284ED8DBF80000C005F5D50F
:10183000E06801280AD008B1052813D0286A20F0F2
:1018400001002862286A20F0040002E0286A40F0C3
:1018500001002862E06841F2883B98B1FFF772FD11
:1018600082460BE0286A40F004002862EEE700BFE1
:10187000FFF768FDA0EB0A0159455AD8286A80078E
:10188000F6D50CE0FFF75EFD824605E0FFF75AFD56
:10189000A0EB0A0159454CD8286A8007F6D41FB13D
:1018A000E86920F08050E861E06988B36968C1F3B5
:1018B0008101022944D00228C6F8608004D0FFF7D5
:1018C00041FD044638E034E0FFF73CFD074604E004
:1018D000FFF738FDC01B02282BD828688001F7D4F9
:1018E000206AB0F5803F05D16868A16820F4003017
:1018F00008436860D4E908010843696821F4741159
:1019000008436860C6F86090FFF71CFD044606E0D7
:1019100025E000BFFFF716FD001B022809D8286844
:101920008001F7D51BE000BFFFF70CFD001B02286C
:1019300002D90320BDE8F88F28688001F4D40EE0B6
:101940000128F7D06868226A00F48031914204D1FE
:10195000616A00F47010884201D00120EAE700209B
:10196000E8E70000001002400000424280044242CA
:10197000380000200070004010B5401EB0F1807F9C
:1019800001D3012010BD4FF0E02460610F216017EA
:1019900002F016FA0020A06107202061002010BD8F
:1019A00010B590F83C20012A22D0012280F83C207A
:1019B000CA688C6822F4407222434C6822F4806228
:1019C00022430C6822F4006222430C6922F4805204
:1019D00022434C6922F400522243C969002322F4B5
:1019E00080420A4301684A6480F83C30002010BD00
:1019F000022010BD70B590F83C20012A19D00124B6
:101A000000F83C4F0222427050F83C3C5A689D68F6
:101A100022F070060A684968324325F080052943A0
:101A20005A6050F83C2C91604470002101700846C7
:101A300070BD022070BD10B5040003D094F83D00C5
:101A400010B107E0012010BD002084F83C002046C2
:101A500000F00CF8022084F83D00211D206801F000
:101A600051FF012084F83D00002010BD08B5016839
:101A70001148B1F1804F0BD0104A914210D1C16989
:101A800041F01001C161C06900F01000009008BD74
:101A9000C16941F00101C161C06900F00100F5E7D1
:101AA000074A9142F3D1816941F400518161806913
:101AB00000F40050EAE7000000100240001000406F
:101AC0000034014070B5044690F83C00012817D05E
:101AD000012584F83C50022084F83D00206882688B
:101AE00022F0770222F47F4282600868502830D0CA
:101AF0000DDC20284DD005DC98B310283BD148E000
:101B0000022070BD302844D0402834D139E060280C
:101B100028D0702806D0B0F5805F2CD0B0F5005FDB
:101B200029D10AE0CB68D1E90121206801F03DFF0D
:101B30002068816841F0770109E0CB68D1E9012193
:101B4000206801F032FF2068816841F480418160A3
:101B500011E0CA684968206801F0FCFF5021206844
:101B600007E016E0CA684968206802F004F86021BE
:101B7000206801F024FF84F83D50002084F83C00E8
:101B800070BDCA684968206801F0E4FF4021206800
:101B9000EFE7226801461046EBE72DE9F0410D46DC
:101BA000040003D094F83D0018B108E00120BDE81E
:101BB000F081002084F83C00204600F03BF8022031
:101BC00084F83D002068816844F2070291438160F7
:101BD000211D206801F096FE226890689169166ABE
:101BE0002B68AF69034340F20330814341EA072188
:101BF000A868EF6908434FF6FC418843E96840EA6A
:101C00000720014328692F6A000140EA0730084392
:101C100069686D6926F0220646EA05152943936036
:101C20002268906120680162012084F83D00002054
:101C3000BDE7000000B585B000210091019102913F
:101C400003912B4B02682B492B489A421FD1CA693A
:101C500042F00202CA61CA6902F0020204928A6971
:101C600042F008028A61896901F00801049130217B
:101C700000916946FFF760FA2048416821F440610D
:101C800041F0E06141F40061416005B000BD1C4BD2
:101C90009A4213D1CA6942F00402CA61CA6902F0C9
:101CA000040204928A6942F008028A61896901F09B
:101CB00008010491C0210091694616E01148824252
:101CC000E3D1C86940F00800C861C86900F00800A5
:101CD0000490886940F0040088618869694600F0D2
:101CE00004000490032000900748FFF725FACCE792
:101CF0000004004000100240000C014000000140C0
:101D000000080040000C00400008014010B50446E7
:101D1000006891B1042904D00122002101F038FEAD
:101D2000206801225FF0040101F032FE20680168A2
:101D300041F001010160002010BD01220021F3E704
:101D400000B585B0002100910191029103910068D6
:101D50000B49884212D10B48816941F01001816121
:101D60008069694600F0100004904FF40070009004
:101D70000220019003900448FFF7DEF905B000BD92
:101D800000340140001002400010014070B50446CC
:101D900090F83C000D4601280DD0012684F83C60E7
:101DA000022084F83D0042B1042A18D0082A2AD023
:101DB0000C2A4DD139E0022070BD206801F008FEE8
:101DC0002068816941F0080181612068816921F002
:101DD00004018161206881692A69114311E020684A
:101DE00001F026FE2068816941F40061816120686C
:101DF000816921F480618161206881692A6941EAF1
:101E00000221816124E0206801F048FE2068C16958
:101E100041F00801C1612068C16921F00401C1617C
:101E20002068C1692A69114311E0206801F06AFE47
:101E30002068C16941F40061C1612068C16921F471
:101E40008061C1612068C1692A6941EA0221C161DA
:101E500084F83D60002084F83C0070BD10B504009B
:101E600003D094F83D0010B107E0012010BD002020
:101E700084F83C00204600F00CF8022084F83D0075
:101E8000211D206801F03EFD012084F83D00002066
:101E900010BD704710B504460068012201F078FDBE
:101EA0000B492068884202D00A49884203D1416C1C
:101EB00041F4004141642068816801F0070106296E
:101EC00003D0016841F001010160002010BD000055
:101ED000002C014000340140704770B5040004D06C
:101EE00094F83900002510B106E0012070BD84F897
:101EF0003850204600F022F8242084F83900206869
:101F0000C16821F40051C160204601F0A5FE20689F
:101F1000016921F4904101612068416921F02A01A1
:101F200041612068C16841F40051C160E56320202F
:101F300084F8390084F83A00002070BD2DE9F041A2
:101F400086B0002500950195029503950446514FF2
:101F5000036851480221032280264FF01008BB423B
:101F600045D1C36943F40033C361C36903F400334B
:101F70000493836943F0040383618069474F00F051
:101F8000040004900420CDE900010392694638461C
:101F9000FFF7D2F80820CDE900050120029069463C
:101FA0003846FFF7C9F83F4F3D48C7E90005C7E984
:101FB00002563D617D61BD613846FD61FEF7F2FF6D
:101FC00008B1FEF79CFE67637C62374F3448C7E96F
:101FD00002563D617D61BD611430FD61C7E90008B5
:101FE000384650E027637C6206B0BDE8F0812F4F91
:101FF000BB42F9D1C36943F48023C361C36903F4CD
:1020000080230493836943F0100383618069039202
:1020100000F0100004903815CDE90001244F694606
:102020003846FFF789F8F814CDE9000569463846C7
:102030000295FFF781F81F48416821F0300141F017
:10204000E06141F01001416015481B4F3C38C7E981
:102050000005C7E902563D617D61BD613846FD61FD
:10206000FEF7A0FF08B1FEF74AFE67637C62134FDC
:102070000B48C7E902563D617D61BD615038FD6185
:10208000C7E900083846FEF78DFF0028AAD0FEF702
:1020900036FEA7E70044004000100240000801405F
:1020A0006C00024064070020A807002000480040A0
:1020B0000010014000000140EC0700203008002023
:1020C000F8B5044690F83A0020283CD1C1B3BAB321
:1020D00094F83800012836D0012084F83800A16235
:1020E000A2850025E563222084F83A00636B174837
:1020F0009862636B1648D862636B16481863606B0E
:10210000134645630846666B216802463046091D42
:10211000FEF786FF206801684168009184F8385016
:10212000C16841F48071C1602068416941F00101DA
:1021300041612068416941F0400141610020F8BDE2
:10214000FFE70120FBE70220F9E70000E53B00087C
:10215000213C00089B3B000830B5144D00220223AF
:1021600004241349A8420ED10878012803D003287B
:1021700000D10C7030BD0F480078312801D00A70B2
:1021800030BD0B7030BD0C4DA842FBD14878012802
:1021900003D00328F6D14C7030BD06480A300078D1
:1021A000FF2801D04A7030BD4B7030BDE4060020DE
:1021B00014000020540000202407002070472DE95F
:1021C000F843044690F839001F4616460D4620286D
:1021D00050D1A5B19EB194F8380001284AD0012011
:1021E00084F838004FF00008C4F83C80212084F8BF
:1021F0003900FFF7A7F8A6848146E68426E001208F
:10220000BDE8F883E08C401EE084A0684B46B0F542
:10221000805F4FF000024FF080012046009703D00E
:1022200001F076FDE8B90DE001F072FDC8B928882B
:102230002168C0F308004860206908B16D1C05E002
:10224000AD1C03E0216815F8010B4860E08C002804
:10225000D8D14B46002240212046009701F058FD7E
:1022600008B10320CCE7202084F8390084F83880B6
:102270000020C5E70220C3E7FEE70000044908B5D7
:102280008A6902438A6189690140009108BD0000A2
:1022900000100240F0B50A68C2F30F2595FAA5F2C6
:1022A000B2FA82F369E001229A402A4264D0082BF4
:1022B00003D240F201129A4006E0A3F108024FF067
:1022C0000114944044F0806292FAA2F700EB126489
:1022D000B7FA87F74FEA870C0F27266807FA0CF73B
:1022E000BE4392FAA2F7D1F804E0B7FA87F7BF002D
:1022F0000EFA07FE46EA0E0626600E69C7684FEA28
:10230000122C9CFAACFCBCFA8CFC27EA122706FAC9
:102310000CF63743C7604E68012E01D0092E2BD131
:1023200092FAA2F7B7FA87F74FEA870C032707FA62
:102330000CF72668D1F808E0BE4392FAA2F7B7FA84
:1023400087F7BF000EFA07FE92FAA2FC46EA0E06D5
:10235000BCFA8CFC4FEA8C0E4FF0040C26600CFA91
:102360000EFC92FAA2F2B2FA82F2CF68920026EA4A
:102370000C0697403E4326605B1C35FA03F292D16F
:102380000020F0BD30B591FAA1F400EB1160B4FA71
:1023900084F4A5000F24AC4091FAA1F10368B1FACE
:1023A00081F18900A3438A401343036030BD0A7B57
:1023B0008B681A434B6822F480621A430B6822F43C
:1023C00000621A43CB8922F480521A430B6922F42B
:1023D00000521A434B6922F480421A4322F400410E
:1023E0001943416400207047F0B502681C4B1D4D35
:1023F0001D4E1E4F1E4C4FF0804C984209D0A042FB
:1024000007D0604505D0A84203D0B04201D0B84201
:1024100005D1D1F804E022F0700242EA0E0298429F
:1024200009D0A04207D0604505D0A84203D0B042F1
:1024300001D0B84203D1CD6822F440722A43026031
:102440008A68C2620A888262984201D0A04201D1A1
:10245000097C0163416941F0010141610020F0BD47
:10246000002C01400004004000080040000C004027
:1024700000340140012919D0042919D0102919D09C
:10248000402919D0B1F5807F18D0B1F5806F17D0F1
:1024900006210C4A1830525C10440268094BDB1DBF
:1024A0005B5C042199408A43026070470021F0E799
:1024B0000121EEE70221ECE70321EAE70421E8E746
:1024C0000521E6E77C610008012919D0042919D00B
:1024D000102919D0402919D0B1F5807F18D0B1F555
:1024E000806F17D006210C4A1830525C10440268E5
:1024F000094BDB1D5B5C082199400A430260704771
:102500000021F0E70121EEE70221ECE70321EAE7F1
:102510000421E8E70521E6E77C610008F0B5012623
:1025200000236E4C6E4D012908D010293BD0B1F527
:10253000807F73D0B1F5805F6ED1A6E0016A21F093
:1025400001010162016A46688769D2F800C027F07C
:10255000730747EA0C07D2F810C021F0020141EAE4
:102560000C01D2F804C021F0010141EA0C01A042A3
:1025700001D0A84212D1546921F0080141EA840136
:10258000946821F0040141EA8401956926F480747D
:102590002C43D56924F4007444EA450646608761FB
:1025A000D26842636FE0016A21F010010162066A9D
:1025B00041688769D2F800C027F4E64747EA0C274C
:1025C000D2F810C026F0200646EA0C16D2F804C055
:1025D00026F0100646EA0C16A04201D0A84213D1FC
:1025E000556926F0800444EA8514956824F0400477
:1025F00044EA8516946921F4806141EA8401D46932
:1026000021F4006141EAC40141608761D1688163BE
:1026100061E003E000E01E463046F0BD016A21F4AF
:1026200080710162016A4668C769D2F800C027F06C
:10263000730747EA0C07D2F810C021F4007141EA91
:102640000C21D2F804C021F4807141EA0C21A0428F
:1026500001D0A84213D1546921F4006141EA8421D8
:10266000946821F4806141EA8421956926F48054BC
:1026700044EA0514D56924F4005444EA451646603A
:10268000C761D268C2630162C5E7016A21F4805163
:102690000162066A4168C769D2F800C027F4E647BC
:1026A00047EA0C27D2F810C026F4005646EA0C364A
:1026B000D2F804C026F4805646EA0C36A04201D077
:1026C000A84204D1946921F4804141EA8411416017
:1026D000C761D168016406629DE70000002C0140DB
:1026E0000034014010B5012916D0042916D0102954
:1026F00016D0402916D0B1F5807F15D0B1F5806F86
:1027000014D00623016A0A4CE35C02249C40A143D6
:102710009A401143016210BD0023F3E70123F1E762
:102720000223EFE70323EDE70423EBE70523E9E7C3
:10273000746100082DE9F04786B000245C480094DD
:10274000019402940394816941F0100181618169CF
:1027500001F010010491816941F0200181618169DA
:1027600001F020010491816941F0040181618169D6
:1027700001F004010491816941F0080181618069DF
:10278000DFF8309100F008004FF4805604900022EA
:1027900031464846FEF7D1FDDFF81CA10022042196
:1027A0005046FEF7CAFD4FF47140CDE90004434F97
:1027B000694638460294FEF7BFFC414DDA20CDE968
:1027C0000005694602943846FEF7B6FC40F2013037
:1027D000CDE90005694602944846FEF7ADFC0425A4
:1027E000DFF8E0800095CDE9018469464846FEF7B0
:1027F000A3FC4FF48160CDE9000469464846029489
:10280000FEF79AFC0096022701260397CDE90164A2
:1028100069464846FEF790FC6803CDE90008694622
:1028200002942948FEF788FC03970095CDE90164DE
:1028300069465046FEF780FC002211460620FEF74E
:10284000EDFD0620FEF7DCFD002211460720FEF715
:10285000E5FD0720FEF7D4FD002211460820FEF713
:10286000DDFD0820FEF7CCFD002211460920FEF711
:10287000D5FD0920FEF7C4FD002211460A20FEF70F
:10288000CDFD0A20FEF7BCFD002211461720FEF701
:10289000C5FD1720FEF7B4FD002205212820FEF714
:1028A000BDFD2820FEF7ACFD06B0BDE8F0870000B6
:1028B00000100240000C01400014014000100140D3
:1028C000000011100000311000080140F0B599B06F
:1028D000142113A8FDF75FFC20216846FDF75BFC7F
:1028E00018210DA8FDF757FC142108A8FDF753FC8B
:1028F0004FF40060FFF7C2FC002440F2E730CDE95E
:102900001440454D0326ADF84C6016948DF85C409C
:1029100013A92846FFF768FD286840F0800028606A
:10292000A86844F207018843A86001212846FFF700
:10293000CBFD6020CDE90004022002940394C7017E
:102940000494CDE905076A46012128460797FFF759
:10295000E5FD01212846FFF78DFD10212846FFF7F0
:10296000B3FD01946A46102128460294FFF7D6FD74
:1029700010212846FFF77EFD39462846FFF7A4FDC3
:1029800001946A46394628460294FFF7C7FD394646
:102990002846FFF76FFDAF1439462846FFF794FD30
:1029A000029401946A46394628460794FFF7B6FD1B
:1029B00039462846FFF75EFD686820F070006860C1
:1029C000A86820F08000A8608DF840400D940E9417
:1029D0000F94ADF842406814CDE911040DA92846C2
:1029E000FFF7E5FC0820FFF749FC0420FFF746FC51
:1029F0000A4808A909250B9481E861000848FFF7F7
:102A000049FC084808A90B9481E861000648FFF7D3
:102A100041FC19B0F0BD0000002C0140E000E004D2
:102A2000000C01400F000F040008014010B586B0F3
:102A300000241548009401940294039404944FF0E8
:102A40008041059401604721C0E9011444F61F61EB
:102A5000C0E9031480218161FEF7EDFF00B1FEE7BC
:102A60004FF48050009069460748FFF72BF800B1FB
:102A7000FEE7049404A904480594FEF7BBFF002870
:102A800000D0FEE706B010BD6405002010B58CB084
:102A900024216846FDF77FFB00241548099413495B
:102AA0000A94C0E900144FF6FF71C0E902410461C5
:102AB00084610320CDE900040120CDE902040494DF
:102AC000CDE905400794694609480894FFF765F881
:102AD00000B1FEE7099409A905480A94FEF78AFFA8
:102AE000002800D0FEE70CB010BD0000000400403C
:102AF000A405002010B58CB024216846FDF74BFBDF
:102B000000241548099413490A94C0E900144FF6AB
:102B1000FF71C0E90241046184610320CDE9000432
:102B20000120CDE902040494CDE9054007946946EB
:102B300009480894FFF731F800B1FEE7099409A9A4
:102B400005480A94FEF756FF002800D0FEE70CB0B7
:102B500010BD000000080040E405002010B58CB056
:102B600024216846FDF717FB0024154809941349F2
:102B70000A94C0E900144FF6FF71C0E902410461F4
:102B800084610320CDE900040120CDE9020404940E
:102B9000CDE905400794694609480894FEF7FDFF12
:102BA00000B1FEE7099409A905480A94FEF722FF3F
:102BB000002800D0FEE70CB010BD0000000C004063
:102BC0002406002010B596B000240F9410941194A0
:102BD000129413941C2108A81494FDF7DCFA202108
:102BE0006846FDF7D8FA2648244901604721C0E924
:102BF000011444F61F61C0E903148021C0E90541B6
:102C0000FEF719FF00B1FEE74FF480500F900FA9B7
:102C10001B48FEF757FF00B1FEE71948FFF71EF902
:102C200000B1FEE7139413A915481494FEF7E2FED1
:102C300000B1FEE76020089040F2DC50CDE90904C5
:102C40000C940D940C2208A90D480E94FFF79EF8E1
:102C500000B1FEE700944FF40050CDE90440029427
:102C600001940394694606480794FEF799FE00B163
:102C7000FEE70348FFF764F816B010BD00340140CA
:102C8000A40600202DE9F04F95B082461D4618217C
:102C900006A81E9EFDF77FFA18216846FDF77BFA0D
:102CA0005F4B002203EBC61000EB05100DF1180E70
:102CB000EB460FE0C51A2911CE1701EB5676291104
:102CC000F70826F007050BF80270491B0EF80210F2
:102CD0004068521C0028EDD10E270F261025032A2C
:102CE00001DC132545E00023511E1FD40EEB010823
:102CF0001EF801C018F8020C18F8018CA0EB0809A6
:102D0000A8EB0C0081450DD10BEB010C1BF80180E9
:102D10001CF8020C1CF801CCA0EB0C09ACEB080071
:102D2000814501D04B1E01E0491EDFD5D01A032892
:102D300021DC0EEB030C1EF803101CF801CC13254C
:102D40000020ACEB0101491C0CD00BEB030C1BF871
:102D500003101CF801CCACEB0101012904D0491C83
:102D600004D004E0022002E0012000E003205045EE
:102D700001D1112712260EEB020010F8021D407837
:102D8000081A01280CD0401C17D00BEB020010F8D9
:102D9000021D4078081A01281CD0401C27D03AE0B8
:102DA000BAF1010F36D0BAF1020F2DD0BAF1030FEC
:102DB0002CD0BAF1040F2ED12AE0BAF1010F25D0A0
:102DC000BAF1020F24D0BAF1030F23D0BAF1040FE5
:102DD00021D119E0BAF1010F1AD0BAF1020F19D0BE
:102DE000BAF1030F10D0BAF1040F14D10EE0BAF10A
:102DF000010F09D0BAF1020F08D0BAF1030F07D0C2
:102E0000BAF1040F07D105E02C4604E03C4602E08D
:102E10000B2400E034461F98047015B0BDE8F08F15
:102E2000900000202DE9FF4F83B0FF20DDE9104521
:102E30008DF80800069904989346884205D1A34569
:102E400003D1002007B0BDE8F08F039801281ED001
:102E500002284ED0032833D0042866D1280704D591
:102E6000022259460498FDF7D3FD680704D50122D4
:102E700059460498FDF7CCFDA80704D5042259460D
:102E80000498FDF7C5FDE8074FD0032249E0280765
:102E900004D5032259460498FDF7BAFD680704D506
:102EA000022259460498FDF7B3FDA80704D5012274
:102EB00059460498FDF7ACFDE80736D0042230E00F
:102EC000280704D5012259460498FDF7A1FD68079B
:102ED00004D5042259460498FDF79AFDA80704D5A5
:102EE000032259460498FDF793FDE8071DD00222FE
:102EF00017E0280704D5042259460498FDF788FDF9
:102F0000680704D5032259460498FDF781FDA807F8
:102F100004D5022259460498FDF77AFDE80704D04B
:102F2000012259460498FDF773FD00228949134692
:102F30004FF47A75002001EBC21700BF07EB0016B3
:102F4000401CC6E9013533730828F7DB521C082AF8
:102F5000F0DB049A01EBCB1000EB021001EBC41282
:102F60008360069B0020074602EB031AA9464A46E7
:102F70000125012301EBC51808EB031696F80CC0D8
:102F8000BCF1000F05D1D6F808C0944501DA6246BD
:102F900030465B1C072BEFDB6D1C072DE9DB8742FE
:102FA0001AD0012202739AF80C20012A0FD0A0F146
:102FB00010030093431A476800F11006A0F1800542
:102FC00000F1800E1B114FB17A1A121107E013980D
:102FD00001286FD000286ED0FF2033E71A469B1AD5
:102FE00090F800C04F464A465FEA0C7C05D493B186
:102FF000012B10D05A1C10D00222D0F808C0624415
:10300000D6F808C0624501DAC6E9010202789207E3
:1030100005D5BC460AE00122EFE70322EDE7C3B184
:103020005A1C16D0012B17D04FF0020C8268624454
:10303000DDF800C0DCF808C0624505DADDF800C044
:10304000CCF80820009A50600278520707D5B8469D
:103050000DE04FF0010CE9E74FF0030CE6E793B108
:1030600013F1080F0FD0082B10D04FF00208826820
:10307000D5F808C04244624501DAC5E90102027888
:10308000D2070DD105E04FF00108F0E74FF003083B
:10309000EDE78BB1082B0FD013F1080F0ED00227EC
:1030A00082683A44DEF80870BA4201DACEE90102D9
:1030B00033B132E033E03CE00127F1E70327EFE7EB
:1030C000039A012A06D0022A16D0032A06D0042A1F
:1030D00023D115E0AA68921CAA6004E0DEF808205B
:1030E000921CCEF80820B268521CB260009A009B75
:1030F0009268521C9A6010E0B268921CB26004E0C0
:10310000009A009B9268921C9A60DEF80820521C7C
:10311000CEF80820AA68521CAA60074627E702A832
:10312000CDE90040DDE903015A46069B00F024FB8F
:1031300008E002A8CDE90040DDE903015A46069BFC
:10314000FFF7A0FD1298DAF8081001609DF808005A
:1031500078E6000090000020FEE700002DE9F00373
:103160000025DFF84090DDF818C02E464FF47A783D
:1031700005EB850401EBC4046D1C676826611434FB
:10318000EDB2A4E80C10042D44E90676C4E90089E8
:10319000EED30221C17001218170BDE8F00302F07D
:1031A00065BE000000409C462DE9F04F06460078C1
:1031B00085B00F4600287CD0B078DFF804846C46D8
:1031C000F0B3FEF7BFF8FF4981464A68904270D3DA
:1031D0000025FC494968A9EB0100F1780844FDF796
:1031E0003EFA05EB850A07EBCA048346D4E90101E0
:1031F000401AFDF72BFA5946FDF762F8FDF77DFA04
:103200000022F14BFDF741F98346049157F83A004B
:10321000FDF71CFAFDF771FAEC4AED4BFDF735F9B5
:103220005A46049BFDF72BF9FDF77AFADFF8A4A3C1
:1032300001464AF825002069FCF7B8FF206100E04C
:1032400005E0616AFDF788FA7ED2616A72E1707802
:1032500000282ED05FF0000000EB800157F83110FD
:10326000494244F82010401CC0B20428F4D34FF463
:1032700000570398FD10002800984FF4804A4FF43F
:10328000007B4FF480797ADB002813DB02220421D3
:10329000D148FFF727FAD248D049C0F8149001224C
:1032A000FFF770F80922CF494046FFF76BF8009806
:1032B00015E03BE100220121C748FFF713FA44461D
:1032C000C8F814700922C549C548FFF75BF8012208
:1032D000C4492046FFF756F80098404200904FF44A
:1032E0007A77B84200DD3846BB4C009060630198A5
:1032F000002814DB002210212046FFF7F3F9DFF845
:10330000E8B2C8F814A00922B849B548FFF73AF85E
:10331000012259464046FFF735F8019813E0022292
:1033200040212046FFF7DEF9AD48B049C0F814B09F
:103330000122FFF727F80922AB494046FFF722F8A0
:1033400001984042019000E0F3E0B84200DD3846C9
:103350000190A0630298002812DB02222946204631
:10336000FFF7C0F99E48A24945610122FFF70AF81C
:103370000922A0494046FFF705F8029819E02DE020
:10338000002249462046FFF7ADF9DFF868924FF476
:1033900000404546C8F81400092295499048FEF7B8
:1033A000F1FF012249462846FEF7ECFF0298404211
:1033B0000290B84200DD3846014602902046E163A3
:1033C0004FF48051C8F814100022FFF78BF90398CE
:1033D000B84200DC074603972764A5E0002813DB0A
:1033E000022201217C48FFF77DF94446C8F810709D
:1033F00009227A497A48FEF7C5FF01227949204619
:10340000FEF7C0FF009813E0002204217248FFF786
:1034100069F973487149C0F810900122FEF7B2FFB4
:10342000092270494046FEF7ADFF009840420090E7
:103430004FF47A74A04200DD2046674F0090786315
:103440000198002812DB002240213846FFF74AF994
:1034500063486649C0F810B00122FEF793FF0922C5
:1034600061494046FEF78EFF019815E002221021C7
:103470003846FFF737F9DFF870B1C8F810A0092215
:103480005A495748FEF77EFF012259464046FEF74B
:1034900079FF019840420190A04200DD2046019052
:1034A000B8630298002817DB022249463846FFF726
:1034B00019F9DFF840914FF400404546C8F8100074
:1034C00009224B494648FEF75DFF0122494628463E
:1034D000FEF758FF029812E0002229463846FFF70F
:1034E00001F93F48424905610122FEF74BFF0922DD
:1034F00040494046FEF746FF029840420290A042F3
:1035000000DD2046014602903846F9634FF48051B1
:10351000C8F810100222FFF7E5F80398A04200DC7B
:1035200004466042039438640020707005B0BDE822
:10353000F08F21692161606A80F00040FDF70CF98D
:1035400003D2606A80F0004000E020692061616879
:10355000A160A169FCF782FE83465AF825006169E3
:103560008246FCF77BFE5946FCF720FE8346514617
:10357000E068FCF76DFEE169FCF770FE5946FCF768
:1035800067FEFDF782F84DF82500C4F80CA05DF841
:103590002520206A6946824200DC104641F8250059
:1035A000226A5242904200DA104641F825006D1C12
:1035B000EDB2042DFFF40DAEF178024849441BE052
:1035C000000C01400C00002000408F40A4703D0A18
:1035D000D7A3084044000020002C01400100010452
:1035E00000080140200020044000400402000204C2
:1035F00004000404800080044160009800280BDB74
:1036000001223E493E48FEF7BDFE09223D494046A3
:10361000FEF7B8FE00980CE0092238493848FEF75A
:10362000B1FE012237494046FEF7ACFE0098404209
:1036300000904FF47A74A04200DD2046324D009095
:103640006863019800280BDB092230492C48FEF7FB
:1036500099FE01222E494046FEF794FE01980CE0A7
:1036600001222A492648FEF78DFE092228494046B4
:10367000FEF788FE019840420190A04200DD2046FE
:103680000190A863029800280BDB012221491C4805
:10369000FEF778FE092220494046FEF773FE0298A5
:1036A0000CE009221B491648FEF76CFE01221A495C
:1036B0004046FEF767FE029840420290A04200DDBD
:1036C00020460290E86303984FF48051002840465A
:1036D00006DB416100222846FFF704F8039807E063
:1036E000016102222846FEF7FDFF03984042039045
:1036F000A04200DC044603942C6417E70100010497
:103700000008014020002004002C014002000204B7
:1037100040004004040004048000800470477047A7
:103720002DE9F04F87B08346DDE912758A464FF4E4
:103730007A70DDE9101805900490002604A8CDE900
:103740000015CDE90206914651465846FFF76AFB3F
:10375000044605A800970396CDE9015043464A4622
:1037600051465846FFF75EFBDDE90412914200DA4C
:10377000204607B0BDE8F08FF0B52A4DDDE90567BA
:1037800005EBC61606EB031305EBC21606EB011C90
:103790005E68002E43D0664542D15B1B1B11DD17CE
:1037A00003EB557525F007069B1BDEB2711AC5F3B6
:1037B000C703012907D0491C0ED0991A012914D03A
:1037C000491C1BD02AE0012827D002281FD003283B
:1037D0001FD0042822D11EE001281AD002281AD0B6
:1037E00003281AD0042819D111E0012813D0022887
:1037F00013D003280BD0042810D10AE0012806D0EA
:10380000022806D0032806D0042807D105E010249A
:1038100004E00E2402E00B2400E00F243C70F0BD15
:103820003346B5E79000002070470000042801D11E
:10383000014801607047000040340140054B0422FC
:103840005A614FF6FF7202EA4002034849080280BB
:10385000416070470014014000000020FDF778BD72
:1038600030B58FB028216846FCF795FC14210AA8D2
:10387000FCF791FC01210804CDE90010002402941A
:1038800002250491CDE907504FF4E01009906846F5
:10389000FDF7E2FE00B1FEE70F20CDE90A054FF487
:1038A0008060CDE90C4002210AA80E94FDF7E8FDE6
:1038B000002800D0FEE70FB030BD00000D480168C1
:1038C00041F00101016041680B4A1140416001680B
:1038D0000A4A11400160016821F4802101604168B9
:1038E00021F4FE0141604FF41F0181600449C003CF
:1038F00008607047001002400000FFF8FFFFF6FE6E
:1039000008ED00E0F0B502681C4B1D4D1D4E1E4F2A
:103910001E4C4FF0804C984209D0A04207D0604521
:1039200005D0A84203D0B04201D0B84204D122F061
:10393000700E4A6842EA0E02984209D0A04207D0AF
:10394000604505D0A84203D0B04201D0B84203D1AF
:1039500022F44075CA682A434D6922F080022A4346
:1039600002608A68C2620A688262984201D0A042FC
:1039700001D10969016301214161F0BD002C0140C1
:103980000004004000080040000C004000340140EA
:1039900010B501F01F030121046A99408C430462B1
:1039A000016A9A401143016210BD10B5846842EA71
:1039B000032224F47F440A432243826010BD8268BC
:1039C00022F070020A4342F0070181607047000054
:1039D000F0B5026A22F001020262036A4268846959
:1039E000124E24F073050C682C4323F002058B68FB
:1039F0002B430D4DA84201D0B04205D123F008075A
:103A0000CB683B4323F00403A84201D0B04205D168
:103A10004D6922F4407215438A692A4342608461E9
:103A2000496841630362F0BD002C0140003401404D
:103A3000F0B5026A22F010020262026A43688469E9
:103A40000D6824F4E64444EA05248D6822F020023F
:103A500042EA05120F4D104EA84201D0B04206D1E5
:103A6000CF6822F0800242EA071222F04002A84208
:103A700001D0B04207D14D6923F4406343EA850386
:103A80008D6943EA8503436084614968816302620A
:103A9000F0BD0000002C014000340140F0B5026A86
:103AA00022F480720262026A4368C46922F40072DE
:103AB00024F073050C68124E2C438D6842EA0522EF
:103AC0000E4DA84201D0B04206D1CF6822F4006268
:103AD00042EA072222F48062A84201D0B04207D114
:103AE0004D6923F4405343EA05138D6943EA0513F6
:103AF0004360C4614968C1630262F0BD002C0140AB
:103B00000034014030B5026A22F480520262046A35
:103B10004268C3690D6823F4E64343EA05238D68D0
:103B200024F4005444EA0534084DA84202D0084D5C
:103B3000A84204D14D6922F4804242EA85124260D3
:103B4000C36149680164046230BD0000002C01407B
:103B50000034014010B5036A046A24F001040462D1
:103B6000846924F0F00444EA021423F00A020A43B0
:103B70008461026210BD10B5036A23F01003036272
:103B80008369046A23F4704343EA023224F0A003F9
:103B900043EA01118261016210BD70B5446A206878
:103BA000406994F83910C0F3C0100025212904D1D0
:103BB00018B1E584204600F046F82068406994F882
:103BC0003A10C0F38010222904D118B1E5852046AF
:103BD00000F02BF8E06B40F01000E0632046FEF7A9
:103BE0007BF970BD10B50146406A0968096889060D
:103BF00013D40021C1850168CA6822F48072CA60AA
:103C000001684A6922F001024A6101684A6922F0AA
:103C100040024A61202180F83A10FEF79DFA10BD5B
:103C200010B5406AFEF7CAFA10BD0168CA6822F4EE
:103C30009072CA6001684A6922F001024A6120213B
:103C400080F83A1070470168CA6822F0C002CA6062
:103C5000202180F8391070472DE9F04104460068B2
:103C60000169E26821F44051114301612169A068B2
:103C70000843616908432168CA6841F20C639A43AA
:103C80000243CA6020684169A26921F4407111436E
:103C900041611E49206864253226884202D1FDF721
:103CA00095FC01E0FDF782FC00EBC00101EB001187
:103CB00060686FF018078000B1FBF0F2B2FBF5F21C
:103CC000B1FBF0F37A4303EB8202B1FBF0F306EBB6
:103CD0000212B2FBF5F2B3FBF5F302F0F00202EBD5
:103CE0000312B1FBF0F3B1FBF0F0B0FBF5F0784359
:103CF00003EB800006EB0010B0FBF5F0216800F04C
:103D00000F0010448860BDE8F081000000380140D9
:103D10002DE9F041984617460E460446069D1DE0E3
:103D2000681C1BD02DB1FDF70DFBA0EB0800A842CD
:103D300014D92068C16821F4D071C160206841693C
:103D400021F001014161202084F8390084F83A0013
:103D5000002084F838000320BDE8F0812068006866
:103D600036EA000004D00020B842D9D00020F3E7A2
:103D70000120F9E7FEE700000FB4054B10B503A9D9
:103D8000044A029800F064FB10BC5DF814FB0000CC
:103D9000A54D00083C000020490050EAC12018BF92
:103DA00004204A0D18BF40F0010040F2FF72B2EB50
:103DB000515F08BF40F00200012808BF052070478E
:103DC0000907090E002804DB00F1E02080F8001448
:103DD000704700F00F0000F1E02080F8141D7047DC
:103DE0002DE9F74F144694B00021C4E9021115994A
:103DF000079121F00045C9498D4206DC1599C4E9B7
:103E0000000117B00020BDE8F08FC549DFF814A30A
:103E1000A9423CDD0799C44E0029C44FC44A1599F4
:103E2000534619DDFCF72BFB554506D0C14AC24B62
:103E3000FCF725FBC4E900010AE04FF0D352BE4B6A
:103E4000FCF71DFB32463B46FCF719FBC4E90001B9
:103E500017B00120BDE8F08FFCF770FA554506D089
:103E6000B44AB54BFCF76AFAC4E900010AE04FF026
:103E7000D352B14BFCF762FA32463B46FCF75EFA8E
:103E8000C4E9000117B04FF0FF30BDE8F08FAB4937
:103E9000A942159978DB21F0004183468846A84A5B
:103EA000A84BFCF7F2FA0022A74BFCF747FAFCF705
:103EB00005FC0990FCF7D8FB06460F469C4A534682
:103EC000FCF7E3FA43465A46FCF7DCFA80468A469A
:103ED000984A994B30463946FCF7D7FA2A0D012506
:103EE0000B9242465346FCF7CDFA032DC4E900017C
:103EF00039D00B98C1F30A51401A05EB451111391D
:103F0000814230DA9148C346784400EB0510CDF881
:103F10000CA00C90D0E9002330463946FCF7B5FAE6
:103F200002460B460491069058460399FCF7A7FAFF
:103F300080468A4602460B4658460399FCF79FFA8C
:103F4000049B069AFCF79BFA83460C98039139462A
:103F5000D0E902233046FCF798FA5A46039BFCF757
:103F60008EFA6D1CBDE707980028A2BF099817B00C
:103F7000BDE8F08F616881F000416160099817B079
:103F80004042BDE8F08FFFE784461598C1F3130166
:103F9000C0F30A50A0F2F5304FEA601800F01F0697
:103FA000C6F12000139000200690079041F4801E77
:103FB00005206D4676B1664A08EB00017A4452F856
:103FC000213002EB8101B3404A68139922FA01F1D2
:103FD000194305E05F4908EB0002794451F82210CB
:103FE000A1FB0E27A1FB0C131A449A4234BF0123F4
:103FF000002303EB070A05EB8003D3E901B70F4465
:104000008F4234BF0121002193448B4411B1934569
:1040100002D903E0934501D2012100E00021C3E968
:1040200001B7514445F82010011EA0F10100C1DC88
:104030000298059F00F10050800F12900298DDE970
:1040400003568000FCF710FB834628460D91FCF7D1
:10405000D2FC6FF01D02FCF7B7FCCDE90E01304633
:10406000FCF7C9FC6FF03D02FCF7AEFC80468A46C7
:104070003846FCF7C0FC6FF05D02FCF7A5FC074674
:10408000424653461191FCF759F9DDE90E23FCF73E
:1040900055F95A460D9BFCF751F900250E465A4634
:1040A00028460D9BFCF7EBF9DDE90E23FCF7E7F959
:1040B00042465346FCF7E3F93A46119BFCF7E2F916
:1040C000DFF898A0244A5346FCF7DFF907468846F4
:1040D000234A244B31462846FCF7D7F93A46434653
:1040E000FCF72CF9074688464FF0A8425346314664
:1040F0002846FCF7CAF93A464346FCF71FF9159AD9
:1041000012F0004F04D0129A81F0004152421292F4
:10411000C4E90001129817B0BDE8F08FFB21E93F18
:104120007CD90240FB21F93F7370032E8A19A33B0F
:10413000000040543163621A61B4D03DFB21394123
:1041400083C8C96D305FE43F0000E03F7C2300007E
:10415000F8220000DA220000182D4454FB21F93D1A
:104160003326A611460B113C2DE9FF4D21F00048E6
:1041700007460C46B8F1795F08DAFCF79FFA002889
:1041800001BF0020324904B0BDE8F08D3A46234615
:1041900010461946FCF779F9054602462D480E46A9
:1041A0000B460621784400F05DF82A463346FCF7BA
:1041B0006CF9DDE9022382468B4638462146FCF73E
:1041C00064F904460F4652465B4628463146FCF7E2
:1041D0005CF922463B46FCF752F907468A464FF007
:1041E000FF3228463146FCF7EFFB1B4A90450ADABE
:1041F0003A465346FCF743F904B00022BDE8F04DBF
:10420000134BFCF73FB9154A4245A8BFA8F5001566
:104210004FF00004B8BF124D22462B46FCF72FF991
:104220000646884622462B4600200949FCF727F916
:1042300004460D463A46534630464146FCF71FF9C0
:1042400004B022462B46BDE8F04DFCF71BB9000038
:104250000000F03FA82000003333D33F0000E93FC7
:104260000000D23F2DE9F0414F1E00EBC70104468C
:10427000D1E9000115461E4637F006020DD02A4648
:104280003346FCF702F97F1E04EBC703D3E9002392
:10429000FCF754F837F00602F1D1022F25D0042F95
:1042A00013D0062F18BFBDE8F0812A463346FCF72D
:1042B000ECF8D4E90A23FCF741F82A463346FCF728
:1042C000E4F8D4E90823FCF739F82A463346FCF72A
:1042D000DCF8D4E90623FCF731F82A463346FCF72C
:1042E000D4F8D4E90423FCF729F82A463346FCF72E
:1042F000CCF8D4E90223FCF721F82A463346FCF730
:10430000C4F8D4E90023BDE8F041FCF717B8000079
:104310002DE9FF4D054621F0004084B00C46B0F178
:10432000795F0BDA2846FFF737FD042808BF00F055
:1043300071F8284608B02146BDE8F08D2A460B46A4
:104340001046FCF7A2F806460F462A462346FCF71D
:104350009CF8804626488A4632463B4605217844EA
:10436000FFF780FF83461098029160B3214A224BE9
:1043700040465146FCF789F8CDE900015A464046CF
:104380005146029BFCF781F882468846DDE906012A
:104390004FF0FF32FCF718FB52464346FCF76FF82C
:1043A00032463B46FCF771F8DDE90623FCF767F877
:1043B000DDE90023FCF763F808B02A462346BDE890
:1043C000F04DFCF75FB80B465A4630463946FCF7CD
:1043D0005CF8084A084BFBF7B1FF42465346FCF72E
:1043E00054F808B02A462346BDE8F04DFBF7A6BFB7
:1043F000EE1F0000495555555555C5BF0122FCF724
:10440000E3BAFBF79BBF0022134610461146FCF7A8
:10441000AEB80000024A00201107FCF7D5BA000030
:1044200001FDFFFF02E008C8121F08C1002AFAD1EF
:1044300070477047002001E001C1121F002AFBD124
:1044400070470000014908607047000040000020EC
:104450002DE9FF4F89B09B460446002506E025283C
:104460000BD05A460B999047641C6D1C207800288D
:10447000F5D10DB02846BDE8F08F0027B8460122DF
:10448000474900E0074314F8013F203B02FA03F0DC
:104490000842F7D120782E2819D114F8010F47F0DF
:1044A00004072A280ED06FF02F022078A0F13001E7
:1044B00009290CD808EB880102EB410100EB010847
:1044C000641CF2E70A98641C50F8048B0A90207868
:1044D0000028CED0642808D0692806D075281ED0C0
:1044E0005A460B9990476D1C58E00A994FF00A09FB
:1044F00001C90A91002802DA40422D2102E0390563
:1045000004D52B218DF82010012103E0F90704D0F8
:104510002021F7E78A4608AE0DE00021FAE70A9964
:104520004FF00A0901C90A91F7E74946FCF71EF95D
:10453000303106F8011D0028F7D1ADEB060000F17F
:104540002009780701D44FF00108C84502DDA8EB27
:10455000090000E000208046002706E008A85A462F
:10456000C05D0B9990476D1C7F1C5745F6DB04E03E
:1045700030205A460B9990476D1CB8F10001A8F104
:104580000108F5DC05E016F8010B5A460B99904737
:104590006D1CB9F10001A9F10109F4DC641C65E7A7
:1045A000092801002DE9F84F04460D4621F000408E
:1045B00000917349814211DC7249884201DC06D1C5
:1045C0002CB120462946BDE8F84FFFF717BF6E48CB
:1045D000002DCCBF6D496E49BDE8F88F6D49814211
:1045E00011DD6D498142D8BF4FF0FF366DDD2046A9
:1045F0002946FFF7D1FB042808BFFFF70BFF204631
:104600002946BDE8F88F6549654F25F00045814290
:1046100033DD6449814219DD002632464FF0804384
:1046200020462946FBF78AFE80468A46012220461C
:104630002946FCF7C9F900223B46FBF720FF42461A
:104640005346FBF794FF04460D463EE00126002248
:10465000BA463B4620462946FBF770FE80460F4689
:104660000022534620462946FBF709FF42463B46B7
:10467000FBF77DFF04460D4627E04B4981421BDDD9
:10468000DFF828A102260022534620462946FBF7E0
:10469000FCFE00223B46FBF751FE80460F460022FF
:1046A000534620462946FBF7EAFE42463B46FBF7C7
:1046B0005EFF04460D4608E0032622462B460020F6
:1046C0003B49FBF754FF04460D4622462B46104655
:1046D0001946FBF7DAFE8B46824602460B46FBF78D
:1046E000D4FE07460246334888460B4606217844E6
:1046F000FFF7B8FD52465B46FBF7C7FE82462E48E1
:104700008B463A46434605217844FFF7ABFD3A46CF
:104710004346FBF7BAFE02460B46002E504659466A
:104720000CDAFBF70BFE22462B46FBF7AEFE01B080
:1047300022462B46BDE8F04FFBF7A4BEFBF7FEFD7B
:1047400022462B46FBF7A1FE1C4A7A4402EBC60325
:10475000D3E90023FBF793FE22462B46FBF78FFE9F
:10476000174A7A4402EBC603D3E90023FBF78AFE1B
:10477000009A002AB8BF81F00041BDE8F88F000020
:10478000000010440000F07F182D4454FB21F93F35
:10479000FB21F9BF0000DC3F0000203E0000F33F9A
:1047A0000000F03F0000E63F008003400000F83FBB
:1047B0000000F0BF2E1B0000EC1A00008A1A000057
:1047C000521A00002DE9F04D9446CCF1000423F07C
:1047D00000464CEA0404524F46EAD4749A4688468E
:1047E00021F00042BC4206D8454240EA050442EAB4
:1047F000D474BC4204D9BDE8F04D6246FFF701BE57
:10480000AAF14055A5F17F6555EA0C040BD00224AE
:1048100004EAAA74434DDFF810E144EAD87452EA7E
:10482000000B04D00CE0BDE8F04DFFF7BBBE002C40
:1048300014BF012CBDE8F08D022C30D0032C32D0F7
:1048400056EA0C0B0AD0BE4220D1BA4209D126F05A
:10485000804622F080423346114617E000291ADBD9
:1048600025E0DFF8C8B0FB44002C04BFDBE9000101
:10487000BDE8F08D012C02BFDBE9000181F00041B1
:10488000BDE8F08D022C0AD0032C0CD0BA4212D114
:10489000B8F1000F0BDA23482549BDE8F08D284612
:1048A0002449BDE8F08D28467146BDE8F08D1D48CD
:1048B0002149BDE8F08D921B12153C2AC4BF19484E
:1048C0001D490EDCBAF1000FBEBF12F13C0F0020F3
:1048D000014606DB6246FBF74AFE21F00041FFF786
:1048E00061FE002C08BFBDE8F08D012C04BF81F0F3
:1048F0000041BDE8F08D114A114B022C07D0FBF7A7
:10490000BEFD2A46BDE8F04D0A4BFBF7B8BDFBF7EC
:10491000B6FD2A46BDE8F04D064BFBF7B3BD0000DF
:104920000000F07F182D4454FB2109C0161A000026
:10493000FB21F9BFFB210940FB21F93F075C143340
:1049400026A6A13C2DE9F0478A46B0F906101E23A1
:10495000904691FBF3F3828800895442C01A65188F
:104960004B42404205441C442EB20444114425B23B
:1049700001440CB2D118084407B24FF47A70864251
:1049800005DA854203DA844201DA874234DB3046B5
:10499000854200DD2846844200DD2046874200DD56
:1049A0003846FBF753FE01461A48FBF789FC81465F
:1049B0003046FBF74BFE4946FBF750FCFBF765FE24
:1049C00006B22846FBF742FE4946FBF747FCFBF7D9
:1049D0005CFE05B22046FBF739FE4946FBF73EFC7C
:1049E000FBF753FE04B23846FBF730FE4946FBF7AF
:1049F00035FCFBF74AFE07B2C8F80070C8F87860CB
:104A0000C8F850500121C8F828408AF80110BDE8C4
:104A1000F087000000007A44054800218170C170D1
:104A2000017141718171C171017241727047000061
:104A300018000020044800218170C170017141718B
:104A40008171C171704700001800002004480021E6
:104A5000017141718171C171017241727047000031
:104A600018000020024800210172417270470000C6
:104A700018000020024800218170C17070470000BA
:104A80001800002000B5244B21F0004287B09A4264
:104A9000DCBF0022134629DD204B9A4208D140B9E1
:104AA0004FF00100FFF7CEFCFFF7ADFC07B000BDF3
:104AB00003DBFFF7A3FC07B000BD02AAFFF790F9E4
:104AC00010F0030104BF0DF1080C9CE80F000DD09D
:104AD000012001290ED0022914D00DF1080C0090FC
:104AE0009CE80F00FFF714FC07B000BDFFF73CFB8C
:104AF00007B000BD0DF1080C00909CE80F00FFF717
:104B000007FC05E00DF1080C9CE80F00FFF72CFBFB
:104B100007B081F0004100BDFB21E93F0000F07FBC
:104B20002DE9F84FDFF844920446012699F8010078
:104B30008F49002505287CD2DFE800F0030B0D0B20
:104B400016000D7001228A498A48FDF7B9FA89F8E2
:104B50000160BDE8F88F11228648491CFDF7B0FAC4
:104B6000032189F80110F4E74878FE2861D10A7A18
:104B70000120B0EB921F00D100E000207E4A60705F
:104B800048881288801A00B26080B0F5E16F02DBBD
:104B9000A0F5616004E010F5E16F02DA00F56160F4
:104BA00060800F7927774B7963778E79A677CA79FA
:104BB000E27791F8088091F80AC04FF4807000EA1B
:104BC0004818C444A4F80CC091F8088091F80BC0B0
:104BD00000EA8818C444A4F80EC091F8088091F83F
:104BE0000CC000EAC818C444A4F810C0E34691F809
:104BF000088091F80DC05FEAC87800D08046C444B0
:104C0000A4F812C0E64691F8098091F80EC000EAB7
:104C10004808C444A4F814C0E24691F8098091F809
:104C20000FC000EA8808C444A4F816C0CDF800C03C
:104C300000E098E091F8098091F810C000EAC808F7
:104C4000C444A4F818C091F811C0497A00EA0110D0
:104C500084440120A4F81AC02070C82F07D9C82B9B
:104C600001D925840DE00CD2C3F1500008E008D230
:104C7000C82B02D9A7F1500002E002D2A7EB030033
:104C80002084C82E07D9C82A01D9A5840DE00CD2EA
:104C9000C2F1500008E008D2C82A02D9A6F150009B
:104CA00002E002D2A6EB0200A084C82F05D2C82BD6
:104CB00003D2F818A038608400E06584C82E05D2BD
:104CC000C82A03D2B018A038E08400E0E584B4F923
:104CD0000430B4F90620A4F804B0CEF58C71E1805C
:104CE000009E5846C6F58C76E682CCF58C766683B7
:104CF000224E36780A2E17D2002807DD4FF48C7624
:104D0000B04203DA002901DDB1420BDB99F8021051
:104D1000491CC9B289F80210A380E280032903D993
:104D2000257001E089F802505046CE22382101F06A
:104D30008BF92072B4F91600DE22482101F084F9C3
:104D40006072B4F91800CE22382101F07DF9A0720A
:104D5000B4F91A00DE22482101F076F9E072FCF77E
:104D6000F1FA0749086089F80150F2E614000020C2
:104D70005E000020240700202200002018000020F0
:104D800028000020081A00B2B0F5E16F02DBA0F5A0
:104D9000616004E010F5E16F02DA00F5616000B2D5
:104DA0007047000013B54FF6FF73012269460248B1
:104DB000FDF705FA00981CBDE40600202DE9F0413E
:104DC0001D460E46101AFBF74FFC04460F46A81B63
:104DD000FBF74AFC22463B46FFF7F4FC044A054B2E
:104DE000FBF753FBFBF76AFC00B2BDE8F081000063
:104DF00048E17A14AEE78140121A5243581A10B5AE
:104E000000FB0020FBF730FC01F044F9FBF756FCF7
:104E100000B210BDB0B06427FCF7A2FAFEF720FD87
:104E2000FDF788FCF648416941F0010141614069A4
:104E3000002200F00100009011460C20FCF7EEFA71
:104E40000C20FCF7DDFA002211460D20FCF7E6FAF3
:104E50000D20FCF7D5FA002211461020FCF7DEFAEF
:104E60001020FCF7CDFA002211461120FCF7D6FAEB
:104E70001120FCF7C5FAFDF771FEFDF727FDFDF7E0
:104E800039FEFDF703FE0025DF480095DD49019559
:104E900001604721C0E901154FF6FF718561C160CE
:104EA000FCF7C9FD00B1FEE700956946D6480195BB
:104EB000FCF7A0FD00B1FEE7FDF7B8FDFDF782FEAF
:104EC000D148D24980300C2401604FF41651C0E91A
:104ED0000115C560C0E904548561C561FCF7FDFF9B
:104EE00000B1FEE7C848CA49C03001604FF4E13163
:104EF000C0E90115C560C0E904548561C561FCF7CE
:104F0000ECFF00B1FEE74FF47A710220FEF796FC49
:104F100001F0E6F8BF494FF00109BF4B81F800905E
:104F2000BE4ABF49BB480095FEF718F901F014F9D5
:104F300000210420FEF77AFCB64C01260C3C4021EF
:104F4000257011A8FBF727F9B64B0DF1340C0FCBE8
:104F50008CE80F0000202A90299026900790289036
:104F6000069008900C9027908246059083462590E5
:104F70002B902490AA4AAA49A032A648FBF780FDAC
:104F8000A748AC30FFF7CCFDFCF7DCF9B8427DD385
:104F9000A34F2378AC3794F901203978A2A0FEF70B
:104FA000EBFEB7F90620B7F90410A3A0FEF7E4FE64
:104FB000DDE90621A3A0FEF7DFFEB7F90210A6A0E7
:104FC000089AFEF7D9FEF87F0090BB7F7A7F397F81
:104FD000A4A0FEF7D1FEFCF7B5F92169411AA5A0FE
:104FE000FEF7CAFE4FF40041A448FCF7A1F90746BA
:104FF0004FF48061A248FCF79BF901904FF40051F7
:105000009E48FCF795F900904FF480419B48FCF7CF
:105010008FF904904FF480519848FCF789F94FF4C8
:105020008078099041469548FCF782F9014602973D
:1050300094A0049B099AFEF79FFE02218F48FCF77B
:1050400077F9074641468E48FCF772F90290012134
:105050008B48FCF76DF9019008218848FCF768F946
:10506000009040218548FCF763F92C904FF40071C3
:105070008348FCF75DF9229080218048FCF758F9BD
:10508000804610217D48FCF753F900E011E001460D
:105090009DE80D000DF1040C8CE88D002C9800901B
:1050A00042467CA0229BFEF767FEFCF74BF900F519
:1050B000FA775B48AC30017800297DD0417811B196
:1050C00084F8019002E06178012976D1544A504673
:1050D000AC32B2F90210FFF755FE0890B2F9021097
:1050E000012E8A4606D0042E07D0032E08D0022EA9
:1050F00008D00CE04FF4617006E0CDF830A006E077
:10510000694801E04FF4E160FFF73CFE0C90444930
:10511000A03181F80A902078162870D2DFE800F0DC
:105120000BCA256F6F6F6F6F6F6F6FFD6FFCFBFAB0
:10513000F9F8F7F66FF53A48AC30408800F5617041
:1051400000B26081B0F5E16F02DDA0F561606081C1
:105150000220207028990DA830F821102791289955
:1051600000EB81004088269048E22D48269AAC301A
:1051700013B2B0F90610B0F904000993279A12B2DD
:105180009046FFF71BFE05902548AC30B0F90210A1
:105190000598FFF7F7FD0090299828B14FF4E160DA
:1051A0000099FFF7EFFD00901D484246AC30B0F982
:1051B0000610B0F9040001E072E2F1E3099BFFF789
:1051C0001BFE1748A0308580C5802799F02902D1A1
:1051D0002699EB296BD00099B1F5C87F02DD4FF419
:1051E00048710AE011F5C87F02DA2F49643104E002
:1051F0003C3179295BD3009949000181FEE1ECE360
:1052000000100240001000406406002000440040EE
:105210000048004024000020CDCCCC3D9A99993F15
:10522000900400208C61000873746174653A2564F1
:105230002025642025640A00583A25642C593A2513
:10524000640A0000626967583A25642C62696759EC
:105250003A25640A000000007961773A2564202528
:10526000640A000063763A256420256420256420C2
:1052700025640A00743A25640A0000000010014009
:10528000000C01402564256425642564256425649B
:105290000A000000256425642564256425642564CE
:1052A000256425640A0000007CFCFFFFFFE784F80A
:1052B0000090A3E1FB48269AB0F90610B0F904006B
:1052C00013B20993279A12B29046FFF777FD059023
:1052D000F448B0F902100598FFF754FD00902998A2
:1052E00028B14FF4E1600099FFF74CFD0090ED48C4
:1052F0004246099BB0F90610B0F90400FFF77CFDA7
:10530000804628282DDD009808E0FCE3FCE34FE30D
:105310008AE262E241E221E2CEE1F8E0B0F5167FF6
:105320001CDA10F5167F19DDFBF79EF9DE4ADF4B1C
:10533000FBF71DF98046019100F036FE0022DC4BA0
:10534000FBF7A3F8FBF7BAF9D6490C398880404639
:105350000199FFF797FB0022D54B53E00220207004
:10536000CAE0B8F10A0F25DD0098FBF77DF9CE4AB7
:10537000CE4BFBF7FCF8CDE9020100F015FECDE9BC
:105380002201C8EB08104000FBF76EF9DDE922238B
:1053900080460191FBF779F8FBF790F9C1490C3988
:1053A0008880DDE90201FFF76DFB02460B464046AF
:1053B000019927E0B8F1040F2EDD0098FBF754F9AE
:1053C000B94ABA4BFBF7D3F8CDE9020100F0ECFD86
:1053D000CDE92201C8EB08104000FBF745F9009029
:1053E000DDE922238846FBF750F8FBF767F9AD4962
:1053F0000C398880DDE90201FFF744FB02460B46C9
:1054000041460098FBF741F8FBF758F9A5490C39DC
:10541000C880084605816FE0022020702898401C53
:10542000C0B22890132802D90020289065702798D0
:105430002C280ED0162810D0122814D028281FD0BF
:105440005D2827D0E6282FD0E0283CD00F2840D078
:1054500048E026982A2839D044E02698382841D1B7
:105460004FF4C86108E02698A0F58071013939D160
:1054700000204FF47A7129900420FEF7D7F931E02B
:105480002698BE282ED10B2020700426701F07906E
:10549000304612E02698F02824D10B2020700120FD
:1054A00003260790062008E0269866281AD10B20CC
:1054B000207006200226079001200690FBF742FB91
:1054C000FFF7AAFA0EE0269811280BD101202990A7
:1054D00008E02698112805D14FF4C8610420FEF792
:1054E000A5F9657028990DA830F821102791289901
:1054F00000EB810040882690299800287ED06948DA
:105500000C38818849428180C188494224E1DFF812
:105510009481B8F9200000F13101632910D20C996F
:1055200011F1780F0CDD78290ADAA8F10C014FF49B
:105530009662CA800BF1010202F0FF0B800004E0CA
:10554000584900EB80000C39CD8088800C984200CF
:105550000898BBF1060F00EB400002EB4000088109
:1055600001D1FFF787FA20790028C7D06079002899
:10557000C4D0BBF1050F41D94FF0000BFFF766FA1D
:105580000D202070012E06D0022E07D0032E08D049
:10559000042E0BD00EE00698401C04E00798401E35
:1055A00006E00698401E40B2069003E00798401CB3
:1055B00040B207904FF480513E48FBF7B9FEE8B384
:1055C0005FF0000002904FF400513A48FBF7B0FE44
:1055D000A8B3002001904FF480413648FBF7A8FEA5
:1055E00070B300200299890001EB40010198014449
:1055F0002C482F91C27A521CD2B200E0ECE1837A9F
:1056000090F809C05B1C0CF1010CDBB20CF0FF0C34
:10561000CDE90221CDE900C3007A401CC3B206984F
:10562000401CC2B22E90079800F1010808F0FF015B
:10563000F0B2FEF775F8FF2809D026E001E002E09D
:1056400003E00120BEE70120C4E70120CAE7FBF721
:1056500079FA14482F99C27A837A90F809C0521CBB
:105660005B1C0CF1010CD2B2DBB20CF0FF0CCDE9EB
:105670000221CDE900C3007A08F0FF01401CC3B24B
:105680002E98C2B2F0B2FEF74BF808B12A90B0E300
:10569000042EFCD10F202A9001202B900148057088
:1056A000B1E300003C05002048E17A14AEE78140F8
:1056B00000C0924000100140FD4AB2F9200000F104
:1056C0003B0177291FD20C9911F1780F1BDD782946
:1056D00019DA2A990B2910D0A2F10C03FA21D980EA
:1056E0008100F3480C3881800C994B00089901EB3C
:1056F000410103EB4101018113E0ED494FF4966351
:105700000C39CB80ECE7EA4900EB80000C39CD8006
:1057100088800C984300089800EB400003EB4000A1
:105720000881A07808B1E07828B9A0790028AED027
:10573000E0790028ABD0FFF76FF9DD480C388580A1
:10574000C5800581B2F9021005912A9921702A9924
:105750000B299CD14FF49661C1804AE3D44A4FF69D
:1057600050300C3AD24B10810598B3F90210FFF774
:1057700009FBB0F5FA7F01DDCE481081B3F90210C4
:105780000598FFF7FFFAB0F5487FE6DD1581761C36
:105790001EE02070FFF740F92BE3C54A4FF49660F6
:1057A0000C3AC34B10810598B3F90210FFF7EAFADF
:1057B00010F5FA7F02DA4FF4FA701081B3F9021093
:1057C0000598FFF7DFFA10F5487FC6DA1581761ED7
:1057D0002B9876B230B31520DBE7B54A4FF49660CC
:1057E0000C3AB34B10810598B3F90210FFF7CAFACF
:1057F00010F5AF6F02DA4FF4FA701081B3F90210AE
:105800000598FFF7BFFA40F2A461C84207DBB3F97D
:1058100002100598FFF7B6FAB0F5617F9DDD15819E
:10582000B61CD5E70B20B4E7207950B1A07940B180
:10583000259830B9BBF1070F03D901202590FFF758
:10584000F9F8DFF86C82B8F9240000F127014F293C
:105850002ED20C9911F1780F2ADD782928DA2599B2
:1058600089B1A8F10C016FF0F9028A80249902290C
:1058700003D0491C49B224910DE00BF1010101F064
:10588000FF0B0021F7E78A4A8B490C3A91800BF114
:10589000010101F0FF0B810085480C38C1800C9993
:1058A0004A00089901EB410102EB410101810DE041
:1058B0007F4900EB80000C398D80C8800C98420035
:1058C000089800EB400002EB40000881BBF1080F94
:1058D00001D1FFF7C7F8259800287DD0207A08B1BC
:1058E000607A28B960790028F7D0E0790028F4D0F0
:1058F000BBF1070F70D900202490FFF78DF800202E
:10590000834625906A480C38012E8580C580058124
:1059100006D0022E07D0032E08D0042E0BD00EE0A6
:105920000798401E04E00698401E06E00798401CB9
:1059300040B2079003E00698401C40B206904FF436
:1059400080715E48FBF7F4FC58B3002002904FF4DE
:1059500080415A48FBF7ECFC30B3002001904FF433
:1059600000415648FBF7E4FC00B30020C100029858
:1059700001EB8001019801EB40014D482F91C27A63
:10598000837A521C90F809C05B1C0CF1010CD2B256
:10599000DBB20CF0FF0CCDE90221CDE900C3C7E179
:1059A0003AE2FFE70120D1E70120D7E70120DDE758
:1059B000607950B1E07940B1259830B9BBF1070F5B
:1059C00003D901202590FFF735F8DFF8E480B8F916
:1059D000240000F1270101E0C5E009E24F292ED2A1
:1059E0000C9911F1780F2ADD782928DA259981B1EF
:1059F000A8F10C02FA2191802499022903D0491CB4
:105A000049B224910EE00BF1010101F0FF0B0021DE
:105A1000F7E7274A4FF448710C3A91800BF10101E6
:105A200001F0FF0B810022480C38C1800C994A001C
:105A3000089901EB410102EB410101810DE01C4994
:105A400000EB80000C398D80C8800C9842000898CB
:105A500000EB400002EB40000881BBF1080F01D1D0
:105A6000FFF700F8259800287DD0207A08B1607AE9
:105A700028B920790028F7D0A0790028F4D0BBF10C
:105A8000070F70D900202490FEF7C6FF0020834640
:105A9000259007480C38012E8580C58005810FD0E0
:105AA000022E10D0032E11D0042E14D017E00000C7
:105AB0003C0500200CFEFFFFE0FCFFFF0010014052
:105AC0000798401C04E00698401C06E00798401E1A
:105AD00040B2079003E00698401E40B206904FF493
